S0150000534F4C5554494F4E5F76312E312E737265632D
S2140000000C94347C0C9452F20C947DF20C94A8F26E
S2140000100C94D3F20C94FEF20C9429F30C9454F343
S2140000200C947FF30C9464FA0C9464FA0C9464FABF
S2140000300C94657C0C94657C0C94657C0C94657CB7
S2140000400C94657C0C94657C0C94657C0C94657CA7
S2140000500C94657C0C94657C0C94657C0C94AAF3DB
S2140000600C94657C0C9400EE0C9436EE0C94657C37
S2140000700C94657C0C94657C0C94657C0C94657C77
S2140000800C94657C0C94657C0C94657C0C94657C67
S2140000900C9495EE0C94CBEE0C94657C0C94657CDD
S2140000A00C94657C0C94657C0C94657C0C94657C47
S2140000B00C94657C0C94657C0C94657C0C94657C37
S2140000C00C94657C0C94657C0C94657C0C942AEFEF
S2140000D00C9460EF0C94657C0C94BFEF0C94F5EFD9
S2140000E00C94657C97889A889D88A088A388A688A3
S2140000F0A988AC88AF88B288B588B888BB88BE881F
S214000100C188C488C788CA88CD88D088EB88EE881E
S214000110F188F488F788FA88FD88008903890689BB
S21400012009890C890F89D388D688D988DC88DF8826
S214000130E288E588E8881296159618961B961E960D
S2140001402196249627969B9D9E9DA19DA49DA79D46
S214000150AA9DAD9DB09DC39DC69DC99DCC9DCF9DBE
S214000160D29DD59DD89DA79EAC9EB19EB69EBB9EA9
S214000170C09EC59ECA9ECF9ED49ED99EDE9EE39EFE
S214000180E89EED9EF29EF79EFC9E019F069F0B9FAB
S214000190109F159F89A5E3A47FA520A6A1A5B9A5B4
S2140001A0D1A520A620A620A620A6E9A520A695A52E
S2140001B031A584A520A6ADA5C5A5DDA5F5A520A6D7
S2140001C020A620A620A601A60FA6B4B6BCB6C4B626
S2140001D0BEB6B6B6D4B6C0B6B8B6D4B6C2B6BAB65A
S2140001E040B748B750B74AB742B7A9B74CB744B7B5
S2140001F0A9B74EB746B752B758B760B768B762B731
S2140002005AB7A9B764B75CB7A9B766B75EB76AB797
S21400021073B77BB783B77DB775B7A9B77FB777B71F
S214000220A9B781B779B785B78EB796B79EB798B78F
S21400023090B7A9B79AB792B7A9B79CB794B7A0B723
S214000240FCC5FFC502C605C608C60BC60EC611C647
S214000250C9E64DE869E885E85BE877E893E8E8E60C
S214000260A2E8A5E8A8E8ABE8AEE8B1E8E0E8F1E87F
S21400027002E913E9F1E824E935E944E96DE9F1E832
S214000280F1E853E95CE92CF2F6F1FEF10AF217F216
S21400029038F245F20CF50FF5FEF402F508F546F5D2
S2140002A013F517F51DF521F525F52BF52FF533F587
S2140002B046F539F53DF541F5DB01E101B901F501FA
S2140002C0F501F501CD01B701DB01B701D701B70193
S2140002D0F101F101C101C101B901E901E901B90169
S2140002E0F101B701F501DF01B701B701B701B701A9
S2140002F0B701C301B701B701EB01D901EF01CB018B
S214000300C901C901AF01DD01B501C501F301E30172
S214000310C701ED01B301B301EF01D301D301EF0132
S214000320E501CF01AD01BF01AB01B101BB01D501B4
S214000330D101BD01E701F70105A84CCDB2D44EB9F5
S2140003403836A9020C50B9918688083CA6AAAA2A73
S214000350BE000000803F0D94B51A0D94630C0D94FA
S214000360E10C0D94BB1C0D941D180D94DB130D941D
S21400037093060D94DE050D94E21B0D9415200D9446
S214000380E6190D9459060D9481060D94430F0D94AD
S21400039068150D944F0B0D94440A0D940B060D949E
S2140003A01D190D94BB1E0D9413210D94741D0D94F0
S2140003B02E060D948E080D9499050D94360E0D9408
S2140003C067060D94B7050D94A0110D9414170D949F
S2140003D029200D94BE060D942C070D9441160D94FD
S2140003E077090D943C060D9434110D94F4050D9484
S2140003F0DB0F00407A10F35A00A0724E1809001066
S214000400A5D4E80000E87648170000E40B54020084
S21400041000CA9A3B000000E1F505000080969800AF
S214000420000040420F000000A086010000001027D8
S21400043000000000E8030000000064000000000068
S2140004400A00000000000100000000002C76D8889A
S214000450DC674F0823DFC1DFAE59E1B1B796E5E3AD
S214000460E453C63AE651997696E8E6C28426EB89C6
S2140004708C9B62ED407C6FFCEFBC9C9F40F2BAA563
S2140004806FA5F490055A2AF75C936B6CF9676DC1FB
S2140004901BFCE0E40D47FEF520E6B500D0ED902EFF
S2140004A00300943577050080841E080000204E0A5D
S2140004B0000000C80C333333330F986E128311419B
S2140004C0EF8D2114893BE65516CFFEE6DB18D18466
S2140004D04B381BF77C1D901DA4BBE424203284728D
S2140004E05E228100C9F124ECA1E53D271010205FB3
S2140004F000000000000000000000000000000000F7
S21400050000000000000000000000000000000000E6
S21400051000000000020002000200020002000200CA
S21400052002000200020002000000020000000000BC
S21400053000000000024002400240024000000000AE
S21400054000000000000000000000000000000000A6
S2140005500000000002400240048004803FE0048067
S214000560090009003FE00900120012000000000028
S2140005700000010003C0052009200900090007004B
S21400058001C0012001200920054003800100000071
S214000590000000001C102220222022402240229C24
S2140005A01CA20122022202220422041C00000000D7
S2140005B00000000001C0022002200220014003804B
S2140005C00480084808500820043003C800000000D3
S2140005D00000000000800080008000800000000016
S2140005E00000000000000000000000000000000006
S2140005F000000100020002000400040004000400E1
S21400060004000400040002000200010000000000D4
S21400061000000200010001000080008000800080D1
S2140006200080008000800100010002000000000041
S21400063000000000000000000180018009901FF803
S21400064003E003C006600620000000000000000073
S2140006500000000000000000000000800080008015
S21400066007F000800080008000000000000000000E
S2140006700000000000000000000000000000000075
S21400068000000000000000800080008000000000E5
S2140006900000000000000000000000000000000055
S2140006A007C000000000000000000000000000007E
S2140006B00000000000000000000000000000000035
S2140006C000000000000000000080000000000000A5
S2140006D00000000000200040004000400080008035
S2140006E0008001000100010002000200000000007E
S2140006F0000000000380044008200820082008208E
S214000700082008200820082004400380000000007D
S21400071000000000004000C00140024000400040D1
S2140007200040004000400040004000400000000044
S2140007300000000003C00440082000200020004005
S214000740004000800100020004000FE000000000EE
S2140007500000000003800440084000400080038042
S21400076000400020002008200C400380000000000D
S21400077000000000004000C001400140024002406E
S214000780044008400FF00040004000400000000019
S2140007900000000001F801000100020003E0021062
S2140007A00008000800080208011000E00000000031
S2140007B00000000003800460082008000B800C4046
S2140007C008200820082008200440038000000000BD
S2140007D00000000003F80010001000200020004079
S2140007E000400040004000800080008000000000C4
S2140007F00000000000E0011002080208011000E0FE
S2140008000110020802080208011000E000000000C3
S214000810000000000380044008200820082008206C
S214000820046003A0002008200440078000000000A9
S2140008300000000000000080000000000000000033
S2140008400000000000000080000000000000000023
S2140008500000000000000080000000000000000013
S2140008600000000000000080008000800000000003
S2140008700000000000000010006001800600080074
S214000880060001800060001000000000000000006C
S214000890000000000000000000000FF00000000054
S2140008A000000FF000000000000000000000000044
S2140008B00000000000000400030000C00030000834
S2140008C0003000C00300040000000000000000002C
S2140008D0000000000380044008200820002000409C
S2140008E0008001000100010000000100000000007F
S2140008F0000003C00C301010134824C8288828882D
S214000900289027E01008083007C00000000000000C
S2140009100000000001000280028004400440044001
S21400092008200FE01010101020082008000000001B
S214000930000000000FE008100808080808100FF074
S214000940081008080808080808100FE00000000053
S2140009500000000003E0041008081000100010005B
S2140009601000100010000808041003E0000000004B
S214000970000000001FC010201010100810081008FB
S214000980100810081008101010201FC000000000EB
S214000990000000000FF808000800080008000FF02C
S2140009A0080008000800080008000FF80000000013
S2140009B0000000000FF008000800080008000FE024
S2140009C008000800080008000800080000000000F2
S2140009D00000000001E002100408080008000800FB
S2140009E0087C080408040408021001E00000000067
S2140009F000000000080808080808080808080FF89B
S214000A000808080808080808080808080000000081
S214000A1000000000008000800080008000800080D1
S214000A2000800080008000800080008000000000C1
S214000A3000000000002000200020002000200020F1
S214000A400020002008200820044007800000000046
S214000A5000000000080808100820084008800980E8
S214000A600A400C20082008100810080800000000A3
S214000A700000000008000800080008000800080041
S214000A80080008000800080008000FE0000000004A
S214000A90000000002008301830182828282824488D
S214000AA02448248822882288210821080000000083
S214000AB00000000008080C080A080A080908088848
S214000AC008880848082808280818080800000000B1
S214000AD00000000003C004200810100810081008CA
S214000AE01008100810080810042003C000000000BA
S214000AF0000000000FE008100808080808080810A2
S214000B000FE00800080008000800080000000000C9
S214000B100000000003C00420081010081008100889
S214000B2010081008100808D8043003D80000000089
S214000B30000000000FE00810080808080808081061
S214000B400FE00840082008200810080800000000F1
S214000B500000000003E004100808080004000380FA
S214000B600070000808080808041003E000000000F1
S214000B70000000000FF800800080008000800080E9
S214000B800080008000800080008000800000000060
S214000B9000000000080808080808080808080808F0
S214000BA00808080808080808041003E00000000009
S214000BB000000000080808080410041004100220B2
S214000BC0022002200140014000800080000000005A
S214000BD00000000020822182114411441144114477
S214000BE00A280A280A280A28041004100000000010
S214000BF0000000001010082004400440028001009D
S214000C000280044004400820101020080000000065
S214000C1000000000080804100410022001400140F3
S214000C2000800080008000800080008000000000BF
S214000C300000000007F800100020002000400080A0
S214000C40008001000200020004000FF8000000000F
S214000C500000038002000200020002000200020000
S214000C6002000200020002000200020003800000F0
S214000C70000000000200010001000100008000806A
S214000C8000800040004000400020002000000000DF
S214000C9000000380008000800080008000800080CC
S214000CA000800080008000800080008003800000BC
S214000CB00000010002800280044004400440082036
S214000CC0000000000000000000000000000000001F
S214000CD0000000000000000000000000000000000F
S214000CE0000000000000000000000000FFFF000001
S214000CF0000000000100008000000000000000006E
S214000D0000000000000000000000000000000000DE
S214000D10000000000000000003C00420082000E0DF
S214000D20072008200820086007A000000000000038
S214000D3000000800080008000B800C40082008206F
S214000D400820082008200C400B800000000000004F
S214000D500000000000000000038004400820080097
S214000D60080008000820044003800000000000007F
S214000D70000000200020002003A0046008200820B7
S214000D80082008200820046003A0000000000000DF
S214000D900000000000000000038004400820082037
S214000DA00FE0080008200440038000000000000058
S214000DB0000000C00100010003C0010001000100A6
S214000DC00100010001000100010000000000000019
S214000DD000000000000003A004600820082008208F
S214000DE008200820046003A00020084007800000B8
S214000DF000000800080008000BC00C20082008208F
S214000E000820082008200820082000000000000015
S214000E1000000000010000000000010001000100C9
S214000E2001000100010001000100000000000000B8
S214000E3000000000008000000000008000800080AD
S214000E40008000800080008000800080008003001A
S214000E500000040004000400041004200440048081
S214000E600580064004200420041000000000000056
S214000E7000000080008000800080008000800080ED
S214000E8000800080008000800080000000000000DD
S214000E9000000000000000002E70318821082108A4
S214000EA02108210821082108210800000000000070
S214000EB000000000000000000BC00C2008200820E6
S214000EC00820082008200820082000000000000055
S214000ED000000000000000000380044008200820F6
S214000EE008200820082004400380000000000000BE
S214000EF000000000000000000B800C4008200820C6
S214000F000820082008200C400B8008000800080075
S214000F10000000000000000003A004600820082075
S214000F20082008200820046003A0002000200020DD
S214000F30000000000000000002E0030002000200C3
S214000F400200020002000200020000000000000092
S214000F50000000000000000003C00420040004009D
S214000F6003C000200020042003C000000000000092
S214000F70000001000100010003C0010001000100A3
S214000F80010001000100010001C000000000000097
S214000F9000000000000000000820082008200820AC
S214000FA0082008200820086007A0000000000000B5
S214000FB00000000000000000082008200440044054
S214000FC004400280028001000100000000000000D2
S214000FD00000000000000000210821081290129076
S214000FE01450145014500820082000000000000080
S214000FF0000000000000000008200440028002807C
S214001000010002800280044008200000000000006A
S214001010000000000000000008200820082004400F
S214001020044004C0028002800100010002000C009F
S214001030000000000000000007F000200040004014
S214001040008001000100020007F000000000000020
S21400105000C00100010001000100010001000600BF
S21400106001000100010001000100010000C00000B5
S214001070008000800080008000800080008000806B
S214001080008000800080008000800080008000805B
S21400109003000080008000800080008000800060E8
S2140010A00080008000800080008000800300000038
S2140010B000000000078808F00000000000000000A4
S2140010C0000000000000000000000000000000001B
S2140010D05245414420434F4D42494E4154494F4E9C
S2140010E03B004F4646207469706B612D3E004F4EA4
S2140010F0207469706B612D3E006E756C6C007374A5
S2140011006F70206F6E2D3E0000C8C80102350128A2
S21400111001010202022902010202032A030102025D
S214001120042B04010202052C05010202062D06010D
S2140011300202072E07010202082F080102020930E8
S214001140090102020A310A0102020B320B010202F5
S2140011500C330C0102020D340D0102020E350E0195
S21400116002020F360F010202103710010202113878
S21400117011010202123912010202133A130102028D
S214001180143B14010202153C15010202163D16011D
S2140011900202173E17010202183F18010202194008
S2140011A0190102021A411A0102021B421B01020225
S2140011B01C431C0102021D441D0102021E451E01A5
S2140011C002021F461F010202204720010202214898
S2140011D021010205224922010205234A23010205B4
S2140011E0244B24010205254C25010205264D260127
S2140011F00205274E2701020A284F2801020A295015
S2140012002901020A2A512A01020A2B522B01020A3C
S2140012102C532C01020A2D54C801020B2E55C8016E
S214001220020B2F56C801020B3057C801020B31586B
S214001230C801020B325AC801020B33FFC80405016D
S21400124034FFC804050135FFC804050136FFC8068B
S214001250070437FFC806070438FFC806070439FF27
S214001260C80809033AFFC80809033BFFC808090372
S2140012703CFFC80A0B073DFFC80A0B073EFFC80A1B
S2140012800B073FFFC80C0D0840FFC80C0D0841FFB8
S214001290C80C0D0842FFC80E0F0643FFC80E0F0607
S2140012A044FFC80E0F0645FFC810110C46FFC810B5
S2140012B0110C47FFC810110C48FFC810110C49FF4D
S2140012C0C810110C4AFFC810110C4BFFC810110CA7
S2140012D04CFFC810110C4DFFC81011054EFFC8106A
S2140012E011054FFFC810110550FFC810110551FF1A
S2140012F0C810110552FFC810110553FFC808090C85
S21400130054FFC806070C55FFC80E0F0C56FFC8043E
S214001310050D57FFC804050D2073617665642076B9
S214001320616C3A002076616C75653A00206D6178D4
S214001330207469636B3A006D696E207469636B3A5A
S21400134000656D70747900434841524143544552DC
S21400135000434841524143544552000920204E550F
S2140013604D5F544553545F4409000920204E554DA7
S2140013705F544553545F430900092020204E554DC5
S2140013805F544553545F4209000920204E554D5F77
S214001390544553545F41090009204E554D5F656E14
S2140013A05F75730900424C554500475245454E004F
S2140013B05245440009204E554D5F77686974655F55
S2140013C0626C61636B090009204E554D5F67656E60
S2140013D05F766F6C756D65090009204E554D5F632D
S2140013E072657363656E646F090009204E554D5F24
S2140013F06F7267616E090041424F5554005448456C
S2140014004D450009204E554D5F455155414C09004C
S21400141009204E554D5F54554E494E470900092048
S2140014204E554D5F524F4D414E54494309000920D9
S2140014304E554D5F6D656D5F62616E6B0900094EBE
S214001440554D5F5354594C45090009204E554D5F84
S214001450686973745F74656D706572616D656E74CE
S2140014600900545646204355544F464600545646A7
S214001470205245534F4E004C4556454C004C454671
S214001480542D524947485400444543415900504161
S2140014904E00094E554D5F6761696E5F515F686922
S2140014A067680900780048494748007800482D4D8D
S2140014B049440045510078004C2D4D4944007800C1
S2140014C078004C4F5700444550544800524154450C
S2140014D00053454E44204C564C00444C592046453B
S2140014E045444241434B0050524544454C41590007
S2140014F05245564552422054494D450050524520CB
S2140015004C50460054595045004C4556454C0053E7
S214001510454E44204C564C00444C592046454544C4
S2140015204241434B0050524544454C4159005245B8
S214001530564552422054494D4500505245204C5085
S214001540460054595045004C4556454C004D414EBA
S21400155055414C204949004D414E55414C204900CB
S21400156009204E554D5F686973745F74656D7065CC
S21400157072616D656E745F3109005452414E53506E
S2140015804F534500494E544F4E4154494F4E004D1F
S214001590454D2042414E4B00455155414C495A4518
S2140015A052005452454D554C414E54005554494CEA
S2140015B04954590052455645524200484953542012
S2140015C054454D50005452414E53504F53450053CE
S2140015D054594C45530043525F4C424C00455850BA
S2140015E05F4C424C0045585031004558500043521D
S2140015F0005A3A005256414C005245564552423A1D
S214001600005456414C005452414E53504F53453AA5
S21400161000434F4D42494E4154494F4E005A2043D5
S2140016204F4D4200564F4C554D450009204E554DE6
S2140016305F564F4C554D455F534C49444552090043
S214001640094E554D5F656E7465725F6D656E750902
S21400165000010055640F0F000F0F0F0F0F0003015E
S2140016602406040F00007F01007F0003022CB70A47
S2140016700F000F0F0F0F0F0003030F3C070F000F95
S2140016800F0100E80003040819090F000F0F0F0FE1
S2140016900F0003180887090F000F0F0F0F0F000326
S2140016A006AA87091E000F0F0F0F0F00030708A5D5
S2140016B0090F000F0F0F0F0F000308AAA5091F0040
S2140016C00F0F0F0F0F00030908C3090F000F0F0FAE
S2140016D00F0F00030AFE83040F00007F01007F0047
S2140016E0030CEF83040F00007F01007F00030C0350
S2140016F083040F00007F01007F00030D0EA30A0F76
S214001700000F0F0F0F0F00030EF5A30A0F000F0FA9
S2140017100F0F0F00010F052B0F0F010F0F010F0FFB
S21400172000011005530F0F010F0F010F0F000111DD
S214001730057B0F0F010F0F010F0F00011205A30FFE
S2140017400F010F0F010F0F00011305030F0F010FFD
S2140017500F010F0F000114052B0F0F010F0F010FC4
S2140017600F000115A0030F0F010F0F010F0F00014F
S2140017701605CB0F0F010F0F010F0F000117A02B3F
S2140017800F0F010F0F010F0F00021805030D1E01AA
S214001790000C01000C00023D05030D260100160199
S2140017A0001600011A05030F0F010F0F010F0F009F
S2140017B0011B052B0F0F010F0F010F0F00021C0559
S2140017C003031F0100FF01007F00021D051C03200C
S2140017D00100FF01007F00021E053503210100FF06
S2140017E001007F00021F054E03230100FF01007F5A
S2140017F0000220056703250100FF01007F0002218B
S214001800058003240100FF01007F000222059903E2
S2140018102A0100FF01007F0002230503032C0100BC
S214001820FF01007F000224051C032D0100FF0100BC
S2140018307F0002250535032E0100FF01007F000210
S21400184026054E03300100FF0100FF000227056752
S21400185003320100FF01007F0002280580033101EA
S21400186000FF01007F000229059903330100FF01F4
S214001870007F00022A050303270100FF01007F0006
S214001880022B051C03290100FF01007F00022C002B
S2140018900A0E3D01007F01007F00022D000A0F3E68
S2140018A001007F01007F00022E500A103F01007EDB
S2140018B001007E00022F500A0E4101007F01007FCA
S2140018C0000230500A0F4001007F01007F00023105
S2140018D0050A103C010004010004000232A00A0EB2
S2140018E04401007F01007F000233A00A0F4301007D
S2140018F07F01007F000234F00A0E4701007F0100DE
S2140019007F000235F00A0F4601007F01007F0002CB
S21400191036A00A104801007E01007E00013705034C
S2140019200F0F010F0F0F0F0F000238050317B80136
S214001930007F01007F000239054E036D01007F0124
S214001940007F00023A0567036E01007F01007F00FA
S214001950023B0580036F01007F01007F00023C050B
S21400196099037001007F01007F00023D050314719A
S21400197001001601001600023E0503117201007FE9
S21400198001007F00023F0503162201000701000741
S214001990000240052B007401007F01007F00024119
S2140019A00553007501007F01007F000142057B00A2
S2140019B076010F0F0F0F0F00014305030F0F010FE6
S2140019C00F0F0F0F000144052B0F0F010F0F0F0F06
S2140019D00F000145057B0177010F0F0F0F0F000267
S2140019E04605A3017801007F01007F00024705CB72
S2140019F0017901007F01007F0002480503157A0186
S214001A0000040100040002490544037B01007F0135
S214001A10007F00024A055D037C01007F01007F0015
S214001A20024B0576037D01007F01007F00024C0516
S214001A3003120F00007F01007F00024D05350D7B6D
S214001A4001007F01007F00024E054E0D7C01007FE5
S214001A5001007F00024F05670D7D01007F01007FBA
S214001A6000025005800D7D01007F01007F000251BD
S214001A7005B203380100FF01007F00025205B203E1
S214001A80390100FF01007F00015355640F0F000F5E
S214001A900F0F0F0F00656D70747900534348414C6B
S214001AA04D45490054524D4F50204841524D4F4EDF
S214001AB04951004F424F45004641474F5400544558
S214001AC0525A4520322F33004D495854555220342F
S214001AD04600464C4147454F4C4554004E41534105
S214001AE054005452415645525320464C55544500D6
S214001AF047454947454E205052494E5A4950414C59
S214001B0000564F5820434F454C45535449530047C1
S214001B10414D424500504F5254554E414C20464C84
S214001B204F5445005045442054524F4D504554455F
S214001B3000504F5341554E4500504544204D49589E
S214001B402032460043484F52414C424153530042D4
S214001B50415353464C4F5445004F4B544156424117
S214001B6053530053554242415353005052494E5A24
S214001B702042415353203136004B52554D484F5268
S214001B804E00534841524620334600504943434F87
S214001B904C4F004C415249474F540047454D53481F
S214001BA04F524E005155494E544500524F485246EA
S214001BB04C4F5445005052455354414E5420340027
S214001BC0424F5244554E203800434C4152494F4EE6
S214001BD020340054524F4D504554452038004D494E
S214001BE058545552203546005052494E5A49504195
S214001BF04C2032005155494E544500535049545AD2
S214001C00464C4F5445004F4B5441564520340053E4
S214001C10414C4943494F4E414C00464C5554452093
S214001C204841524D4F005052494E5A4950414C205F
S214001C303800424F5244554E20313600203A20009C
S214001C4073746174653A2000204279746500203C04
S214001C502D206964203A3A66726565206D656D2DA3
S214001C603E200000081018202830380109111921DC
S214001C70293139020A121A222A323A030B131B237D
S214001C802B333B040C141C242C343C050D151D254D
S214001C902D353D060E161E262E363E070F171F271D
S214001CA02F373F07060504030201000F0E0D0C0B2D
S214001CB00A090817161514131211101F1E1D1C1BD7
S214001CC01A191827262524232221202F2E2D2C2BC7
S214001CD02A292837363534333231303F3E3D3C3BB7
S214001CE03A393847464544434241404F4E4D4C4BA7
S214001CF04A494857565554535251505F5E5D5C5B97
S214001D005A595867666564636261606F6E6D6C6B86
S214001D106A696877767574737271707F7E7D7C7B76
S214001D207A79780000000100020003000400050034
S214001D30060007010001010102010301040105017B
S214001D400601070200020102020203020402050263
S214001D50060207030003010302030303040305034B
S214001D600603070400040104020403040404050433
S214001D70060407050005010502050305040505051B
S214001D800605070600060106020603060406050603
S214001D9006060707000701070207030704070507EB
S214001DA006070708000801080208030804080508D3
S214001DB006080709000901090209030904090509BB
S214001DC00609070A000A010A020A030A040A050AA3
S214001DD0060A070B000B010B020B030B040B050B8B
S214001DE0060B070C000C010C020C037465737420C0
S214001DF0003230313720414343454E540042554966
S214001E004C443A2044454D4F2056455253494F4E78
S214001E102056312E3200534F4654574152452056D5
S214001E20455253494F4E2056312E325F32303137AD
S214001E305F3130313800414343454E5420434F4EC6
S214001E4054524F4C4C4552002D20323300484953D3
S214001E50542E2054454D503A004F5247414E495358
S214001E605400434845434B2053455454494E47532A
S214001E7021004F5247414E4953543A38004F52477B
S214001E80414E4953543A37004F5247414E495354F6
S214001E903A36004F5247414E4953543A35004F5256
S214001EA047414E4953543A34004F5247414E4953E6
S214001EB0543A33004F5247414E4953543A32004F3A
S214001EC05247414E4953543A31002D203500535461
S214001ED0594C453A005448454D4520350054484530
S214001EE04D452034005448454D4520330054484560
S214001EF04D452032005448454D452031002D2035B3
S214001F00005448454D453A005448454D4520350057
S214001F105448454D452034005448454D452033002F
S214001F205448454D452032005448454D4520310023
S214001F3051002D455100485A002D3132644200644C
S214001F4042004741494E002B31326442003C005467
S214001F5052414E53504F53450020792D3E20006E7F
S214001F60616D652069643A006E69206761002054DF
S214001F7052414E53504F53453A2000204D414E5546
S214001F80414C3A20002056454C4F3A20004B4559CC
S214001F9020002056414C55453E20004551552041D5
S214001FA04444524553533E002056414C55453E202E
S214001FB00045515520414444524553533E007265F6
S214001FC0766572622000205452414E53504F53455E
S214001FD03A20002056454C4F3A20004B45592000E9
S214001FE04B455920002043483A20002053544F5078
S214001FF02069643A20005043204D494449206F75BB
S214002000743A20000C000C000400060002000A00CF
S2140020100000080004000000080004000000EDFFB7
S214002020FBFFFAFFF5FFFEFFF4FFFDFFF8FFF8FFEA
S214002030FCFFF7FF0000F6FFFCFFFAFFF3FFFEFFD2
S214002040F4FF0000F8FFF8FFFCFFF2FF0000F6FFC9
S214002050F9FFFAFFF2FFFEFFF6FFFDFFF8FFF6FFBF
S214002060FCFFF4FF0000F6FF0400FAFFF2FFFEFF9D
S214002070F6FF0200F8FFFBFFFCFFF4FF0000F6FF90
S2140020800400FAFFF2FFFEFFF6FF0200F8FFFBFF78
S214002090FCFFF3FF0000F9FFFEFFFDFFF8FF010065
S2140020A0F7FFFFFFFBFFFBFFFFFFF8FF0000F6FF59
S2140020B0FCFFFAFFF3FFFEFFF4FF0000F8FFF8FF57
S2140020C0FCFFF2FF0000F8FF0000FCFFF6FF000038
S2140020D0F6FF0000FAFFFBFFFEFFF6FF0000F2FF30
S2140020E0FCFF0600F8FF0C00F4FFFEFFF0FFFAFF0F
S2140020F00400F6FF0000F3FF00000800F6FF0300F0
S214002100F6FF0000F0FFFBFF0600F6FF0000F6FFFC
S214002110F8FFFAFFF6FFFEFFF4FFFCFFF8FFF4FF00
S214002120FCFFF8FF0000F2FFFBFF0200F6FF0200D4
S214002130F3FFFEFFFEFFF8FF0200F4FF0000F4FFCF
S214002140EEFFEDFFF2FFFEFFFDFF0200F6FFF0FFE1
S214002150EFFFF4FF00000200040006000800FEFF88
S214002160000002000400060008000A00000000004C
S214002170040000000800FEFF000002000000060049
S21400218000000A000000E8FFF9FF0A00F2FF030063
S214002190EBFFFDFFE5FFF6FF0500EFFF0000F6FF93
S2140021A0FCFFFAFFF8FFFEFFF4FFFEFFF8FFFAFF62
S2140021B0FCFFF6FF000001000000FDFFFEFFF9FF38
S2140021C0FCFFFFFF0300FDFFF1FFF7FF0000ECFF41
S2140021D0FBFF0600F4FF0200EEFFFFFFEBFFF7FF3A
S2140021E00100F1FF0000EDFFFAFF0700F4FF030017
S2140021F0EFFFFDFFECFFF7FF0500F1FF000000001A
S21400220004000000F2FFFEFF000002000000F0FFE6
S214002210F4FF0200020002000200020002000200B8
S21400222002000200020002000200574552434B4DD6
S2140022304549535445522032004B454C4C45544179
S2140022404C2031393737004B454C4C4554414C20D7
S21400225031393636004B49524E4245524745522098
S21400226033004B49524E4245524745522032004BAE
S21400227049524E42455247455220310042494C4C45
S21400228045544552204F5247454C004241434B204F
S214002290574F4C54454D502E00424143482042492A
S2140022A04C4C455445520053494C4245524D414EC4
S2140022B020320053494C4245524D414E2031005782
S2140022C04552434B4D454953544552005343484CA1
S2140022D049434B0047414E41535349004752414DF5
S2140022E0415448414555530050595441474F524177
S2140022F0530050524145544F52494F5553004A4F90
S214002300554E4700484F204348454E4720544849BD
S214002310454E004D495454454C204D5552494F5258
S21400232047004D495454454C544F454E4947004E7E
S21400233041545545524C494353204841524D4F2E27
S21400234000455155414C006865616470686F6E6564
S214002350206571756C697A6572204F46460068651F
S214002360616470686F6E65206571756C697A6572F8
S214002370204F4E0020204F55543A002076616C3294
S2140023803A0056414C554520313A00434845434BA8
S2140023902053455454494E475321004F5247414E0F
S2140023A04953543A38004F5247414E4953543A37EE
S2140023B0004F5247414E4953543A36004F52474118
S2140023C04E4953543A35004F5247414E4953543ABA
S2140023D034004F5247414E4953543A33004F524708
S2140023E0414E4953543A32004F5247414E49535496
S2140023F03A31004C4F4144494E472E2E2E00005293
S214002400455354415254210052455354415254218D
S21400241000003A3A454550524F4D20707265706143
S214002420726500636F6D70696C6520646174653AEF
S21400243020005E5E5E5E5E5E5E5E5E5E5E5E5E5E53
S2140024405E5E5E5E5E5E5E5E5E5E5E5E5E5E5E5EA7
S21400245052455354415254006E756C6C0073746F41
S21400246070206F6E2D3E0000030101010104010182
S2140024700102050101010306010101040701010132
S2140024800503020101060402010107050201010815
S2140024900602010109070201010A080201010B00F8
S2140024A00201030C000201030D000201030E0002EC
S2140024B001030F00020103100002010311000201D4
S2140024C003120002010313000201031403030102B6
S2140024D0150403010216050301021706030102187C
S2140024E00703010219080301021A090301021B036C
S2140024F00401021C040401021D050401021E060458
S21400250001021F070401022008040102210801023B
S214002510062209010206230B010206240C0102060C
S214002520250D010206260E010206271001020628C6
S2140025300F010206C829000000C82A000000C82BA8
S214002540000000C82C000000C82D000000C82E00A7
S2140025500000C82F000000C830000000C83100008E
S21400256000C832000000C833000000C83400000075
S214002570C835000002C83600000337C8C8C8C8738C
S2140025806574202030006572726F72210049442005
S214002590627574746E20666F6F742D3E006275747B
S2140025A0746E203130303A2000627574746E2031BB
S2140025B0303A200066697273742072656164007335
S2140025C0746F70206F6E3A3A20007265667265739B
S2140025D068206E6F74650072657365742064657339
S2140025E0656C656374006C6F636174696F6E3A2026
S2140025F00073657474657220636F6D623A200074B0
S214002600752076729E652076656E00627574746EAF
S214002610206D696E75733A2000203B6C696E6B20E6
S21400262049443A20002049443A200073746F7020D1
S21400263073746174653A20006C6F636174696F6EC1
S2140026403A200073657474657220636F6D623A2079
S2140026500073656D2070726964650070697365202B
S2140026606E617072656A00203B3B6C696E6B204938
S214002670443A20002049443A200073746F70207357
S214002680746174653A2000627574746E20706C759F
S214002690733A200020636F6D20646573656C656314
S2140026A074007072696465206D333A0070726964F4
S2140026B065206D323A00627574746E3A0053455464
S2140026C00073656D20707269646520330073656DF4
S2140026D020707269646520320073656D20707269BF
S2140026E0646520310073656D2070726964652078BA
S2140026F0310073656D20300000000000000000000F
S214002700000000000A0B02090C0D0E080703040166
S21400271000000000000000000000000000000000B4
S2140027200000000000000000000000000000121181
S2140027301000000000000000000000000000000084
S2140027400000000000000000000000000000000084
S2140027500000000000000000010210202008081001
S21400276020401020408002010201080402010102FC
S21400277004081020408080402010080402018004D5
S2140027800201804020100804020108040201010230
S214002790040810204080010204081020408004082D
S2140027A0102040800480081004408010204005055A
S2140027B00505070508080808020202020A0A0808B2
S2140027C004040404010101010101010103030303E0
S2140027D003030303040707070C0C0C0C0C0C0C0C6F
S2140027E00202020206060606060606060B0B0B0B80
S2140027F00B0B0B0B0A0A0A0A0A0A08080707050544
S21400280005040404000020002300260029002C00F4
S2140028102F0032000001000003010601090100003C
S2140028202200250028002B002E0031003400020173
S2140028300000050108010B0100002100240027000C
S2140028402A002D00300033000101000004010701BA
S2140028500A012E012E022E102E2034202E08820869
S2140028608210822082402510252025402580850262
S2140028708501820282012B082B042B022B012201E8
S21400288022022204220822102220224022802880AF
S21400289028402820281028082804280228012B80F1
S2140028A03404340234018B808B408B208B108B08D1
S2140028B08B048B028B012508250425022501310196
S2140028C03102310431083110312031403180880125
S2140028D08802880488088810882088408880FFFF3F
S2140028E0FFFFFFFFFFFFFFFFFFFFFFFFFFFFFFFFF3
S2140028F0FFFFFFFFFFFFFFFFFFFFFFFFFFFFFFFFE3
S214002900FFFFFFFFFFFFFFFFFFFFFFFFFFFFFFFFD2
S214002910FFFFFFFFFFFFFFFFFFFFFFFFFFFFFFFFC2
S214002920FFFFFFFFFFFFFFFFFFFFFFFFFFFFFFFFB2
S214002930FFFFFFFFFFFFFFFFFFFFFFFFFFFFFFFFA2
S214002940FFFFFFFFFFFFFFFFFFFFFFFFFFFFFFFF92
S214002950FFFFFFFFFFFFFFFFFFFFFFFFFFFFFFFF82
S214002960FFFFFFFFFFFFFFFFFFFFFFFFFFFFFFFF72
S214002970FFFFFFFFFFFFFFFFFFFFFFFFFFFFFFFF62
S214002980FFFFFFFFFFFFFFFFFFFFFFFFFFFFFFFF52
S214002990FFFFFFFFFFFFFFFFFFFFFFFFFFFFFFFF42
S2140029A0FFFFFFFFFFFFFFFFFFFFFFFFFFFFFFFF32
S2140029B0FFFFFFFFFFFFFFFFBACE7595FFFFFFFF8C
S2140029C0FFFFFFFFFFFFFFFFFFFFFFFFFFFFFFFF12
S2140029D0FFFFFFFFFFFFFFFFFFFFFFFFFFFFFFFF02
S2140029E0FFFFFFFFFFFFFFFFFFFFFFFFFFFFFFFFF2
S2140029F0FFFFFFFFFFFFFFFFFFFFFFFFFFFFFFFFE2
S214002A00FFFFFFFFFFFFFFFFFFFFFFFFFFFFFFFFD1
S214002A10FFFFFFFFFFFFFFFFFFFFFFFFFFFFFFFFC1
S214002A20FFFFFFFFFFFFFFFFFFFFFFFFFFFFFFFFB1
S214002A30FFFFFFFFFFFFFFFFFFFFFFFFFFFFFFFFA1
S214002A40FFFFFFFFFFFFFFFFFFFFFFFFFFFFFFFF91
S214002A50FFFFFFFFFFFFFFFFFFFFFFFFFFFFFFFF81
S214002A60FFFFFFFFFFFFFFFFFFFFFFFFFFFFFFFF71
S214002A70FFFFFFFFFFFFFFFFFFFFFFFFFFFFFFFF61
S214002A80FFFFFFFFFFFFFFFFFFFFFFFFFFFFFFFF51
S214002A90FFFFFFFFFFFFFFFFFFFFFFFFFFFFFFFF41
S214002AA0FFFFFFFFFFFFFFFFFFFFFFFFFFFFFFFF31
S214002AB0FFFFFFFFFFFFFFFFFFFFFFFFFFFFFFFF21
S214002AC0FFFFFFFFFFFFFFFFFFFFFFFFFFFFFFFF11
S214002AD0FFFFFFFFFFFFFFFFFFFFFFFFFFFFFFFF01
S214002AE0FFFFFFFFFFFFFFFFFFFFFFFFFFFFFFFFF1
S214002AF0FFFFFFFFFFFFFFFFFFFFFFFFFFFFFFFFE1
S214002B00FFFFFFFFFFFFFFFFFFFFFFFFFFFFFFFFD0
S214002B10FFFFFFFFFFFFFFFFFFFFFFFFFFFFFFFFC0
S214002B20FFFFFFFFFFFFFFFFFFFFFFFFFFFFFFFFB0
S214002B30FFFFFFFFFFFFFFFFFFFFFFFFFFFFFFFFA0
S214002B40FFFFFFFFFFFFFFFFFFFFFFFFFFFFFFFF90
S214002B50FFFFFFFFFFFFFFFF9EF72C3B2812959D10
S214002B60FFFFFFFFFFFFFFFFFFFFFFFFFFFFFFFF70
S214002B70FFFFFFFFFFFFFFFFFFFFFFFFFFFFFFFF60
S214002B80FFFFFFFFFFFFFFFFFFFFFFFFFFFFFFFF50
S214002B90FFFFFFFFFFFFFFFFFFFFFFFFFFFFFFFF40
S214002BA0FFFFFFFFFFFFFFFFFFFFFFFFFFFFFFFF30
S214002BB0FFFFFFFFFFFFFFFFFFFFFFFFFFFFFFFF20
S214002BC0FFFFFFFFFFFFFFFFFFFFFFFFFFFFFFFF10
S214002BD0FFFFFFFFFFFFFFFFFFFFFFFFFFFFFFFF00
S214002BE0FFFFFFFFFFFFFFFFFFFFFFFFFFFFFFFFF0
S214002BF0FFFFFFFFFFFFFFFFFFFFFFFFFFFFFFFFE0
S214002C00FFFFFFFFFFFFFFFFFFFFFFFFFFFFFFFFCF
S214002C10FFFFFFFFFFFFFFFFFFFFFFFFFFFFFFFFBF
S214002C20FFFFFFFFFFFFFFFFFFFFFFFFFFFFFFFFAF
S214002C30FFFFFFFFFFFFFFFFFFFFFFFFFFFFFFFF9F
S214002C40FFFFFFFFFFFFFFFFFFFFFFFFFFFFFFFF8F
S214002C50FFFFFFFFFFFFFFFFFFFFFFFFFFFFFFFF7F
S214002C60FFFFFFFFFFFFFFFFFFFFFFFFFFFFFFFF6F
S214002C70FFFFFFFFFFFFFFFFFFFFFFFFFFFFFFFF5F
S214002C80FFFFFFFFFFFFFFFFFFFFFFFFFFFFFFFF4F
S214002C90FFFFFFFFFFFFFFFFFFFFFFFFFFFFFFFF3F
S214002CA0FFFFFFFFFFFFFFFFFFFFFFFFFFFFFFFF2F
S214002CB0FFFFFFFFFFFFFFFFFFFFFFFFFFFFFFFF1F
S214002CC0FFFFFFFFFFFFFFFFFFFFFFFFFFFFFFFF0F
S214002CD0FFFFFFFFFFFFFFFFFFFFFFFFFFFFFFFFFF
S214002CE0FFFFFFFFFFFFFFFFFFFFFFFFFFFFFFFFEF
S214002CF0FFFFFFFFFFFFFFFFFFFF5DE7AA2248126F
S214002D00B274FFFFFFFFFFFFFFFFFFFFFFFFFFFFA6
S214002D10FFFFFFFFFFFFFFFFFFFFFFFFFFFFFFFFBE
S214002D20FFFFFFFFFFFFFFFFFFFFFFFFFFFFFFFFAE
S214002D30FFFFFFFFFFFFFFFFFFFFFFFFFFFFFFFF9E
S214002D40FFFFFFFFFFFFFFFFFFFFFFFFFFFFFFFF8E
S214002D50FFFFFFFFFFFFFFFFFFFFFFFFFFFFFFFF7E
S214002D60FFFFFFFFFFFFFFFFFFFFFFFFFFFFFFFF6E
S214002D70FFFFFFFFFFFFFFFFFFFFFFFFFFFFFFFF5E
S214002D80FFFFFFFFFFFFFFFFFFFFFFFFFFFFFFFF4E
S214002D90FFFFFFFFFFFFFFFFFFFFFFFFFFFFFFFF3E
S214002DA0FFFFFFFFFFFFFFFFFFFFFFFFFFFFFFFF2E
S214002DB0FFFFFFFFFFFFFFFFFFFFFFFFFFFFFFFF1E
S214002DC0FFFFFFFFFFFFFFFFFFFFFFFFFFFFFFFF0E
S214002DD0FFFFFFFFFFFFFFFFFFFFFFFFFFFFFFFFFE
S214002DE0FFFFFFFFFFFFFFFFFFFFFFFFFFFFFFFFEE
S214002DF0FFFFFFFFFFFFFFFFFFFFFFFFFFFFFFFFDE
S214002E00FFFFFFFFFFFFFFFFFFFFFFFFFFFFFFFFCD
S214002E10FFFFFFFFFFFFFFFFFFFFFFFFFFFFFFFFBD
S214002E20FFFFFFFFFFFFFFFFFFFFFFFFFFFFFFFFAD
S214002E30FFFFFFFFFFFFFFFFFFFFFFFFFFFFFFFF9D
S214002E40FFFFFFFFFFFFFFFFFFFFFFFFFFFFFFFF8D
S214002E50FFFFFFFFFFFFFFFFFFFFFFFFFFFFFFFF7D
S214002E60FFFFFFFFFFFFFFFFFFFFFFFFFFFFFFFF6D
S214002E70FFFFFFFFFFFFFFFFFFFFFFFFFFFFFFFF5D
S214002E80FFFFFFFFFFFFFFFFFFFFFFFFFFFFFFFF4D
S214002E90FFFFFFFFFFFFFFFFFFFFFFFF5DE7AA2229
S214002EA04812B27CFFFFFFFFFFFFFFFFFFFFFFFFA1
S214002EB0FFFFFFFFFFFFFFFFFFFFFFFFFFFFFFFF1D
S214002EC0FFFFFFFFFFFFFFFFFFFFFFFFFFFFFFFF0D
S214002ED0FFFFFFFFFFFFFFFFFFFFFFFFFFFFFFFFFD
S214002EE0FFFFFFFFFFFFFFFFFFFFFFFFFFFFFFFFED
S214002EF0FFFFFFFFFFFFFFFFFFFFFFFFFFFFFFFFDD
S214002F00FFFFFFFFFFFFFFFFFFFFFFFFFFFFFFFFCC
S214002F10FFFFFFFFFFFFFFFFFFFFFFFFFFFFFFFFBC
S214002F20FFFFFFFFFFFFFFFFFFFFFFFFFFFFFFFFAC
S214002F30FFFFFFFFFFFFFFFFFFFFFFFFFFFFFFFF9C
S214002F40FFFFFFFFFFFFFFFFFFFFFFFFFFFFFFFF8C
S214002F50FFFFFFFFFFFFFFFFFFFFFFFFFFFFFFFF7C
S214002F60FFFFFFFFFFFFFFFFFFFFFFFFFFFFFFFF6C
S214002F70FFFFFFFFFFFFFFFFFFFFFFFFFFFFFFFF5C
S214002F80FFFFFFFFFFFFFFFFFFFFFFFFFFFFFFFF4C
S214002F90FFFFFFFFFFFFFFFFFFFFFFFFFFFFFFFF3C
S214002FA0FFFFFFFFFFFFFFFFFFFFFFFFFFFFFFFF2C
S214002FB0FFFFFFFFFFFFFFFFFFFFFFFFFFFFFFFF1C
S214002FC0FFFFFFFFFFFFFFFFFFFFFFFFFFFFFFFF0C
S214002FD0FFFFFFFFFFFFFFFFFFFFFFFFFFFFFFFFFC
S214002FE0FFFFFFFFFFFFFFFFFFFFFFFFFFFFFFFFEC
S214002FF0FFFFFFFFFFFFFFFFFFFFFFFFFFFFFFFFDC
S214003000FFFFFFFFFFFFFFFFFFFFFFFFFFFFFFFFCB
S214003010FFFFFFFFFFFFFFFFFFFFFFFFFFFFFFFFBB
S214003020FFFFFFFFFFFFFFFFFFFFFFFFFFFFFFFFAB
S214003030FFFFFFFFFFFFFFFFFFFFFFFFFFFF5DE755
S214003040AA224812B27CFFFFFFFFFFFFFFFFFFFF31
S214003050FFFFFFFFFFFFFFFFFFFFFFFFFFFFFFFF7B
S214003060FFFFFFFFFFFFFFFFFFFFFFFFFFFFFFFF6B
S214003070FFFFFFFFFFFFFFFFFFFFFFFFFFFFFFFF5B
S214003080FFFFFFFFFFFFFFFFFFFFFFFFFFFFFFFF4B
S214003090FFFFFFFFFFFFFFFFFFFFFFFFFFFFFFFF3B
S2140030A0FFFFFFFFFFFFFFFFFFFFFFFFFFFFFFFF2B
S2140030B0FFFFFFFFFFFFFFFFFFFFFFFFFFFFFFFF1B
S2140030C0FFFFFFFFFFFFFFFFFFFFFFFFFFFFFFFF0B
S2140030D0FFFFFFFFFFFFFFFFFFFFFFFFFFFFFFFFFB
S2140030E0FFFFFFFFFFFFFFFFFFFFFFFFFFFFFFFFEB
S2140030F0FFFFFFFFFFFFFFFFFFFFFFFFFFFFFFFFDB
S214003100FFFFFFFFFFFFFFFFFFFFFFFFFFFFFFFFCA
S214003110FFFFFFFFFFFFFFFFFFFFFFFFFFFFFFFFBA
S214003120FFFFFFFFFFFFFFFFFFFFFFFFFFFFFFFFAA
S214003130FFFFFFFFFFFFFFFFFFFFFFFFFFFFFFFF9A
S214003140FFFFFFFFFFFFFFFFFFFFFFFFFFFFFFFF8A
S214003150FFFFFFFFFFFFFFFFFFFFFFFFFFFFFFFF7A
S214003160FFFFFFFFFFFFFFFFFFFFFFFFFFFFFFFF6A
S214003170FFFFFFFFFFFFFFFFFFFFFFFFFFFFFFFF5A
S214003180FFFFFFFFFFFFFFFFFFFFFFFFFFFFFFFF4A
S214003190FFFFFFFFFFFFFFFFFFFFFFFFFFFFFFFF3A
S2140031A0FFFFFFFFFFFFFFFFFFFFFFFFFFFFFFFF2A
S2140031B0FFFFFFFFFFFFFFFFFFFFFFFFFFFFFFFF1A
S2140031C0FFFFFFFFFFFFFFFFFFFFFFFFFFFFFFFF0A
S2140031D0FFFFFFFFFFFFFFFFFFFFFFFFFFFFFFFFFA
S2140031E05DE7AA224812B27CFFFFFFFFFFFFFFFF4A
S2140031F0FFFFFFFFFFFFFFFFFFFFFFFFFFFFFFFFDA
S214003200FFFFFFFFFFFFFFFFFFFFFFFFFFFFFFFFC9
S214003210FFFFFFFFFFFFFFFFFFFFFFFFFFFFFFFFB9
S214003220FFFFFFFFFFFFFFFFFFFFFFFFFFFFFFFFA9
S214003230FFFFFFFFFFFFFFFFFFFFFFFFFFFFFFFF99
S214003240FFFFFFFFFFFFFFFFFFFFFFFFFFFFFFFF89
S214003250FFFFFFFFFFFFFFFFFFFFFFFFFFFFFFFF79
S214003260FFFFFFFFFFFFFFFFFFFFFFFFFFFFFFFF69
S214003270FFFFFFFFFFFFFFFFFFFFFFFFFFFFFFFF59
S214003280FFFFFFFFFFFFFFFFFFFFFFFFFFFFFFFF49
S214003290FFFFFFFFFFFFFFFFFFFFFFFFFFFFFFFF39
S2140032A0FFFFFFFFFFFFFFFFFFFFFFFFFFFFFFFF29
S2140032B0FFFFFFFFFFFFFFFFFFFFFFFFFFFFFFFF19
S2140032C0FFFFFFFFFFFFFFFFFFFFFFFFFFFFFFFF09
S2140032D0FFFFFFFFFFFFFFFFFFFFFFFFFFFFFFFFF9
S2140032E0FFFFFFFFFFFFFFFFFFFFFFFFFFFFFFFFE9
S2140032F0FFFFFFFFFFFFFFFFFFFFFFFFFFFFFFFFD9
S214003300FFFFFFFFFFFFFFFFFFFFFFFFFFFFFFFFC8
S214003310FFFFFFFFFFFFFFFFFFFFFFFFFFFFFFFFB8
S214003320FFFFFFFFFFFFFFFFFFFFFFFFFFFFFFFFA8
S214003330FFFFFFFFFFFFFFFFFFFFFFFFFFFFFFFF98
S214003340FFFFFFFFFFFFFFFFFFFFFFFFFFFFFFFF88
S214003350FFFFFFFFFFFFFFFFFFFFFFFFFFFFFFFF78
S214003360FFFFFFFFFFFFFFFFFFFFFFFFFFFFFFFF68
S214003370FFFFFFFFFFFFFFFFFFFFFFFFFFFFFFFF58
S214003380FFFF5DE7AA224812B27CFFFFFFFFFFFFA8
S214003390FFFFFFFFFFFFFFFFFFFFFFFFFFFFFFFF38
S2140033A0FFFFFFFFFFFFFFFFFFFFFFFFFFFFFFFF28
S2140033B0FFFFFFFFFFFFFFFFFFFFFFFFFFFFFFFF18
S2140033C0FFFFFFFFFFFFFFFFFFFFFFFFFFFFFFFF08
S2140033D0FFFFFFFFFFFFFFFFFFFFFFFFFFFFFFFFF8
S2140033E0FFFFFFFFFFFFFFFFFFFFFFFFFFFFFFFFE8
S2140033F0FFFFFFFFFFFFFFFFFFFFFFFFFFFFFFFFD8
S214003400FFFFFFFFFFFFFFFFFFFFFFFFFFFFFFFFC7
S214003410FFFFFFFFFFFFFFFFFFFFFFFFFFFFFFFFB7
S214003420FFFFFFFFFFFFFFFFFFFFFFFFFFFFFFFFA7
S214003430FFFFFFFFFFFFFFFFFFFFFFFFFFFFFFFF97
S214003440FFFFFFFFFFFFFFFFFFFFFFFFFFFFFFFF87
S214003450FFFFFFFFFFFFFFFFFFFFFFFFFFFFFFFF77
S214003460FFFFFFFFFFFFFFFFFFFFFFFFFFFFFFFF67
S214003470FFFFFFFFFFFFFFFFFFFFFFFFFFFFFFFF57
S214003480FFFFFFFFFFFFFFFFFFFFFFFFFFFFFFFF47
S214003490FFFFFFFFFFFFFFFFFFFFFFFFFFFFFFFF37
S2140034A0FFFFFFFFFFFFFFFFFFFFFFFFFFFFFFFF27
S2140034B0FFFFFFFFFFFFFFFFFFFFFFFFFFFFFFFF17
S2140034C0FFFFFFFFFFFFFFFFFFFFFFFFFFFFFFFF07
S2140034D0FFFFFFFFFFFFFFFFFFFFFFFFFFFFFFFFF7
S2140034E0FFFFFFFFFFFFFFFFFFFFFFFFFFFFFFFFE7
S2140034F0FFFFFFFFFFFFFFFFFFFFFFFFFFFFFFFFD7
S214003500FFFFFFFFFFFFFFFFFFFFFFFFFFFFFFFFC6
S214003510FFFFFFFFFFFFFFFFFFFFFFFFFFFFFFFFB6
S214003520FFFFFFFF5DE7AA224812B27CFFFFFFFF06
S214003530FFFFFFFFFFFFFFFFFFFFFFFFFFFFFFFF96
S214003540FFFFFFFFFFFFFFFFFFFFFFFFFFFFFFFF86
S214003550FFFFFFFFFFFFFFFFFFFFFFFFFFFFFFFF76
S214003560FFFFFFFFFFFFFFFFFFFFFFFFFFFFFFFF66
S214003570FFFFFFFFFFFFFFFFFFFFFFFFFFFFFFFF56
S214003580FFFFFFFFFFFFFFFFFFFFFFFFFFFFFFFF46
S214003590FFFFFFFFFFFFFFFFFFFFFFFFFFFFFFFF36
S2140035A0FFFFFFFFFFFFFFFFFFFFFFFFFFFFFFFF26
S2140035B0FFFFFFFFFFFFFFFFFFFFFFFFFFFFFFFF16
S2140035C0FFFFFFFFFFFFFFFFFFFFFFFFFFFFFFFF06
S2140035D0FFFFFFFFFFFFFFFFFFFFFFFFFFFFFFFFF6
S2140035E0FFFFFFFFFFFFFFFFFFFFFFFFFFFFFFFFE6
S2140035F0FFFFFFFFFFFFFFFFFFFFFFFFFFFFFFFFD6
S214003600FFFFFFFFFFFFFFFFFFFFFFFFFFFFFFFFC5
S214003610FFFFFFFFFFFFFFFFFFFFFFFFFFFFFFFFB5
S214003620FFFFFFFFFFFFFFFFFFFFFFFFFFFFFFFFA5
S214003630FFFFFFFFFFFFFFFFFFFFFFFFFFFFFFFF95
S214003640FFFFFFFFFFFFFFFFFFFFFFFFFFFFFFFF85
S214003650FFFFFFFFFFFFFFFFFFFFFFFFFFFFFFFF75
S214003660FFFFFFFFFFFFFFFFFFFFFFFFFFFFFFFF65
S214003670FFFFFFFFFFFFFFFFFFFFFFFFFFFFFFFF55
S214003680FFFFFFFFFFFFFFFFFFFFFFFFFFFFFFFF45
S214003690FFFFFFFFFFFFFFFFFFFFFFFFFFFFFFFF35
S2140036A0FFFFFFFFFFFFFFFFFFFFFFFFFFFFFFFF25
S2140036B0FFFFFFFFFFFFFFFFFFFF5DE7969DDBD6E7
S2140036C0FFFFFFFFFFFF5DE7AA224812B27CFFFF65
S2140036D0FFFFFFFFFFFFFFFFFFFFFFFFFFFFFFFFF5
S2140036E0FFFFFFFFFFFFFFFFFFFFFFFFFFFFFFFFE5
S2140036F0FFFFFFFFFFFFFFFFFFFFFFFFFFFFFFFFD5
S214003700FFFFFFFFFFFFFFFFFFFFFFFFFFFFFFFFC4
S214003710FFFFFFFFFFFFFFFFFFFFFFFFFFFFFFFFB4
S214003720FFFFFFFFFFFFFFFFFFFFFFFFFFFFFFFFA4
S214003730FFFFFFFFFFFFFFFFFFFFFFFFFFFFFFFF94
S214003740FFFFFFFFFFFFFFFFFFFFFFFFFFFFFFFF84
S214003750FFFFFFFFFFFFFFFFFFFFFFFFFFFFFFFF74
S214003760FFFFFFFFFFFFFFFFFFFFFFFFFFFFFFFF64
S214003770FFFFFFFFFFFFFFFFFFFFFFFFFFFFFFFF54
S214003780FFFFFFFFFFFFFFFFFFFFFFFFFFFFFFFF44
S214003790FFFFFFFFFFFFFFFFFFFFFFFFFFFFFFFF34
S2140037A0FFFFFFFFFFFFFFFFFFFFFFFFFFFFFFFF24
S2140037B0FFFFFFFFFFFFFFFFFFFFFFFFFFFFFFFF14
S2140037C0FFFFFFFFFFFFFFFFFFFFFFFFFFFFFFFF04
S2140037D0FFFFFFFFFFFFFFFFFFFFFFFFFFFFFFFFF4
S2140037E0FFFFFFFFFFFFFFFFFFFFFFFFFFFFFFFFE4
S2140037F0FFFFFFFFFFFFFFFFFFFFFFFFFFFFFFFFD4
S214003800FFFFFFFFFFFFFFFFFFFFFFFFFFFFFFFFC3
S214003810FFFFFFFFFFFFFFFFFFFFFFFFFFFFFFFFB3
S214003820FFFFFFFFFFFFFFFFFFFFFFFFFFFFFFFFA3
S214003830FFFFFFFFFFFFFFFFFFFFFFFFFFFFFFFF93
S214003840FFFFFFFFFFFFFFFFFFFFFFFFFFFFFFFF83
S214003850FFFFFFFFFFFFFFFFFFFFDFF76D432812AD
S214003860CA2ADBCEFFFFFFFF5DE7AA224812B27C22
S214003870FFFFFFFFFFFFFFFFFFFFFFFFFFFFFFFF53
S214003880FFFFFFFFFFFFFFFFFFFFFFFFFFFFFFFF43
S214003890FFFFFFFFFFFFFFFFFFFFFFFFFFFFFFFF33
S2140038A0FFFFFFFFFFFFFFFFFFFFFFFFFFFFFFFF23
S2140038B0FFFFFFFFFFFFFFFFFFFFFFFFFFFFFFFF13
S2140038C0FFFFFFFFFFFFFFFFFFFFFFFFFFFFFFFF03
S2140038D0FFFFFFFFFFFFFFFFFFFFFFFFFFFFFFFFF3
S2140038E0FFFFFFFFFFFFFFFFFFFFFFFFFFFFFFFFE3
S2140038F0FFFFFFFFFFFFFFFFFFFFFFFFFFFFFFFFD3
S214003900FFFFFFFFFFFFFFFFFFFFFFFFFFFFFFFFC2
S214003910FFFFFFFFFFFFFFFFFFFFFFFFFFFFFFFFB2
S214003920FFFFFFFFFFFFFFFFFFFFFFFFFFFFFFFFA2
S214003930FFFFFFFFFFFFFFFFFFFFFFFFFFFFFFFF92
S214003940FFFFFFFFFFFFFFFFFFFFFFFFFFFFFFFF82
S214003950FFFFFFFFFFFFFFFFFFFFFFFFFFFFFFFF72
S214003960FFFFFFFFFFFFFFFFFFFFFFFFFFFFFFFF62
S214003970FFFFFFFFFFFFFFFFFFFFFFFFFFFFFFFF52
S214003980FFFFFFFFFFFFFFFFFFFFFFFFFFFFFFFF42
S214003990FFFFFFFFFFFFFFFFFFFFFFFFFFFFFFFF32
S2140039A0FFFFFFFFFFFFFFFFFFFFFFFFFFFFFFFF22
S2140039B0FFFFFFFFFFFFFFFFFFFFFFFFFFFFFFFF12
S2140039C0FFFFFFFFFFFFFFFFFFFFFFFFFFFFFFFF02
S2140039D0FFFFFFFFFFFFFFFFFFFFFFFFFFFFFFFFF2
S2140039E0FFFFFFFFFFFFFFFFFFFFFFFFFFFFFFFFE2
S2140039F0FFFFFFFFFFFFFFFFFFFFFFFF1CDF691A50
S214003A00691A691A759DFFFFFFFF5DE7AA22481233
S214003A10B27CFFFFFFFFFFFFFFFFFFFFFFFFFFFF81
S214003A20FFFFFFFFFFFFFFFFFFFFFFFFFFFFFFFFA1
S214003A30FFFFFFFFFFFFFFFFFFFFFFFFFFFFFFFF91
S214003A40FFFFFFFFFFFFFFFFFFFFFFFFFFFFFFFF81
S214003A50FFFFFFFFFFFFFFFFFFFFFFFFFFFFFFFF71
S214003A60FFFFFFFFFFFFFFFFFFFFFFFFFFFFFFFF61
S214003A70FFFFFFFFFFFFFFFFFFFFFFFFFFFFFFFF51
S214003A80FFFFFFFFFFFFFFFFFFFFFFFFFFFFFFFF41
S214003A90FFFFFFFFFFFFFFFFFFFFFFFFFFFFFFFF31
S214003AA0FFFFFFFFFFFFFFFFFFFFFFFFFFFFFFFF21
S214003AB0FFFFFFFFFFFFFFFFFFFFFFFFFFFFFFFF11
S214003AC0FFFFFFFFFFFFFFFFFFFFFFFFFFFFFFFF01
S214003AD0FFFFFFFFFFFFFFFFFFFFFFFFFFFFFFFFF1
S214003AE0FFFFFFFFFFFFFFFFFFFFFFFFFFFFFFFFE1
S214003AF0FFFFFFFFFFFFFFFFFFFFFFFFFFFFFFFFD1
S214003B00FFFFFFFFFFFFFFFFFFFFFFFFFFFFFFFFC0
S214003B10FFFFFFFFFFFFFFFFFFFFFFFFFFFFFFFFB0
S214003B20FFFFFFFFFFFFFFFFFFFFFFFFFFFFFFFFA0
S214003B30FFFFFFFFFFFFFFFFFFFFFFFFFFFFFFFF90
S214003B40FFFFFFFFFFFFFFFFFFFFFFFFFFFFFFFF80
S214003B50FFFFFFFFFFFFFFFFFFFFFFFFFFFFFFFF70
S214003B60FFFFFFFFFFFFFFFFFFFFFFFFFFFFFFFF60
S214003B70FFFFFFFFFFFFFFFFFFFFFFFFFFFFFFFF50
S214003B80FFFFFFFFFFFFFFFFFFFFFFFFFFFFFFFF40
S214003B90FFFFFFFFFFFFFFFFFFFFFFFFFFFF1CDF33
S214003BA0891A891A691A759DFFFFFFFF5DE7AA2229
S214003BB04812B27CFFFFFFFFFFFFFFFFFFFFFFFF84
S214003BC0FFFFFFFFFFFFFFFFFFFFFFFFFFFFFFFF00
S214003BD0FFFFFFFFFFFFFFFFFFFFFFFFFFFFFFFFF0
S214003BE0FFFFFFFFFFFFFFFFFFFFFFFFFFFFFFFFE0
S214003BF0FFFFFFFFFFFFFFFFFFFFFFFFFFFFFFFFD0
S214003C00FFFFFFFFFFFFFFFFFFFFFFFFFFFFFFFFBF
S214003C10FFFFFFFFFFFFFFFFFFFFFFFFFFFFFFFFAF
S214003C20FFFFFFFFFFFFFFFFFFFFFFFFFFFFFFFF9F
S214003C30FFFFFFFFFFFFFFFFFFFFFFFFFFFFFFFF8F
S214003C40FFFFFFFFFFFFFFFFFFFFFFFFFFFFFFFF7F
S214003C50FFFFFFFFFFFFFFFFFFFFFFFFFFFFFFFF6F
S214003C60FFFFFFFFFFFFFFFFFFFFFFFFFFFFFFFF5F
S214003C70FFFFFFFFFFFFFFFFFFFFFFFFFFFFFFFF4F
S214003C80FFFFFFFFFFFFFFFFFFFFFFFFFFFFFFFF3F
S214003C90FFFFFFFFFFFFFFFFFFFFFFFFFFFFFFFF2F
S214003CA0FFFFFFFFFFFFFFFFFFFFFFFFFFFFFFFF1F
S214003CB0FFFFFFFFFFFFFFFFFFFFFFFFFFFFFFFF0F
S214003CC0FFFFFFFFFFFFFFFFFFFFFFFFFFFFFFFFFF
S214003CD0FFFFFFFFFFFFFFFFFFFFFFFFFFFFFFFFEF
S214003CE0FFFFFFFFFFFFFFFFFFFFFFFFFFFFFFFFDF
S214003CF0FFFFFFFFFFFFFFFFFFFFFFFFFFFFFFFFCF
S214003D00FFFFFFFFFFFFFFFFFFFFFFFFFFFFFFFFBE
S214003D10FFFFFFFFFFFFFFFFFFFFFFFFFFFFFFFFAE
S214003D20FFFFFFFFFFFFFFFFFFFFFFFFFFFFFFFF9E
S214003D30FFFFFFFFFFFFFFFFFFFFFFFFFFFFFFFF8E
S214003D401CDF891A891A691A759DFFFFFFFF5DE758
S214003D50AA224812B27CFFFFFFFFFFFFFFFFFFFF14
S214003D60FFFFFFFFFFFFFFFFFFFFFFFFFFFFFFFF5E
S214003D70FFFFFFFFFFFFFFFFFFFFFFFFFFFFFFFF4E
S214003D80FFFFFFFFFFFFFFFFFFFFFFFFFFFFFFFF3E
S214003D90FFFFFFFFFFFFFFFFFFFFFFFFFFFFFFFF2E
S214003DA0FFFFFFFFFFFFFFFFFFFFFFFFFFFFFFFF1E
S214003DB0FFFFFFFFFFFFFFFFFFFFFFFFFFFFFFFF0E
S214003DC0FFFFFFFFFFFFFFFFFFFFFFFFFFFFFFFFFE
S214003DD0FFFFFFFFFFFFFFFFFFFFFFFFFFFFFFFFEE
S214003DE0FFFFFFFFFFFFFFFFFFFFFFFFFFFFFFFFDE
S214003DF0FFFFFFFFFFFFFFFFFFFFFFFFFFFFFFFFCE
S214003E00FFFFFFFFFFFFFFFFFFFFFFFFFFFFFFFFBD
S214003E10FFFFFFFFFFFFFFFFFFFFFFFFFFFFFFFFAD
S214003E20FFFFFFFFFFFFFFFFFFFFFFFFFFFFFFFF9D
S214003E30FFFFFFFFFFFFFFFFFFFFFFFFFFFFFFFF8D
S214003E40FFFFFFFFFFFFFFFFFFFFFFFFFFFFFFFF7D
S214003E50FFFFFFFFFFFFFFFFFFFFFFFFFFFFFFFF6D
S214003E60FFFFFFFFFFFFFFFFFFFFFFFFFFFFFFFF5D
S214003E70FFFFFFFFFFFFFFFFFFFFFFFFFFFFFFFF4D
S214003E80FFFFFFFFFFFFFFFFFFFFFFFFFFFFFFFF3D
S214003E90FFFFFFFFFFFFFFFFFFFFFFFFFFFFFFFF2D
S214003EA0FFFFFFFFFFFFFFFFFFFFFFFFFFFFFFFF1D
S214003EB0FFFFFFFFFFFFFFFFFFFFFFFFFFFFFFFF0D
S214003EC0FFFFFFFFFFFFFFFFFFFFFFFFFFFFFFFFFD
S214003ED0FFFFFFFFFFFFFFFFFFFFFFFFFFFFFFFFED
S214003EE0FFFF1CDF891A891A691A759DFFFFFFFFFD
S214003EF05DE7AA224812B27CFFFFFFFFFFFFFFFF2D
S214003F00FFFFFFFFFFFFFFFFFFFFFFFFFFFFFFFFBC
S214003F10FFFFFFFFFFFFFFFFFFFFFFFFFFFFFFFFAC
S214003F20FFFFFFFFFFFFFFFFFFFFFFFFFFFFFFFF9C
S214003F30FFFFFFFFFFFFFFFFFFFFFFFFFFFFFFFF8C
S214003F40FFFFFFFFFFFFFFFFFFFFFFFFFFFFFFFF7C
S214003F50FFFFFFFFFFFFFFFFFFFFFFFFFFFFFFFF6C
S214003F60FFFFFFFFFFFFFFFFFFFFFFFFFFFFFFFF5C
S214003F70FFFFFFFFFFFFFFFFFFFFFFFFFFFFFFFF4C
S214003F80FFFFFFFFFFFFFFFFFFFFFFFFFFFFFFFF3C
S214003F90FFFFFFFFFFFFFFFFFFFFFFFFFFFFFFFF2C
S214003FA0FFFFFFFFFFFFFFFFFFFFFFFFFFFFFFFF1C
S214003FB0FFFFFFFFFFFFFFFFFFFFFFFFFFFFFFFF0C
S214003FC0FFFFFFFFFFFFFFFFFFFFFFFFFFFFFFFFFC
S214003FD0FFFFFFFFFFFFFFFFFFFFFFFFFFFFFFFFEC
S214003FE0FFFFFFFFFFFFFFFFFFFFFFFFFFFFFFFFDC
S214003FF0FFFFFFFFFFFFFFFFFFFFFFFFFFFFFFFFCC
S214004000FFFFFFFFFFFFFFFFFFFFFFFFFFFFFFFFBB
S214004010FFFFFFFFFFFFFFFFFFFFFFFFFFFFFFFFAB
S214004020FFFFFFFFFFFFFFFFFFFFFFFFFFFFFFFF9B
S214004030FFFFFFFFFFFFFFFFFFFFFFFFFFFFFFFF8B
S214004040FFFFFFFFFFFFFFFFFFFFFFFFFFFFFFFF7B
S214004050FFFFFFFFFFFFFFFFFFFFFFFFFFFFFFFF6B
S214004060FFFFFFFFFFFFFFFFFFFFFFFFFFFFFFFF5B
S214004070FFFFFFFFFFFFFFFFFFFFFFFFFFFFFFFF4B
S214004080FFFFFFFF1CDF891A891A691A759DFFFF5B
S214004090FFFF5DE7AA224812B27CFFFFFFFFFFFF8B
S2140040A0FFFFFFFFFFFFFFFFFFFFFFFFFFFFFFFF1B
S2140040B0FFFFFFFFFFFFFFFFFFFFFFFFFFFFFFFF0B
S2140040C0FFFFFFFFFFFFFFFFFFFFFFFFFFFFFFFFFB
S2140040D0FFFFFFFFFFFFFFFFFFFFFFFFFFFFFFFFEB
S2140040E0FFFFFFFFFFFFFFFFFFFFFFFFFFFFFFFFDB
S2140040F0FFFFFFFFFFFFFFFFFFFFFFFFFFFFFFFFCB
S214004100FFFFFFFFFFFFFFFFFFFFFFFFFFFFFFFFBA
S214004110FFFFFFFFFFFFFFFFFFFFFFFFFFFFFFFFAA
S214004120FFFFFFFFFFFFFFFFFFFFFFFFFFFFFFFF9A
S214004130FFFFFFFFFFFFFFFFFFFFFFFFFFFFFFFF8A
S214004140FFFFFFFFFFFFFFFFFFFFFFFFFFFFFFFF7A
S214004150FFFFFFFFFFFFFFFFFFFFFFFFFFFFFFFF6A
S214004160FFFFFFFFFFFFFFFFFFFFFFFFFFFFFFFF5A
S214004170FFFFFFFFFFFFFFFFFFFFFFFFFFFFFFFF4A
S214004180FFFFFFFFFFFFFFFFFFFFFFFFFFFFFFFF3A
S214004190FFFFFFFFFFFFFFFFFFFFFFFFFFFFFFFF2A
S2140041A0FFFFFFFFFFFFFFFFFFFFFFFFFFFFFFFF1A
S2140041B0FFFFFFFFFFFFFFFFFFFFFFFFFFFFFFFF0A
S2140041C0FFFFFFFFFFFFFFFFFFFFFFFFFFFFFFFFFA
S2140041D0FFFFFFFFFFFFFFFFFFFFFFFFFFFFFFFFEA
S2140041E0FFFFFFFFFFFFFFFFFFFFFFFFFFFFFFFFDA
S2140041F0FFFFFFFFFFFFFFFFFFFFFFFFFFFFFFFFCA
S214004200FFFFFFFFFFFFFFFFFFFFFFFFFFFFFFFFB9
S214004210FFFFFFFFFFFFFFFFFFFFFFFFFFFFFFFFA9
S214004220FFFFFFFFFFFF1CDF891A891A691A759DB9
S214004230FFFFFFFF5DE7AA224812B27CFFFFFFFFE9
S214004240FFFFFFFFFFFFFFFFFFFFFFFFFFFFFFFF79
S214004250FFFFFFFFFFFFFFFFFFFFFFFFFFFFFFFF69
S214004260FFFFFFFFFFFFFFFFFFFFFFFFFFFFFFFF59
S214004270FFFFFFFFFFFFFFFFFFFFFFFFFFFFFFFF49
S214004280FFFFFFFFFFFFFFFFFFFFFFFFFFFFFFFF39
S214004290FFFFFFFFFFFFFFFFFFFFFFFFFFFFFFFF29
S2140042A0FFFFFFFFFFFFFFFFFFFFFFFFFFFFFFFF19
S2140042B0FFFFFFFFFFFFFFFFFFFFFFFFFFFFFFFF09
S2140042C0FFFFFFFFFFFFFFFFFFFFFFFFFFFFFFFFF9
S2140042D0FFFFFFFFFFFFFFFFFFFFFFFFFFFFFFFFE9
S2140042E0FFFFFFFFFFFFFFFFFFFFFFFFFFFFFFFFD9
S2140042F0FFFFFFFFFFFFFFFFFFFFFFFFFFFFFFFFC9
S214004300FFFFFFFFFFFFFFFFFFFFFFFFFFFFFFFFB8
S214004310FFFFFFFFFFFFFFFFFFFFFFFFFFFFFFFFA8
S214004320FFFFFFFFFFFFFFFFFFFFFFFFFFFFFFFF98
S214004330FFFFFFFFFFFFFFFFFFFFFFFFFFFFFFFF88
S214004340FFFFFFFFFFFFFFFFFFFFFFFFFFFFFFFF78
S214004350FFFFFFFFFFFFFFFFFFFFFFFFFFFFFFFF68
S214004360FFFFFFFFFFFFFFFFFFFFFFFFFFFFFFFF58
S214004370FFFFFFFFFFFFFFFFFFFFFFFFFFFFFFFF48
S214004380FFFFFFFFFFFFFFFFFFFFFFFFFFFFFFFF38
S214004390FFFFFFFFFFFFFFFFFFFFFFFFFFFFFFFF28
S2140043A0FFFFFFFFFFFFFFFFFFFFFFFFFFFFFFFF18
S2140043B0FFFFFFFFFFFFFFFFFFFFFFFF9EEF79C638
S2140043C09EEFFFFFFFFFFFFF1CDF891A891A691A9D
S2140043D0759DFFFFFFFF5DE7AA224812B27CFFFF34
S2140043E0FFFFFFFFFFFFFFFFFFFFFFFFFFFFFFFFD8
S2140043F0FFFFFFFFFFFFFFFFFFFFFFFFFFFFFFFFC8
S214004400FFFFFFFFFFFFFFFFFFFFFFFFFFFFFFFFB7
S214004410FFFFFFFFFFFFFFFFFFFFFFFFFFFFFFFFA7
S214004420FFFFFFFFFFFFFFFFFFFFFFFFFFFFFFFF97
S214004430FFFFFFFFFFFFFFFFFFFFFFFFFFFFFFFF87
S214004440FFFFFFFFFFFFFFFFFFFFFFFFFFFFFFFF77
S214004450FFFFFFFFFFFFFFFFFFFFFFFFFFFFFFFF67
S214004460FFFFFFFFFFFFFFFFFFFFFFFFFFFFFFFF57
S214004470FFFFFFFFFFFFFFFFFFFFFFFFFFFFFFFF47
S214004480FFFFFFFFFFFFFFFFFFFFFFFFFFFFFFFF37
S214004490FFFFFFFFFFFFFFFFFFFFFFFFFFFFFFFF27
S2140044A0FFFFFFFFFFFFFFFFFFFFFFFFFFFFFFFF17
S2140044B0FFFFFFFFFFFFFFFFFFFFFFFFFFFFFFFF07
S2140044C0FFFFFFFFFFFFFFFFFFFFFFFFFFFFFFFFF7
S2140044D0FFFFFFFFFFFFFFFFFFFFFFFFFFFFFFFFE7
S2140044E0FFFFFFFFFFFFFFFFFFFFFFFFFFFFFFFFD7
S2140044F0FFFFFFFFFFFFFFFFFFFFFFFFFFFFFFFFC7
S214004500FFFFFFFFFFFFFFFFFFFFFFFFFFFFFFFFB6
S214004510FFFFFFFFFFFFFFFFFFFFFFFFFFFFFFFFA6
S214004520FFFFFFFFFFFFFFFFFFFFFFFFFFFFFFFF96
S214004530FFFFFFFFFFFFFFFFFFFFFFFFFFFFFFFF86
S214004540FFFFFFFFFFFFFFFFFFFFFFFFFFFFFFFF76
S214004550FFFFFFFFFFFFFFFFFFFFFFFF9DEF6D4326
S21400456028120B33DFFFFFFFFFFF1CDF891A891AB3
S214004570691A759DFFFFFFFF5DE7AA224812B27C0D
S214004580FFFFFFFFFFFFFFFFFFFFFFFFFFFFFFFF36
S214004590FFFFFFFFFFFFFFFFFFFFFFFFFFFFFFFF26
S2140045A0FFFFFFFFFFFFFFFFFFFFFFFFFFFFFFFF16
S2140045B0FFFFFFFFFFFFFFFFFFFFFFFFFFFFFFFF06
S2140045C0FFFFFFFFFFFFFFFFFFFFFFFFFFFFFFFFF6
S2140045D0FFFFFFFFFFFFFFFFFFFFFFFFFFFFFFFFE6
S2140045E0FFFFFFFFFFFFFFFFFFFFFFFFFFFFFFFFD6
S2140045F0FFFFFFFFFFFFFFFFFFFFFFFFFFFFFFFFC6
S214004600FFFFFFFFFFFFFFFFFFFFFFFFFFFFFFFFB5
S214004610FFFFFFFFFFFFFFFFFFFFFFFFFFFFFFFFA5
S214004620FFFFFFFFFFFFFFFFFFFFFFFFFFFFFFFF95
S214004630FFFFFFFFFFFFFFFFFFFFFFFFFFFFFFFF85
S214004640FFFFFFFFFFFFFFFFFFFFFFFFFFFFFFFF75
S214004650FFFFFFFFFFFFFFFFFFFFFFFFFFFFFFFF65
S214004660FFFFFFFFFFFFFFFFFFFFFFFFFFFFFFFF55
S214004670FFFFFFFFFFFFFFFFFFFFFFFFFFFFFFFF45
S214004680FFFFFFFFFFFFFFFFFFFFFFFFFFFFFFFF35
S214004690FFFFFFFFFFFFFFFFFFFFFFFFFFFFFFFF25
S2140046A0FFFFFFFFFFFFFFFFFFFFFFFFFFFFFFFF15
S2140046B0FFFFFFFFFFFFFFFFFFFFFFFFFFFFFFFF05
S2140046C0FFFFFFFFFFFFFFFFFFFFFFFFFFFFFFFFF5
S2140046D0FFFFFFFFFFFFFFFFFFFFFFFFFFFFFFFFE5
S2140046E0FFFFFFFFFFFFFFFFFFFFFFFFFFFFFFFFD5
S2140046F0FFFFFFFFFFFFFFFFFFFFFFFFFFFF59BEAC
S214004700691A891A281279BEFFFFFFFF1CDF891A73
S214004710891A691A759DFFFFFFFF5DE7AA224812F6
S214004720B27CFFFFFFFFFFFFFFFFFFFFFFFFFFFF64
S214004730FFFFFFFFFFFFFFFFFFFFFFFFFFFFFFFF84
S214004740FFFFFFFFFFFFFFFFFFFFFFFFFFFFFFFF74
S214004750FFFFFFFFFFFFFFFFFFFFFFFFFFFFFFFF64
S214004760FFFFFFFFFFFFFFFFFFFFFFFFFFFFFFFF54
S214004770FFFFFFFFFFFFFFFFFFFFFFFFFFFFFFFF44
S214004780FFFFFFFFFFFFFFFFFFFFFFFFFFFFFFFF34
S214004790FFFFFFFFFFFFFFFFFFFFFFFFFFFFFFFF24
S2140047A0FFFFFFFFFFFFFFFFFFFFFFFFFFFFFFFF14
S2140047B0FFFFFFFFFFFFFFFFFFFFFFFFFFFFFFFF04
S2140047C0FFFFFFFFFFFFFFFFFFFFFFFFFFFFFFFFF4
S2140047D0FFFFFFFFFFFFFFFFFFFFFFFFFFFFFFFFE4
S2140047E0FFFFFFFFFFFFFFFFFFFFFFFFFFFFFFFFD4
S2140047F0FFFFFFFFFFFFFFFFFFFFFFFFFFFFFFFFC4
S214004800FFFFFFFFFFFFFFFFFFFFFFFFFFFFFFFFB3
S214004810FFFFFFFFFFFFFFFFFFFFFFFFFFFFFFFFA3
S214004820FFFFFFFFFFFFFFFFFFFFFFFFFFFFFFFF93
S214004830FFFFFFFFFFFFFFFFFFFFFFFFFFFFFFFF83
S214004840FFFFFFFFFFFFFFFFFFFFFFFFFFFFFFFF73
S214004850FFFFFFFFFFFFFFFFFFFFFFFFFFFFFFFF63
S214004860FFFFFFFFFFFFFFFFFFFFFFFFFFFFFFFF53
S214004870FFFFFFFFFFFFFFFFFFFFFFFFFFFFFFFF43
S214004880FFFFFFFFFFFFFFFFFFFFFFFFFFFFFFFF33
S214004890FFFFFFFFFFFFFFFFFFFFFFFFFFFFFFFF23
S2140048A059BE491A8922481258BEFFFFFFFF1CDF77
S2140048B0891A891A691A759DFFFFFFFF5DE7AA220C
S2140048C04812B27CFFFFFFFFFFFFFFFFFFFFFFFF67
S2140048D0FFFFFFFFFFFFFFFFFFFFFFFFFFFFFFFFE3
S2140048E0FFFFFFFFFFFFFFFFFFFFFFFFFFFFFFFFD3
S2140048F0FFFFFFFFFFFFFFFFFFFFFFFFFFFFFFFFC3
S214004900FFFFFFFFFFFFFFFFFFFFFFFFFFFFFFFFB2
S214004910FFFFFFFFFFFFFFFFFFFFFFFFFFFFFFFFA2
S214004920FFFFFFFFFFFFFFFFFFFFFFFFFFFFFFFF92
S214004930FFFFFFFFFFFFFFFFFFFFFFFFFFFFFFFF82
S214004940FFFFFFFFFFFFFFFFFFFFFFFFFFFFFFFF72
S214004950FFFFFFFFFFFFFFFFFFFFFFFFFFFFFFFF62
S214004960FFFFFFFFFFFFFFFFFFFFFFFFFFFFFFFF52
S214004970FFFFFFFFFFFFFFFFFFFFFFFFFFFFFFFF42
S214004980FFFFFFFFFFFFFFFFFFFFFFFFFFFFFFFF32
S214004990FFFFFFFFFFFFFFFFFFFFFFFFFFFFFFFF22
S2140049A0FFFFFFFFFFFFFFFFFFFFFFFFFFFFFFFF12
S2140049B0FFFFFFFFFFFFFFFFFFFFFFFFFFFFFFFF02
S2140049C0FFFFFFFFFFFFFFFFFFFFFFFFFFFFFFFFF2
S2140049D0FFFFFFFFFFFFFFFFFFFFFFFFFFFFFFFFE2
S2140049E0FFFFFFFFFFFFFFFFFFFFFFFFFFFFFFFFD2
S2140049F0FFFFFFFFFFFFFFFFFFFFFFFFFFFFFFFFC2
S214004A00FFFFFFFFFFFFFFFFFFFFFFFFFFFFFFFFB1
S214004A10FFFFFFFFFFFFFFFFFFFFFFFFFFFFFFFFA1
S214004A20FFFFFFFFFFFFB1EEC7E5C8E590EEFFFF13
S214004A30FFFFFFFFFFFFFFFFFFFFFFFFFFFFFFFF81
S214004A40FFFF59BE691A8922481259BEFFFFFFFFB1
S214004A501CDF891A891A691A759DFFFFFFFF5DE73B
S214004A60AA224812B27CFFFFFFFFFFFFFFFFFFFFF7
S214004A70FFFFFFFFFFFFFFFFFFFFFFFFFFFFFFFF41
S214004A80FFFFFFFFFFFFFFFFFFFFFFFFFFFFFFFF31
S214004A90FFFFFFFFFFFFFFFFFFFFFFFFFFFFFFFF21
S214004AA0FFFFFFFFFFFFFFFFFFFFFFFFFFFFFFFF11
S214004AB0FFFFFFFFFFFFFFFFFFFFFFFFFFFFFFFF01
S214004AC0FFFFFFFFFFFFFFFFFFFFFFFFFFFFFFFFF1
S214004AD0FFFFFFFFFFFFFFFFFFFFFFFFFFFFFFFFE1
S214004AE0FFFFFFFFFFFFFFFFFFFFFFFFFFFFFFFFD1
S214004AF0FFFFFFFFFFFFFFFFFFFFFFFFFFFFFFFFC1
S214004B00FFFFFFFFFFFFFFFFFFFFFFFFFFFFFFFFB0
S214004B10FFFFFFFFFFFFFFFFFFFFFFFFFFFFFFFFA0
S214004B20FFFFFFFFFFFFFFFFFFFFFFFFFFFFFFFF90
S214004B30FFFFFFFFFFFFFFFFFFFFFFFFFFFFFFFF80
S214004B40FFFFFFFFFFFFFFFFFFFFFFFFFFFFFFFF70
S214004B50FFFFFFFFFFFFFFFFFFFFFFFFFFFFFFFF60
S214004B60FFFFFFFFFFFFFFFFFFFFFFFFFFFFFFFF50
S214004B70FFFFFFFFFFFFFFFFFFFFFFFFFFFFFFFF40
S214004B80FFFFFFFFFFFFFFFFFFFFFFFFFFFFFFFF30
S214004B90FFFFFFFFFFFFFFFFFFFFFFFFFFFFFFFF20
S214004BA0FFFFFFFFFFFFFFFFFFFFFFFFFFFFFFFF10
S214004BB0FFFFFFFFFFFFFFFFFFFFFFFFFFFFFFFF00
S214004BC0FFFFFFFFFFFFFFFFA6E5E0D4E0D485DD93
S214004BD0FFFFFFFFFFFFFFFFFFFFFFFFFFFFFFFFE0
S214004BE0FFFFFFFF59BE691A8922481259BEFFFF10
S214004BF0FFFF1CDF891A891A691A759DFFFFFFFFE0
S214004C005DE7AA224812B27CFFFFFFFFFFFFFFFF0F
S214004C10FFFFFFFFFFFFFFFFFFFFFFFFFFFFFFFF9F
S214004C20FFFFFFFFFFFFFFFFFFFFFFFFFFFFFFFF8F
S214004C30FFFFFFFFFFFFFFFFFFFFFFFFFFFFFFFF7F
S214004C40FFFFFFFFFFFFFFFFFFFFFFFFFFFFFFFF6F
S214004C50FFFFFFFFFFFFFFFFFFFFFFFFFFFFFFFF5F
S214004C60FFFFFFFFFFFFFFFFFFFFFFFFFFFFFFFF4F
S214004C70FFFFFFFFFFFFFFFFFFFFFFFFFFFFFFFF3F
S214004C80FFFFFFFFFFFFFFFFFFFFFFFFFFFFFFFF2F
S214004C90FFFFFFFFFFFFFFFFFFFFFFFFFFFFFFFF1F
S214004CA0FFFFFFFFFFFFFFFFFFFFFFFFFFFFFFFF0F
S214004CB0FFFFFFFFFFFFFFFFFFFFFFFFFFFFFFFFFF
S214004CC0FFFFFFFFFFFFFFFFFFFFFFFFFFFFFFFFEF
S214004CD0FFFFFFFFFFFFFFFFFFFFFFFFFFFFFFFFDF
S214004CE0FFFFFFFFFFFFFFFFFFFFFFFFFFFFFFFFCF
S214004CF0FFFFFFFFFFFFFFFFFFFFFFFFFFFFFFFFBF
S214004D00FFFFFFFFFFFFFFFFFFFFFFFFFFFFFFFFAE
S214004D10FFFFFFFFFFFFFFFFFFFFFFFFFFFFFFFF9E
S214004D20FFFFFFFFFFFFFFFFFFFFFFFFFFFFFFFF8E
S214004D30FFFFFFFFFFFFFFFFFFFFFFFFFFFFFFFF7E
S214004D40FFFFFFFFFFFFFFFFFFFFFFFFFFFFFFFF6E
S214004D50FFFFFFFFFFFFFFFFFFFFFFFFFFFFFFFF5E
S214004D60FFFFFFFFFFFFFFFFFFFFC7E500D500D5F2
S214004D70A5DDFFFFFFFFFFFFFFFFFFFFFFFFFFFFBA
S214004D80FFFFFFFFFFFF59BE691A8922481259BE6E
S214004D90FFFFFFFF1CDF891A891A691A759DFFFF3E
S214004DA0FFFF5DE7AA224812B27CFFFFFFFFFFFF6E
S214004DB0FFFFFFFFFFFFFFFFFFFFFFFFFFFFFFFFFE
S214004DC0FFFFFFFFFFFFFFFFFFFFFFFFFFFFFFFFEE
S214004DD0FFFFFFFFFFFFFFFFFFFFFFFFFFFFFFFFDE
S214004DE0FFFFFFFFFFFFFFFFFFFFFFFFFFFFFFFFCE
S214004DF0FFFFFFFFFFFFFFFFFFFFFFFFFFFFFFFFBE
S214004E00FFFFFFFFFFFFFFFFFFFFFFFFFFFFFFFFAD
S214004E10FFFFFFFFFFFFFFFFFFFFFFFFFFFFFFFF9D
S214004E20FFFFFFFFFFFFFFFFFFFFFFFFFFFFFFFF8D
S214004E30FFFFFFFFFFFFFFFFFFFFFFFFFFFFFFFF7D
S214004E40FFFFFFFFFFFFFFFFFFFFFFFFFFFFFFFF6D
S214004E50FFFFFFFFFFFFFFFFFFFFFFFFFFFFFFFF5D
S214004E60FFFFFFFFFFFFFFFFFFFFFFFFFFFFFFFF4D
S214004E70FFFFFFFFFFFFFFFFFFFFFFFFFFFFFFFF3D
S214004E80FFFFFFFFFFFFFFFFFFFFFFFFFFFFFFFF2D
S214004E90FFFFFFFFFFFFFFFFFFFFFFFFFFFFFFFF1D
S214004EA0FFFFFFFFFFFFFFFFFFFFFFFFFFFFFFFF0D
S214004EB0FFFFFFFFFFFFFFFFFFFFFFFFFFFFFFFFFD
S214004EC0FFFFFFFFFFFFFFFFFFFFFFFFFFFFFFFFED
S214004ED0FFFFFFFFFFFFFFFFFFFFFFFFFFFFFFFFDD
S214004EE0FFFFFFFFFFFFFFFFFFFFFFFFFFFFFFFFCD
S214004EF0FFFFFFFFFFFFFFFFFFFFFFFFFFFFFFFFBD
S214004F00FFFFFFFFFFFFFFFFFFFFFFFFC7E500D527
S214004F1000D5A5DDFFFFFFFFFFFFFFFFFFFFFFFF41
S214004F20FFFFFFFFFFFFFFFF59BE691A89224812E5
S214004F3059BEFFFFFFFF1CDF891A891A691A759D83
S214004F40FFFFFFFF5DE7AA224812B27CFFFFFFFFCC
S214004F50FFFFFFFFFFFFFFFFFFFFFFFFFFFFFFFF5C
S214004F60FFFFFFFFFFFFFFFFFFFFFFFFFFFFFFFF4C
S214004F70FFFFFFFFFFFFFFFFFFFFFFFFFFFFFFFF3C
S214004F80FFFFFFFFFFFFFFFFFFFFFFFFFFFFFFFF2C
S214004F90FFFFFFFFFFFFFFFFFFFFFFFFFFFFFFFF1C
S214004FA0FFFFFFFFFFFFFFFFFFFFFFFFFFFFFFFF0C
S214004FB0FFFFFFFFFFFFFFFFFFFFFFFFFFFFFFFFFC
S214004FC0FFFFFFFFFFFFFFFFFFFFFFFFFFFFFFFFEC
S214004FD0FFFFFFFFFFFFFFFFFFFFFFFFFFFFFFFFDC
S214004FE0FFFFFFFFFFFFFFFFFFFFFFFFFFFFFFFFCC
S214004FF0FFFFFFFFFFFFFFFFFFFFFFFFFFFFFFFFBC
S214005000FFFFFFFFFFFFFFFFFFFFFFFFFFFFFFFFAB
S214005010FFFFFFFFFFFFFFFFFFFFFFFFFFFFFFFF9B
S214005020FFFFFFFFFFFFFFFFFFFFFFFFFFFFFFFF8B
S214005030FFFFFFFFFFFFFFFFFFFFFFFFFFFFFFFF7B
S214005040FFFFFFFFFFFFFFFFFFFFFFFFFFFFFFFF6B
S214005050FFFFFFFFFFFFFFFFFFFFFFFFFFFFFFFF5B
S214005060FFFFFFFFFFFFFFFFFFFFFFFFFFFFFFFF4B
S214005070FFFFFFFFFFFFFFFFFFFFFFFFFFFFFFFF3B
S214005080FFFFFFFFFFFFFFFFFFFFFFFFFFFFFFFF2B
S214005090FFFFFFFFFFFFFFFFFFFFFFFFFFFFFFFF1B
S2140050A0FFFFFFFFFFFFFFFFFFFFFFFFFFFFC8E55C
S2140050B000D500D5A6DDFFFFFFFFFFFFFFFFFFFFC8
S2140050C0FFFFFFFFFFFFFFFFFFFF59BE691A8922A0
S2140050D0481259BEFFFFFFFF1CDF891A891A691A9A
S2140050E0759DFFFFFFFF5DE7AA224812B27CFFFF17
S2140050F0FFFFFFFFFFFFFFFFFFFFFFFFFFFFFFFFBB
S214005100FFFFFFFFFFFFFFFFFFFFFFFFFFFFFFFFAA
S214005110FFFFFFFFFFFFFFFFFFFFFFFFFFFFFFFF9A
S214005120FFFFFFFFFFFFFFFFFFFFFFFFFFFFFFFF8A
S214005130FFFFFFFFFFFFFFFFFFFFFFFFFFFFFFFF7A
S214005140FFFFFFFFFFFFFFFFFFFFFFFFFFFFFFFF6A
S214005150FFFFFFFFFFFFFFFFFFFFFFFFFFFFFFFF5A
S214005160FFFFFFFFFFFFFFFFFFFFFFFFFFFFFFFF4A
S214005170FFFFFFFFFFFFFFFFFFFFFFFFFFFFFFFF3A
S214005180FFFFFFFFFFFFFFFFFFFFFFFFFFFFFFFF2A
S214005190FFFFFFFFFFFFFFFFFFFFFFFFFFFFFFFF1A
S2140051A0FFFFFFFFFFFFFFFFFFFFFFFFFFFFFFFF0A
S2140051B0FFFFFFFF7AFF90EE2BE6E9E5E9E50BE659
S2140051C06FEE57F7FFFFFFFFFFFFFFFFFFFFFFFF3B
S2140051D0FFFFFFFFFFFFDDFFD3EE2CE6E9E5E9E585
S2140051E00BE690EE7AFFFFFFFFFFFFFFFFFFFFFFDC
S2140051F0FFFFFFFF37F74EEE0AE6E9E50AE64DEE5B
S21400520036F7FEFFFFFFFFFFFFFFFFFFFFFFFFFF7B
S214005210DEFF16F74DEE0AE6E9E52BE690EE7AF7A6
S214005220FFFFFFFFFFFFFFFFDEFFD3EED2EED3EE62
S214005230D2EE37F7FFFF16F74DE6E9E5EAE54DEE65
S21400524037F7FFFFFFFFFFFFFFFFFFFF9BFF90EE1D
S21400525063DD00DD00DD41DD4DEE90EE37F7FFFF4C
S214005260FFFFFFFFFFFFFFFFFFFFFFFF59BE691AAB
S2140052708922481259BEFFFFFFFF1CDF891A891AD0
S214005280691A759DFFFFFFFF5DE7AA224812B27CF0
S214005290FFFFFFFFFFFFFFFFFFFFFFFFFFFFFFFF19
S2140052A0FFFF1CDF5595917430640F5C9174759503
S2140052B01CDFFFFFFFFFFFFFFFFF9EEFF7ADF7AD21
S2140052C0F7AD17AEBEF7FFFF3CDFF3843064516CDA
S2140052D055957DE7FFFFFFFFFFFFFFFF59BEB27C3E
S2140052E030643064348D3CDFFFFF5DE7D7ADF7AD4B
S2140052F0F7ADF7ADDFF7FFFFFFFFDBCE348D716C48
S21400530030641064716C348DBACEFFFFFFFFFFFF70
S214005310FFFFFFFFFFFF99C6D7A5F7ADF7AD9AC60B
S214005320FFFFFFFF18B6716C1064516C54955DE773
S214005330FFFFFFFFFFFFFFFFFFFFFFFFFFFFDFFF98
S21400534079C6F384716C106430649274B6A55DE718
S214005350FFFF9AF742DDE0D4E0D400D5E0D4E0D4F5
S214005360E0D4E0D4E0D441DD6FEEFEFFFFFFFFFFA8
S214005370FFFFFFFFFFFF4DEE00DDE0D4E0D4E0D4FA
S214005380E0D400D5E0D400D500DD15F7FFFFFFFF21
S214005390FFFF15F763DDE0D4E0D4E0D4E0D4E0D43A
S2140053A0E0D4E0D400DD0AE6FFFFFFFFFFFFFFFFCB
S2140053B04EEE21DDE0D4E0D4E0D4E0D4E0D4E0D476
S2140053C0E0D485DD16F7FFFFFFFF90EEC0D4E0D4F3
S2140053D0E0D4E0D400D562DDE0D4E0D4E0D4E0D47C
S2140053E0E0D4E0D464DD36F7FFFFFFFFFFFFC7E53C
S2140053F0C0D400DD00DD00DD00DDE0D4E0D400DD5B
S214005400BCFFFFFFFFFFFFFFFFFFFFFFFFFF59BED1
S214005410691A8922481259BEFFFFFFFF1CDF891A4E
S214005420891A691A759DFFFFFFFF5DE7AA224812D9
S214005430B27CFFFFFFFFFFFFFFFFFFFFFFFFFFFF47
S214005440FBD6CE53070A070A89220B330B33AA2A48
S2140054502812070A8D4379C6FFFFFFFFDBD6AA2A6C
S214005460070A4812280A759DB27CEB2A6D438D4BBD
S2140054700B3328122C3BFFFFFFFF17AE0B33070A38
S2140054804812EB2A2C33EB2A8922506C0F5C280A30
S214005490281228122C3B7DEF5DE70B33070A280AFB
S2140054A0AA220B330B33CA2A2812070A0B33B69DDF
S2140054B0FFFFFFFFFFFFFFFF516C28122812281284
S2140054C04C43959D0B33AA220B33EB32691A070A1D
S2140054D04812716C9EEFFFFFFFFFFFFFFFFF969DD8
S2140054E0EB2AE7092812AA2A0B33EB32691A070AB5
S2140054F04812549536F700D500DD00D541DD63DD52
S21400550063DD42DD20DD00DD00DDE0D4C8E5FFFF21
S214005510FFFFFFFFFFFFC8E5E0D400DD00DD42DD52
S21400552063DD63DD41DD00DD00DDE0D490EEFFFFEE
S214005530FFFFF3F6E0D400D500DD41DD63DD63DD7B
S21400554042DD00D500DD00D563DDDEFFFFFFFFFF97
S214005550A5DDE0D400DD00DD21DD63DD63DD42DDB9
S21400556000D500DD00D500D516F7FFFF37F763DD61
S21400557021DD00DD00DD00DD00D541DD63DD63DD1E
S21400558041DD00D500DD00D500D57AFFFFFFFFFF27
S2140055906EEE62DD20DD00DD00DD20DD64DD63DD36
S2140055A0C7E5DEFFFFFFFFFFFFFFFFFFFFFFFFFF79
S2140055B059BE691A8922481259BEFFFFFFFF1CDF39
S2140055C0891A891A691A759DFFFFFFFF5DE7AA22EF
S2140055D04812B27CFFFFFFFFFFFFFFFFFFFFFFFF4A
S2140055E0FFFFCF53270AAE4BFBD6DFFFFFFFFFFFC1
S2140055F0FFFF5CE7B27C4812AA22BEF7FFFFFFFF60
S214005600FFFFBEF76D434812AE4BFBD6FFFFFFFF12
S214005610FFFFFFFF506C2C3BFFFF79C64812481275
S214005620969D9EEFFFFFFFFFFFFFBEF738B62C3BB1
S2140056302812B27CBEF7FFFFFFFFFBD6481A916C1C
S2140056403CDFFFFFFFFFFFFFFFFF9EEFB69D891ABF
S214005650070A59BEFFFFFFFFFFFFFFFFDFFFF7ADA3
S2140056604812AA22348D7DEFFFFFFFFFFFFFBEF733
S21400567079C6EB32280A148DFFFFFFFFFFFF5CE7B9
S2140056808922891AD3843CE7FFFFFFFFFFFFDFF77D
S214005690D7AD8922917437F700DD00DD4DEE9BFF14
S2140056A0BDFFBDFFBCFF7AFF84DD00DD00D5A5DDB4
S2140056B0FFFFFFFFFFFFBCFF63DD00DD00D50AE64E
S2140056C0BCFFBDFFDDFF9BFFA6E500D5E0D491EE55
S2140056D0FFFFFFFF6EEEE0D400DD42DD58F7BDFFB2
S2140056E0BDFFBCFFB1EE00DD00D584DDDEFFFFFFB1
S2140056F0FFFFE0D400DD00D52BE69BFFBDFFBDFF1E
S2140057009CFFD3EE00D500DD00DDF4F6FFFFFFFFC3
S214005710DDFF16F720DD00DD00D54DEE9BFFBDFF5B
S214005720BDFF9CFF90EE00DD00DD00D559F7FFFFC2
S214005730FFFFFFFFDDFFC7E500D500DD85DDDEFFEF
S214005740BDFFDEFFFFFFFFFFFFFFFFFFFFFFFFFFC7
S214005750FFFF59BE691A8922481259BEFFFFFFFF94
S2140057601CDF891A891A691A759DFFFFFFFF5DE71E
S214005770AA224812B27CFFFFFFFFFFFFFFFFFFFFDA
S214005780FFFFFFFFEF53280A5595FFFFFFFFFFFFC0
S214005790FFFFFFFFFFFFDBCE691ACA2A9EF7FFFF57
S2140057A0FFFFFFFFFFFFCE532812148DFFFFFFFF02
S2140057B0FFFFFFFFFFFF13852C3BFFFF79C6691A2B
S2140057C0691AFFFFFFFFFFFFFFFFFFFFFFFFFFFF5F
S2140057D09174070A348DFFFFFFFFFFFFFBD6691A9F
S2140057E03CE7FFFFFFFFFFFFFFFFFFFFFFFFFFFF9F
S2140057F0EB32281259BEFFFFFFFFFFFFFFFFFFFF40
S214005800BACE28120B337DE7FFFFFFFFFFFFFFFF37
S214005810FFFFFFFFCE532812148DFFFFFFFFFFFF91
S2140058205DE7A9228D43FFFFFFFFFFFFFFFFFFFF9E
S214005830FFFFFFFFCE53716C37F7E0D400D537F784
S214005840FFFFFFFFFFFFFFFFFFFFC7E500D500D507
S214005850A6DDFFFFFFFFFFFFBCFF63DD00DD00D519
S2140058604DEEFFFFFFFFFFFFFFFF0BE600D5E0D486
S21400587091EEFFFFFFFF6EEEE0D400DD63DDDEFF9E
S214005880FFFFFFFFFFFF58F720DD00D584DDDEFFBA
S214005890FFFFFFFFE0D400DDE0DC90EEFFFFFFFF40
S2140058A0FFFFFFFF79F700DD00DD00DDF4F6FFFF08
S2140058B0FFFFFFFF9BFF21DD00DD00D5B2EEFFFFFF
S2140058C0FFFFFFFFFFFF36F700DD00DD00D559F7CD
