:100000000C945D800D94EC9A0D94179B0D94429B7B
:100010000D946D9B0D94989B0D94C39B0D94EE9B3A
:100020000D94199C0D948BA50D948BA50D948BA507
:100030000C948E800C948E800C948E800C948E8008
:100040000C948E800C948E800C948E800C948E80F8
:100050000C948E800C948E800C948E800D94449C15
:100060000C948E800D9409950D944D950C948E8072
:100070000C948E800C948E800C948E800C948E80C8
:100080000C948E800C948E800C948E800C948E80B8
:100090000D94AC950D94F0950C948E800C948E80FC
:1000A0000C948E800C948E800C948E800C948E8098
:1000B0000C948E800C948E800C948E800C948E8088
:1000C0000C948E800C948E800C948E800D944F96A0
:1000D0000D9493960C948E800D94F2960D94369711
:1000E0000C948E808E8E948E9A8EA08EA68EAC8E60
:1000F000B28EB88EBE8EC48E828E888ED490CE90F4
:10010000C890C290BC90B690B090AA90A4909E90D7
:10011000989092908C90869080907A9074906E9047
:10012000689062905C90569050904A9044903E90B7
:10013000389032902C90269020901A9014900E9027
:1001400008900290FC8FF68FF08FEA8FE48FDE8E9E
:10015000DE8EDE8FD88FD28FCC8FC68FC08FBA8FB6
:10016000B48FAE8FA88FA28F9C8F968F908F8A8F1F
:10017000848F7E8F788F728F6C8F668F608F5A8F8F
:10018000548F4E8F488F428F3C8F368F308F2A8FFF
:10019000248F1E8F188F128F0C8F068F008FFA8E70
:1001A000F48EEE8EB89AB29AAC9AA69AA09A9A9ABF
:1001B000949ABE9A55A24FA249A243A23DA237A249
:1001C00031A25BA2CFB3D6B3DDB3E4B3EBB3F2B3EA
:1001D000F9B300B407B40EB4C1B3C8B3DBB5D2B53C
:1001E000C9B5C0B5B7B5AEB5A5B59CB593B58AB51B
:1001F00081B578B56FB566B55DB554B54BB542B54B
:1002000039B530B546B427B5E4B57AC873C86CC8FB
:1002100065C85EC857C850C849C842C83BC834C83A
:1002200081C880E092E0E5E0AADFF0E002E114E1BD
:10023000AADFAADFAADFAADF26E1AADF38E14AE1C6
:100240009DE1AADFA8E1F0E1BAE199DFAADFAADF28
:10025000AADFAADFCCE1DEE1CEDFC0DFB4DFB4DFAE
:10026000B4DFB4DFB4DFB4DFB4DFB4DFB4DFB4DFF6
:10027000B4DFB4DFB4DF4DE028E002E0DCDFB4DF60
:10028000B4DFB4DFB4DFB4DFB4DFB4DFB4DFB4DFD6
:10029000B4DFB4DFB4DFB4DFB4DFB4DFB4DFCEDFAC
:1002A000C0DF72E079E0A6EA18E99FEAADEA3BEA2E
:1002B00018E9E0E918E9D8E9D0E918E918E9C9E945
:1002C000C4E9BFE9BBE9B6E98EE918E989E984E93F
:1002D0007FE97BE976E971E96DE968E963E95EE95F
:1002E00059E954E94DE948E943E93EE939E934E996
:1002F0002FE914E928E972EC01EB6BEC79EC00ECE6
:1003000001EBA6EB01EB9EEB96EB01EB01EB8FEB28
:100310008AEB85EB80EB7BEBD8EA01EB76EB71EBBC
:100320006CEB68EB63EB5EEB5AEB55EB50EB4BEB96
:1003300046EB41EB3AEB35EB30EB2BEB26EB21EBCD
:100340001CEB17EB10EB3EEECCEC37EE45EECCEDB4
:10035000CCEC72EDCCEC6AED62EDCCECCCEC5BED70
:1003600056ED51ED4CED47EDA4ECCCEC42ED3DEDFE
:1003700038ED34ED2FED2AED25ED20ED1BED16EDDA
:1003800011ED0CED05ED00EDFBECF6ECF1ECECEC19
:10039000E7ECE2ECDBEC0BF099EE04F012F099EFF5
:1003A00099EE3FEF99EE37EF2FEF99EE99EE28EFA8
:1003B00023EF1EEF19EF14EF70EE99EE0FEF0AEF37
:1003C00005EF01EFFCEEF7EEF2EEEDEEE8EEE3EE18
:1003D000DEEED9EED2EECDEEC8EEC3EEBEEEB9EE55
:1003E000B4EEAFEEA8EEE9F133F0E2F1F0F177F11F
:1003F00033F024F133F01CF114F133F033F00DF14C
:1004000008F103F1FEF0F9F0CFF033F0CAF0C5F0D7
:10041000C0F0BBF0B6F0B1F0ACF0A7F0A2F09DF0E8
:1004200098F093F08CF087F082F07DF078F073F024
:100430006EF069F062F05F047F039504B9038103F5
:1004400095033D03730395037D039F03BB032D04B5
:100450004303AD03D703770495036B0307049503A8
:1004600071031704C7035F047F039504B903810375
:1004700095033D03730395037D039F03BB032D0485
:100480004303AD03D703770495036B030704950378
:1004900071031704C7032F046104F303E503630327
:1004A00097044F04A1039704CB03D1034103310404
:1004B000270341045B032D03F50367037D048F04C9
:1004C0006704690321046304890489043F033F032B
:1004D0003F033F033F033F033F033F0389043F03C1
:1004E0003F033F033F033F033F033F033F033F03FC
:1004F00089048904890489043F033F033F033F03C0
:100500003F033F03890489043B03470483048304B6
:10051000830483048304830483048304BF03830468
:100520008304830483048304830483048304830493
:100530006F04970375035F038304830483048304B8
:10054000830483045903B7033D04E7035D035504A3
:100550004304DB03E103DF03A3035104B503990361
:1005600035047B044D0357030F04790457032B0311
:10057000130435038704570357035904B3030D04C9
:100580001B04230483035B043F04690445049304B0
:100590003103EB03CD032704150485036F033304F4
:1005A0009103490399045103270437044503530475
:1005B000AF0371042B0439033903390357046D0465
:1005C000AF036D0473046D04FD03FD039B039B03E4
:1005D0002B04FF03FF032B04FD036D0439037F0489
:1005E0006D046D046D046D046D04EF036D046D0402
:1005F00075046504190453033B043B04AB03CF03A8
:100600000104490489034B038F03ED0333033303D0
:1006100019046503650319049104E3035D04F703FA
:100620008104E9036D0385048D032504DD03A9031B
:1006300005A84CCDB2D44EB93836A9020C50B991A8
:100640008688083CA6AAAA2ABE000000803F0D9416
:10065000B1540D94779A0D9400900D94BA540D9462
:1006600036A50D94989D0D9458C30D94B18F0D949B
:10067000AE1F0D942FB10D9470820D9459030D94FB
:1006800024820D94AC540D944D030D94D79D0D947C
:1006900022960D94C59D0D94DABC0D9415900D9481
:1006A000E6930D94CD9D0D9480B50D94AA750D948F
:1006B000D38F0D9454820D94B7540D941F8B0D94C9
:1006C00058820D94EB1F0D9416040D944BCC0D9491
:1006D000C0540D94CC540D9456030D941AC70D9428
:1006E000B79D0D9438030D945C030D945C820D94BA
:1006F000F51E0D945F970D9476950D9465030D94FA
:1007000032030D9453030D94A49A0D94B19D0D944E
:10071000C5960D946EBC0D9496910D94F3C90D94ED
:10072000A3C00D94BF9D0D94CDA40D94C5020D944E
:1007300060820D94698D0D9494B10D944A200D94AE
:1007400044030D9419040D944B8D0D940A200D94BF
:10075000B5930D9415BB0D941DB80D943E030D94E7
:10076000D4B00D94BC960D94ED8F0D945F8D0D94C7
:1007700050820D9450030D9447030D94C95C0D9461
:1007800068820D9468970D947F950D94C4750D94AF
:1007900062030D94CF930D9407040D94A29D0D94C4
:1007A00070B90D9404040D94C1930D9493760D9437
:1007B00041030D94A4970D94708B0D9461CB0D940F
:1007C0009E8B0D94878B0D9459C40D9413040D9436
:1007D000FC8A0D94F3C70D949C9D0D947CC10D94DF
:1007E000BCB10D94E23A0D9410040D94BD540D94D7
:1007F00022C50D94ACA40D94D01F0D9477B10D9427
:10080000F9B10D9415BF0D94AA290D94988F0D94EC
:100810005F030D9419960D941DA50D94C69A0D9421
:10082000F48F0D9469910D940A900D94AD9D0D94E3
:10083000D4020D94B1B40D94909A0D943F940D94FC
:10084000A61F0D94A6540D94989A0D944DCB0D941B
:10085000E09D0D9474820D9419B10D944A030D948A
:100860000A040D94AE540D94BB9D0D94DD8A0D9435
:10087000D39D0D9442200D948BB60D94E78A0D9470
:10088000D29A0D94B4540D94598B0D94A69D0D9449
:100890006C820D947DBA0D94AA1F0D94462F0D9471
:1008A00098030D94558D0D94DB9D0D94428B0D9402
:1008B00046B10D940F900D94B19A0D949FB70D947D
:1008C00068020D940D040D94A9540D94C8B30D94B1
:1008D000C9540D94DF9A0D94E95C0D94CEB10D943A
:1008E00064820D94F2B00D9469B10D9467B20D94C9
:1008F0003B030D94FA8F0D94C78A0D94C3540D9445
:10090000A2B10D94EDC50D94CE810D94ACC80D949B
:10091000C78F0D9445820D9483940D941EA50D945C
:10092000C6540D944FC20D94A99D0D9435030D949A
:10093000F5030D94C99D0D94EF9E00407A10F35A73
:1009400000A0724E18090010A5D4E80000E876480F
:10095000170000E40B54020000CA9A3B000000E1BB
:10096000F505000080969800000040420F0000004E
:10097000A08601000000102700000000E80300002E
:1009800000006400000000000A00000000000100F8
:10099000000000002C76D888DC674F0823DFC1DF19
:1009A000AE59E1B1B796E5E3E453C63AE65199761C
:1009B00096E8E6C28426EB898C9B62ED407C6FFC56
:1009C000EFBC9C9F40F2BAA56FA5F490055A2AF798
:1009D0005C936B6CF9676DC11BFCE0E40D47FEF5A1
:1009E00020E6B500D0ED902E030094357705008009
:1009F000841E080000204E0A000000C80C33333368
:100A0000330F986E12831141EF8D2114893BE65507
:100A100016CFFEE6DB18D1844B381BF77C1D901DEA
:100A2000A4BBE424203284725E228100C9F124EC4C
:100A3000A1E53D270810205F000000000000000035
:100A40000000000000000000101010101010101026
:100A5000101000001010000024242424242400007E
:100A60000000000000000000242424247E7E2424B2
:100A70007E7E24242424000010103C3C5050383842
:100A80001414787810100000000062626464080892
:100A9000101026264646000030304848484830307E
:100AA0004A4A44443A3A0000101010101010000056
:100AB00000000000000000001010202040404040D6
:100AC0004040202010100000101008080404040406
:100AD0000404080810100000101054543838101086
:100AE00038385454101000000000101010107C7C96
:100AF00010101010000000000000000000000000B6
:100B000008080808101000000000000000007E7EA9
:100B100000000000000000000000000000000000D5
:100B20000000000010100000000002020404080889
:100B300010102020404000003C3C424246465A5A99
:100B4000626242423C3C0000080818180808080885
:100B5000080808081C1C00003C3C424202021C1C05
:100B6000202040407E7E00007E7E020204041C1C89
:100B7000020242423C3C000004040C0C14142424E5
:100B80007E7E0404040400007E7E40407C7C0202E1
:100B9000020242423C3C00001E1E202040407C7C61
:100BA000424242423C3C00007E7E020204040808AD
:100BB00010101010101000003C3C424242423C3CDD
:100BC000424242423C3C00003C3C424242423E3EA9
:100BD00002020404787800000000000010100000F9
:100BE00010100000000000000000000008080000D5
:100BF000080808081000000004040808101020204D
:100C00001010080804040000000000007E7E0000B0
:100C10007E7E000000000000202010100808040460
:100C20000808101020200000202040400000000094
:100C300000000000000000003C3C42424A4A565678
:100C40004C4C40403E3E0000181824244242424290
:100C50007E7E4242424200007C7C424242427C7C98
:100C6000424242427C7C00003C3C42424040404088
:100C7000404042423C3C00007C7C42424242424274
:100C8000424242427C7C00007E7E404040407C7C70
:100C9000404040407E7E00007E7E404040407C7C64
:100CA00040404040404000003E3E40404040404EBA
:100CB0004E4242423E3E00004242424242427E7E1C
:100CC00042424242424200003838101010101010C8
:100CD0001010101038380000020202020202020254
:100CE000020242423C3C0000424244444848707088
:100CF0004848444442420000404040404040404058
:100D0000404040407E7E0000424266665A5A5A5A2F
:100D100042424242424200004242626252525A5AA7
:100D20004A4A4646424200003C3C4242424242421B
:100D3000424242423C3C00007C7C424242427C7C3B
:100D400040404040404000003C3C4242424242421F
:100D50004A4A44443A3A00007C7C424242427C7C0B
:100D600048484444424200003C3C424240403C3CF3
:100D7000020242423C3C00007C7C1010101010101B
:100D800010101010101000004242424242424242F3
:100D9000424242423C3C00004242424242424242C3
:100DA00042422424181800004242424242425A5A07
:100DB0005A5A6666424200004242424224241818AF
:100DC0002424424242420000444444442828101053
:100DD00010101010101000007E7E0202040418187B
:100DE000202040407E7E00007E7E6060606060600B
:100DF000606060607E7E0000000040402020101097
:100E000008080404020200007E7E060606060606A6
:100E1000060606067E7E000000000000101028284E
:100E2000444400000000000000000000000000003A
:100E3000000000007E7E0000202010100808000046
:100E40000000000000000000000000003C3C020226
:100E50003E3E42423E3E0000404040407C7C42429A
:100E6000424242427C7C0000000000003E3E404086
:100E7000404040403E3E0000020202023E3E4242EE
:100E8000424242423E3E0000000000003C3C4242E2
:100E90007E7E40403E3E00001C1C222220207C7CA6
:100EA0002020202020200000000000003C3C424286
:100EB00042423E3E02023C3C404040407C7C42423A
:100EC00042424242424200001010000030301010F6
:100ED0001010101038380000040400003C3C0404DA
:100EE00004040404444438384040404042424444EE
:100EF0007878444442420000303010101010101036
:100F000010101010383800000000000066665A5AB1
:100F10005A5A5A5A42420000000000007C7C424269
:100F20004242424242420000000000003C3C424239
:100F3000424242423C3C0000000000007C7C4242B5
:100F400042427C7C40404040000000003E3E424225
:100F500042423E3E02020202000000005E5E60600D
:100F60004040404040400000000000003E3E404005
:100F70003C3C02027C7C0000101010107C7C1010A5
:100F8000101012120C0C00000000000042424242FD
:100F9000424246463A3A00000000000042424242C5
:100FA000424224241818000000000000424242423D
:100FB0005A5A5A5A66660000000000004242242431
:100FC000181824244242000000000000424242421D
:100FD00042423E3E02023C3C000000007E7E040491
:100FE000181820207E7E00000E0E18181818707039
:100FF000181818180E0E00001010101010101010F5
:1010000010101010101000007070181818180E0E24
:1010100018181818707000000000000024245454A0
:1010200048480000000000001010205F0000000091
:1010300000000000000000000000000000000000B0
:1010400000000000000000000000000000000000A0
:101050000200020002000200020002000200020080
:10106000020002000000020000000000000000007A
:101070000240024002400240000000000000000068
:101080000000000000000000000000000000000060
:1010900002400240048004803FE00480090009000F
:1010A0003FE00900120012000000000000000100F3
:1010B00003C00520092009000900070001C0012024
:1010C000012009200540038001000000000000000D
:1010D0001C102220222022402240229C1CA20122FD
:1010E000022202220422041C000000000000000072
:1010F00001C0022002200220014003800480084831
:1011000008500820043003C8000000000000000060
:1011100000800080008000800000000000000000CF
:1011200000000000000000000000000000000100BE
:101130000200020004000400040004000400040093
:101140000400020002000100000000000000020094
:10115000010001000080008000800080008000808D
:1011600000800100010002000000000000000000FB
:10117000000000000180018009901FF803E003C017
:1011800006600620000000000000000000000000D3
:1011900000000000000000800080008007F0008058
:1011A000008000800000000000000000000000003F
:1011B000000000000000000000000000000000002F
:1011C000000000800080008000000000000000009F
:1011D00000000000000000000000000007C0000048
:1011E00000000000000000000000000000000000FF
:1011F00000000000000000000000000000000000EF
:10120000000000000080000000000000000000005E
:10121000002000400040004000800080008001006D
:1012200001000100020002000000000000000000B8
:1012300003800440082008200820082008200820F7
:101240000820082004400380000000000000000087
:10125000004000C00140024000400040004000400B
:10126000004000400040004000000000000000007E
:1012700003C00440082000200020004000400080FF
:101280000100020004000FE0000000000000000068
:10129000038004400840004000800380004000209C
:1012A000002008200C400380000000000000000027
:1012B000004000C00140014002400240044008409C
:1012C0000FF000400040004000000000000000005F
:1012D00001F801000100020003E00210000800080C
:1012E00000080208011000E00000000000000000FB
:1012F00003800460082008000B800C4008200820B0
:1013000008200820044003800000000000000000C6
:1013100003F80010001000200020004000400040B2
:1013200000400080008000800000000000000000FD
:1013300000E0011002080208011000E0011002089C
:1013400002080208011000E0000000000000000098
:10135000038004400820082008200820046003A01F
:10136000002008200440078000000000000000006A
:1013700000000080000000000000000000000000ED
:1013800000000080000000000000000000000000DD
:1013900000000080000000000000000000000000CD
:1013A00000000080008000800000000000000000BD
:1013B00000000010006001800600080006000180A7
:1013C00000600010000000000000000000000000AD
:1013D0000000000000000FF00000000000000FF00F
:1013E00000000000000000000000000000000000FD
:1013F00000000400030000C000300008003000C0FE
:1014000003000400000000000000000000000000D5
:1014100003800440082008200020004000800100D4
:10142000010001000000010000000000000003C0F6
:101430000C301010134824C828882888289027E0EA
:101440001008083007C00000000000000000000085
:1014500001000280028004400440044008200FE0A4
:1014600010101010200820080000000000000000EC
:101470000FE008100808080808100FF00810080806
:101480000808080808100FE0000000000000000035
:1014900003E00410080810001000100010001000F5
:1014A00010000808041003E0000000000000000025
:1014B0001FC0102010101008100810081008100885
:1014C0001008101010201FC00000000000000000D5
:1014D0000FF808000800080008000FF008000800D6
:1014E0000800080008000FF80000000000000000DD
:1014F0000FF008000800080008000FE008000800CE
:1015000008000800080008000000000000000000BB
:1015100001E002100408080008000800087C080424
:1015200008040408021001E00000000000000000B0
:10153000080808080808080808080FF80808080834
:10154000080808080808080800000000000000005B
:10155000008000800080008000800080008000808B
:10156000008000800080008000000000000000007B
:10157000002000200020002000200020002000206B
:101580000820082004400780000000000000000040
:101590000808081008200840088009800A400C202C
:1015A00008200810081008080000000000000000D3
:1015B00008000800080008000800080008000800EB
:1015C0000800080008000FE0000000000000000014
:1015D000200830183018282828282448244824882F
:1015E0002288228821082108000000000000000055
:1015F00008080C080A080A08090808880888084822
:10160000082808280818080800000000000000004A
:1016100003C0042008101008100810081008100853
:1016200010080810042003C00000000000000000A3
:101630000FE0081008080808080808100FE0080064
:10164000080008000800080000000000000000007A
:1016500003C0042008101008100810081008100813
:10166000100808D8043003D8000000000000000073
:101670000FE0081008080808080808100FE00840E4
:1016800008200820081008080000000000000000E2
:1016900003E004100808080004000380007000083C
:1016A00008080808041003E0000000000000000023
:1016B0000FF80080008000800080008000800080A3
:1016C000008000800080008000000000000000001A
:1016D000080808080808080808080808080808088A
:1016E00008080808041003E00000000000000000E3
:1016F0000808080804100410041002200220022028
:101700000140014000800080000000000000000057
:101710002082218211441144114411440A280A28CC
:101720000A280A280410041000000000000000002D
:101730001010082004400440028001000280044090
:1017400004400820101020080000000000000000E5
:1017500008080410041002200140014000800080AD
:101760000080008000800080000000000000000079
:1017700007F80010002000200040008000800100D9
:101780000200020004000FF80000000000000380C7
:101790000200020002000200020002000200020039
:1017A00002000200020002000380000000000000AE
:1017B0000200010001000100008000800080004064
:1017C00000400040002000200000000000000380D6
:1017D0000080008000800080008000800080008009
:1017E0000080008000800080038000000000010075
:1017F00002800280044004400440082000000000F1
:1018000000000000000000000000000000000000D8
:1018100000000000000000000000000000000000C8
:101820000000000000000000FFFF000000000000BA
:101830000100008000000000000000000000000027
:101840000000000000000000000000000000000098
:101850000000000003C00420082000E0072008204A
:101860000820086007A00000000000000000080039
:10187000080008000B800C400820082008200820E1
:1018800008200C400B800000000000000000000059
:101890000000000003800440082008000800080041
:1018A0000820044003800000000000000000002029
:1018B0000020002003A00460082008200820082041
:1018C0000820046003A000000000000000000000E9
:1018D0000000000003800440082008200FE00800FA
:1018E000082004400380000000000000000000C049
:1018F0000100010003C0010001000100010001001E
:1019000001000100010000000000000000000000D4
:10191000000003A0046008200820082008200820F8
:10192000046003A0002008400780000000000800B9
:10193000080008000BC00C20082008200820082000
:10194000082008200820000000000000000000001F
:101950000100000000000100010001000100010081
:101960000100010001000000000000000000000074
:101970000080000000000080008000800080008067
:1019800000800080008000800080030000000400D0
:101990000400040004100420044004800580064074
:1019A000042004200410000000000000000000805B
:1019B0000080008000800080008000800080008027
:1019C0000080008000800000000000000000000097
:1019D000000000002E70318821082108210821080C
:1019E000210821082108000000000000000000007C
:1019F000000000000BC00C20082008200820082050
:101A0000082008200820000000000000000000005E
:101A1000000000000380044008200820082008205F
:101A200008200440038000000000000000000000C7
:101A3000000000000B800C4008200820082008202F
:101A400008200C400B80080008000800000000007F
:101A50000000000003A004600820082008200820DF
:101A60000820046003A000200020002000000000E7
:101A70000000000002E00300020002000200020079
:101A80000200020002000000000000000000000050
:101A90000000000003C004200400040003C0002074
:101AA0000020042003C0000000000000000001002E
:101AB0000100010003C0010001000100010001005C
:101AC0000100010001C00000000000000000000053
:101AD0000000000008200820082008200820082016
:101AE0000820086007A000000000000000000000BF
:101AF0000000000008200820044004400440028048
:101B00000280010001000000000000000000000051
:101B10000000000021082108129012901450145067
:101B20001450082008200000000000000000000001
:101B300000000000082004400280028001000280B2
:101B400002800440082000000000000000000000A7
:101B5000000000000820082008200440044004C0C1
:101B6000028002800100010002000C000000000061
:101B70000000000007F0002000400040008001004D
:101B80000100020007F000000000000000C001009A
:101B90000100010001000100010006000100010038
:101BA000010001000100010000C000000080008071
:101BB0000080008000800080008000800080008025
:101BC0000080008000800080008000800300008092
:101BD0000080008000800080008000600080008025
:101BE00000800080008000800300000000000000F2
:101BF000078808F00000000000000000000000005E
:101C000000000000000000000000000052454144B8
:101C100020434F4D42494E4154494F4E3B0057528D
:101C200049544520434F4D42494E4154494F4E3B44
:101C3000006E756C6C0073746F70206F6E2D3E00BB
:101C40000000C800C80001000200350001000A00C1
:101C50000100010002000200020014000200010065
:101C60000200020003001E00030001000200020047
:101C700004002800040001000200020005003200F8
:101C8000050001000200020006003C000600010001
:101C900002000200070046000700010002000200E7
:101CA00008005000080001000200020009005A006C
:101CB00009000100020002000A0064000A0001009D
:101CC000020002000B006E000B0001000200020087
:101CD0000C0078000C000100020002000D008200E0
:101CE0000D000100020002000E008C000E00010039
:101CF000020002000F0096000F0001000200020027
:101D00001000A00010000100020002001100AA0053
:101D100011000100020002001200B40012000100D4
:101D2000020002001300BE001300010002000200C6
:101D30001400C80014000100020002001500D200C7
:101D400015000100020002001600DC001600010070
:101D5000020002001700E600170001000200020066
:101D60001800F00018000100020002001900FA003B
:101D700019000100020002001A0004011A0001000B
:101D8000020002001B000E011B0001000200020005
:101D90001C0018011C000100020002001D002201AD
:101DA0001D000100020002001E002C011E000100A7
:101DB000020002001F0036011F00010002000200A5
:101DC0002000400120000100020002002100F20377
:101DD00021000100020005002200FC032200010096
:101DE0000200050023000604230001000200050094
:101DF00024001004240001000200050025001A043C
:101E00002500010002000500260024042600010030
:101E10000200050027002E042700010002000A002E
:101E2000280038042800010002000A0029004204AA
:101E30002900010002000A002A004C042A000100C7
:101E400002000A002B0056042B00010002000A00C9
:101E50002C0060042C00010002000A002D006A041E
:101E6000C800010002000B002E007404C80001002D
:101E700002000B002F007E04C800010002000B00CE
:101E800030008804C800010002000B0031009204F9
:101E9000C800010002000B0032009C04C8000100D1
:101EA00002000B003300FF00C80004000500010021
:101EB0003400FF00C8000400050001003500FF00E9
:101EC000C8000400050001003600FF00C80006003D
:101ED000070004003700FF00C800060007000400E8
:101EE0003800FF00C8000600070004003900FF00AA
:101EF000C8000800090003003A00FF00C8000800FD
:101F0000090003003B00FF00C800080009000300AF
:101F10003C00FF00C8000A000B0007003D00FF0066
:101F2000C8000A000B0007003E00FF00C8000A00BE
:101F30000B0007003F00FF00C8000C000D00080068
:101F40004000FF00C8000C000D0008004100FF0029
:101F5000C8000C000D0008004200FF00C8000E0081
:101F60000F0006004300FF00C8000E000F0006002F
:101F70004400FF00C8000E000F0006004500FF00EF
:101F8000C800100011000C004600FF00C80010003F
:101F900011000C004700FF00C800100011000C00E9
:101FA0004800FF00C800100011000C004900FF00AD
:101FB000C800100011000C004A00FF00C80010000B
:101FC00011000C004B00FF00C800100011000C00B5
:101FD0004C00FF00C800100011000C004D00FF0075
:101FE000C8001000110005004E00FF00C8001000DE
:101FF000110005004F00FF00C8001000110005008F
:102000005000FF00C8001000110005005100FF0043
:10201000C8001000110005005200FF00C8001000A9
:10202000110005005300FF00C800080009000C0063
:102030005400FF00C800060007000C005500FF0018
:10204000C8000E000F000C005600FF00C80004007E
:1020500005000D005700FF00C800040005000D003A
:1020600063757272656E74206D656E690072656667
:102070007265736865642076616C75653A00656D9C
:102080007074790053574150204D414E55414C00DA
:102090005344204341524400494E5445524E414C12
:1020A000204D454D004C4F41442046524F4D20534A
:1020B000442043415244005341564520544F20533D
:1020C00044204341524400544F4E45004F52474133
:1020D0004E495354004F5247414E20534554004DF2
:1020E000454D2042414E4B0043414C4942524154E0
:1020F00045005357454C4C2043414C4942524154B2
:10210000494F4E005350454349414C0054554E45AC
:10211000005354415254205245434F5244494E4774
:1021200000535441525420504C4159494E4700509D
:102130004C4159005245434F5244005245432F50A1
:102140004C4159004D414E20494920564F4C004DBD
:10215000414E204920564F4C00504544414C20569A
:102160004F4C004D414E204C4556454C00705F6D24
:10217000656E750050524553455453004D414E20F5
:102180004949004D414E20495F5045440053504558
:10219000414B455253004845414450484F4E45003D
:1021A0004D414E204949004D414E20495F50454424
:1021B0000043484152414354455200434841524133
:1021C00043544552000920204E554D5F5445535409
:1021D0005F4409000920204E554D5F544553545F1C
:1021E000430900092020204E554D5F544553545F4C
:1021F0004209000920204E554D5F544553545F411C
:10220000090009204E554D5F656E5F7573090042E8
:102210004C554500475245454E0052454400092063
:102220004E554D5F77686974655F626C61636B09D9
:102230000009204E554D5F67656E5F766F6C756D5A
:1022400065090009204E554D5F6372657363656EC5
:10225000646F090009204E554D5F6F7267616E090A
:102260000041424F5554005448454D450009204E09
:10227000554D5F455155414C090009204E554D5F64
:1022800054554E494E47090009204E554D5F524F57
:102290004D414E544943090009204E554D5F6D652F
:1022A0006D5F62616E6B0900094E554D5F53545965
:1022B0004C45090009204E554D5F686973745F7481
:1022C000656D706572616D656E74090046524551A9
:1022D00055454E43590046524551204741494E000D
:1022E00053544F5020564F4C0050414E4F52414D89
:1022F000410044454341590050414E00094E554D5F
:102300005F6761696E5F515F68696768090078009F
:1023100048494748007800482D4D49440045510040
:1023200078004C2D4D494400780078004C4F570000
:10233000444550544800524154450053454E4420B2
:102340004C564C00444C5920464545444241434B71
:102350000050524544454C41590052455645524261
:102360002054494D4500505245204C504600545988
:102370005045004C4556454C0053454E44204C5664
:102380004C00444C5920464545444241434B005083
:10239000524544454C4159005245564552422054FD
:1023A000494D4500505245204C5046005459504527
:1023B000004C4556454C004D414E55414C20494935
:1023C000004D414E55414C20490009204E554D5F6E
:1023D000686973745F74656D706572616D656E7444
:1023E0005F3109005452414E53504F534500494EFE
:1023F000544F4E4154494F4E004F5247414E49535E
:102400005400455155414C495A4552005452454D8E
:10241000554C414E54005554494C4954590052456D
:10242000564552420054554E494E47005452414E73
:1024300053504F5345005354594C45530043525F3A
:102440004C424C004558505F4C424C00455850316E
:1024500000455850004352005A3A0052764200520A
:1024600045564552423A005456414C005452414E52
:1024700053504F53453A00434F4D42494E41544902
:102480004F4E005A20434F4D4200564F4C554D453C
:102490000009204E554D5F564F4C554D455F534CEE
:1024A0004944455209004D454E5500030032640F22
:1024B0000F010F0F0F0F0F0003012408040F00007E
:1024C0007F01007F0003022CB70A0F000F0F0F0FD0
:1024D0000F0003030F3C070F000F0F0100E800037C
:1024E000040819090F000F0F0F0F0F00031808B48D
:1024F000090F000F0F0F0F0F000306AAB4091E01EA
:10250000000C01000C000307089B220F000F0F0FA7
:102510000F0F000308AA9B098501006401006400F5
:1025200003090882090F000F0F0F0F0F00030AFEA7
:1025300085040F00007F01007F00030CEF85040F6E
:1025400000007F01007F00030C0385040F00007F63
:1025500001007F00030D0EA30A0F000F0F0F0F0FD6
:1025600000030EF5A30A0F000F0F0F0F0F00010F4E
:10257000052B0F0F010F0F010F0F00011005530F57
:102580000F010F0F010F0F000111057B0F0F010F3E
:102590000F010F0F000112A0030F0F010F0F010F0A
:1025A0000F00011305030F0F010F0F010F0F0001A3
:1025B00014052B0F0F010F0F010F0F000115A0A322
:1025C0000F0F010F0F010F0F00011605CB0F0F01A9
:1025D0000F0F010F0F000117A0CB0F0F010F0F01FD
:1025E0000F0F00021805030D1E01000C01000C0066
:1025F000023D05030D2601001601001600011A0513
:10260000030F0F010F0F010F0F00011B052B0F0F01
:10261000010F0F010F0F00021C0505031F0100FF32
:1026200001007F00021D051C03200100FF01007F47
:1026300000021E053303210100FF01007F00021F7D
:10264000054A03230100FF01007F0002200561030A
:10265000250100FF01007F0002210578032401000D
:10266000FF01007F000222058F032A0100FF010005
:102670007F0002230505032C0100FF01007F0002FB
:1026800024051C032D0100FF01007F0002250533F6
:10269000032E0100FF01007F000226054A033001DE
:1026A00000FF0100FF000227056103320100FF0166
:1026B000007F000228057803310100FF01007F0040
:1026C0000229058F03330100FF01007F00022A0564
:1026D0001C03270100FF01007F00022B05330329A3
:1026E0000100FF01007F00022C000A0E3D01007F67
:1026F00001007F00022D000A0F3E01007F01007FD4
:1027000000022E500A103F01007E01007E00022FC1
:10271000500A0E4101007F01007F000230500A0F75
:102720004001007F01007F000231050A103C0100DA
:1027300004010004000232A00A0E4401007F0100DF
:102740007F000233A00A0F4301007F01007F0002D7
:1027500034F00A0E4701007F01007F000235F00AC5
:102760000F4601007F01007F000236A00A104801D9
:10277000007E01007E00013705030F0F010F0F0FD0
:102780000F0F000238050317B801007F01007F001A
:102790000239054A036D01007F01007F00023A05FE
:1027A00061036E01007F01007F00023B0578036F2B
:1027B00001001401001400023C058F037001007F2A
:1027C00001007F00023D054A147101001601001648
:1027D00000023E0503117201007F01007F00023FED
:1027E00005031622010008010008000240052B0025
:1027F0007401007F01007F00024105530075010054
:102800007F01007F000142057B0076010F0F0F0F53
:102810000F00014305030F0F010F0F0F0F0F0001F2
:1028200044A07B0F0F010F0F0F0F0F000145057B19
:102830000177010F0F0F0F0F00024605A30178016A
:10284000007F01007F00024705CB017901007F0175
:10285000007F0002480505157A010004010004000C
:1028600002490570187B01007F01007F00024A05C4
:1028700087187C01007F01007F00024B059E187DB8
:1028800001007F01007F00024C0503120F00007F52
:1028900001007F00024D05330D7B01007F01007FA9
:1028A00000024E054A0D7C01007F01007F00024FAF
:1028B00005610D7D01007F01007F00025005780D4C
:1028C0007D01007F01007F00025105A60338010051
:1028D000FF01007F00025205A603390100FF01003D
:1028E0007F0001530A0A0F0F000F0F0F0F0F000197
:1028F00057052B0F0F010F0F010F0F000156050396
:102900000F0F010F0F010F0F00015405030F0F01EF
:102910000F0F010F0F000155052B0F0F010F0F01B6
:102920000F0F00015805030F0F010F0F010F0F00CC
:102930000159052B0F0F010F0F010F0F00015A0551
:10294000030F0F010F0F010F0F00025B0505033985
:1029500001000501000500025C051C197E010078DC
:10296000010A7800025D0533197F010078010A78B9
:1029700000025E05051980010078010A7800015FF8
:102980004BC60F0F010F0F010F0F01016005030F61
:102990000F010F0F010F0F010161052B0F0F010F29
:1029A0000F010F0F01046205051A810100040100E7
:1029B0000400046305051B810100040100040002FA
:1029C00064051C1C810100FF0100FF000265051C5D
:1029D0001D8101000501000500016605A30F0F011F
:1029E0000F0F010F0F0102670F961E8200007F017B
:1029F000007F000268AAC81F8200007F01007F00DC
:102A00000269051C208301001E01001E00016A05E9
:102A1000530F0F010F0F010F0F01026B051C2184D3
:102A200001000401000400026C051C218401000463
:102A300001000400016D05030F0F010F0F010F0FBF
:102A400001016E052B0F0F010F0F010F0F01016F19
:102A500005530F0F010F0F010F0F010170057B0FC1
:102A60000F010F0F010F0F010171A02B0F0F010FAD
:102A70000F010F0F00027205A6238601007F0100DF
:102A80007F000173A02B0F0F010F0F010F0F01012A
:102A900074A0530F0F010F0F010F0F010175052BCC
:102AA0000F0F010F0F010F0F010276A0A326860161
:102AB000007F01007F00027705A3278601007F01C8
:102AC000007F0002780553258701007F01007F0009
:102AD0000279052B248801007F01007F00027A051E
:102AE0007B258901010901010900027B05A3248AD4
:102AF00001007F01007F00027CA0A3268601007FE9
:102B000001007F00027D05A3278601007F01007F71
:102B100000027E0533288B010001010001002065C1
:102B20006D70747920736C6F740045585420534352
:102B300048414C4D4549004558542054524D4F5042
:102B4000204841524D4F4E495100455854204F4264
:102B50004F4500455854204641474F54004558546E
:102B6000205445525A4520322F3300455854204DA9
:102B700049585455522034460045585420464C413B
:102B800047454F4C455400455854204E41534154FD
:102B900000455854205452415645525320464C55F6
:102BA0005445004558542047454947454E2050520A
:102BB000494E5A4950414C0045585420564F5820D0
:102BC000434F454C455354495300455854204741C1
:102BD0004D42450045585420504F5254554E414C9B
:102BE00020464C4F544500455854205045442054ED
:102BF000524F4D504554450045585420504F534175
:102C0000554E450045585420504544204D495820C4
:102C10003246004558542043484F52414C4241539C
:102C200053004558542042415353464C4F5445009D
:102C3000455854204F4B5441564241535300455838
:102C4000542053554242415353004558542050524A
:102C5000494E5A20424153532031360045585420A2
:102C60004B52554D484F524E004558542053484101
:102C700052462033460045585420504943434F4C58
:102C80004F00455854204C415249474F5400455835
:102C9000542047454D53484F524E004558542051FB
:102CA00055494E54450045585420524F4852464CC1
:102CB0004F544500455854205052455354414E54AA
:102CC00020340045585420424F5244554E2038007D
:102CD00045585420434C4152494F4E2034004558EA
:102CE000542054524F4D50455445203800455854B7
:102CF000204D4958545552203546004558542050CF
:102D000052494E5A4950414C2032004558542051A6
:102D100055494E54450045585420535049545A463D
:102D20004C4F544500455854204F4B544156452074
:102D300034004558542053414C4943494F4E414C6F
:102D40000045585420464C555445204841524D4F5B
:102D500000455854205052494E5A4950414C203851
:102D60000045585420424F5244554E2031360053AE
:102D70004348414C4D45490054524D4F5020484125
:102D8000524D4F4E4951004F424F45004641474F2B
:102D900054005445525A4520322F33004D4958545F
:102DA000555220344600464C4147454F4C4554004F
:102DB0004E41534154005452415645525320464CC3
:102DC0005554450047454947454E205052494E5AB3
:102DD0004950414C00564F5820434F454C455354A1
:102DE00049530047414D424500504F5254554E41C2
:102DF0004C20464C4F5445005045442054524F4DB2
:102E00005045544500504F5341554E4500504544A0
:102E1000204D49582032460043484F52414C4241D0
:102E200053530042415353464C4F5445004F4B546B
:102E3000415642415353005355424241535300506F
:102E400052494E5A2042415353203136004B52557D
:102E50004D484F524E005348415246203346005091
:102E60004943434F4C4F004C415249474F54004750
:102E7000454D53484F524E005155494E544500520E
:102E80004F4852464C4F5445005052455354414EC2
:102E900054203400424F5244554E203800434C4198
:102EA00052494F4E20340054524F4D504554452006
:102EB00038004D4958545552203546005052494E1D
:102EC0005A4950414C2032005155494E5445005307
:102ED0005049545A464C4F5445004F4B5441564567
:102EE00020340053414C4943494F4E414C00464C1D
:102EF000555445204841524D4F005052494E5A4971
:102F000050414C203800424F5244554E203136003B
:102F10002020002000206F73743A005800420041C6
:102F20002300410047230047004623004600450098
:102F300044230044004323004300746F6E3A002092
:102F40003A200073746174653A20002042797465F8
:102F500000203C2D206964203A3A66726565206D38
:102F6000656D2D3E2000000810182028303801091A
:102F7000111921293139020A121A222A323A030B75
:102F8000131B232B333B040C141C242C343C050D45
:102F9000151D252D353D060E161E262E363E070F15
:102FA000171F272F373F07060504030201000F0EE6
:102FB0000D0C0B0A090817161514131211101F1EF9
:102FC0001D1C1B1A191827262524232221202F2EE9
:102FD0002D2C2B2A292837363534333231303F3ED9
:102FE0003D3C3B3A393847464544434241404F4EC9
:102FF0004D4C4B4A494857565554535251505F5EB9
:103000005D5C5B5A595867666564636261606F6EA8
:103010006D6C6B6A696877767574737271707F7E98
:103020007D7C7B7A797800000001000200030004B7
:10303000000500060007010001010102010301046F
:103040000105010601070200020102020203020457
:10305000020502060207030003010302030303043F
:103060000305030603070400040104020403040427
:10307000040504060407050005010502050305040F
:1030800005050506050706000601060206030604F7
:1030900006050606060707000701070207030704DF
:1030A00007050706070708000801080208030804C7
:1030B00008050806080709000901090209030904AF
:1030C0000905090609070A000A010A020A030A0497
:1030D0000A050A060A070B000B010B020B030B047F
:1030E0000B050B060B070C000C010C020C035741DF
:1030F00049542033207365632E2E2E0057414954C6
:103100002033207365632E2E2E004E4F5445206CC5
:103110006F633A200046495253542044524157218C
:103120002121210052454C20444154453A20332E60
:10313000342E3230313800535720494E464F3A2012
:1031400056312E3638370053455249414C204E55A2
:103150004D4245523A3030303032330041434345DE
:103160004E54204F5247414E5300534F46545741FF
:10317000524520494E464F3A004F5247414E205348
:10318000455454494E4753004D454D4F52592042E6
:10319000414E4B004C4F4144494E47004552524F1F
:1031A000522000494E544F204D454D4F5259004436
:1031B000454641554C542053455454494E475300BD
:1031C0002F53455454494E47532F00494E544F20D6
:1031D0004F5247414E49535420002F5345545445B4
:1031E000522F004C4F414445440020005741495460
:1031F0000046524F4D2053442043415244204649FB
:103200004C45004C4F41442053455454494E47537C
:103210000046524F4D2053442043415244204649DA
:103220004C45004C4F41442050524F46494C4500BC
:103230004C4F4144004C4F41440073746174653AF3
:10324000004F4E20534420434152442046494C45B0
:103250003A002F53455454494E47532F004F4E20A8
:10326000534420434152442046494C453A002F5391
:1032700045545445522F00534156454400200057B1
:1032800041495400544F2053442043415244204666
:10329000494C4500534156452053455454494E47E7
:1032A0005300544F20534420434152442046494C3C
:1032B0004500534156452050524F46494C45005316
:1032C0004156450073746174653A0053454C45435B
:1032D000542050524F46494C453A002F53455454C0
:1032E00045522F002F53455454494E47532F002029
:1032F0005F5F657872616D206C6F633A006E616D1F
:103300006569643A00617661696C61626C6521008F
:10331000617661696C61626C65210053454C45437F
:10332000542046494C453A004E45004441002F5335
:1033300045545445522F002F53455454494E47533A
:103340002F004E45204F425354414A41004E4520E4
:103350004F425354414A4100205F5F657872616D6E
:10336000206C6F633A006E616D6569643A00544584
:103370004D504552414D454E543A004F5247414EF3
:10338000495354002D2035005354594C453A0035CB
:1033900020544553540034204943590033204155AB
:1033A00054554D4E003220414343454E5420424C2B
:1033B0005545003120414343454E54005345542068
:1033C000425554544F4E5320434F4C4F523A0054A1
:1033D00048454D453A003520544553540034204962
:1033E0004359003320415554554D4E00322044413D
:1033F000524B20424C5545003120414343454E54E9
:10340000007468656D653A3A004752414E44494F31
:10341000534F203233322054005452414E53504FB8
:1034200053453A005245564552423A00414C5245A6
:103430004144592045584953542100414C5245417B
:10344000445920455849535421005245432054497A
:103450004D453A00545241434B4E414D453A004E82
:1034600045004441002F545241434B532F46494C91
:10347000455F00504C41592054494D453A004C4558
:103480004E4754483A00545241434B4E414D453A01
:10349000004E45004441002F545241434B532F00EE
:1034A000205F5F657872616D206C6F633A007661B2
:1034B0006C3A00464F5247455420544F2043484FE2
:1034C0004F5345204E455720545241434B4E414D9A
:1034D0004521212100464F52204E45572052454359
:1034E0004F5244494E472C20444F204E4F540034F5
:1034F0002E434C49434B20464F522046494E495398
:103500004800332E50524F424C454D2053415649AE
:103510004E472100434C49434B20544F20434F4ECC
:1035200054494E554500332E534156454420494E8B
:10353000544F2046494C45000046494E49534820C7
:10354000504C4159494E472046494C452100322EA6
:1035500046494C4520495320504C4159494E47005B
:1035600000434C49434B20544F2053415645205271
:1035700045434F5244494E4720494E544F204649F7
:103580004C4500322E5245434F5244494E472E2E51
:103590002E0000454A4543542053442043415244A1
:1035A00020414E4420494E53455254204147414901
:1035B0004E00312E534420434152442050524F423A
:1035C0004C454D210043484F4F53452054524143F1
:1035D0004B4E414D452042454C4F572100434C49ED
:1035E000434B20544F205354415254205245434F93
:1035F0005244494E472C2046495253542000312E04
:103600005354415254205245434F5244494E47006F
:1036100073746174653A00504544414C53204341F2
:103620004C4942524154494F4E0050524553532049
:103630004D454E5520425554544F4E20544F204333
:10364000414C49425241544500352E205052455379
:1036500053204241434B20425554544F4E20003496
:103660002E2052454C4541534520532B31303020BC
:1036700000332E204D4F564520504544414C2046A6
:103680004F525741524420414E44205052455353CB
:1036900020532B31303000322E2052454C454153BF
:1036A0004520532B31302000312E204D4F564520E0
:1036B000504544414C204241434B574152442041E4
:1036C0004E4420505245535320532B313000352E59
:1036D000205052455353204241434B2042555454AD
:1036E0004F4E2000342E2052454C45415345205327
:1036F0002B3130302000332E204D4F564520504581
:1037000044414C20464F525741524420414E4420A0
:10371000505245535320532B31303000322E20521B
:10372000454C4541534520532B31302000312E204C
:103730004D4F564520504544414C204241434B5744
:1037400041524420414E4420505245535320532B64
:1037500031300073746174653A000046494E495334
:1037600048205245434F5244494E472100312E4193
:103770004354495645205245434F5244494E470011
:1037800000322E504C4159494E472046494C450085
:103790000046494E495348205245434F5244494EF2
:1037A000472100312E414354495645205245434F4D
:1037B0005244494E470000454A4543542053442053
:1037C0004341524420414E4420494E5345525420D7
:1037D000414741494E00312E534420434152442039
:1037E00050524F424C454D210046494C4500434CF8
:1037F00049434B20544F20535441525420504C4184
:1038000059494E472053454C4543544544200031C7
:103810002E535441525420504C4159494E47007345
:10382000746174653A0051002D455100485A002DCD
:1038300031326442006442004741494E002B31322C
:10384000644200464952535420445241570070612B
:1038500072656E7400487A00494E5645525445448C
:10386000004E4F524D414C2020002020202000646B
:103870004200487A004C0052002063616C6320567D
:10388000414C55453A200056414C55452000206397
:10389000616C632056414C55453A200056414C55C9
:1038A0004520002063616C632056414C55453A2009
:1038B0000056414C554520005452414E53504F53F1
:1038C00045007472616E73706F7365656565004E57
:1038D0004F4E45004F5247414E4953543A203132E2
:1038E000004F5247414E4953543A203131004F5214
:1038F00047414E4953543A203130004F5247414ED0
:103900004953543A203920004F5247414E495354AD
:103910003A203820004F5247414E4953543A2037FD
:1039200020004F5247414E4953543A203620004F11
:103930005247414E4953543A203520004F52474197
:103940004E4953543A203420004F5247414E495378
:10395000543A203320004F5247414E4953543A20A5
:103960003220004F5247414E4953543A20312000F3
:1039700072657365742D2D3E006E6920676100537A
:10398000544152545550204E4F54455320564F4C9D
:103990003A3A200020000C000C000400060002004F
:1039A0000A000000080004000000080004000000F5
:1039B000EDFFFBFFFAFFF5FFFEFFF4FFFDFFF8FF51
:1039C000F8FFFCFFF7FF0000F6FFFCFFFAFFF3FF34
:1039D000FEFFF4FF0000F8FFF8FFFCFFF2FF00001D
:1039E000F6FFF9FFFAFFF2FFFEFFF6FFFDFFF8FF1B
:1039F000F6FFFCFFF4FF0000F6FF0400FAFFF2FF01
:103A0000FEFFF6FF0200F8FFFBFFFCFFF4FF0000E3
:103A1000F6FF0400FAFFF2FFFEFFF6FF0200F8FFD8
:103A2000FBFFFCFFF3FF0000F9FFFEFFFDFFF8FFC7
:103A30000100F7FFFFFFFBFFFBFFFFFFF8FF0000A8
:103A4000F6FFFCFFFAFFF3FFFEFFF4FF0000F8FFB4
:103A5000F8FFFCFFF2FF0000F8FF0000FCFFF6FF9C
:103A60000000F6FF0000FAFFFBFFFEFFF6FF00007C
:103A7000F2FFFCFF0600F8FF0C00F4FFFEFFF0FF72
:103A8000FAFF0400F6FF0000F3FF00000800F6FF55
:103A90000300F6FF0000F0FFFBFF0600F6FF00004A
:103AA000F6FFF8FFFAFFF6FFFEFFF4FFFCFFF8FF5A
:103AB000F4FFFCFFF8FF0000F2FFFBFF0200F6FF3F
:103AC0000200F3FFFEFFFEFFF8FF0200F4FF00001C
:103AD000F4FFEEFFEDFFF2FFFEFFFDFF0200F6FF39
:103AE000F0FFEFFFF4FF00000200040006000800F2
:103AF000FEFF000002000400060008000A000000AB
:103B00000000040000000800FEFF000002000000AA
:103B1000060000000A000000E8FFF9FF0A00F2FFBB
:103B20000300EBFFFDFFE5FFF6FF0500EFFF0000E0
:103B3000F6FFFCFFFAFFF8FFFEFFF4FFFEFFF8FFC1
:103B4000FAFFFCFFF6FF000001000000FDFFFEFF92
:103B5000F9FFFCFFFFFF0300FDFFF1FFF7FF00008F
:103B6000ECFFFBFF0600F4FF0200EEFFFFFFEBFFA0
:103B7000F7FF0100F1FF0000EDFFFAFF0700F4FF7F
:103B80000300EFFFFDFFECFFF7FF0500F1FF000072
:103B9000000004000000F2FFFEFF00000200000031
:103BA000F0FFF4FF02000200020002000200020027
:103BB00002000200020002000200020057455243C8
:103BC0004B4D4549535445522032004B454C4C45D2
:103BD00054414C2031393737004B454C4C4554410A
:103BE0004C2031393636004B49524E4245524745FA
:103BF000522033004B49524E4245524745522032E3
:103C0000004B49524E4245524745522031004249ED
:103C10004C4C45544552204F5247454C004241437D
:103C20004B20574F4C54454D502E004241434820A5
:103C300042494C4C455445520053494C4245524D23
:103C4000414E20320053494C4245524D414E2031A5
:103C500000574552434B4D45495354455200534339
:103C6000484C49434B0047414E415353490047524A
:103C7000414D415448414555530038205059544115
:103C8000474F52415300372050524145544F5249FB
:103C90004F55530036204A4F554E47003520484F68
:103CA000204348454E4720544849454E0034204D56
:103CB000495454454C204D5552494F5247003320EA
:103CC0004D495454454C544F454E49470032204EBF
:103CD00041545545524C494353204841524D4F2E73
:103CE000003120455155414C007C3C3E5E2B3D3F10
:103CF0002F5B5D3B2C2A225C0020746F20007772C2
:103D0000697465206D656D2066726F6D0020746F3B
:103D10002000636C656172206D656D2066726F6D49
:103D20000066696C652073697A653A0053544152A4
:103D30005420414444524553533A004E45204F428B
:103D40005354414A412046414A4C21004F4253546A
:103D5000414A412046414A4C21006461746120007F
:103D60002046494C452050415448204C4F41443A4C
:103D70000050524F46494C452D3E0066696C652007
:103D800073697A653A005354415254204144445275
:103D90004553533A002046494C4520504154482051
:103DA000534156453A0050524F46494C452D3E002E
:103DB000656E642066696C652000202D73697A65E4
:103DC0002046414A4C210066696C652073697A651A
:103DD0003A004E45204F425354414A412046414A01
:103DE0004C21004F425354414A412046414A4C2104
:103DF000002046494C452050415448204C4F4144F6
:103E00003A0050524F46494C452D3E0066696C655C
:103E10002073697A653A0053544152542041444416
:103E2000524553533A002046494C4520504154488E
:103E300020534156453A0053455454494E47532D5B
:103E40003E0020636F756E743A002074696D653AA8
:103E500000203A3A20003D3D3D3D3D3D3D3D3D3D4C
:103E60003D3B44454320434D443A200053544F507A
:103E7000204348414E4745206F7220766F6C0020EA
:103E80003A200053544F50207370656320434841DB
:103E90004E474520003D3D3D3D3D3D3D3D3D3D3D89
:103EA0003D3D3D3D3D3D3D00204E45585F54494D13
:103EB000453A002054494D453A2000204E4558547B
:103EC0005F4144443A2000204144443A2000636D5D
:103ED00064206C656E6774683A200020534420505B
:103EE0004F534954494F4E3A200046494C452053C0
:103EF000495A453A20002000203A3A200020203B31
:103F000044454320434D443A2000203A3A200020C3
:103F10003A3A002048455820434D443A20007072F8
:103F20006F626C656D206E65207A617A6E610074D7
:103F30006D705F616464726573732000696D6520E4
:103F400066616A6C6120007661725F747261636B96
:103F50005F74696D653A00504C41595F636D645FF1
:103F6000636F756E743A007661725F6C6173745F33
:103F70006164643A0066696C652073697A653A0029
:103F800046494C45204F4B004C4F414420657852E8
:103F9000414D004E45204F425354414A4100594142
:103FA000592044454C41205344202B2B2B2B2B2BA9
:103FB0002B2B2B2B2B2B00696E697469616C697A32
:103FC0006174696F6E206661696C65642100686563
:103FD000616470686F6E65206571756C697A657271
:103FE000204F4646006865616470686F6E652065A5
:103FF00071756C697A6572204F4E004C4F4144498F
:104000004E472E2E2E00005245535441525421004B
:10401000003A3A454550524F4D20707265706172BA
:104020006500636F6D70696C6520646174653A202A
:10403000003D3D3D3D3D3D3D3D3D3D3D3D3D3D3DED
:104040003D3D3D524553544152543D3D3D3D3D3D26
:104050003D3D3D3D3D3D3D3D3D3D3D3D3D006E7564
:104060006C6C0073746F70206F6E2D3E000000B892
:104070000BB90BBA0BBB0BBE0BBF0BC00BC10B01BB
:1040800000C20BC30BC40BC50BC80BC90BCA0BCBAF
:104090000B0200C70BC80BC90BCA0BCD0BCE0BCF45
:1040A0000BD00B0300CC0BCD0BCE0BCF0BD20BD315
:1040B0000BD40BD50B0400D10BD20BD30BD40BD7E5
:1040C0000BD80BD90BDA0B0500D60BD70BD80BD9B5
:1040D0000BDC0BDD0BDE0BDF0B0600DB0BDC0BDD83
:1040E0000BDE0BE10BE20BE30BE40B0700E00BE153
:1040F0000BE20BE30BE60BE70BE80BE90B0800E523
:104100000BE60BE70BE80BEB0BEC0BED0BEE0B09E7
:1041100000EA0BEB0BEC0BED0BF00BF10BF20BF3DE
:104120000B0A00EF0BF00BF10BF20BF50BF60BF794
:104130000BF80B0B00F40BF50BF60BF70BFA0BFB64
:104140000BFC0BFD0B0C00F90BFA0BFB0BFC0BFF34
:104150000B000C010C020C0D00FE0BFF0B000C0100
:104160000C040C050C060C070C0E00030C040C05CB
:104170000C060C090C0A0C0B0C0C0C0F00080C099B
:104180000C0A0C0B0C0E0C0F0C100C110C10000D6B
:104190000C0E0C0F0C100C130C140C150C160C112F
:1041A00000120C130C140C150C180C190C1A0C1B07
:1041B0000C1200170C180C190C1A0C1D0C1E0C1FDD
:1041C0000C200C13001C0C1D0C1E0C1F0C220C23AD
:1041D0000C240C250C1400210C220C230C240C277D
:1041E0000C280C290C2A0C1500260C270C280C294D
:1041F0000C2C0C2D0C2E0C2F0C16002B0C2C0C2D1B
:104200000C2E0C310C320C330C340C1700300C31EA
:104210000C320C330C360C370C380C390C180035BA
:104220000C360C370C380C3B0C3C0C3D0C3E0C197E
:10423000003A0C3B0C3C0C3D0C400C410C420C4336
:104240000C1A003F0C400C410C420C450C460C472C
:104250000C480C1B00440C450C460C470C4A0C4BFC
:104260000C4C0C4D0C1C00490C4A0C4B0C4C0C4FCC
:104270000C500C510C520C1D004E0C4F0C500C519C
:104280000C540C550C560C570C1E00530C540C556A
:104290000C560C590C5A0C5B0C5C0C1F00580C593A
:1042A0000C5A0C5B0C5E0C5F0C600C610C20005D0A
:1042B0000C5E0C5F0C600C630C640C650C660C21CE
:1042C00000620C630C640C650C680C690C6A0C6B66
:1042D0000C2200670C680C690C6A0C6D0C6E0C6F7C
:1042E0000C700C23006C0C6D0C6E0C6F0C720C734C
:1042F0000C740C750C2400710C720C730C740C771C
:104300000C780C790C7A0C2500760C770C780C79EB
:104310000C7C0C7D0C7E0C7F0C26007B0C7C0C7DB9
:104320000C7E0C810C820C830C840C2700800C8189
:104330000C820C830C860C870C880C890C28008559
:104340000C860C870C880C8B0C8C0C8D0C8E0C0046
:104350000301010201040101020205010102030639
:104360000101020407010102050802020206090216
:104370000202070E020202080B020202090C0202EC
:10438000020A0D0202020B000201030C00020103EB
:104390000D000201030E000201030F0002010310D1
:1043A00000020103110002010312000201031300C5
:1043B00002010314080302041509030204160B0387
:1043C0000204170C030204180D030204190E030261
:1043D000041A0F0302041B080402041C090402044B
:1043E0001D0B0402041E0C0402041F0D0402042011
:1043F0000E04020421080102012209010201230B1B
:10440000010201240C010201250D010201260E0109
:1044100002012710010201280F010201C829000032
:1044200000C82A000000C82B000000C82C000000B3
:10443000C82D000000C82E000000C82F000000C8D2
:1044400030000000C831000000C832000000C8334E
:10445000000000C834000000C835000004C8360061
:10446000000337C8C8C8C86572726F72210049441A
:1044700020627574746E20666F6F742D3E006275D5
:1044800074746E203130303A2000627574746E207E
:1044900031303A200066697273742072656164007D
:1044A00073746F70206F6E2D3E0072656672657357
:1044B00068206E6F7465005452414E532056414C33
:1044C0000074752076729E652076656E0073656D4A
:1044D0002070726964650070697365206E61707226
:1044E000656A007072696465206D333A00707269A4
:1044F0006465206D323A00627574746E3A005345FB
:1045000054002B2B2B2B2B2B2B2B2B2B2B2B2B2BFD
:104510002B2B45585445524E414C2052414D204F73
:104520004B002D2D2D2D2D2D2D2D2D2D2D2D2D2DCA
:104530002D2D2D2D45585445524E414C2052414D64
:104540002050524F424C454D21002B2B2B2B2B2B17
:104550002B2B2B2B2B2B2B2B2B2B45585445524ED7
:10456000414C20454550524F4D204F4B002D2D2D95
:104570002D2D2D2D2D2D2D2D2D2D2D2D2D2D2D4553
:10458000585445524E414C20454550524F4D2050B5
:10459000524F424C454D2100000000000000000039
:1045A00000006E616E0000000A0B02090C0D0E087F
:1045B00007030401000000000000000000000000EC
:1045C00000000000000000000000000000000000EB
:1045D00000001211100000000000000000000000A8
:1045E00000000000000000000000000000000000CB
:1045F0000000000000000000000000000102102088
:104600002008081020401020408002010201080408
:10461000020101020408102040808040201008049C
:1046200002018004020180402010080402010804F5
:104630000201010204081020408001020408102039
:10464000408004081020408004800810044080103E
:1046500020400505050507050808080802020202B2
:104660000A0A08080404040401010101010101010E
:104670000303030303030303040707070C0C0C0CD9
:104680000C0C0C0C020202020606060606060606C2
:104690000B0B0B0B0B0B0B0B0A0A0A0A0A0A080876
:1046A0000707050505040404000020002300260078
:1046B00029002C002F003200000100000301060138
:1046C000090100002200250028002B002E003100E7
:1046D000340002010000050108010B010000210067
:1046E000240027002A002D003000330001010000C3
:1046F000040107010A012E012E022E102E20342063
:104700002E08820882108220824025102520254014
:10471000258085028501820282012B082B042B0251
:104720002B012201220222042208221022202240F0
:1047300022802880284028202810280828042802C1
:1047400028012B803404340234018B808B408B2071
:104750008B108B088B048B028B0125082504250206
:10476000250131013102310431083110312031404D
:104770003180880188028804880888108820884051
:104780008880FFFFFFFFFFFFFFFFFFFFFFFFFFFF2F
:10479000FFFFFFFFFFFFFFFFFFFFFFFFFFFFFFFF29
:1047A000FFFFFFFFFFFFFFFFFFFFFFFFFFFFFFFF19
:1047B000FFFFFFFFFFFFFFFFFFFFFFFFFFFFFFFF09
:1047C000FFFFFFFFFFFFFFFFFFFFFFFFFFFFFFFFF9
:1047D000FFFFFFFFFFFFFFFFFFFFFFFFFFFFFFFFE9
:1047E000FFFFFFFFFFFFFFFFFFFFFFFFFFFFFFFFD9
:1047F000FFFFFFFFFFFFFFFFFFFFFFFFFFFFFFFFC9
:10480000FFFFFFFFFFFFFFFFFFFFFFFFFFFFFFFFB8
:10481000FFFFFFFFFFFFFFFFFFFFFFFFFFFFFFFFA8
:10482000FFFFFFFFFFFFFFFFFFFFFFFFFFFFFFFF98
:10483000FFFFFFFFFFFFFFFFFFFFFFFFFFFFFFFF88
:10484000FFFFFFFFFFFFFFFFFFFFFFFFFFFFFFFF78
:10485000FFFFFFFFFFFFFFFFFFFFFFFFBACE7595D2
:10486000FFFFFFFFFFFFFFFFFFFFFFFFFFFFFFFF58
:10487000FFFFFFFFFFFFFFFFFFFFFFFFFFFFFFFF48
:10488000FFFFFFFFFFFFFFFFFFFFFFFFFFFFFFFF38
:10489000FFFFFFFFFFFFFFFFFFFFFFFFFFFFFFFF28
:1048A000FFFFFFFFFFFFFFFFFFFFFFFFFFFFFFFF18
:1048B000FFFFFFFFFFFFFFFFFFFFFFFFFFFFFFFF08
:1048C000FFFFFFFFFFFFFFFFFFFFFFFFFFFFFFFFF8
:1048D000FFFFFFFFFFFFFFFFFFFFFFFFFFFFFFFFE8
:1048E000FFFFFFFFFFFFFFFFFFFFFFFFFFFFFFFFD8
:1048F000FFFFFFFFFFFFFFFFFFFFFFFFFFFFFFFFC8
:10490000FFFFFFFFFFFFFFFFFFFFFFFFFFFFFFFFB7
:10491000FFFFFFFFFFFFFFFFFFFFFFFFFFFFFFFFA7
:10492000FFFFFFFFFFFFFFFFFFFFFFFFFFFFFFFF97
:10493000FFFFFFFFFFFFFFFFFFFFFFFFFFFFFFFF87
:10494000FFFFFFFFFFFFFFFFFFFFFFFFFFFFFFFF77
:10495000FFFFFFFFFFFFFFFFFFFFFFFFFFFFFFFF67
:10496000FFFFFFFFFFFFFFFFFFFFFFFFFFFFFFFF57
:10497000FFFFFFFFFFFFFFFFFFFFFFFFFFFFFFFF47
:10498000FFFFFFFFFFFFFFFFFFFFFFFFFFFFFFFF37
:10499000FFFFFFFFFFFFFFFFFFFFFFFFFFFFFFFF27
:1049A000FFFFFFFFFFFFFFFFFFFFFFFFFFFFFFFF17
:1049B000FFFFFFFFFFFFFFFFFFFFFFFFFFFFFFFF07
:1049C000FFFFFFFFFFFFFFFFFFFFFFFFFFFFFFFFF7
:1049D000FFFFFFFFFFFFFFFFFFFFFFFFFFFFFFFFE7
:1049E000FFFFFFFFFFFFFFFFFFFFFFFFFFFFFFFFD7
:1049F000FFFFFFFFFFFFFFFFFFFFFFFF9EF72C3BC7
:104A00002812959DFFFFFFFFFFFFFFFFFFFFFFFF46
:104A1000FFFFFFFFFFFFFFFFFFFFFFFFFFFFFFFFA6
:104A2000FFFFFFFFFFFFFFFFFFFFFFFFFFFFFFFF96
:104A3000FFFFFFFFFFFFFFFFFFFFFFFFFFFFFFFF86
:104A4000FFFFFFFFFFFFFFFFFFFFFFFFFFFFFFFF76
:104A5000FFFFFFFFFFFFFFFFFFFFFFFFFFFFFFFF66
:104A6000FFFFFFFFFFFFFFFFFFFFFFFFFFFFFFFF56
:104A7000FFFFFFFFFFFFFFFFFFFFFFFFFFFFFFFF46
:104A8000FFFFFFFFFFFFFFFFFFFFFFFFFFFFFFFF36
:104A9000FFFFFFFFFFFFFFFFFFFFFFFFFFFFFFFF26
:104AA000FFFFFFFFFFFFFFFFFFFFFFFFFFFFFFFF16
:104AB000FFFFFFFFFFFFFFFFFFFFFFFFFFFFFFFF06
:104AC000FFFFFFFFFFFFFFFFFFFFFFFFFFFFFFFFF6
:104AD000FFFFFFFFFFFFFFFFFFFFFFFFFFFFFFFFE6
:104AE000FFFFFFFFFFFFFFFFFFFFFFFFFFFFFFFFD6
:104AF000FFFFFFFFFFFFFFFFFFFFFFFFFFFFFFFFC6
:104B0000FFFFFFFFFFFFFFFFFFFFFFFFFFFFFFFFB5
:104B1000FFFFFFFFFFFFFFFFFFFFFFFFFFFFFFFFA5
:104B2000FFFFFFFFFFFFFFFFFFFFFFFFFFFFFFFF95
:104B3000FFFFFFFFFFFFFFFFFFFFFFFFFFFFFFFF85
:104B4000FFFFFFFFFFFFFFFFFFFFFFFFFFFFFFFF75
:104B5000FFFFFFFFFFFFFFFFFFFFFFFFFFFFFFFF65
:104B6000FFFFFFFFFFFFFFFFFFFFFFFFFFFFFFFF55
:104B7000FFFFFFFFFFFFFFFFFFFFFFFFFFFFFFFF45
:104B8000FFFFFFFFFFFFFFFFFFFFFFFFFFFFFFFF35
:104B9000FFFFFFFFFFFFFFFFFFFFFFFFFFFF5DE7DF
:104BA000AA224812B274FFFFFFFFFFFFFFFFFFFFC3
:104BB000FFFFFFFFFFFFFFFFFFFFFFFFFFFFFFFF05
:104BC000FFFFFFFFFFFFFFFFFFFFFFFFFFFFFFFFF5
:104BD000FFFFFFFFFFFFFFFFFFFFFFFFFFFFFFFFE5
:104BE000FFFFFFFFFFFFFFFFFFFFFFFFFFFFFFFFD5
:104BF000FFFFFFFFFFFFFFFFFFFFFFFFFFFFFFFFC5
:104C0000FFFFFFFFFFFFFFFFFFFFFFFFFFFFFFFFB4
:104C1000FFFFFFFFFFFFFFFFFFFFFFFFFFFFFFFFA4
:104C2000FFFFFFFFFFFFFFFFFFFFFFFFFFFFFFFF94
:104C3000FFFFFFFFFFFFFFFFFFFFFFFFFFFFFFFF84
:104C4000FFFFFFFFFFFFFFFFFFFFFFFFFFFFFFFF74
:104C5000FFFFFFFFFFFFFFFFFFFFFFFFFFFFFFFF64
:104C6000FFFFFFFFFFFFFFFFFFFFFFFFFFFFFFFF54
:104C7000FFFFFFFFFFFFFFFFFFFFFFFFFFFFFFFF44
:104C8000FFFFFFFFFFFFFFFFFFFFFFFFFFFFFFFF34
:104C9000FFFFFFFFFFFFFFFFFFFFFFFFFFFFFFFF24
:104CA000FFFFFFFFFFFFFFFFFFFFFFFFFFFFFFFF14
:104CB000FFFFFFFFFFFFFFFFFFFFFFFFFFFFFFFF04
:104CC000FFFFFFFFFFFFFFFFFFFFFFFFFFFFFFFFF4
:104CD000FFFFFFFFFFFFFFFFFFFFFFFFFFFFFFFFE4
:104CE000FFFFFFFFFFFFFFFFFFFFFFFFFFFFFFFFD4
:104CF000FFFFFFFFFFFFFFFFFFFFFFFFFFFFFFFFC4
:104D0000FFFFFFFFFFFFFFFFFFFFFFFFFFFFFFFFB3
:104D1000FFFFFFFFFFFFFFFFFFFFFFFFFFFFFFFFA3
:104D2000FFFFFFFFFFFFFFFFFFFFFFFFFFFFFFFF93
:104D3000FFFFFFFFFFFFFFFFFFFFFFFFFFFFFFFF83
:104D40005DE7AA224812B27CFFFFFFFFFFFFFFFFD3
:104D5000FFFFFFFFFFFFFFFFFFFFFFFFFFFFFFFF63
:104D6000FFFFFFFFFFFFFFFFFFFFFFFFFFFFFFFF53
:104D7000FFFFFFFFFFFFFFFFFFFFFFFFFFFFFFFF43
:104D8000FFFFFFFFFFFFFFFFFFFFFFFFFFFFFFFF33
:104D9000FFFFFFFFFFFFFFFFFFFFFFFFFFFFFFFF23
:104DA000FFFFFFFFFFFFFFFFFFFFFFFFFFFFFFFF13
:104DB000FFFFFFFFFFFFFFFFFFFFFFFFFFFFFFFF03
:104DC000FFFFFFFFFFFFFFFFFFFFFFFFFFFFFFFFF3
:104DD000FFFFFFFFFFFFFFFFFFFFFFFFFFFFFFFFE3
:104DE000FFFFFFFFFFFFFFFFFFFFFFFFFFFFFFFFD3
:104DF000FFFFFFFFFFFFFFFFFFFFFFFFFFFFFFFFC3
:104E0000FFFFFFFFFFFFFFFFFFFFFFFFFFFFFFFFB2
:104E1000FFFFFFFFFFFFFFFFFFFFFFFFFFFFFFFFA2
:104E2000FFFFFFFFFFFFFFFFFFFFFFFFFFFFFFFF92
:104E3000FFFFFFFFFFFFFFFFFFFFFFFFFFFFFFFF82
:104E4000FFFFFFFFFFFFFFFFFFFFFFFFFFFFFFFF72
:104E5000FFFFFFFFFFFFFFFFFFFFFFFFFFFFFFFF62
:104E6000FFFFFFFFFFFFFFFFFFFFFFFFFFFFFFFF52
:104E7000FFFFFFFFFFFFFFFFFFFFFFFFFFFFFFFF42
:104E8000FFFFFFFFFFFFFFFFFFFFFFFFFFFFFFFF32
:104E9000FFFFFFFFFFFFFFFFFFFFFFFFFFFFFFFF22
:104EA000FFFFFFFFFFFFFFFFFFFFFFFFFFFFFFFF12
:104EB000FFFFFFFFFFFFFFFFFFFFFFFFFFFFFFFF02
:104EC000FFFFFFFFFFFFFFFFFFFFFFFFFFFFFFFFF2
:104ED000FFFFFFFFFFFFFFFFFFFFFFFFFFFFFFFFE2
:104EE000FFFF5DE7AA224812B27CFFFFFFFFFFFF32
:104EF000FFFFFFFFFFFFFFFFFFFFFFFFFFFFFFFFC2
:104F0000FFFFFFFFFFFFFFFFFFFFFFFFFFFFFFFFB1
:104F1000FFFFFFFFFFFFFFFFFFFFFFFFFFFFFFFFA1
:104F2000FFFFFFFFFFFFFFFFFFFFFFFFFFFFFFFF91
:104F3000FFFFFFFFFFFFFFFFFFFFFFFFFFFFFFFF81
:104F4000FFFFFFFFFFFFFFFFFFFFFFFFFFFFFFFF71
:104F5000FFFFFFFFFFFFFFFFFFFFFFFFFFFFFFFF61
:104F6000FFFFFFFFFFFFFFFFFFFFFFFFFFFFFFFF51
:104F7000FFFFFFFFFFFFFFFFFFFFFFFFFFFFFFFF41
:104F8000FFFFFFFFFFFFFFFFFFFFFFFFFFFFFFFF31
:104F9000FFFFFFFFFFFFFFFFFFFFFFFFFFFFFFFF21
:104FA000FFFFFFFFFFFFFFFFFFFFFFFFFFFFFFFF11
:104FB000FFFFFFFFFFFFFFFFFFFFFFFFFFFFFFFF01
:104FC000FFFFFFFFFFFFFFFFFFFFFFFFFFFFFFFFF1
:104FD000FFFFFFFFFFFFFFFFFFFFFFFFFFFFFFFFE1
:104FE000FFFFFFFFFFFFFFFFFFFFFFFFFFFFFFFFD1
:104FF000FFFFFFFFFFFFFFFFFFFFFFFFFFFFFFFFC1
:10500000FFFFFFFFFFFFFFFFFFFFFFFFFFFFFFFFB0
:10501000FFFFFFFFFFFFFFFFFFFFFFFFFFFFFFFFA0
:10502000FFFFFFFFFFFFFFFFFFFFFFFFFFFFFFFF90
:10503000FFFFFFFFFFFFFFFFFFFFFFFFFFFFFFFF80
:10504000FFFFFFFFFFFFFFFFFFFFFFFFFFFFFFFF70
:10505000FFFFFFFFFFFFFFFFFFFFFFFFFFFFFFFF60
:10506000FFFFFFFFFFFFFFFFFFFFFFFFFFFFFFFF50
:10507000FFFFFFFFFFFFFFFFFFFFFFFFFFFFFFFF40
:10508000FFFFFFFF5DE7AA224812B27CFFFFFFFF90
:10509000FFFFFFFFFFFFFFFFFFFFFFFFFFFFFFFF20
:1050A000FFFFFFFFFFFFFFFFFFFFFFFFFFFFFFFF10
:1050B000FFFFFFFFFFFFFFFFFFFFFFFFFFFFFFFF00
:1050C000FFFFFFFFFFFFFFFFFFFFFFFFFFFFFFFFF0
:1050D000FFFFFFFFFFFFFFFFFFFFFFFFFFFFFFFFE0
:1050E000FFFFFFFFFFFFFFFFFFFFFFFFFFFFFFFFD0
:1050F000FFFFFFFFFFFFFFFFFFFFFFFFFFFFFFFFC0
:10510000FFFFFFFFFFFFFFFFFFFFFFFFFFFFFFFFAF
:10511000FFFFFFFFFFFFFFFFFFFFFFFFFFFFFFFF9F
:10512000FFFFFFFFFFFFFFFFFFFFFFFFFFFFFFFF8F
:10513000FFFFFFFFFFFFFFFFFFFFFFFFFFFFFFFF7F
:10514000FFFFFFFFFFFFFFFFFFFFFFFFFFFFFFFF6F
:10515000FFFFFFFFFFFFFFFFFFFFFFFFFFFFFFFF5F
:10516000FFFFFFFFFFFFFFFFFFFFFFFFFFFFFFFF4F
:10517000FFFFFFFFFFFFFFFFFFFFFFFFFFFFFFFF3F
:10518000FFFFFFFFFFFFFFFFFFFFFFFFFFFFFFFF2F
:10519000FFFFFFFFFFFFFFFFFFFFFFFFFFFFFFFF1F
:1051A000FFFFFFFFFFFFFFFFFFFFFFFFFFFFFFFF0F
:1051B000FFFFFFFFFFFFFFFFFFFFFFFFFFFFFFFFFF
:1051C000FFFFFFFFFFFFFFFFFFFFFFFFFFFFFFFFEF
:1051D000FFFFFFFFFFFFFFFFFFFFFFFFFFFFFFFFDF
:1051E000FFFFFFFFFFFFFFFFFFFFFFFFFFFFFFFFCF
:1051F000FFFFFFFFFFFFFFFFFFFFFFFFFFFFFFFFBF
:10520000FFFFFFFFFFFFFFFFFFFFFFFFFFFFFFFFAE
:10521000FFFFFFFFFFFFFFFFFFFFFFFFFFFFFFFF9E
:10522000FFFFFFFFFFFF5DE7AA224812B27CFFFFEE
:10523000FFFFFFFFFFFFFFFFFFFFFFFFFFFFFFFF7E
:10524000FFFFFFFFFFFFFFFFFFFFFFFFFFFFFFFF6E
:10525000FFFFFFFFFFFFFFFFFFFFFFFFFFFFFFFF5E
:10526000FFFFFFFFFFFFFFFFFFFFFFFFFFFFFFFF4E
:10527000FFFFFFFFFFFFFFFFFFFFFFFFFFFFFFFF3E
:10528000FFFFFFFFFFFFFFFFFFFFFFFFFFFFFFFF2E
:10529000FFFFFFFFFFFFFFFFFFFFFFFFFFFFFFFF1E
:1052A000FFFFFFFFFFFFFFFFFFFFFFFFFFFFFFFF0E
:1052B000FFFFFFFFFFFFFFFFFFFFFFFFFFFFFFFFFE
:1052C000FFFFFFFFFFFFFFFFFFFFFFFFFFFFFFFFEE
:1052D000FFFFFFFFFFFFFFFFFFFFFFFFFFFFFFFFDE
:1052E000FFFFFFFFFFFFFFFFFFFFFFFFFFFFFFFFCE
:1052F000FFFFFFFFFFFFFFFFFFFFFFFFFFFFFFFFBE
:10530000FFFFFFFFFFFFFFFFFFFFFFFFFFFFFFFFAD
:10531000FFFFFFFFFFFFFFFFFFFFFFFFFFFFFFFF9D
:10532000FFFFFFFFFFFFFFFFFFFFFFFFFFFFFFFF8D
:10533000FFFFFFFFFFFFFFFFFFFFFFFFFFFFFFFF7D
:10534000FFFFFFFFFFFFFFFFFFFFFFFFFFFFFFFF6D
:10535000FFFFFFFFFFFFFFFFFFFFFFFFFFFFFFFF5D
:10536000FFFFFFFFFFFFFFFFFFFFFFFFFFFFFFFF4D
:10537000FFFFFFFFFFFFFFFFFFFFFFFFFFFFFFFF3D
:10538000FFFFFFFFFFFFFFFFFFFFFFFFFFFFFFFF2D
:10539000FFFFFFFFFFFFFFFFFFFFFFFFFFFFFFFF1D
:1053A000FFFFFFFFFFFFFFFFFFFFFFFFFFFFFFFF0D
:1053B000FFFFFFFFFFFFFFFFFFFFFFFFFFFFFFFFFD
:1053C000FFFFFFFFFFFFFFFF5DE7AA224812B27C4D
:1053D000FFFFFFFFFFFFFFFFFFFFFFFFFFFFFFFFDD
:1053E000FFFFFFFFFFFFFFFFFFFFFFFFFFFFFFFFCD
:1053F000FFFFFFFFFFFFFFFFFFFFFFFFFFFFFFFFBD
:10540000FFFFFFFFFFFFFFFFFFFFFFFFFFFFFFFFAC
:10541000FFFFFFFFFFFFFFFFFFFFFFFFFFFFFFFF9C
:10542000FFFFFFFFFFFFFFFFFFFFFFFFFFFFFFFF8C
:10543000FFFFFFFFFFFFFFFFFFFFFFFFFFFFFFFF7C
:10544000FFFFFFFFFFFFFFFFFFFFFFFFFFFFFFFF6C
:10545000FFFFFFFFFFFFFFFFFFFFFFFFFFFFFFFF5C
:10546000FFFFFFFFFFFFFFFFFFFFFFFFFFFFFFFF4C
:10547000FFFFFFFFFFFFFFFFFFFFFFFFFFFFFFFF3C
:10548000FFFFFFFFFFFFFFFFFFFFFFFFFFFFFFFF2C
:10549000FFFFFFFFFFFFFFFFFFFFFFFFFFFFFFFF1C
:1054A000FFFFFFFFFFFFFFFFFFFFFFFFFFFFFFFF0C
:1054B000FFFFFFFFFFFFFFFFFFFFFFFFFFFFFFFFFC
:1054C000FFFFFFFFFFFFFFFFFFFFFFFFFFFFFFFFEC
:1054D000FFFFFFFFFFFFFFFFFFFFFFFFFFFFFFFFDC
:1054E000FFFFFFFFFFFFFFFFFFFFFFFFFFFFFFFFCC
:1054F000FFFFFFFFFFFFFFFFFFFFFFFFFFFFFFFFBC
:10550000FFFFFFFFFFFFFFFFFFFFFFFFFFFFFFFFAB
:10551000FFFFFFFFFFFFFFFFFFFFFFFFFFFFFFFF9B
:10552000FFFFFFFFFFFFFFFFFFFFFFFFFFFFFFFF8B
:10553000FFFFFFFFFFFFFFFFFFFFFFFFFFFFFFFF7B
:10554000FFFFFFFFFFFFFFFFFFFFFFFFFFFFFFFF6B
:10555000FFFFFFFFFFFFFFFFFFFFFFFFFFFF5DE715
:10556000969DDBD6FFFFFFFFFFFF5DE7AA224812F3
:10557000B27CFFFFFFFFFFFFFFFFFFFFFFFFFFFF0B
:10558000FFFFFFFFFFFFFFFFFFFFFFFFFFFFFFFF2B
:10559000FFFFFFFFFFFFFFFFFFFFFFFFFFFFFFFF1B
:1055A000FFFFFFFFFFFFFFFFFFFFFFFFFFFFFFFF0B
:1055B000FFFFFFFFFFFFFFFFFFFFFFFFFFFFFFFFFB
:1055C000FFFFFFFFFFFFFFFFFFFFFFFFFFFFFFFFEB
:1055D000FFFFFFFFFFFFFFFFFFFFFFFFFFFFFFFFDB
:1055E000FFFFFFFFFFFFFFFFFFFFFFFFFFFFFFFFCB
:1055F000FFFFFFFFFFFFFFFFFFFFFFFFFFFFFFFFBB
:10560000FFFFFFFFFFFFFFFFFFFFFFFFFFFFFFFFAA
:10561000FFFFFFFFFFFFFFFFFFFFFFFFFFFFFFFF9A
:10562000FFFFFFFFFFFFFFFFFFFFFFFFFFFFFFFF8A
:10563000FFFFFFFFFFFFFFFFFFFFFFFFFFFFFFFF7A
:10564000FFFFFFFFFFFFFFFFFFFFFFFFFFFFFFFF6A
:10565000FFFFFFFFFFFFFFFFFFFFFFFFFFFFFFFF5A
:10566000FFFFFFFFFFFFFFFFFFFFFFFFFFFFFFFF4A
:10567000FFFFFFFFFFFFFFFFFFFFFFFFFFFFFFFF3A
:10568000FFFFFFFFFFFFFFFFFFFFFFFFFFFFFFFF2A
:10569000FFFFFFFFFFFFFFFFFFFFFFFFFFFFFFFF1A
:1056A000FFFFFFFFFFFFFFFFFFFFFFFFFFFFFFFF0A
:1056B000FFFFFFFFFFFFFFFFFFFFFFFFFFFFFFFFFA
:1056C000FFFFFFFFFFFFFFFFFFFFFFFFFFFFFFFFEA
:1056D000FFFFFFFFFFFFFFFFFFFFFFFFFFFFFFFFDA
:1056E000FFFFFFFFFFFFFFFFFFFFFFFFFFFFFFFFCA
:1056F000FFFFFFFFFFFFFFFFFFFFFFFFFFFFDFF7E2
:105700006D432812CA2ADBCEFFFFFFFF5DE7AA2206
:105710004812B27CFFFFFFFFFFFFFFFFFFFFFFFF0D
:10572000FFFFFFFFFFFFFFFFFFFFFFFFFFFFFFFF89
:10573000FFFFFFFFFFFFFFFFFFFFFFFFFFFFFFFF79
:10574000FFFFFFFFFFFFFFFFFFFFFFFFFFFFFFFF69
:10575000FFFFFFFFFFFFFFFFFFFFFFFFFFFFFFFF59
:10576000FFFFFFFFFFFFFFFFFFFFFFFFFFFFFFFF49
:10577000FFFFFFFFFFFFFFFFFFFFFFFFFFFFFFFF39
:10578000FFFFFFFFFFFFFFFFFFFFFFFFFFFFFFFF29
:10579000FFFFFFFFFFFFFFFFFFFFFFFFFFFFFFFF19
:1057A000FFFFFFFFFFFFFFFFFFFFFFFFFFFFFFFF09
:1057B000FFFFFFFFFFFFFFFFFFFFFFFFFFFFFFFFF9
:1057C000FFFFFFFFFFFFFFFFFFFFFFFFFFFFFFFFE9
:1057D000FFFFFFFFFFFFFFFFFFFFFFFFFFFFFFFFD9
:1057E000FFFFFFFFFFFFFFFFFFFFFFFFFFFFFFFFC9
:1057F000FFFFFFFFFFFFFFFFFFFFFFFFFFFFFFFFB9
:10580000FFFFFFFFFFFFFFFFFFFFFFFFFFFFFFFFA8
:10581000FFFFFFFFFFFFFFFFFFFFFFFFFFFFFFFF98
:10582000FFFFFFFFFFFFFFFFFFFFFFFFFFFFFFFF88
:10583000FFFFFFFFFFFFFFFFFFFFFFFFFFFFFFFF78
:10584000FFFFFFFFFFFFFFFFFFFFFFFFFFFFFFFF68
:10585000FFFFFFFFFFFFFFFFFFFFFFFFFFFFFFFF58
:10586000FFFFFFFFFFFFFFFFFFFFFFFFFFFFFFFF48
:10587000FFFFFFFFFFFFFFFFFFFFFFFFFFFFFFFF38
:10588000FFFFFFFFFFFFFFFFFFFFFFFFFFFFFFFF28
:10589000FFFFFFFFFFFFFFFFFFFFFFFFFFFFFFFF18
:1058A0001CDF691A691A691A759DFFFFFFFF5DE722
:1058B000AA224812B27CFFFFFFFFFFFFFFFFFFFF9E
:1058C000FFFFFFFFFFFFFFFFFFFFFFFFFFFFFFFFE8
:1058D000FFFFFFFFFFFFFFFFFFFFFFFFFFFFFFFFD8
:1058E000FFFFFFFFFFFFFFFFFFFFFFFFFFFFFFFFC8
:1058F000FFFFFFFFFFFFFFFFFFFFFFFFFFFFFFFFB8
:10590000FFFFFFFFFFFFFFFFFFFFFFFFFFFFFFFFA7
:10591000FFFFFFFFFFFFFFFFFFFFFFFFFFFFFFFF97
:10592000FFFFFFFFFFFFFFFFFFFFFFFFFFFFFFFF87
:10593000FFFFFFFFFFFFFFFFFFFFFFFFFFFFFFFF77
:10594000FFFFFFFFFFFFFFFFFFFFFFFFFFFFFFFF67
:10595000FFFFFFFFFFFFFFFFFFFFFFFFFFFFFFFF57
:10596000FFFFFFFFFFFFFFFFFFFFFFFFFFFFFFFF47
:10597000FFFFFFFFFFFFFFFFFFFFFFFFFFFFFFFF37
:10598000FFFFFFFFFFFFFFFFFFFFFFFFFFFFFFFF27
:10599000FFFFFFFFFFFFFFFFFFFFFFFFFFFFFFFF17
:1059A000FFFFFFFFFFFFFFFFFFFFFFFFFFFFFFFF07
:1059B000FFFFFFFFFFFFFFFFFFFFFFFFFFFFFFFFF7
:1059C000FFFFFFFFFFFFFFFFFFFFFFFFFFFFFFFFE7
:1059D000FFFFFFFFFFFFFFFFFFFFFFFFFFFFFFFFD7
:1059E000FFFFFFFFFFFFFFFFFFFFFFFFFFFFFFFFC7
:1059F000FFFFFFFFFFFFFFFFFFFFFFFFFFFFFFFFB7
:105A0000FFFFFFFFFFFFFFFFFFFFFFFFFFFFFFFFA6
:105A1000FFFFFFFFFFFFFFFFFFFFFFFFFFFFFFFF96
:105A2000FFFFFFFFFFFFFFFFFFFFFFFFFFFFFFFF86
:105A3000FFFFFFFFFFFFFFFFFFFFFFFFFFFFFFFF76
:105A4000FFFF1CDF891A891A691A759DFFFFFFFF86
:105A50005DE7AA224812B27CFFFFFFFFFFFFFFFFB6
:105A6000FFFFFFFFFFFFFFFFFFFFFFFFFFFFFFFF46
:105A7000FFFFFFFFFFFFFFFFFFFFFFFFFFFFFFFF36
:105A8000FFFFFFFFFFFFFFFFFFFFFFFFFFFFFFFF26
:105A9000FFFFFFFFFFFFFFFFFFFFFFFFFFFFFFFF16
:105AA000FFFFFFFFFFFFFFFFFFFFFFFFFFFFFFFF06
:105AB000FFFFFFFFFFFFFFFFFFFFFFFFFFFFFFFFF6
:105AC000FFFFFFFFFFFFFFFFFFFFFFFFFFFFFFFFE6
:105AD000FFFFFFFFFFFFFFFFFFFFFFFFFFFFFFFFD6
