:100000000C94127D0D946C8D0D94978D0D94C28D72
:100010000D94ED8D0D94188E0D94438E0D946E8E6F
:100020000D94998E0D94A7950D94A7950D94A79571
:100030000C94437D0C94437D0C94437D0C94437D40
:100040000C94437D0C94437D0C94437D0C94437D30
:100050000C94437D0C94437D0C94437D0D94C48E8D
:100060000C94437D0D9484890D94C8890C94437D30
:100070000C94437D0C94437D0C94437D0C94437D00
:100080000C94437D0C94437D0C94437D0C94437DF0
:100090000D94278A0D946B8A0C94437D0C94437DB8
:1000A0000C94437D0C94437D0C94437D0C94437DD0
:1000B0000C94437D0C94437D0C94437D0C94437DC0
:1000C0000C94437D0C94437D0C94437D0D94CA8A1B
:1000D0000D940E8B0C94437D0D946D8B0D94B18B10
:1000E0000C94437DB48ABA8AC08AC68ACC8AD28AE2
:1000F000D88ADE8AE48AEA8AA88AAE8AFA8CF48CE4
:10010000EE8CE88CE28CDC8CD68CD08CCA8CC48CC7
:10011000BE8CB88CB28CAC8CA68CA08C9A8C948C37
:100120008E8C888C828C7C8C768C708C6A8C648CA7
:100130005E8C588C528C4C8C468C408C3A8C348C17
:100140002E8C288C228C1C8C168C108C0A8C048B88
:10015000048B048CFE8BF88BF28BEC8BE68BE08BA4
:10016000DA8BD48BCE8BC88BC28BBC8BB68BB08B0F
:10017000AA8BA48B9E8B988B928B8C8B868B808B7F
:100180007A8B748B6E8B688B628B5C8B568B508BEF
:100190004A8B448B3E8B388B328B2C8B268B208B5F
:1001A0001A8B148B9C96969690968A9684967E9639
:1001B0007896A296D79DD19DCB9DC59DBF9DB99D9B
:1001C000B39DDD9DC8AECFAED6AEDDAEE4AEEBAE38
:1001D000F2AEF9AE00AF07AFBAAEC1AED4B0CBB09D
:1001E000C2B0B9B0B0B0A7B09EB095B08CB083B07B
:1001F0007AB071B068B05FB056B04DB044B03BB0AB
:1002000032B029B03FAF20B0DDB0A6C29FC298C2C5
:1002100091C28AC283C27CC275C26EC267C260C20A
:10022000ADC20ED420D473D438D37ED490D4A2D40B
:1002300038D338D338D338D3B4D438D3C6D4D8D4B9
:100240002BD538D336D57ED548D527D338D338D318
:1002500038D338D35AD56CD55CD34ED342D342D39E
:1002600042D342D342D342D342D342D342D342D3E6
:1002700042D342D342D3DBD3B6D390D36AD342D353
:1002800042D342D342D342D342D342D342D342D3C6
:1002900042D342D342D342D342D342D342D35CD39C
:1002A0004ED300D407D41FDE91DC18DE26DEB4DD89
:1002B00091DC59DD91DC51DD49DD91DC91DC42DDE1
:1002C0003DDD38DD34DD2FDD07DD91DC02DDFDDCD9
:1002D000F8DCF4DCEFDCEADCE6DCE1DCDCDCD7DCFF
:1002E000D2DCCDDCC6DCC1DCBCDCB7DCB2DCADDC36
:1002F000A8DC8DDCA1DCEADF79DEE3DFF1DF78DF8B
:1003000079DE1EDF79DE16DF0EDF79DE79DE07DFCC
:1003100002DFFDDEF8DEF3DE51DE79DEEEDEE9DE61
:10032000E4DEE0DEDBDED6DED2DECDDEC8DEC3DE3E
:10033000BEDEB9DEB2DEADDEA8DEA3DE9EDE99DE75
:1003400094DE8FDE88DEB7E145E0B0E1BEE145E155
:1003500045E0EBE045E0E3E0DBE045E045E0D4E00C
:10036000CFE0CAE0C5E0C0E01CE045E0BBE0B6E09D
:10037000B1E0ADE0A8E0A3E09EE099E094E08FE07A
:100380008AE085E07EE079E074E06FE06AE065E0B5
:1003900060E05BE054E084E312E27DE38BE312E390
:1003A00012E2B8E212E2B0E2A8E212E212E2A1E244
:1003B0009CE297E292E28DE2E9E112E288E283E2D6
:1003C0007EE27AE275E270E26BE266E261E25CE2B2
:1003D00057E252E24BE246E241E23CE237E232E2ED
:1003E0002DE228E221E262E5ACE35BE569E5F0E4B9
:1003F000ACE39DE4ACE395E48DE4ACE3ACE386E4EC
:1004000081E47CE477E472E448E4ACE343E43EE472
:1004100039E434E42FE42AE425E420E41BE416E480
:1004200011E40CE405E400E4FBE3F6E3F1E3ECE3C0
:10043000E7E3E2E3DBE372F504F607F622F625F6DE
:1004400063F52BF62EF663F537F616F619F61CF65D
:100450001FF610F613F60DF663F528F631F663F580
:100460000AF6C4F434F672F504F607F622F625F619
:1004700063F52BF62EF663F537F616F619F61CF62D
:100480001FF610F613F60DF663F528F631F663F550
:100490000AF6C4F434F61EF721F724F727F72AF7F3
:1004A00009F76AF62DF709F71BF718F74F049503BC
:1004B000430305048F03D50361034D033F03AF03DB
:1004C0008303330409044104370337033504350437
:1004D0003504350435043504350435043703350453
:1004E0003504350435043504350435043504350444
:1004F0003703370337033703350435043504350430
:100500003504350437033703F503D703AB03AB03D7
:10051000AB03AB03AB03AB03AB03AB03D103AB0345
:10052000AB03AB03AB03AB03AB03AB03AB03AB035B
:10053000EF039D033D034F03AB03AB03AB03AB03DF
:10054000AB03AB03810391037B03FB035D039903BF
:10055000DF035503E503B1031F042B04C103270385
:10056000CB0377030304FD0335033704FD03B30313
:10057000470347037103FD03FD037D034703C303E3
:10058000CD03BD0349040F042B03D3030704B903B0
:100590000104210453046703E903BB033D04790309
:1005A0009B032F04BF03AD03670343049703A70313
:1005B00087034704A9035103510351032904FF038F
:1005C0008703FF033303FF031D041D0415041504F3
:1005D000A90331033103A9031D04FF035103F303EE
:1005E000FF03FF03FF03FF03FF037503FF03FF0385
:1005F0007F03F103E7034103DD03DD034503E1036B
:100600006B0355042304EB03650357043F043F04C5
:10061000E703F903F903E70369034504DB0359031F
:100620001304A103B50327049F03ED0319042D034D
:1006300005A84CCDB2D44EB93836A9020C50B991A8
:100640008688083CA6AAAA2ABE000000803F0D9416
:1006500049820D9478840D94528D0D9423AB0D94A2
:10066000DC210D9407A20D9477A10D94B0840D9414
:10067000AA770D946F910D9459530D94BE770D94F4
:100680006F4A0D948EA50D94514A0D942BA80D948C
:10069000A4840D94D6770D943A950D946A4A0D94DE
:1006A000BA770D943DA10D94378B0D9450800D9425
:1006B00002860D9430B50D94E9940D94FF7F0D944E
:1006C0001F8C0D94654A0D9452950D94B1B00D9404
:1006D00060900D945DB20D9423AF0D94DA8B0D9460
:1006E00078270D9498840D9414330D94CAA10D9419
:1006F000A77F0D943B900D94C77F0D94BC840D94FF
:1007000075A20D94B6770D94794A0D94E0170D9467
:10071000E2A00D94FE880D941B6C0D9439950D94F8
:100720005B4A0D94B2770D94D8170D944C4A0D94F2
:1007300057900D9422800D943F900D94C2770D94A4
:1007400001BA0D9401B80D9439530D94C8940D94C9
:100750005B900D9427A10D9471770D944D900D949D
:10076000744A0D947E800D94C1840D9428B70D9425
:10077000408B0D9429900D9431900D94188D0D940B
:1007800049900D943F820D94468D0D949D8A0D9451
:10079000948A0D9474180D94BD7F0D94108D0D9452
:1007A0007C180D94CA770D945F8D0D94604A0D945A
:1007B000CE770D9461880D94ADA70D9499A60D94F4
:1007C00039800D947EA90D94ED6B0D9467800D9486
:1007D000BFA40D942D900D94E8AC0D945BBB0D94CB
:1007E000C6770D94D6A30D94B0A10D94D2770D9435
:1007F0004A880D9459BC0D94DC7F0D9491840D941E
:10080000DCA10D9418900D94CB840D94564A0D9450
:1008100026900D943E4A0D94FA890D9402180D9479
:10082000318D0D94F78C0D94FBB50D94A2A10D9410
:10083000E38B0D946FBB0D94BA880D9485A10D9434
:100840002B820D941C900D947CAC0D9427170D9465
:10085000BAB80D9454A10D9435820D94F1890D947C
:1008600045900D9430880D947E4A0D9499770D949F
:10087000B6840D941D180D943C180D9437900D946A
:1008800066B30D94434A0D9453900D9467B40D9440
:1008900000A10D94248D0D94DC170D943C880D94CB
:1008A000484A0D94016C0D9422900D948BAA0D94DE
:1008B0008AB100407A10F35A00A0724E1809001055
:1008C000A5D4E80000E87648170000E40B540200C5
:1008D00000CA9A3B000000E1F505000080969800F0
:1008E000000040420F000000A08601000000102719
:1008F00000000000E80300000000640000000000A9
:100900000A00000000000100000000002C76D888DA
:10091000DC674F0823DFC1DFAE59E1B1B796E5E3ED
:10092000E453C63AE651997696E8E6C28426EB8906
:100930008C9B62ED407C6FFCEFBC9C9F40F2BAA5A3
:100940006FA5F490055A2AF75C936B6CF9676DC13B
:100950001BFCE0E40D47FEF520E6B500D0ED902E3F
:100960000300943577050080841E080000204E0A9D
:10097000000000C80C333333330F986E12831141DB
:10098000EF8D2114893BE65516CFFEE6DB18D184A6
:100990004B381BF77C1D901DA4BBE42420328472CD
:1009A0005E228100C9F124ECA1E53D270810205FFB
:1009B0000000000000000000000000000000000037
:1009C0001010101010101010101000001010000067
:1009D000242424242424000000000000000000003F
:1009E000242424247E7E24247E7E242424240000A7
:1009F00010103C3C50503838141478781010000017
:100A00000000626264640808101026264646000052
:100A100030304848484830304A4A44443A3A000066
:100A20001010101010100000000000000000000066
:100A30001010202040404040404020201010000076
:100A4000101008080404040404040808101000002E
:100A50001010545438381010383854541010000006
:100A60000000101010107C7C10101010000000000E
:100A70000000000000000000080808081010000036
:100A80000000000000007E7E00000000000000006A
:100A90000000000000000000000000001010000036
:100AA000000002020404080810102020404000004A
:100AB0003C3C424246465A5A626242423C3C00003A
:100AC0000808181808080808080808081C1C00006E
:100AD0003C3C424202021C1C202040407E7E000022
:100AE0007E7E020204041C1C020242423C3C0000C6
:100AF00004040C0C141424247E7E0404040400005A
:100B00007E7E40407C7C0202020242423C3C00006D
:100B10001E1E202040407C7C424242423C3C000061
:100B20007E7E02020404080810101010101000004D
:100B30003C3C424242423C3C424242423C3C00003D
:100B40003C3C424242423E3E0202040478780000AD
:100B50000000000010100000101000000000000055
:100B60000000000008080000080808081000000045
:100B700004040808101020201010080804040000C5
:100B8000000000007E7E00007E7E0000000000006D
:100B9000202010100808040408081010202000006D
:100BA0002020404000000000000000000000000085
:100BB0003C3C42424A4A56564C4C40403E3E000065
:100BC00018182424424242427E7E424242420000A1
:100BD0007C7C424242427C7C424242427C7C00001D
:100BE0003C3C424240404040404042423C3C00008D
:100BF0007C7C424242424242424242427C7C000071
:100C00007E7E404040407C7C404040407E7E0000F4
:100C10007E7E404040407C7C404040404040000060
:100C20003E3E40404040404E4E4242423E3E00002A
:100C30004242424242427E7E4242424242420000A0
:100C40003838101010101010101010103838000024
:100C50000202020202020202020242423C3C000084
:100C6000424244444848707048484444424200006C
:100C70004040404040404040404040407E7E000078
:100C8000424266665A5A5A5A424242424242000020
:100C90004242626252525A5A4A4A46464242000010
:100CA0003C3C424242424242424242423C3C0000C0
:100CB0007C7C424242427C7C4040404040400000BC
:100CC0003C3C4242424242424A4A44443A3A000090
:100CD0007C7C424242427C7C484844444242000080
:100CE0003C3C424240403C3C020242423C3C000010
:100CF0007C7C10101010101010101010101000003C
:100D00004242424242424242424242423C3C000053
:100D100042424242424242424242242418180000C7
:100D20004242424242425A5A5A5A6666424200007F
:100D300042424242242418182424424242420000E3
:100D400044444444282810101010101010100000C3
:100D50007E7E020204041818202040407E7E00009F
:100D60007E7E606060606060606060607E7E0000CB
:100D70000000404020201010080804040202000077
:100D80007E7E060606060606060606067E7E00002F
:100D9000000000001010282844440000000000005B
:100DA0000000000000000000000000007E7E000047
:100DB00020201010080800000000000000000000C3
:100DC000000000003C3C02023E3E42423E3E00002B
:100DD000404040407C7C4242424242427C7C000097
:100DE000000000003E3E4040404040403E3E00008B
:100DF000020202023E3E4242424242423E3E000067
:100E0000000000003C3C42427E7E40403E3E0000EE
:100E10001C1C222220207C7C20202020202000005E
:100E2000000000003C3C424242423E3E02023C3C4A
:100E3000404040407C7C42424242424242420000AA
:100E40001010000030301010101010103838000052
:100E5000040400003C3C0404040404044444383802
:100E6000404040404242444478784444424200007A
:100E70003030101010101010101010103838000002
:100E80000000000066665A5A5A5A5A5A42420000F6
:100E9000000000007C7C424242424242424200004A
:100EA000000000003C3C4242424242423C3C0000C6
:100EB000000000007C7C424242427C7C404040403A
:100EC000000000003E3E424242423E3E020202021A
:100ED000000000005E5E6060404040404040000016
:100EE000000000003E3E40403C3C02027C7C000092
:100EF000101010107C7C1010101012120C0C00003E
:100F00000000000042424242424246463A3A000055
:100F100000000000424242424242242418180000CD
:100F200000000000424242425A5A5A5A6666000085
:100F300000000000424224241818242442420000E9
:100F4000000000004242424242423E3E02023C3C1D
:100F5000000000007E7E0404181820207E7E000021
:100F60000E0E181818187070181818180E0E0000A9
:100F70001010101010101010101010101010000091
:100F80007070181818180E0E1818181870700000C5
:100F900000000000242454544848000000000000D1
:100FA0001010205F000000000000000000000000A2
:100FB0000000000000000000000000000000000031
:100FC0000000000000000000020002000200020019
:100FD0000200020002000200020002000000020003
:100FE00000000000000000000240024002400240F9
:100FF00000000000000000000000000000000000F1
:101000000000000000000000024002400480048054
:101010003FE00480090009003FE0090012001200CF
:10102000000000000000010003C0052009200900A5
:101030000900070001C001200120092005400380AC
:1010400001000000000000001C102220222022408D
:101050002240229C1CA20122022202220422041C01
:10106000000000000000000001C002200220022059
:10107000014003800480084808500820043003C859
:101080000000000000000000008000800080008060
:101090000000000000000000000000000000000050
:1010A0000000000000000100020002000400040033
:1010B0000400040004000400040002000200010017
:1010C000000000000000020001000100008000801C
:1010D000008000800080008000800100010002008C
:1010E00000000000000000000000000001800180FE
:1010F00009901FF803E003C006600620000000000E
:10110000000000000000000000000000000000805F
:101110000080008007F00080008000800000000058
:1011200000000000000000000000000000000000BF
:10113000000000000000000000000080008000802F
:10114000000000000000000000000000000000009F
:101150000000000007C000000000000000000000C8
:10116000000000000000000000000000000000007F
:1011700000000000000000000000000000800000EF
:10118000000000000000000000200040004000407F
:1011900000800080008001000100010002000200C8
:1011A0000000000000000000038004400820082028
:1011B0000820082008200820082008200440038078
:1011C0000000000000000000004000C0014002409C
:1011D000004000400040004000400040004000400F
:1011E000000000000000000003C0044008200020B0
:1011F00000200040004000800100020004000FE0D9
:10120000000000000000000003800440084000408F
:101210000080038000400020002008200C40038054
:101220000000000000000000004000C0014001403C
:1012300002400240044008400FF0004000400040DF
:10124000000000000000000001F8010001000200A1
:1012500003E002100008000800080208011000E086
:101260000000000000000000038004600820080067
:101270000B800C4008200820082008200440038030
:10128000000000000000000003F800100010002023
:1012900000200040004000400040008000800080AE
:1012A000000000000000000000E001100208020839
:1012B000011000E00110020802080208011000E01D
:1012C0000000000000000000038004400820082007
:1012D00008200820046003A00020082004400780A4
:1012E000000000000000000000000080000000007E
:1012F000000000000000000000000080000000006E
:10130000000000000000000000000080000000005D
:10131000000000000000000000000080008000804D
:1013200000000000000000000000001000600180CC
:1013300006000800060001800060001000000000A8
:1013400000000000000000000000000000000FF09E
:101350000000000000000FF000000000000000008E
:10136000000000000000000000000400030000C0B6
:1013700000300008003000C003000400000000003E
:101380000000000000000000038004400820082046
:101390000020004000800100010001000000010069
:1013A00000000000000003C00C301010134824C8D7
:1013B00028882888289027E01008083007C00000F7
:1013C00000000000000000000100028002800440D4
:1013D0000440044008200FE01010101020082008DE
:1013E00000000000000000000FE0081008080808D6
:1013F00008100FF0081008080808080808100FE087
:10140000000000000000000003E0041008081000C5
:10141000100010001000100010000808041003E075
:1014200000000000000000001FC010201010100875
:1014300010081008100810081008101010201FC005
:1014400000000000000000000FF80800080008007D
:1014500008000FF0080008000800080008000FF856
:1014600000000000000000000FF008000800080065
:1014700008000FE008000800080008000800080045
:10148000000000000000000001E002100408080055
:1014900008000800087C080408040408021001E0A1
:1014A00000000000000000000808080808080808FC
:1014B00008080FF8080808080808080808080808B5
:1014C000000000000000000000800080008000801C
:1014D000008000800080008000800080008000800C
:1014E000000000000000000000200020002000207C
:1014F0000020002000200020082008200440078051
:101500000000000000000000080808100820084043
:10151000088009800A400C200820081008100808DC
:10152000000000000000000008000800080008009B
:1015300008000800080008000800080008000FE084
:101540000000000000000000200830183018282893
:101550002828244824482488228822882108210811
:10156000000000000000000008080C080A080A0833
:10157000090808880888084808280828081808085A
:10158000000000000000000003C004200810100844
:10159000100810081008100810080810042003C0D4
:1015A00000000000000000000FE008100808080814
:1015B000080808100FE008000800080008000800EC
:1015C000000000000000000003C004200810100804
:1015D0001008100810081008100808D8043003D8A4
:1015E00000000000000000000FE0081008080808D4
:1015F000080808100FE00840082008200810080814
:10160000000000000000000003E0041008080800CB
:10161000040003800070000808080808041003E0B4
:1016200000000000000000000FF800800080008033
:1016300000800080008000800080008000800080AA
:10164000000000000000000008080808080808085A
:10165000080808080808080808080808041003E033
:101660000000000000000000080808080410041032
:10167000041002200220022001400140008000806E
:10168000000000000000000020822182114411446B
:10169000114411440A280A280A280A2804100410B0
:1016A000000000000000000010100820044004406A
:1016B000028001000280044004400820101020082D
:1016C00000000000000000000808041004100220C0
:1016D0000140014000800080008000800080008088
:1016E000000000000000000007F8001000200020AB
:1016F00000400080008001000200020004000FF89A
:10170000000000000000038002000200020002004E
:1017100002000200020002000200020002000200B9
:101720000380000000000000020001000100010031
:101730000080008000800040004000400020002029
:101740000000000000000380008000800080008016
:101750000080008000800080008000800080008089
:101760000380000000000100028002800440044069
:1017700004400820000000000000000000000000FD
:101780000000000000000000000000000000000059
:101790000000000000000000000000000000000049
:1017A000FFFF0000000000000100008000000000BA
:1017B0000000000000000000000000000000000029
:1017C00000000000000000000000000003C0042032
:1017D000082000E0072008200820086007A000007B
:1017E0000000000000000800080008000B800C400A
:1017F000082008200820082008200C400B8000004A
:101800000000000000000000000000000380044011
:101810000820080008000800082004400380000099
:1018200000000000000000200020002003A0046051
:1018300008200820082008200820046003A00000D9
:1018400000000000000000000000000003800440D1
:10185000082008200FE00800082004400380000052
:1018600000000000000000C00100010003C00100F2
:101870000100010001000100010001000100000061
:101880000000000000000000000003A00460082029
:101890000820082008200820046003A00020084039
:1018A0000780000000000800080008000BC00C20A2
:1018B0000820082008200820082008200820000010
:1018C0000000000000000000010000000000010016
:1018D0000100010001000100010001000100000001
:1018E00000000000000000000080000000000080F8
:1018F00000800080008000800080008000800080E8
:101900000080030000000400040004000410042010
:1019100004400480058006400420042004100000D8
:101920000000000000000080008000800080008037
:101930000080008000800080008000800080000027
:101940000000000000000000000000002E70318840
:101950002108210821082108210821082108000068
:101960000000000000000000000000000BC00C2080
:10197000082008200820082008200820082000004F
:101980000000000000000000000000000380044090
:1019900008200820082008200820044003800000B8
:1019A0000000000000000000000000000B800C4060
:1019B000082008200820082008200C400B80080080
:1019C00008000800000000000000000003A0046000
:1019D00008200820082008200820046003A0002018
:1019E00000200020000000000000000002E00300D2
:1019F00002000200020002000200020002000000D9
:101A000000000000000000000000000003C00420EF
:101A10000400040003C000200020042003C00000D4
:101A200000000000000001000100010003C00100EF
:101A300001000100010001000100010001C00000DF
:101A40000000000000000000000000000820082046
:101A500008200820082008200820086007A00000AF
:101A60000000000000000000000000000820082026
:101A70000440044004400280028001000100000094
:101A80000000000000000000000000002108210804
:101A90001290129014501450145008200820000086
:101AA00000000000000000000000000008200440CA
:101AB00002800280010002800280044008200000B1
:101AC00000000000000000000000000008200820C6
:101AD00008200440044004C002800280010001008C
:101AE00002000C00000000000000000007F00020D1
:101AF00000400040008001000100020007F00000EB
:101B00000000000000C00100010001000100010010
:101B100001000600010001000100010001000100B8
:101B200000C00000008000800080008000800080F5
:101B300000800080008000800080008000800080A5
:101B40000080008003000080008000800080008012
:101B500000800060008000800080008000800080A5
:101B60000300000000000000078808F000000000EB
:101B70000000000000000000000000000000000065
:101B8000000000000000C800C8000100020035008D
:101B900001000A000100010002000200020014001E
:101BA000020001000200020003001E000300010009
:101BB00002000200040028000400010002000200EC
:101BC00005003200050001000200020006003C0092
:101BD00006000100020002000700460007000100A5
:101BE000020002000800500008000100020002008C
:101BF00009005A0009000100020002000A00640006
:101C00000A000100020002000B006E000B00010040
:101C1000020002000C0078000C000100020002002B
:101C20000D0082000D000100020002000E008C0079
:101C30000E000100020002000F0096000F000100DC
:101C4000020002001000A0001000010002000200CB
:101C50001100AA0011000100020002001200B400ED
:101C600012000100020002001300BE001300010078
:101C7000020002001400C80014000100020002006B
:101C80001500D20015000100020002001600DC0061
:101C900016000100020002001700E6001700010014
:101CA000020002001800F00018000100020002000B
:101CB0001900FA0019000100020002001A000401D4
:101CC0001A000100020002001B000E011B000100AF
:101CD000020002001C0018011C00010002000200AA
:101CE0001D0022011D000100020002001E002C0147
:101CF0001E000100020002001F0036011F0001004B
:101D00000200020020004001200001000200020049
:101D10002100F20321000100020005002200FC0363
:101D20002200010002000500230006042300010038
:101D30000200050024001004240001000200050038
:101D400025001A04250001000200050026002404D5
:101D5000260001000200050027002E0427000100D4
:101D600002000A00280038042800010002000A00CE
:101D7000290042042900010002000A002A004C0444
:101D80002A00010002000A002B0056042B0001006B
:101D900002000A002C0060042C00010002000A006E
:101DA0002D006A04C800010002000B002E0074041C
:101DB000C800010002000B002F007E04C8000100D3
:101DC00002000B0030008804C800010002000B0074
:101DD00031009204C800010002000B0032009C0494
:101DE000C800010002000B003300FF00C80004001F
:101DF000050001003400FF00C800040005000100D8
:101E00003500FF00C8000400050001003600FF0097
:101E1000C8000600070004003700FF00C8000600E5
:101E2000070004003800FF00C80006000700040097
:101E30003900FF00C8000800090003003A00FF0055
:101E4000C8000800090003003B00FF00C8000800AC
:101E5000090003003C00FF00C8000A000B00070057
:101E60003D00FF00C8000A000B0007003E00FF0015
:101E7000C8000A000B0007003F00FF00C8000C006C
:101E80000D0008004000FF00C8000C000D00080015
:101E90004100FF00C8000C000D0008004200FF00D8
:101EA000C8000E000F0006004300FF00C8000E002F
:101EB0000F0006004400FF00C8000E000F000600DF
:101EC0004500FF00C800100011000C004600FF0094
:101ED000C800100011000C004700FF00C8001000EF
:101EE00011000C004800FF00C800100011000C0099
:101EF0004900FF00C800100011000C004A00FF005C
:101F0000C800100011000C004B00FF00C8001000BA
:101F100011000C004C00FF00C800100011000C0064
:101F20004D00FF00C8001000110005004E00FF002A
:101F3000C8001000110005004F00FF00C80010008D
:101F4000110005005000FF00C8001000110005003E
:101F50005100FF00C8001000110005005200FF00F2
:101F6000C8001000110005005300FF00C800080061
:101F700009000C005400FF00C800060007000C0018
:101F80005500FF00C8000E000F000C005600FF00B7
:101F9000C800040005000D005700FF00C800040041
:101FA00005000D00656D7074790053574150204D48
:101FB000414E55414C005344204341524400494E48
:101FC0005445524E414C204D454D004C4F4144200C
:101FD00046524F4D205344204341524400534156F2
:101FE0004520544F205344204341524400544F4E07
:101FF00045004F5247414E495354004F5247414EBE
:1020000020534554004D454D2042414E4B00434125
:102010004C494252415445005357454C4C20434192
:102020004C4942524154494F4E0053504543494157
:102030004C0054554E450053544152542052454390
:102040004F5244494E4700535441525420504C4142
:1020500059494E4700504C4159005245434F524454
:10206000005245432F504C4159004D414E204949A3
:1020700020564F4C004D414E204920564F4C0050A9
:102080004544414C20564F4C004D414E204C455646
:10209000454C00705F6D656E750050524553455458
:1020A00053004D414E204949004D414E20495F505B
:1020B000454400535045414B455253004845414427
:1020C00050484F4E45004D414E204949004D414E2C
:1020D00020495F50454400434841524143544552D2
:1020E00000434841524143544552000920204E5577
:1020F0004D5F544553545F4409000920204E554D0F
:102100005F544553545F430900092020204E554D2C
:102110005F544553545F4209000920204E554D5FDE
:10212000544553545F41090009204E554D5F656E7B
:102130005F75730900424C554500475245454E00B6
:102140005245440009204E554D5F77686974655FBC
:10215000626C61636B090009204E554D5F67656EC7
:102160005F766F6C756D65090009204E554D5F6394
:1021700072657363656E646F090009204E554D5F8B
:102180006F7267616E090041424F555400544845D3
:102190004D450009204E554D5F455155414C0900B4
:1021A00009204E554D5F54554E494E4709000920B0
:1021B0004E554D5F524F4D414E5449430900092041
:1021C0004E554D5F6D656D5F62616E6B0900094E26
:1021D000554D5F5354594C45090009204E554D5FEC
:1021E000686973745F74656D706572616D656E7436
:1021F00009004652455155454E43590046524551F6
:10220000204741494E0053544F5020564F4C0050E8
:10221000414E4F52414D41004445434159005041C8
:102220004E00094E554D5F6761696E5F515F686989
:1022300067680900780048494748007800482D4DF4
:1022400049440045510078004C2D4D494400780028
:1022500078004C4F57004445505448005241544573
:102260000053454E44204C564C00444C59204645A2
:1022700045444241434B0050524544454C4159006E
:102280005245564552422054494D45005052452032
:102290004C50460054595045004C4556454C00534F
:1022A000454E44204C564C00444C5920464545442C
:1022B0004241434B0050524544454C415900524520
:1022C000564552422054494D4500505245204C50ED
:1022D000460054595045004C4556454C004D414E22
:1022E00055414C204949004D414E55414C20490033
:1022F00009204E554D5F686973745F74656D706534
:1023000072616D656E745F3109005452414E5350D5
:102310004F534500494E544F4E4154494F4E004F84
:102320005247414E49535400455155414C495A4535
:1023300052005452454D554C414E54005554494C51
:10234000495459005245564552420054554E494E43
:1023500047005452414E53504F5345005354594C2B
:1023600045530043525F4C424C004558505F4C422D
:102370004C004558503100455850004352005A3ADD
:1023800000527642005245564552423A0054564158
:102390004C005452414E53504F53453A00434F4D19
:1023A00042494E4154494F4E005A20434F4D42003E
:1023B000564F4C554D450009204E554D5F564F4CDC
:1023C000554D455F534C4944455209004D454E55C6
:1023D00000030032640F0F010F0F0F0F0F000301F6
:1023E0002408040F00007F01007F0003022CB70ABD
:1023F0000F000F0F0F0F0F0003030F3C070F000F0D
:102400000F0100E80003040819090F000F0F0F0F58
:102410000F00031808B4090F000F0F0F0F0F000370
:1024200006AAB4091E01000C01000C000307089B5A
:10243000220F000F0F0F0F0F000308AA9B09850141
:1024400000640100640003090882090F000F0F0FE8
:102450000F0F00030AFE85040F00007F01007F00BC
:10246000030CEF85040F00007F01007F00030C03C5
:1024700085040F00007F01007F00030D0EA30A0FEB
:10248000000F0F0F0F0F00030EF5A30A0F000F0F21
:102490000F0F0F00010F052B0F0F010F0F010F0F73
:1024A00000011005530F0F010F0F010F0F00011155
:1024B000057B0F0F010F0F010F0F000112A0030F7B
:1024C0000F010F0F010F0F00011305030F0F010F75
:1024D0000F010F0F000114052B0F0F010F0F010F3C
:1024E0000F000115A0A30F0F010F0F010F0F000127
:1024F0001605CB0F0F010F0F010F0F000117A0CB17
:102500000F0F010F0F010F0F00021805030D1E0121
:10251000000C01000C00023D05030D260100160110
:10252000001600011A05030F0F010F0F010F0F0016
:10253000011B052B0F0F010F0F010F0F00021C05D0
:1025400005031F0100FF01007F00021D051C032081
:102550000100FF01007F00021E053303210100FF7F
:1025600001007F00021F054A03230100FF01007FD5
:10257000000220056103250100FF01007F00022108
:10258000057803240100FF01007F000222058F036C
:102590002A0100FF01007F0002230505032C010032
:1025A000FF01007F000224051C032D0100FF010034
:1025B0007F0002250533032E0100FF01007F00028A
:1025C00026054A03300100FF0100FF0002270561D4
:1025D00003320100FF01007F00022805780331016A
:1025E00000FF01007F000229058F03330100FF0176
:1025F000007F00022A051C03270100FF01007F0065
:10260000022B053303290100FF01007F00022C008B
:102610000A0E3D01007F01007F00022D000A0F3EDF
:1026200001007F01007F00022E500A103F01007E52
:1026300001007E00022F500A0E4101007F01007F41
:10264000000230500A0F4001007F01007F0002317C
:10265000050A103C010004010004000232A00A0E29
:102660004401007F01007F000233A00A0F430100F4
:102670007F01007F000234F00A0E4701007F010055
:102680007F000235F00A0F4601007F01007F000243
:1026900036A00A104801007E01007E0001370503C4
:1026A0000F0F010F0F0F0F0F000238050317B801AE
:1026B000007F01007F000239054A036D01007F01A0
:1026C000007F00023A0561036E01007F01007F0078
:1026D000023B0578036F01001401001400023C0561
:1026E0008F037001007F01007F00023D054A1471D5
:1026F00001001601001600023E0503117201007F61
:1027000001007F00023F05031622010008010008B6
:10271000000240052B007401007F01007F00024190
:102720000553007501007F01007F000142057B0019
:1027300076010F0F0F0F0F00014305030F0F010F5D
:102740000F0F0F0F000144A02B0F0F010F0F0F0FE2
:102750000F000145057B0177010F0F0F0F0F0002DE
:102760004605A3017801007F01007F00024705CBE9
:10277000017901007F01007F0002480505157A01FB
:1027800000040100040002490570187B01007F016C
:10279000007F00024A0587187C01007F01007F004E
:1027A000024B059E187D01007F01007F00024C0551
:1027B00003120F00007F01007F00024D05330D7BE7
:1027C00001007F01007F00024E054A0D7C01007F61
:1027D00001007F00024F05610D7D01007F01007F38
:1027E00000025005780D7D01007F01007F0002513D
:1027F00005A603380100FF01007F00025205A60371
:10280000390100FF01007F0001530A0A0F0F000F7A
:102810000F0F0F0F000157052B0F0F010F0F010FA7
:102820000F00015605030F0F010F0F010F0F0001DD
:102830005405030F0F010F0F010F0F000155052B5A
:102840000F0F010F0F010F0F00015805030F0F01AC
:102850000F0F010F0F000159052B0F0F010F0F0173
:102860000F0F00015A05030F0F010F0F010F0F008B
:10287000025B0505033901000501000500025C0546
:102880001C197E010078010A7800025D0533197F6A
:10289000010078010A7800025E05051980010078C0
:1028A000010A7800015F4BC60F0F010F0F010F0FD8
:1028B00001016005030F0F010F0F010F0F010161EF
:1028C000052B0F0F010F0F010F0F01046205051AF1
:1028D0008101000401000400046305051B8101005F
:1028E00004010004000264051C1C810100FF0100BA
:1028F000FF000265051C1D810100050100050001A6
:102900006605A30F0F010F0F010F0F0102670F964E
:102910001E8200007F01007F000268AAC81F82009B
:10292000007F01007F000269051C208301001E0159
:10293000001E00016A05530F0F010F0F010F0F0159
:10294000026B051C218401000401000400026C05D7
:102950001C218401000401000400016D05030F0F18
:10296000010F0F010F0F01016E052B0F0F010F0F4C
:10297000010F0F01016F05530F0F010F0F010F0F13
:10298000010170057B0F0F010F0F010F0F01017186
:10299000A02B0F0F010F0F010F0F00027205A623CE
:1029A0008601007F01007F000173A02B0F0F010F34
:1029B0000F010F0F010174A0530F0F010F0F010F33
:1029C0000F010175052B0F0F010F0F010F0F0102F2
:1029D00076A0A3268601007F01007F00027705A371
:1029E000278601007F01007F0002780553258701BB
:1029F000007F01007F000279052B248801007F0100
:102A0000007F00027A057B25890101090101090087
:102A1000027B05A3248A01007F01007F00027CA0C5
:102A2000A3268601007F01007F00027D05A3278683
:102A300001007F01007F00027E0533288B01000129
:102A40000100010020656D70747920736C6F740053
:102A500045585420534348414C4D4549004558542E
:102A60002054524D4F50204841524D4F4E49510035
:102A7000455854204F424F45004558542046414741
:102A80004F5400455854205445525A4520322F3354
:102A900000455854204D495854555220344600455D
:102AA000585420464C4147454F4C455400455854D6
:102AB000204E4153415400455854205452415645EC
:102AC000525320464C5554450045585420474549DB
:102AD00047454E205052494E5A4950414C004558A6
:102AE0005420564F5820434F454C455354495300AA
:102AF0004558542047414D42450045585420504FB9
:102B00005254554E414C20464C4F54450045585464
:102B1000205045442054524F4D504554450045588F
:102B20005420504F5341554E450045585420504570
:102B300044204D4958203246004558542043484FC0
:102B400052414C4241535300455854204241535343
:102B5000464C4F544500455854204F4B5441564223
:102B6000415353004558542053554242415353005A
:102B7000455854205052494E5A2042415353203117
:102B80003600455854204B52554D484F524E004543
:102B9000585420534841524620334600455854204B
:102BA000504943434F4C4F00455854204C415249E3
:102BB000474F54004558542047454D53484F524EB7
:102BC00000455854205155494E544500455854200D
:102BD000524F4852464C4F5445004558542050528D
:102BE000455354414E5420340045585420424F52CE
:102BF00044554E20380045585420434C4152494FCB
:102C00004E2034004558542054524F4D50455445A1
:102C1000203800455854204D4958545552203546C7
:102C200000455854205052494E5A4950414C203288
:102C300000455854205155494E544500455854209C
:102C4000535049545A464C4F544500455854204F10
:102C50004B544156452034004558542053414C496B
:102C600043494F4E414C0045585420464C5554451D
:102C7000204841524D4F00455854205052494E5A19
:102C80004950414C20380045585420424F52445539
:102C90004E20313600534348414C4D454900545273
:102CA0004D4F50204841524D4F4E4951004F424FD9
:102CB00045004641474F54005445525A4520322F53
:102CC00033004D495854555220344600464C414734
:102CD000454F4C4554004E415341540054524156C7
:102CE00045525320464C5554450047454947454EAB
:102CF000205052494E5A4950414C00564F5820439B
:102D00004F454C45535449530047414D42450050AF
:102D10004F5254554E414C20464C4F54450050455F
:102D2000442054524F4D5045544500504F53415547
:102D30004E4500504544204D4958203246004348F6
:102D40004F52414C424153530042415353464C4F22
:102D50005445004F4B544156424153530053554242
:102D600042415353005052494E5A2042415353203E
:102D70003136004B52554D484F524E005348415248
:102D80004620334600504943434F4C4F004C41527C
:102D900049474F540047454D53484F524E005155F7
:102DA000494E544500524F4852464C4F54450050EE
:102DB00052455354414E54203400424F5244554ED4
:102DC000203800434C4152494F4E20340054524F5A
:102DD0004D504554452038004D49585455522035E2
:102DE00046005052494E5A4950414C2032005155EC
:102DF000494E544500535049545A464C4F5445008F
:102E00004F4B5441564520340053414C4943494FA0
:102E10004E414C00464C555445204841524D4F00C0
:102E20005052494E5A4950414C203800424F52446A
:102E3000554E20313600202000200058004200412D
:102E40002300410047230047004623004600450079
:102E500044230044004323004300000810182028A6
:102E600030380109111921293139020A121A222A8E
:102E7000323A030B131B232B333B040C141C242C5E
:102E8000343C050D151D252D353D060E161E262E2E
:102E9000363E070F171F272F373F0706050403028B
:102EA00001000F0E0D0C0B0A09081716151413124A
:102EB00011101F1E1D1C1B1A19182726252423223A
:102EC00021202F2E2D2C2B2A29283736353433322A
:102ED00031303F3E3D3C3B3A39384746454443421A
:102EE00041404F4E4D4C4B4A49485756555453520A
:102EF00051505F5E5D5C5B5A5958676665646362FA
:102F000061606F6E6D6C6B6A6968777675747372E9
:102F100071707F7E7D7C7B7A7978000000010002F1
:102F20000003000400050006000701000101010282
:102F3000010301040105010601070200020102026A
:102F40000203020402050206020703000301030252
:102F5000030303040305030603070400040104023A
:102F60000403040404050406040705000501050222
:102F7000050305040505050605070600060106020A
:102F800006030604060506060607070007010702F2
:102F900007030704070507060707080008010802DA
:102FA00008030804080508060807090009010902C2
:102FB000090309040905090609070A000A010A02AA
:102FC0000A030A040A050A060A070B000B010B0292
:102FD0000B030B040B050B060B070C000C010C027A
:102FE0000C03574149542033207365632E2E2E0065
:102FF000574149542033207365632E2E2E005245CD
:103000004C20444154453A20332E342E323031384E
:1030100000535720494E464F3A2056312E36383706
:103020000053455249414C204E554D4245523A308D
:10303000303030323300414343454E54204F5247E5
:10304000414E5300534F46545741524520494E4636
:103050004F3A004F5247414E2053455454494E4732
:1030600053004D454D4F52592042414E4B004C4F5D
:103070004144494E47004552524F522000494E5458
:103080004F204D454D4F52590044454641554C54F3
:103090002053455454494E4753002F5345545449E7
:1030A0004E47532F00494E544F204F5247414E49EF
:1030B000535420002F5345545445522F004C4F4138
:1030C000444544002000574149540046524F4D208A
:1030D000534420434152442046494C45004C4F4103
:1030E000442053455454494E47530046524F4D20B7
:1030F000534420434152442046494C45004C4F41E3
:10310000442050524F46494C45004C4F4144004CDE
:103110004F4144004F4E20534420434152442046E7
:10312000494C453A002F53455454494E47532F00BC
:103130004F4E20534420434152442046494C453A87
:10314000002F5345545445522F00534156454400D7
:1031500020005741495400544F20534420434152CA
:10316000442046494C45005341564520534554544C
:10317000494E475300544F2053442043415244206A
:1031800046494C4500534156452050524F46494C04
:103190004500534156450053454C45435420505239
:1031A0004F46494C453A002F5345545445522F0041
:1031B0002F53455454494E47532F00617661696C33
:1031C00061626C652100617661696C61626C652188
:1031D0000053454C4543542046494C453A002F5333
:1031E00045545445522F002F53455454494E47538C
:1031F0002F0054454D504552414D454E543A004FD5
:103200005247414E495354002D2035005354594CD8
:10321000453A003520544553540034204943590061
:103220003320415554554D4E003220414343454EC5
:103230005420424C5545003120414343454E5400F3
:1032400053455420425554544F4E5320434F4C4FF6
:10325000523A005448454D453A00352054455354A0
:10326000003420494359003320415554554D4E00F8
:1032700032204441524B20424C55450031204143BD
:1032800043454E54004752414E44494F534F20321C
:1032900033322054005452414E53504F53453A005C
:1032A0005245564552423A00414C524541445920FC
:1032B00045584953542100414C52454144592045F9
:1032C0005849535421005245432054494D453A0032
:1032D000545241434B4E414D453A002F54524143C5
:1032E0004B532F46494C455F00504C41592054499F
:1032F0004D453A004C454E4754483A0054524143DC
:103300004B4E414D453A002F545241434B532F00F1
:10331000464F5247455420544F2043484F4F534542
:10332000204E455720545241434B4E414D4521219B
:103330002100464F52204E4557205245434F52449C
:10334000494E472C20444F204E4F5400342E434CBE
:1033500049434B20464F522046494E49534800337B
:103360002E50524F424C454D20534156494E472115
:1033700000434C49434B20544F20434F4E54494E39
:10338000554500332E534156454420494E544F2055
:1033900046494C45000046494E49534820504C414F
:1033A00059494E472046494C452100322E46494C4A
:1033B0004520495320504C4159494E470000434C49
:1033C00049434B20544F2053415645205245434FCB
:1033D0005244494E4720494E544F2046494C4500DF
:1033E000322E5245434F5244494E472E2E2E000056
:1033F000454A454354205344204341524420414EC2
:103400004420494E5345525420414741494E0031D2
:103410002E534420434152442050524F424C454D7C
:10342000210043484F4F534520545241434B4E4196
:103430004D452042454C4F572100434C49434B20BA
:10344000544F205354415254205245434F52444903
:103450004E472C2046495253542000312E5354419C
:103460005254205245434F5244494E470050454420
:10347000414C532043414C4942524154494F4E0024
:103480005052455353204D454E5520425554544FAC
:103490004E20544F2043414C49425241544500353F
:1034A0002E205052455353204241434B2042555405
:1034B000544F4E2000342E2052454C454153452058
:1034C000532B3130302000332E204D4F56452050A5
:1034D0004544414C20464F525741524420414E44AE
:1034E00020505245535320532B31303000322E2080
:1034F00052454C4541534520532B31302000312E4D
:10350000204D4F564520504544414C204241434BAD
:103510005741524420414E4420505245535320536A
:103520002B313000352E2050524553532042414319
:103530004B20425554544F4E2000342E2052454CBF
:103540004541534520532B3130302000332E204D40
:103550004F564520504544414C20464F525741520A
:103560004420414E4420505245535320532B313078
:103570003000322E2052454C4541534520532B31CB
:10358000302000312E204D4F564520504544414CAF
:10359000204241434B5741524420414E4420505217
:1035A00045535320532B3130000046494E49534870
:1035B000205245434F5244494E472100312E41434A
:1035C00054495645205245434F5244494E47000006
:1035D000322E504C4159494E472046494C45000037
:1035E00046494E495348205245434F5244494E475D
:1035F0002100312E414354495645205245434F52F4
:1036000044494E470000454A454354205344204313
:1036100041524420414E4420494E5345525420418A
:103620004741494E00312E534420434152442050DB
:10363000524F424C454D210046494C4500434C49B0
:10364000434B20544F20535441525420504C415925
:10365000494E472053454C45435445442000312EA4
:10366000535441525420504C4159494E4700510047
:103670002D455100485A002D313264420064420009
:103680004741494E002B3132644200487A00494E8E
:10369000564552544544004E4F524D414C20200057
:1036A0002020202000644200487A004C0052005440
:1036B00052414E53504F5345004E4F4E45004F52CE
:1036C00047414E4953543A203132004F5247414E00
:1036D0004953543A203131004F5247414E495354D7
:1036E0003A203130004F5247414E4953543A203925
:1036F00020004F5247414E4953543A203820004F42
:103700005247414E4953543A203720004F524741C7
:103710004E4953543A203620004F5247414E4953A8
:10372000543A203520004F5247414E4953543A20D5
:103730003420004F5247414E4953543A2033200021
:103740004F5247414E4953543A203220004F52477E
:10375000414E4953543A203120000C000C00040023
:10376000060002000A000000080004000000080033
:1037700004000000EDFFFBFFFAFFF5FFFEFFF4FF82
:10378000FDFFF8FFF8FFFCFFF7FF0000F6FFFCFF6E
:10379000FAFFF3FFFEFFF4FF0000F8FFF8FFFCFF65
:1037A000F2FF0000F6FFF9FFFAFFF2FFFEFFF6FF5F
:1037B000FDFFF8FFF6FFFCFFF4FF0000F6FF04003A
:1037C000FAFFF2FFFEFFF6FF0200F8FFFBFFFCFF2F
:1037D000F4FF0000F6FF0400FAFFF2FFFEFFF6FF21
:1037E0000200F8FFFBFFFCFFF3FF0000F9FFFEFF04
:1037F000FDFFF8FF0100F7FFFFFFFBFFFBFFFFFFEF
:10380000F8FF0000F6FFFCFFFAFFF3FFFEFFF4FFF6
:103810000000F8FFF8FFFCFFF2FF0000F8FF0000D7
:10382000FCFFF6FF0000F6FF0000FAFFFBFFFEFFC3
:10383000F6FF0000F2FFFCFF0600F8FF0C00F4FFAB
:10384000FEFFF0FFFAFF0400F6FF0000F3FF0000A8
:103850000800F6FF0300F6FF0000F0FFFBFF060084
:10386000F6FF0000F6FFF8FFFAFFF6FFFEFFF4FF99
:10387000FCFFF8FFF4FFFCFFF8FF0000F2FFFBFF86
:103880000200F6FF0200F3FFFEFFFEFFF8FF02005A
:10389000F4FF0000F4FFEEFFEDFFF2FFFEFFFDFF7F
:1038A0000200F6FFF0FFEFFFF4FF0000020004004B
:1038B00006000800FEFF00000200040006000800E9
:1038C0000A0000000000040000000800FEFF0000E5
:1038D00002000000060000000A000000E8FFF9FFF7
:1038E0000A00F2FF0300EBFFFDFFE5FFF6FF050016
:1038F000EFFF0000F6FFFCFFFAFFF8FFFEFFF4FF0A
:10390000FEFFF8FFFAFFFCFFF6FF000001000000D9
:10391000FDFFFEFFF9FFFCFFFFFF0300FDFFF1FFCE
:10392000F7FF0000ECFFFBFF0600F4FF0200EEFFD4
:10393000FFFFEBFFF7FF0100F1FF0000EDFFFAFFD3
:103940000700F4FF0300EFFFFDFFECFFF7FF0500AA
:10395000F1FF0000000004000000F2FFFEFF000085
:1039600002000000F0FFF4FF02000200020002006B
:103970000200020002000200020002000200020037
:10398000574552434B4D4549535445522032004B05
:10399000454C4C4554414C2031393737004B454C50
:1039A0004C4554414C2031393636004B49524E4239
:1039B00045524745522033004B49524E42455247EB
:1039C00045522032004B49524E4245524745522003
:1039D000310042494C4C45544552204F5247454CCA
:1039E000004241434B20574F4C54454D502E00420E
:1039F0004143482042494C4C455445520053494CA0
:103A00004245524D414E20320053494C4245524DA1
:103A1000414E203100574552434B4D454953544583
:103A200052005343484C49434B0047414E41535386
:103A300049004752414D41544841455553003820B3
:103A400050595441474F524153003720505241453D
:103A5000544F52494F55530036204A4F554E470058
:103A60003520484F204348454E4720544849454E4D
:103A70000034204D495454454C204D5552494F5225
:103A8000470033204D495454454C544F454E494707
:103A90000032204E41545545524C49435320484131
:103AA000524D4F2E003120455155414C007C3C3E3B
:103AB0005E2B3D3F2F5B5D3B2C2A225C004C4F412F
:103AC00044494E472E2E2E00005245535441525425
:103AD000210000636F6D70696C6520646174653AE4
:103AE00020003D3D3D3D3D3D3D3D3D3D3D3D3D3D60
:103AF0003D3D3D3D524553544152543D3D3D3D3D7C
:103B00003D3D3D3D3D3D3D3D3D3D3D3D3D3D00005F
:103B100000B80BB90BBA0BBB0BBE0BBF0BC00BC174
:103B20000B0100C20BC30BC40BC50BC80BC90BCADE
:103B30000BCB0B0200C70BC80BC90BCA0BCD0BCEAE
:103B40000BCF0BD00B0300CC0BCD0BCE0BCF0BD27E
:103B50000BD30BD40BD50B0400D10BD20BD30BD44E
:103B60000BD70BD80BD90BDA0B0500D60BD70BD81C
:103B70000BD90BDC0BDD0BDE0BDF0B0600DB0BDCEC
:103B80000BDD0BDE0BE10BE20BE30BE40B0700E0BC
:103B90000BE10BE20BE30BE60BE70BE80BE90B0881
:103BA00000E50BE60BE70BE80BEB0BEC0BED0BEE7C
:103BB0000B0900EA0BEB0BEC0BED0BF00BF10BF22E
:103BC0000BF30B0A00EF0BF00BF10BF20BF50BF6FE
:103BD0000BF70BF80B0B00F40BF50BF60BF70BFACE
:103BE0000BFB0BFC0BFD0B0C00F90BFA0BFB0BFC9E
:103BF0000BFF0B000C010C020C0D00FE0BFF0B0069
:103C00000C010C040C050C060C070C0E00030C0434
:103C10000C050C060C090C0A0C0B0C0C0C0F000804
:103C20000C090C0A0C0B0C0E0C0F0C100C110C10C8
:103C3000000D0C0E0C0F0C100C130C140C150C16A4
:103C40000C1100120C130C140C150C180C190C1A76
:103C50000C1B0C1200170C180C190C1A0C1D0C1E46
:103C60000C1F0C200C13001C0C1D0C1E0C1F0C2216
:103C70000C230C240C250C1400210C220C230C24E6
:103C80000C270C280C290C2A0C1500260C270C28B4
:103C90000C290C2C0C2D0C2E0C2F0C16002B0C2C84
:103CA0000C2D0C2E0C310C320C330C340C17003054
:103CB0000C310C320C330C360C370C380C390C1818
:103CC00000350C360C370C380C3B0C3C0C3D0C3ED4
:103CD0000C19003A0C3B0C3C0C3D0C400C410C42C6
:103CE0000C430C1A003F0C400C410C420C450C4696
:103CF0000C470C480C1B00440C450C460C470C4A66
:103D00000C4B0C4C0C4D0C1C00490C4A0C4B0C4C35
:103D10000C4F0C500C510C520C1D004E0C4F0C5003
:103D20000C510C540C550C560C570C1E00530C54D3
:103D30000C550C560C590C5A0C5B0C5C0C1F0058A3
:103D40000C590C5A0C5B0C5E0C5F0C600C610C2067
:103D5000005D0C5E0C5F0C600C630C640C650C6603
:103D60000C2100620C630C640C650C680C690C6A15
:103D70000C6B0C2200670C680C690C6A0C6D0C6EE5
:103D80000C6F0C700C23006C0C6D0C6E0C6F0C72B5
:103D90000C730C740C750C2400710C720C730C7485
:103DA0000C770C780C790C7A0C2500760C770C7853
:103DB0000C790C7C0C7D0C7E0C7F0C26007B0C7C23
:103DC0000C7D0C7E0C810C820C830C840C270080F3
:103DD0000C810C820C830C860C870C880C890C28B7
:103DE00000850C860C870C880C8B0C8C0C8D0C8E33
:103DF0000C0003010102010401010202050101029C
:103E0000030601010204070101020508020202067D
:103E100009020202070E020202080B020202090C4A
:103E20000202020A0D0202020B000201030C000250
:103E300001030D000201030E000201030F00020145
:103E4000031000020103110002010312000201032A
:103E500013000201031408030204150903020416E7
:103E60000B030204170C030204180D030204190EBD
:103E70000302041A0F0302041B080402041C0904B1
:103E800002041D0B0402041E0C0402041F0D040294
:103E900004200E040204210801020122090102018A
:103EA000230B010201240C010201250D0102012650
:103EB0000E0102012710010201280F010201C82989
:103EC000000000C82A000000C82B000000C82C0019
:103ED0000000C82D000000C82E000000C82F000000
:103EE00000C830000000C831000000C832000000E7
:103EF000C833000000C834000000C835000004C802
:103F00003600000337C8C8C8C80000000000000021
:103F100000000000000A0B02090C0D0E0807030444
:103F20000100000000000000000000000000000090
:103F3000000000000000000000000000000000126F
:103F40001110000000000000000000000000000050
:103F50000000000000000000000000000000000061
:103F600000000000000000000001021020200808EE
:103F700010204010204080020102010804020101CB
:103F800002040810204080804020100804020180B4
:103F9000040201804020100804020108040201010B
:103FA0000204081020408001020408102040800410
:103FB0000810204080048008100440801020400534
:103FC000050505070508080808020202020A0A0892
:103FD00008040404040101010101010101030303B8
:103FE0000303030303040707070C0C0C0C0C0C0C55
:103FF0000C0202020206060606060606060B0B0B5C
:104000000B0B0B0B0B0A0A0A0A0A0A08080707051A
:104010000505040404000020002300260029002CCC
:10402000002F003200000100000301060109010019
:10403000002200250028002B002E00310034000251
:10404000010000050108010B0100002100240027E8
:10405000002A002D00300033000101000004010798
:10406000010A012E012E022E102E2034202E08824D
:104070000882108220824025102520254025808539
:10408000028501820282012B082B042B022B0122C4
:10409000012202220422082210222022402280280B
:1040A0008028402820281028082804280228012BCE
:1040B000803404340234018B808B408B208B108B36
:1040C000088B048B028B012508250425022501316C
:1040D0000131023104310831103120314031808802
:1040E000018802880488088810882088408880FF1A
:1040F000FFFFFFFFFFFFFFFFFFFFFFFFFFFFFFFFD0
:10410000FFFFFFFFFFFFFFFFFFFFFFFFFFFFFFFFBF
:10411000FFFFFFFFFFFFFFFFFFFFFFFFFFFFFFFFAF
:10412000FFFFFFFFFFFFFFFFFFFFFFFFFFFFFFFF9F
:10413000FFFFFFFFFFFFFFFFFFFFFFFFFFFFFFFF8F
:10414000FFFFFFFFFFFFFFFFFFFFFFFFFFFFFFFF7F
:10415000FFFFFFFFFFFFFFFFFFFFFFFFFFFFFFFF6F
:10416000FFFFFFFFFFFFFFFFFFFFFFFFFFFFFFFF5F
:10417000FFFFFFFFFFFFFFFFFFFFFFFFFFFFFFFF4F
:10418000FFFFFFFFFFFFFFFFFFFFFFFFFFFFFFFF3F
:10419000FFFFFFFFFFFFFFFFFFFFFFFFFFFFFFFF2F
:1041A000FFFFFFFFFFFFFFFFFFFFFFFFFFFFFFFF1F
:1041B000FFFFFFFFFFFFFFFFFFFFFFFFFFFFFFFF0F
:1041C000FFFFFFFFFFFFFFFFFFBACE7595FFFFFF69
:1041D000FFFFFFFFFFFFFFFFFFFFFFFFFFFFFFFFEF
:1041E000FFFFFFFFFFFFFFFFFFFFFFFFFFFFFFFFDF
:1041F000FFFFFFFFFFFFFFFFFFFFFFFFFFFFFFFFCF
:10420000FFFFFFFFFFFFFFFFFFFFFFFFFFFFFFFFBE
:10421000FFFFFFFFFFFFFFFFFFFFFFFFFFFFFFFFAE
:10422000FFFFFFFFFFFFFFFFFFFFFFFFFFFFFFFF9E
:10423000FFFFFFFFFFFFFFFFFFFFFFFFFFFFFFFF8E
:10424000FFFFFFFFFFFFFFFFFFFFFFFFFFFFFFFF7E
:10425000FFFFFFFFFFFFFFFFFFFFFFFFFFFFFFFF6E
:10426000FFFFFFFFFFFFFFFFFFFFFFFFFFFFFFFF5E
:10427000FFFFFFFFFFFFFFFFFFFFFFFFFFFFFFFF4E
:10428000FFFFFFFFFFFFFFFFFFFFFFFFFFFFFFFF3E
:10429000FFFFFFFFFFFFFFFFFFFFFFFFFFFFFFFF2E
:1042A000FFFFFFFFFFFFFFFFFFFFFFFFFFFFFFFF1E
:1042B000FFFFFFFFFFFFFFFFFFFFFFFFFFFFFFFF0E
:1042C000FFFFFFFFFFFFFFFFFFFFFFFFFFFFFFFFFE
:1042D000FFFFFFFFFFFFFFFFFFFFFFFFFFFFFFFFEE
:1042E000FFFFFFFFFFFFFFFFFFFFFFFFFFFFFFFFDE
:1042F000FFFFFFFFFFFFFFFFFFFFFFFFFFFFFFFFCE
:10430000FFFFFFFFFFFFFFFFFFFFFFFFFFFFFFFFBD
:10431000FFFFFFFFFFFFFFFFFFFFFFFFFFFFFFFFAD
:10432000FFFFFFFFFFFFFFFFFFFFFFFFFFFFFFFF9D
:10433000FFFFFFFFFFFFFFFFFFFFFFFFFFFFFFFF8D
:10434000FFFFFFFFFFFFFFFFFFFFFFFFFFFFFFFF7D
:10435000FFFFFFFFFFFFFFFFFFFFFFFFFFFFFFFF6D
:10436000FFFFFFFFFFFFFFFFFF9EF72C3B2812958B
:104370009DFFFFFFFFFFFFFFFFFFFFFFFFFFFFFFAF
:10438000FFFFFFFFFFFFFFFFFFFFFFFFFFFFFFFF3D
:10439000FFFFFFFFFFFFFFFFFFFFFFFFFFFFFFFF2D
:1043A000FFFFFFFFFFFFFFFFFFFFFFFFFFFFFFFF1D
:1043B000FFFFFFFFFFFFFFFFFFFFFFFFFFFFFFFF0D
:1043C000FFFFFFFFFFFFFFFFFFFFFFFFFFFFFFFFFD
:1043D000FFFFFFFFFFFFFFFFFFFFFFFFFFFFFFFFED
:1043E000FFFFFFFFFFFFFFFFFFFFFFFFFFFFFFFFDD
:1043F000FFFFFFFFFFFFFFFFFFFFFFFFFFFFFFFFCD
:10440000FFFFFFFFFFFFFFFFFFFFFFFFFFFFFFFFBC
:10441000FFFFFFFFFFFFFFFFFFFFFFFFFFFFFFFFAC
:10442000FFFFFFFFFFFFFFFFFFFFFFFFFFFFFFFF9C
:10443000FFFFFFFFFFFFFFFFFFFFFFFFFFFFFFFF8C
:10444000FFFFFFFFFFFFFFFFFFFFFFFFFFFFFFFF7C
:10445000FFFFFFFFFFFFFFFFFFFFFFFFFFFFFFFF6C
:10446000FFFFFFFFFFFFFFFFFFFFFFFFFFFFFFFF5C
:10447000FFFFFFFFFFFFFFFFFFFFFFFFFFFFFFFF4C
:10448000FFFFFFFFFFFFFFFFFFFFFFFFFFFFFFFF3C
:10449000FFFFFFFFFFFFFFFFFFFFFFFFFFFFFFFF2C
:1044A000FFFFFFFFFFFFFFFFFFFFFFFFFFFFFFFF1C
:1044B000FFFFFFFFFFFFFFFFFFFFFFFFFFFFFFFF0C
:1044C000FFFFFFFFFFFFFFFFFFFFFFFFFFFFFFFFFC
:1044D000FFFFFFFFFFFFFFFFFFFFFFFFFFFFFFFFEC
:1044E000FFFFFFFFFFFFFFFFFFFFFFFFFFFFFFFFDC
:1044F000FFFFFFFFFFFFFFFFFFFFFFFFFFFFFFFFCC
:10450000FFFFFFFFFFFFFFFFFFFFFF5DE7AA22485E
:1045100012B274FFFFFFFFFFFFFFFFFFFFFFFFFF70
:10452000FFFFFFFFFFFFFFFFFFFFFFFFFFFFFFFF9B
:10453000FFFFFFFFFFFFFFFFFFFFFFFFFFFFFFFF8B
:10454000FFFFFFFFFFFFFFFFFFFFFFFFFFFFFFFF7B
:10455000FFFFFFFFFFFFFFFFFFFFFFFFFFFFFFFF6B
:10456000FFFFFFFFFFFFFFFFFFFFFFFFFFFFFFFF5B
:10457000FFFFFFFFFFFFFFFFFFFFFFFFFFFFFFFF4B
:10458000FFFFFFFFFFFFFFFFFFFFFFFFFFFFFFFF3B
:10459000FFFFFFFFFFFFFFFFFFFFFFFFFFFFFFFF2B
:1045A000FFFFFFFFFFFFFFFFFFFFFFFFFFFFFFFF1B
:1045B000FFFFFFFFFFFFFFFFFFFFFFFFFFFFFFFF0B
:1045C000FFFFFFFFFFFFFFFFFFFFFFFFFFFFFFFFFB
:1045D000FFFFFFFFFFFFFFFFFFFFFFFFFFFFFFFFEB
:1045E000FFFFFFFFFFFFFFFFFFFFFFFFFFFFFFFFDB
:1045F000FFFFFFFFFFFFFFFFFFFFFFFFFFFFFFFFCB
:10460000FFFFFFFFFFFFFFFFFFFFFFFFFFFFFFFFBA
:10461000FFFFFFFFFFFFFFFFFFFFFFFFFFFFFFFFAA
:10462000FFFFFFFFFFFFFFFFFFFFFFFFFFFFFFFF9A
:10463000FFFFFFFFFFFFFFFFFFFFFFFFFFFFFFFF8A
:10464000FFFFFFFFFFFFFFFFFFFFFFFFFFFFFFFF7A
:10465000FFFFFFFFFFFFFFFFFFFFFFFFFFFFFFFF6A
:10466000FFFFFFFFFFFFFFFFFFFFFFFFFFFFFFFF5A
:10467000FFFFFFFFFFFFFFFFFFFFFFFFFFFFFFFF4A
:10468000FFFFFFFFFFFFFFFFFFFFFFFFFFFFFFFF3A
:10469000FFFFFFFFFFFFFFFFFFFFFFFFFFFFFFFF2A
:1046A000FFFFFFFFFFFFFFFFFFFFFFFFFF5DE7AA29
:1046B000224812B27CFFFFFFFFFFFFFFFFFFFFFF5B
:1046C000FFFFFFFFFFFFFFFFFFFFFFFFFFFFFFFFFA
:1046D000FFFFFFFFFFFFFFFFFFFFFFFFFFFFFFFFEA
:1046E000FFFFFFFFFFFFFFFFFFFFFFFFFFFFFFFFDA
:1046F000FFFFFFFFFFFFFFFFFFFFFFFFFFFFFFFFCA
:10470000FFFFFFFFFFFFFFFFFFFFFFFFFFFFFFFFB9
:10471000FFFFFFFFFFFFFFFFFFFFFFFFFFFFFFFFA9
:10472000FFFFFFFFFFFFFFFFFFFFFFFFFFFFFFFF99
:10473000FFFFFFFFFFFFFFFFFFFFFFFFFFFFFFFF89
:10474000FFFFFFFFFFFFFFFFFFFFFFFFFFFFFFFF79
:10475000FFFFFFFFFFFFFFFFFFFFFFFFFFFFFFFF69
:10476000FFFFFFFFFFFFFFFFFFFFFFFFFFFFFFFF59
:10477000FFFFFFFFFFFFFFFFFFFFFFFFFFFFFFFF49
:10478000FFFFFFFFFFFFFFFFFFFFFFFFFFFFFFFF39
:10479000FFFFFFFFFFFFFFFFFFFFFFFFFFFFFFFF29
:1047A000FFFFFFFFFFFFFFFFFFFFFFFFFFFFFFFF19
:1047B000FFFFFFFFFFFFFFFFFFFFFFFFFFFFFFFF09
:1047C000FFFFFFFFFFFFFFFFFFFFFFFFFFFFFFFFF9
:1047D000FFFFFFFFFFFFFFFFFFFFFFFFFFFFFFFFE9
:1047E000FFFFFFFFFFFFFFFFFFFFFFFFFFFFFFFFD9
:1047F000FFFFFFFFFFFFFFFFFFFFFFFFFFFFFFFFC9
:10480000FFFFFFFFFFFFFFFFFFFFFFFFFFFFFFFFB8
:10481000FFFFFFFFFFFFFFFFFFFFFFFFFFFFFFFFA8
:10482000FFFFFFFFFFFFFFFFFFFFFFFFFFFFFFFF98
:10483000FFFFFFFFFFFFFFFFFFFFFFFFFFFFFFFF88
:10484000FFFFFFFFFFFFFFFFFFFFFFFFFFFFFF5D1A
:10485000E7AA224812B27CFFFFFFFFFFFFFFFFFF26
:10486000FFFFFFFFFFFFFFFFFFFFFFFFFFFFFFFF58
:10487000FFFFFFFFFFFFFFFFFFFFFFFFFFFFFFFF48
:10488000FFFFFFFFFFFFFFFFFFFFFFFFFFFFFFFF38
:10489000FFFFFFFFFFFFFFFFFFFFFFFFFFFFFFFF28
:1048A000FFFFFFFFFFFFFFFFFFFFFFFFFFFFFFFF18
:1048B000FFFFFFFFFFFFFFFFFFFFFFFFFFFFFFFF08
:1048C000FFFFFFFFFFFFFFFFFFFFFFFFFFFFFFFFF8
:1048D000FFFFFFFFFFFFFFFFFFFFFFFFFFFFFFFFE8
:1048E000FFFFFFFFFFFFFFFFFFFFFFFFFFFFFFFFD8
:1048F000FFFFFFFFFFFFFFFFFFFFFFFFFFFFFFFFC8
:10490000FFFFFFFFFFFFFFFFFFFFFFFFFFFFFFFFB7
:10491000FFFFFFFFFFFFFFFFFFFFFFFFFFFFFFFFA7
:10492000FFFFFFFFFFFFFFFFFFFFFFFFFFFFFFFF97
:10493000FFFFFFFFFFFFFFFFFFFFFFFFFFFFFFFF87
:10494000FFFFFFFFFFFFFFFFFFFFFFFFFFFFFFFF77
:10495000FFFFFFFFFFFFFFFFFFFFFFFFFFFFFFFF67
:10496000FFFFFFFFFFFFFFFFFFFFFFFFFFFFFFFF57
:10497000FFFFFFFFFFFFFFFFFFFFFFFFFFFFFFFF47
:10498000FFFFFFFFFFFFFFFFFFFFFFFFFFFFFFFF37
:10499000FFFFFFFFFFFFFFFFFFFFFFFFFFFFFFFF27
:1049A000FFFFFFFFFFFFFFFFFFFFFFFFFFFFFFFF17
:1049B000FFFFFFFFFFFFFFFFFFFFFFFFFFFFFFFF07
:1049C000FFFFFFFFFFFFFFFFFFFFFFFFFFFFFFFFF7
:1049D000FFFFFFFFFFFFFFFFFFFFFFFFFFFFFFFFE7
:1049E000FFFFFFFFFFFFFFFFFFFFFFFFFFFFFFFFD7
:1049F000FF5DE7AA224812B27CFFFFFFFFFFFFFF27
:104A0000FFFFFFFFFFFFFFFFFFFFFFFFFFFFFFFFB6
:104A1000FFFFFFFFFFFFFFFFFFFFFFFFFFFFFFFFA6
:104A2000FFFFFFFFFFFFFFFFFFFFFFFFFFFFFFFF96
:104A3000FFFFFFFFFFFFFFFFFFFFFFFFFFFFFFFF86
:104A4000FFFFFFFFFFFFFFFFFFFFFFFFFFFFFFFF76
:104A5000FFFFFFFFFFFFFFFFFFFFFFFFFFFFFFFF66
:104A6000FFFFFFFFFFFFFFFFFFFFFFFFFFFFFFFF56
:104A7000FFFFFFFFFFFFFFFFFFFFFFFFFFFFFFFF46
:104A8000FFFFFFFFFFFFFFFFFFFFFFFFFFFFFFFF36
:104A9000FFFFFFFFFFFFFFFFFFFFFFFFFFFFFFFF26
:104AA000FFFFFFFFFFFFFFFFFFFFFFFFFFFFFFFF16
:104AB000FFFFFFFFFFFFFFFFFFFFFFFFFFFFFFFF06
:104AC000FFFFFFFFFFFFFFFFFFFFFFFFFFFFFFFFF6
:104AD000FFFFFFFFFFFFFFFFFFFFFFFFFFFFFFFFE6
:104AE000FFFFFFFFFFFFFFFFFFFFFFFFFFFFFFFFD6
:104AF000FFFFFFFFFFFFFFFFFFFFFFFFFFFFFFFFC6
:104B0000FFFFFFFFFFFFFFFFFFFFFFFFFFFFFFFFB5
:104B1000FFFFFFFFFFFFFFFFFFFFFFFFFFFFFFFFA5
:104B2000FFFFFFFFFFFFFFFFFFFFFFFFFFFFFFFF95
:104B3000FFFFFFFFFFFFFFFFFFFFFFFFFFFFFFFF85
:104B4000FFFFFFFFFFFFFFFFFFFFFFFFFFFFFFFF75
:104B5000FFFFFFFFFFFFFFFFFFFFFFFFFFFFFFFF65
:104B6000FFFFFFFFFFFFFFFFFFFFFFFFFFFFFFFF55
:104B7000FFFFFFFFFFFFFFFFFFFFFFFFFFFFFFFF45
:104B8000FFFFFFFFFFFFFFFFFFFFFFFFFFFFFFFF35
:104B9000FFFFFF5DE7AA224812B27CFFFFFFFFFF85
:104BA000FFFFFFFFFFFFFFFFFFFFFFFFFFFFFFFF15
:104BB000FFFFFFFFFFFFFFFFFFFFFFFFFFFFFFFF05
:104BC000FFFFFFFFFFFFFFFFFFFFFFFFFFFFFFFFF5
:104BD000FFFFFFFFFFFFFFFFFFFFFFFFFFFFFFFFE5
:104BE000FFFFFFFFFFFFFFFFFFFFFFFFFFFFFFFFD5
:104BF000FFFFFFFFFFFFFFFFFFFFFFFFFFFFFFFFC5
:104C0000FFFFFFFFFFFFFFFFFFFFFFFFFFFFFFFFB4
:104C1000FFFFFFFFFFFFFFFFFFFFFFFFFFFFFFFFA4
:104C2000FFFFFFFFFFFFFFFFFFFFFFFFFFFFFFFF94
:104C3000FFFFFFFFFFFFFFFFFFFFFFFFFFFFFFFF84
:104C4000FFFFFFFFFFFFFFFFFFFFFFFFFFFFFFFF74
:104C5000FFFFFFFFFFFFFFFFFFFFFFFFFFFFFFFF64
:104C6000FFFFFFFFFFFFFFFFFFFFFFFFFFFFFFFF54
:104C7000FFFFFFFFFFFFFFFFFFFFFFFFFFFFFFFF44
:104C8000FFFFFFFFFFFFFFFFFFFFFFFFFFFFFFFF34
:104C9000FFFFFFFFFFFFFFFFFFFFFFFFFFFFFFFF24
:104CA000FFFFFFFFFFFFFFFFFFFFFFFFFFFFFFFF14
:104CB000FFFFFFFFFFFFFFFFFFFFFFFFFFFFFFFF04
:104CC000FFFFFFFFFFFFFFFFFFFFFFFFFFFFFFFFF4
:104CD000FFFFFFFFFFFFFFFFFFFFFFFFFFFFFFFFE4
:104CE000FFFFFFFFFFFFFFFFFFFFFFFFFFFFFFFFD4
:104CF000FFFFFFFFFFFFFFFFFFFFFFFFFFFFFFFFC4
:104D0000FFFFFFFFFFFFFFFFFFFFFFFFFFFFFFFFB3
:104D1000FFFFFFFFFFFFFFFFFFFFFFFFFFFFFFFFA3
:104D2000FFFFFFFFFFFFFFFFFFFFFFFFFFFFFFFF93
:104D3000FFFFFFFFFF5DE7AA224812B27CFFFFFFE3
:104D4000FFFFFFFFFFFFFFFFFFFFFFFFFFFFFFFF73
:104D5000FFFFFFFFFFFFFFFFFFFFFFFFFFFFFFFF63
:104D6000FFFFFFFFFFFFFFFFFFFFFFFFFFFFFFFF53
:104D7000FFFFFFFFFFFFFFFFFFFFFFFFFFFFFFFF43
:104D8000FFFFFFFFFFFFFFFFFFFFFFFFFFFFFFFF33
:104D9000FFFFFFFFFFFFFFFFFFFFFFFFFFFFFFFF23
:104DA000FFFFFFFFFFFFFFFFFFFFFFFFFFFFFFFF13
:104DB000FFFFFFFFFFFFFFFFFFFFFFFFFFFFFFFF03
:104DC000FFFFFFFFFFFFFFFFFFFFFFFFFFFFFFFFF3
:104DD000FFFFFFFFFFFFFFFFFFFFFFFFFFFFFFFFE3
:104DE000FFFFFFFFFFFFFFFFFFFFFFFFFFFFFFFFD3
:104DF000FFFFFFFFFFFFFFFFFFFFFFFFFFFFFFFFC3
:104E0000FFFFFFFFFFFFFFFFFFFFFFFFFFFFFFFFB2
:104E1000FFFFFFFFFFFFFFFFFFFFFFFFFFFFFFFFA2
:104E2000FFFFFFFFFFFFFFFFFFFFFFFFFFFFFFFF92
:104E3000FFFFFFFFFFFFFFFFFFFFFFFFFFFFFFFF82
:104E4000FFFFFFFFFFFFFFFFFFFFFFFFFFFFFFFF72
:104E5000FFFFFFFFFFFFFFFFFFFFFFFFFFFFFFFF62
:104E6000FFFFFFFFFFFFFFFFFFFFFFFFFFFFFFFF52
:104E7000FFFFFFFFFFFFFFFFFFFFFFFFFFFFFFFF42
:104E8000FFFFFFFFFFFFFFFFFFFFFFFFFFFFFFFF32
:104E9000FFFFFFFFFFFFFFFFFFFFFFFFFFFFFFFF22
:104EA000FFFFFFFFFFFFFFFFFFFFFFFFFFFFFFFF12
:104EB000FFFFFFFFFFFFFFFFFFFFFFFFFFFFFFFF02
:104EC000FFFFFFFFFFFFFFFFFFFFFF5DE7969DDB9B
:104ED000D6FFFFFFFFFFFF5DE7AA224812B27CFF6B
:104EE000FFFFFFFFFFFFFFFFFFFFFFFFFFFFFFFFD2
:104EF000FFFFFFFFFFFFFFFFFFFFFFFFFFFFFFFFC2
:104F0000FFFFFFFFFFFFFFFFFFFFFFFFFFFFFFFFB1
:104F1000FFFFFFFFFFFFFFFFFFFFFFFFFFFFFFFFA1
:104F2000FFFFFFFFFFFFFFFFFFFFFFFFFFFFFFFF91
:104F3000FFFFFFFFFFFFFFFFFFFFFFFFFFFFFFFF81
:104F4000FFFFFFFFFFFFFFFFFFFFFFFFFFFFFFFF71
:104F5000FFFFFFFFFFFFFFFFFFFFFFFFFFFFFFFF61
:104F6000FFFFFFFFFFFFFFFFFFFFFFFFFFFFFFFF51
:104F7000FFFFFFFFFFFFFFFFFFFFFFFFFFFFFFFF41
:104F8000FFFFFFFFFFFFFFFFFFFFFFFFFFFFFFFF31
:104F9000FFFFFFFFFFFFFFFFFFFFFFFFFFFFFFFF21
:104FA000FFFFFFFFFFFFFFFFFFFFFFFFFFFFFFFF11
:104FB000FFFFFFFFFFFFFFFFFFFFFFFFFFFFFFFF01
:104FC000FFFFFFFFFFFFFFFFFFFFFFFFFFFFFFFFF1
:104FD000FFFFFFFFFFFFFFFFFFFFFFFFFFFFFFFFE1
:104FE000FFFFFFFFFFFFFFFFFFFFFFFFFFFFFFFFD1
:104FF000FFFFFFFFFFFFFFFFFFFFFFFFFFFFFFFFC1
:10500000FFFFFFFFFFFFFFFFFFFFFFFFFFFFFFFFB0
:10501000FFFFFFFFFFFFFFFFFFFFFFFFFFFFFFFFA0
:10502000FFFFFFFFFFFFFFFFFFFFFFFFFFFFFFFF90
:10503000FFFFFFFFFFFFFFFFFFFFFFFFFFFFFFFF80
:10504000FFFFFFFFFFFFFFFFFFFFFFFFFFFFFFFF70
:10505000FFFFFFFFFFFFFFFFFFFFFFFFFFFFFFFF60
:10506000FFFFFFFFFFFFFFFFFFFFFFDFF76D43289D
:1050700012CA2ADBCEFFFFFFFF5DE7AA224812B269
:105080007CFFFFFFFFFFFFFFFFFFFFFFFFFFFFFFB3
:10509000FFFFFFFFFFFFFFFFFFFFFFFFFFFFFFFF20
:1050A000FFFFFFFFFFFFFFFFFFFFFFFFFFFFFFFF10
:1050B000FFFFFFFFFFFFFFFFFFFFFFFFFFFFFFFF00
:1050C000FFFFFFFFFFFFFFFFFFFFFFFFFFFFFFFFF0
:1050D000FFFFFFFFFFFFFFFFFFFFFFFFFFFFFFFFE0
:1050E000FFFFFFFFFFFFFFFFFFFFFFFFFFFFFFFFD0
:1050F000FFFFFFFFFFFFFFFFFFFFFFFFFFFFFFFFC0
:10510000FFFFFFFFFFFFFFFFFFFFFFFFFFFFFFFFAF
:10511000FFFFFFFFFFFFFFFFFFFFFFFFFFFFFFFF9F
:10512000FFFFFFFFFFFFFFFFFFFFFFFFFFFFFFFF8F
:10513000FFFFFFFFFFFFFFFFFFFFFFFFFFFFFFFF7F
:10514000FFFFFFFFFFFFFFFFFFFFFFFFFFFFFFFF6F
:10515000FFFFFFFFFFFFFFFFFFFFFFFFFFFFFFFF5F
:10516000FFFFFFFFFFFFFFFFFFFFFFFFFFFFFFFF4F
:10517000FFFFFFFFFFFFFFFFFFFFFFFFFFFFFFFF3F
:10518000FFFFFFFFFFFFFFFFFFFFFFFFFFFFFFFF2F
:10519000FFFFFFFFFFFFFFFFFFFFFFFFFFFFFFFF1F
:1051A000FFFFFFFFFFFFFFFFFFFFFFFFFFFFFFFF0F
:1051B000FFFFFFFFFFFFFFFFFFFFFFFFFFFFFFFFFF
:1051C000FFFFFFFFFFFFFFFFFFFFFFFFFFFFFFFFEF
:1051D000FFFFFFFFFFFFFFFFFFFFFFFFFFFFFFFFDF
:1051E000FFFFFFFFFFFFFFFFFFFFFFFFFFFFFFFFCF
:1051F000FFFFFFFFFFFFFFFFFFFFFFFFFFFFFFFFBF
:10520000FFFFFFFFFFFFFFFFFFFFFFFFFF1CDF6947
:105210001A691A691A759DFFFFFFFF5DE7AA224808
:1052200012B27CFFFFFFFFFFFFFFFFFFFFFFFFFF4B
:10523000FFFFFFFFFFFFFFFFFFFFFFFFFFFFFFFF7E
:10524000FFFFFFFFFFFFFFFFFFFFFFFFFFFFFFFF6E
:10525000FFFFFFFFFFFFFFFFFFFFFFFFFFFFFFFF5E
:10526000FFFFFFFFFFFFFFFFFFFFFFFFFFFFFFFF4E
:10527000FFFFFFFFFFFFFFFFFFFFFFFFFFFFFFFF3E
:10528000FFFFFFFFFFFFFFFFFFFFFFFFFFFFFFFF2E
:10529000FFFFFFFFFFFFFFFFFFFFFFFFFFFFFFFF1E
:1052A000FFFFFFFFFFFFFFFFFFFFFFFFFFFFFFFF0E
:1052B000FFFFFFFFFFFFFFFFFFFFFFFFFFFFFFFFFE
:1052C000FFFFFFFFFFFFFFFFFFFFFFFFFFFFFFFFEE
:1052D000FFFFFFFFFFFFFFFFFFFFFFFFFFFFFFFFDE
:1052E000FFFFFFFFFFFFFFFFFFFFFFFFFFFFFFFFCE
:1052F000FFFFFFFFFFFFFFFFFFFFFFFFFFFFFFFFBE
:10530000FFFFFFFFFFFFFFFFFFFFFFFFFFFFFFFFAD
:10531000FFFFFFFFFFFFFFFFFFFFFFFFFFFFFFFF9D
:10532000FFFFFFFFFFFFFFFFFFFFFFFFFFFFFFFF8D
:10533000FFFFFFFFFFFFFFFFFFFFFFFFFFFFFFFF7D
:10534000FFFFFFFFFFFFFFFFFFFFFFFFFFFFFFFF6D
:10535000FFFFFFFFFFFFFFFFFFFFFFFFFFFFFFFF5D
:10536000FFFFFFFFFFFFFFFFFFFFFFFFFFFFFFFF4D
:10537000FFFFFFFFFFFFFFFFFFFFFFFFFFFFFFFF3D
:10538000FFFFFFFFFFFFFFFFFFFFFFFFFFFFFFFF2D
:10539000FFFFFFFFFFFFFFFFFFFFFFFFFFFFFFFF1D
:1053A000FFFFFFFFFFFFFFFFFFFFFFFFFFFFFF1CF0
:1053B000DF891A891A691A759DFFFFFFFF5DE7AA49
:1053C000224812B27CFFFFFFFFFFFFFFFFFFFFFF3E
:1053D000FFFFFFFFFFFFFFFFFFFFFFFFFFFFFFFFDD
:1053E000FFFFFFFFFFFFFFFFFFFFFFFFFFFFFFFFCD
:1053F000FFFFFFFFFFFFFFFFFFFFFFFFFFFFFFFFBD
:10540000FFFFFFFFFFFFFFFFFFFFFFFFFFFFFFFFAC
:10541000FFFFFFFFFFFFFFFFFFFFFFFFFFFFFFFF9C
:10542000FFFFFFFFFFFFFFFFFFFFFFFFFFFFFFFF8C
:10543000FFFFFFFFFFFFFFFFFFFFFFFFFFFFFFFF7C
:10544000FFFFFFFFFFFFFFFFFFFFFFFFFFFFFFFF6C
:10545000FFFFFFFFFFFFFFFFFFFFFFFFFFFFFFFF5C
:10546000FFFFFFFFFFFFFFFFFFFFFFFFFFFFFFFF4C
:10547000FFFFFFFFFFFFFFFFFFFFFFFFFFFFFFFF3C
:10548000FFFFFFFFFFFFFFFFFFFFFFFFFFFFFFFF2C
:10549000FFFFFFFFFFFFFFFFFFFFFFFFFFFFFFFF1C
:1054A000FFFFFFFFFFFFFFFFFFFFFFFFFFFFFFFF0C
:1054B000FFFFFFFFFFFFFFFFFFFFFFFFFFFFFFFFFC
:1054C000FFFFFFFFFFFFFFFFFFFFFFFFFFFFFFFFEC
:1054D000FFFFFFFFFFFFFFFFFFFFFFFFFFFFFFFFDC
:1054E000FFFFFFFFFFFFFFFFFFFFFFFFFFFFFFFFCC
:1054F000FFFFFFFFFFFFFFFFFFFFFFFFFFFFFFFFBC
:10550000FFFFFFFFFFFFFFFFFFFFFFFFFFFFFFFFAB
:10551000FFFFFFFFFFFFFFFFFFFFFFFFFFFFFFFF9B
:10552000FFFFFFFFFFFFFFFFFFFFFFFFFFFFFFFF8B
:10553000FFFFFFFFFFFFFFFFFFFFFFFFFFFFFFFF7B
:10554000FFFFFFFFFFFFFFFFFFFFFFFFFFFFFFFF6B
:10555000FF1CDF891A891A691A759DFFFFFFFF5D1D
:10556000E7AA224812B27CFFFFFFFFFFFFFFFFFF09
:10557000FFFFFFFFFFFFFFFFFFFFFFFFFFFFFFFF3B
:10558000FFFFFFFFFFFFFFFFFFFFFFFFFFFFFFFF2B
:10559000FFFFFFFFFFFFFFFFFFFFFFFFFFFFFFFF1B
:1055A000FFFFFFFFFFFFFFFFFFFFFFFFFFFFFFFF0B
:1055B000FFFFFFFFFFFFFFFFFFFFFFFFFFFFFFFFFB
:1055C000FFFFFFFFFFFFFFFFFFFFFFFFFFFFFFFFEB
:1055D000FFFFFFFFFFFFFFFFFFFFFFFFFFFFFFFFDB
:1055E000FFFFFFFFFFFFFFFFFFFFFFFFFFFFFFFFCB
:1055F000FFFFFFFFFFFFFFFFFFFFFFFFFFFFFFFFBB
:10560000FFFFFFFFFFFFFFFFFFFFFFFFFFFFFFFFAA
:10561000FFFFFFFFFFFFFFFFFFFFFFFFFFFFFFFF9A
:10562000FFFFFFFFFFFFFFFFFFFFFFFFFFFFFFFF8A
:10563000FFFFFFFFFFFFFFFFFFFFFFFFFFFFFFFF7A
:10564000FFFFFFFFFFFFFFFFFFFFFFFFFFFFFFFF6A
:10565000FFFFFFFFFFFFFFFFFFFFFFFFFFFFFFFF5A
:10566000FFFFFFFFFFFFFFFFFFFFFFFFFFFFFFFF4A
:10567000FFFFFFFFFFFFFFFFFFFFFFFFFFFFFFFF3A
:10568000FFFFFFFFFFFFFFFFFFFFFFFFFFFFFFFF2A
:10569000FFFFFFFFFFFFFFFFFFFFFFFFFFFFFFFF1A
:1056A000FFFFFFFFFFFFFFFFFFFFFFFFFFFFFFFF0A
:1056B000FFFFFFFFFFFFFFFFFFFFFFFFFFFFFFFFFA
:1056C000FFFFFFFFFFFFFFFFFFFFFFFFFFFFFFFFEA
:1056D000FFFFFFFFFFFFFFFFFFFFFFFFFFFFFFFFDA
:1056E000FFFFFFFFFFFFFFFFFFFFFFFFFFFFFFFFCA
:1056F000FFFFFF1CDF891A891A691A759DFFFFFFDA
:10570000FF5DE7AA224812B27CFFFFFFFFFFFFFF09
:10571000FFFFFFFFFFFFFFFFFFFFFFFFFFFFFFFF99
:10572000FFFFFFFFFFFFFFFFFFFFFFFFFFFFFFFF89
:10573000FFFFFFFFFFFFFFFFFFFFFFFFFFFFFFFF79
:10574000FFFFFFFFFFFFFFFFFFFFFFFFFFFFFFFF69
:10575000FFFFFFFFFFFFFFFFFFFFFFFFFFFFFFFF59
:10576000FFFFFFFFFFFFFFFFFFFFFFFFFFFFFFFF49
:10577000FFFFFFFFFFFFFFFFFFFFFFFFFFFFFFFF39
:10578000FFFFFFFFFFFFFFFFFFFFFFFFFFFFFFFF29
:10579000FFFFFFFFFFFFFFFFFFFFFFFFFFFFFFFF19
:1057A000FFFFFFFFFFFFFFFFFFFFFFFFFFFFFFFF09
:1057B000FFFFFFFFFFFFFFFFFFFFFFFFFFFFFFFFF9
:1057C000FFFFFFFFFFFFFFFFFFFFFFFFFFFFFFFFE9
:1057D000FFFFFFFFFFFFFFFFFFFFFFFFFFFFFFFFD9
:1057E000FFFFFFFFFFFFFFFFFFFFFFFFFFFFFFFFC9
:1057F000FFFFFFFFFFFFFFFFFFFFFFFFFFFFFFFFB9
:10580000FFFFFFFFFFFFFFFFFFFFFFFFFFFFFFFFA8
:10581000FFFFFFFFFFFFFFFFFFFFFFFFFFFFFFFF98
:10582000FFFFFFFFFFFFFFFFFFFFFFFFFFFFFFFF88
:10583000FFFFFFFFFFFFFFFFFFFFFFFFFFFFFFFF78
:10584000FFFFFFFFFFFFFFFFFFFFFFFFFFFFFFFF68
:10585000FFFFFFFFFFFFFFFFFFFFFFFFFFFFFFFF58
:10586000FFFFFFFFFFFFFFFFFFFFFFFFFFFFFFFF48
:10587000FFFFFFFFFFFFFFFFFFFFFFFFFFFFFFFF38
:10588000FFFFFFFFFFFFFFFFFFFFFFFFFFFFFFFF28
:10589000FFFFFFFFFF1CDF891A891A691A759DFF38
:1058A000FFFFFF5DE7AA224812B27CFFFFFFFFFF68
:1058B000FFFFFFFFFFFFFFFFFFFFFFFFFFFFFFFFF8
:1058C000FFFFFFFFFFFFFFFFFFFFFFFFFFFFFFFFE8
:1058D000FFFFFFFFFFFFFFFFFFFFFFFFFFFFFFFFD8
:1058E000FFFFFFFFFFFFFFFFFFFFFFFFFFFFFFFFC8
:1058F000FFFFFFFFFFFFFFFFFFFFFFFFFFFFFFFFB8
:10590000FFFFFFFFFFFFFFFFFFFFFFFFFFFFFFFFA7
:10591000FFFFFFFFFFFFFFFFFFFFFFFFFFFFFFFF97
:10592000FFFFFFFFFFFFFFFFFFFFFFFFFFFFFFFF87
:10593000FFFFFFFFFFFFFFFFFFFFFFFFFFFFFFFF77
:10594000FFFFFFFFFFFFFFFFFFFFFFFFFFFFFFFF67
:10595000FFFFFFFFFFFFFFFFFFFFFFFFFFFFFFFF57
:10596000FFFFFFFFFFFFFFFFFFFFFFFFFFFFFFFF47
:10597000FFFFFFFFFFFFFFFFFFFFFFFFFFFFFFFF37
:10598000FFFFFFFFFFFFFFFFFFFFFFFFFFFFFFFF27
:10599000FFFFFFFFFFFFFFFFFFFFFFFFFFFFFFFF17
:1059A000FFFFFFFFFFFFFFFFFFFFFFFFFFFFFFFF07
:1059B000FFFFFFFFFFFFFFFFFFFFFFFFFFFFFFFFF7
:1059C000FFFFFFFFFFFFFFFFFFFFFFFFFFFFFFFFE7
:1059D000FFFFFFFFFFFFFFFFFFFFFFFFFFFFFFFFD7
:1059E000FFFFFFFFFFFFFFFFFFFFFFFFFFFFFFFFC7
:1059F000FFFFFFFFFFFFFFFFFFFFFFFFFFFFFFFFB7
:105A0000FFFFFFFFFFFFFFFFFFFFFFFFFFFFFFFFA6
:105A1000FFFFFFFFFFFFFFFFFFFFFFFFFFFFFFFF96
:105A2000FFFFFFFFFFFFFFFFFFFFFFFFFFFFFFFF86
:105A3000FFFFFFFFFFFFFF1CDF891A891A691A7534
:105A40009DFFFFFFFF5DE7AA224812B27CFFFFFF28
:105A5000FFFFFFFFFFFFFFFFFFFFFFFFFFFFFFFF56
:105A6000FFFFFFFFFFFFFFFFFFFFFFFFFFFFFFFF46
:105A7000FFFFFFFFFFFFFFFFFFFFFFFFFFFFFFFF36
:105A8000FFFFFFFFFFFFFFFFFFFFFFFFFFFFFFFF26
:105A9000FFFFFFFFFFFFFFFFFFFFFFFFFFFFFFFF16
:105AA000FFFFFFFFFFFFFFFFFFFFFFFFFFFFFFFF06
:105AB000FFFFFFFFFFFFFFFFFFFFFFFFFFFFFFFFF6
:105AC000FFFFFFFFFFFFFFFFFFFFFFFFFFFFFFFFE6
:105AD000FFFFFFFFFFFFFFFFFFFFFFFFFFFFFFFFD6
