:100000000C9470790D94AF220D94DA220D9405238F
:100010000D9430230D945B230D9486230D94B1230E
:100020000D94DC230D94912A0D94912A0D94912A1C
:100030000C94A1790C94A1790C94A1790C94A179D8
:100040000C94A1790C94A1790C94A1790C94A179C8
:100050000C94A1790C94A1790C94A1790D940724A6
:100060000C94A1790D946D1E0D94A31E0C94A1798E
:100070000C94A1790C94A1790C94A1790C94A17998
:100080000C94A1790C94A1790C94A1790C94A17988
:100090000D94021F0D94381F0C94A1790C94A17932
:1000A0000C94A1790C94A1790C94A1790C94A17968
:1000B0000C94A1790C94A1790C94A1790C94A17958
:1000C0000C94A1790C94A1790C94A1790D94971FAB
:1000D0000D94CD1F0C94A1790D942C200D946220C9
:1000E0000C94A179CF89C989C389BD89B789B189A0
:1000F000AB89A5899F89998993898D898789818908
:100100007B8975896F89698963895D895789518977
:100110004B8945893F89398933892D8927892189E7
:100120001B8915890F8909890389FD88F788F1885A
:10013000EB88E588D589B8A5BFA5C6A5CDA5D4A56A
:10014000A1A4AAA5B1A525A81CA813A80AA801A81E
:10015000F8A7EFA7E6A7DDA7D4A7CBA7C2A7B9A7A3
:10016000B0A7A7A79EA795A78CA783A77AA73AA60B
:1001700071A72EA808CDD6CC14CD11CD0ECD4ECC66
:100180000BCD29CD4ECC23CD20CD1DCD1ACD17CDF5
:100190001DCC59CD56CD4ECC50CD4DCD4ECC47CDAE
:1001A00044CD41CD3ECD3BCD38CD35CD32CD4ECCFD
:1001B0002CCDD0CC4ECCCACCC7CC95CC92CC8FCC4D
:1001C0005DCCD3CC5CCD4ECC2FCDCDCC4ECC4ACD5E
:1001D00053CD26CDAD01AD010B020B020B020B027C
:1001E0000B020B020B020B02AD010B020B020B0206
:1001F0000B020B020B020B020B020B02AD01AD0155
:10020000AD01AD010B020B020B020B020B020B0244
:10021000AD01AD01E3018D0223022302230223027B
:100220002302230223022302510223022302230278
:100230002302230223022302230223024102530248
:100240004702FF0123022302230223022302230287
:10025000F901BF019502FB0193024B02A902CF01F4
:100260004F029D025502F1015F02F3012102690272
:100270001B02EF01B7012B02EF01A5022F0265025D
:100280002902EF01EF0191025D024D02CB01BB019A
:1002900059026B02A702D701970209022D024902F7
:1002A00011020D028502710213021F0207025B0296
:1002B0003502DB010D0227021D02810219026102D3
:1002C0009F02DF01DF01DF01D1017D0219027D0202
:1002D0006F027D0283028302C701C7019F02FD01F5
:1002E000FD019F0283027D02DF0125027D027D0266
:1002F0007D027D027D0245027D027D029902C101DF
:10030000BD01C501DD01DD01AF01F501D3013302FE
:100310007B023F029B02750287028702BD01B90181
:10032000B901BD011702B301E9010102B501630280
:1003300003026702ED01A1023B02730205A84CCD46
:10034000B2D44EB93836A9020C50B9918688083C0F
:10035000A6AAAA2ABE000000803F0D94940C0D941A
:10036000763B0D94B0010D94B2470D944A490D941B
:1003700094190D94A84F0D945B220D940C380D9494
:10038000B20C0D9423370D9403020D94D9380D94BB
:10039000EE340D94C21D0D9453220D94252A0D9414
:1003A0000D150D94A0340D9470420D94D71A0D9430
:1003B000A2220D94E9010D9490250D94E4390D9439
:1003C00089340D94D0200D94D20C0D94AF290D9446
:1003D0008B200D94F83A0D94CC1E0D94504D0D9435
:1003E0005C190D94FC160D9410170D94CB3C0D94D4
:1003F0006A1F0D94B60C0D9499140D9453350D94F9
:10040000BA0C0D947B480D94774A0D94611F0D949E
:1004100082250D946C250D94700C0D94A3250D94DC
:100420003D2A0D9465250D947A250D94D51E0D94C5
:10043000A9450D942E340D94DD190D949A250D9433
:100440007E250D947A140D942A0C0D94FC340D9491
:1004500096250D9471190D94A2190D945B250D9498
:10046000BA190D94FF1F0D94D83D0D948C250D9451
:10047000471D0D943A220D94BE4E0D94A11D0D946E
:1004800035400D94C60C0D94251D0D9416350D9414
:10049000BE0C0D945F250D94DF140D9489220D94EC
:1004A00024150D94CA0C0D94C20C0D94F2160D94E3
:1004B000D0290D9467220D9488250D94A8190D94C8
:1004C00006170D944C340D94504B0D94C0190D9497
:1004D000094C0D9464140D9474220D94242A0D94E7
:1004E000C3340D9474250D94703E0D94D6440D9430
:1004F0007F080D94191D0D94C93F0D9428350D9456
:1005000042190D949E250D94D1340D9470250D94AF
:10051000B2460D9494200D94D60C0D94CE0C0D94EF
:10052000331D0D94D7190D94BC140D9484140D949F
:1005300069250D94C1350D94FD430D943B150D9423
:1005400073340D94AA4E0D94F61F0D94AF190D94AB
:1005500095220D94F61400407A10F35A00A0724EC2
:1005600018090010A5D4E80000E87648170000E458
:100570000B54020000CA9A3B000000E1F5050000A0
:1005800080969800000040420F000000A086010005
:100590000000102700000000E803000000006400D5
:1005A000000000000A000000000001000000000040
:1005B0002C76D888DC674F0823DFC1DFAE59E1B164
:1005C000B796E5E3E453C63AE651997696E8E6C273
:1005D0008426EB898C9B62ED407C6FFCEFBC9C9F7A
:1005E00040F2BAA56FA5F490055A2AF75C936B6C9C
:1005F000F9676DC11BFCE0E40D47FEF520E6B50090
:10060000D0ED902E0300943577050080841E0800FD
:1006100000204E0A000000C80C333333330F986EAD
:1006200012831141EF8D2114893BE65516CFFEE66A
:10063000DB18D1844B381BF77C1D901DA4BBE42430
:10064000203284725E228100C9F124ECA1E53D27AD
:100650001010205F000000000000000000000000FB
:10066000000000000000000000000000000000008A
:100670000000000000000000020002000200020072
:10068000020002000200020002000200000002005C
:100690000000000000000000024002400240024052
:1006A000000000000000000000000000000000004A
:1006B00000000000000000000240024004800480AE
:1006C0003FE00480090009003FE009001200120029
:1006D000000000000000010003C0052009200900FF
:1006E0000900070001C00120012009200540038006
:1006F00001000000000000001C10222022202240E7
:100700002240229C1CA20122022202220422041C5A
:10071000000000000000000001C0022002200220B2
:10072000014003800480084808500820043003C8B2
:1007300000000000000000000080008000800080B9
:1007400000000000000000000000000000000000A9
:10075000000000000000010002000200040004008C
:100760000400040004000400040002000200010070
:100770000000000000000200010001000080008075
:1007800000800080008000800080010001000200E5
:100790000000000000000000000000000180018057
:1007A00009901FF803E003C0066006200000000067
:1007B00000000000000000000000000000000080B9
:1007C0000080008007F000800080008000000000B2
:1007D0000000000000000000000000000000000019
:1007E0000000000000000000000000800080008089
:1007F00000000000000000000000000000000000F9
:100800000000000007C00000000000000000000021
:1008100000000000000000000000000000000000D8
:100820000000000000000000000000000080000048
:1008300000000000000000000020004000400040D8
:100840000080008000800100010001000200020021
:100850000000000000000000038004400820082081
:1008600008200820082008200820082004400380D1
:100870000000000000000000004000C001400240F5
:100880000040004000400040004000400040004068
:10089000000000000000000003C004400820002009
:1008A00000200040004000800100020004000FE032
:1008B00000000000000000000380044008400040E9
:1008C0000080038000400020002008200C400380AE
:1008D0000000000000000000004000C00140014096
:1008E00002400240044008400FF000400040004039
:1008F000000000000000000001F8010001000200FB
:1009000003E002100008000800080208011000E0DF
:1009100000000000000000000380046008200800C0
:100920000B800C4008200820082008200440038089
:10093000000000000000000003F80010001000207C
:100940000020004000400040004000800080008007
:10095000000000000000000000E001100208020892
:10096000011000E00110020802080208011000E076
:100970000000000000000000038004400820082060
:1009800008200820046003A00020082004400780FD
:1009900000000000000000000000008000000000D7
:1009A00000000000000000000000008000000000C7
:1009B00000000000000000000000008000000000B7
:1009C00000000000000000000000008000800080A7
:1009D0000000000000000000000000100060018026
:1009E0000600080006000180006000100000000002
:1009F00000000000000000000000000000000FF0F8
:100A00000000000000000FF00000000000000000E7
:100A1000000000000000000000000400030000C00F
:100A200000300008003000C0030004000000000097
:100A3000000000000000000003800440082008209F
:100A400000200040008001000100010000000100C2
:100A500000000000000003C00C301010134824C830
:100A600028882888289027E01008083007C0000050
:100A7000000000000000000001000280028004402D
:100A80000440044008200FE0101010102008200837
:100A900000000000000000000FE00810080808082F
:100AA00008100FF0081008080808080808100FE0E0
:100AB000000000000000000003E00410080810001F
:100AC000100010001000100010000808041003E0CF
:100AD00000000000000000001FC0102010101008CF
:100AE00010081008100810081008101010201FC05F
:100AF00000000000000000000FF8080008000800D7
:100B000008000FF0080008000800080008000FF8AF
:100B100000000000000000000FF0080008000800BE
:100B200008000FE00800080008000800080008009E
:100B3000000000000000000001E0021004080800AE
:100B400008000800087C080408040408021001E0FA
:100B50000000000000000000080808080808080855
:100B600008080FF80808080808080808080808080E
:100B70000000000000000000008000800080008075
:100B80000080008000800080008000800080008065
:100B900000000000000000000020002000200020D5
:100BA00000200020002000200820082004400780AA
:100BB000000000000000000008080810082008409D
:100BC000088009800A400C20082008100810080836
:100BD00000000000000000000800080008000800F5
:100BE00008000800080008000800080008000FE0DE
:100BF00000000000000000002008301830182828ED
:100C0000282824482448248822882288210821086A
:100C1000000000000000000008080C080A080A088C
:100C200009080888088808480828082808180808B3
:100C3000000000000000000003C00420081010089D
:100C4000100810081008100810080810042003C02D
:100C500000000000000000000FE00810080808086D
:100C6000080808100FE00800080008000800080045
:100C7000000000000000000003C00420081010085D
:100C80001008100810081008100808D8043003D8FD
:100C900000000000000000000FE00810080808082D
:100CA000080808100FE0084008200820081008086D
:100CB000000000000000000003E004100808080025
:100CC000040003800070000808080808041003E00E
:100CD00000000000000000000FF80080008000808D
:100CE0000080008000800080008000800080008004
:100CF00000000000000000000808080808080808B4
:100D0000080808080808080808080808041003E08C
:100D1000000000000000000008080808041004108B
:100D200004100220022002200140014000800080C7
:100D300000000000000000002082218211441144C4
:100D4000114411440A280A280A280A280410041009
:100D500000000000000000001010082004400440C3
:100D60000280010002800440044008201010200886
:100D70000000000000000000080804100410022019
:100D800001400140008000800080008000800080E1
:100D9000000000000000000007F800100020002004
:100DA00000400080008001000200020004000FF8F3
:100DB00000000000000003800200020002000200A8
:100DC0000200020002000200020002000200020013
:100DD000038000000000000002000100010001008B
:100DE0000080008000800040004000400020002083
:100DF0000000000000000380008000800080008070
:100E000000800080008000800080008000800080E2
:100E100003800000000001000280028004400440C2
:100E20000440082000000000000000000000000056
:100E300000000000000000000000000000000000B2
:100E400000000000000000000000000000000000A2
:100E5000FFFF000000000000010000800000000013
:100E60000000000000000000000000000000000082
:100E700000000000000000000000000003C004208B
:100E8000082000E0072008200820086007A00000D4
:100E90000000000000000800080008000B800C4063
:100EA000082008200820082008200C400B800000A3
:100EB000000000000000000000000000038004406B
:100EC00008200800080008000820044003800000F3
:100ED00000000000000000200020002003A00460AB
:100EE00008200820082008200820046003A0000033
:100EF000000000000000000000000000038004402B
:100F0000082008200FE008000820044003800000AB
:100F100000000000000000C00100010003C001004B
:100F200001000100010001000100010001000000BA
:100F30000000000000000000000003A00460082082
:100F40000820082008200820046003A00020084092
:100F50000780000000000800080008000BC00C20FB
:100F60000820082008200820082008200820000069
:100F7000000000000000000001000000000001006F
:100F8000010001000100010001000100010000005A
:100F90000000000000000000008000000000008051
:100FA0000080008000800080008000800080008041
:100FB000008003000000040004000400041004206A
:100FC0000440048005800640042004200410000032
:100FD0000000000000000080008000800080008091
:100FE0000080008000800080008000800080000081
:100FF0000000000000000000000000002E7031889A
:1010000021082108210821082108210821080000C1
:101010000000000000000000000000000BC00C20D9
:1010200008200820082008200820082008200000A8
:1010300000000000000000000000000003800440E9
:101040000820082008200820082004400380000011
:101050000000000000000000000000000B800C40B9
:10106000082008200820082008200C400B800800D9
:1010700008000800000000000000000003A0046059
:1010800008200820082008200820046003A0002071
:1010900000200020000000000000000002E003002B
:1010A0000200020002000200020002000200000032
:1010B00000000000000000000000000003C0042049
:1010C0000400040003C000200020042003C000002E
:1010D00000000000000001000100010003C0010049
:1010E00001000100010001000100010001C0000039
:1010F00000000000000000000000000008200820A0
:1011000008200820082008200820086007A0000008
:10111000000000000000000000000000082008207F
:1011200004400440044002800280010001000000ED
:10113000000000000000000000000000210821085D
:1011400012901290145014501450082008200000DF
:101150000000000000000000000000000820044023
:10116000028002800100028002800440082000000A
:10117000000000000000000000000000082008201F
:1011800008200440044004C00280028001000100E5
:1011900002000C00000000000000000007F000202A
:1011A00000400040008001000100020007F0000044
:1011B0000000000000C0010001000100010001006A
:1011C0000100060001000100010001000100010012
:1011D00000C000000080008000800080008000804F
:1011E00000800080008000800080008000800080FF
:1011F000008000800300008000800080008000806C
:1012000000800060008000800080008000800080FE
:101210000300000000000000078808F00000000044
:1012200000000000000000000000000000000000BE
:10123000000000005245414420434F4D42494E4179
:1012400054494F4E3B004F4646207469706B612DE8
:101250003E004F4E207469706B612D3E006E756CC0
:101260006C0073746F70206F6E2D3E0000C8C80153
:101270000235012801010202022902010202032AA9
:1012800003010202042B04010202052C05010202E3
:10129000062D06010202072E07010202082F08018F
:1012A00002020930090102020A310A0102020B326C
:1012B0000B0102020C330C0102020D340D0102027B
:1012C0000E350E0102020F360F0102021037100117
:1012D0000202113811010202123912010202133AFC
:1012E00013010202143B14010202153C1501020213
:1012F000163D16010202173E17010202183F18019F
:1013000002021940190102021A411A0102021B428B
:101310001B0102021C431C0102021D441D010202AA
:101320001E451E0102021F461F0102022047200126
:101330000202214821010205224922010205234A15
:1013400023010205244B24010205254C2501020539
:10135000264D26010205274E2701020A284F2801A3
:10136000020A29502901020A2A512A01020A2B5293
:101370002B01020A2C532C01020A2D54C801020B26
:101380002E55C801020B2F56C801020B3057C80159
:10139000020B3158C801020B325AC801020B33FF4D
:1013A000C804050134FFC804050135FFC804050160
:1013B00036FFC806070437FFC806070438FFC8060B
:1013C000070439FFC80809033AFFC80809033BFFAF
:1013D000C80809033CFFC80A0B073DFFC80A0B07F2
:1013E0003EFFC80A0B073FFFC80C0D0840FFC80CA2
:1013F0000D0841FFC80C0D0842FFC80E0F0643FF41
:10140000C80E0F0644FFC80E0F0645FFC810110C8A
:1014100046FFC810110C47FFC810110C48FFC81038
:10142000110C49FFC810110C4AFFC810110C4BFFDA
:10143000C810110C4CFFC810110C4DFFC81011053D
:101440004EFFC81011054FFFC810110550FFC810FE
:10145000110551FFC810110552FFC810110553FFA7
:10146000C808090C54FFC806070C55FFC80E0F0C1E
:1014700056FFC804050D57FFC804050D656D70744F
:101480007900534348414C4D45490054524D4F500B
:10149000204841524D4F4E4951004F424F45004662
:1014A0004147474F54004C415249474F54004D4922
:1014B0005854555220344600464C4147454F4C4500
:1014C00054004E415341540054524156455253200A
:1014D000464C5554450047454947454E20505249D2
:1014E0004E5A4950414C00564F5820434F454C45A9
:1014F000535449530047414D424500504F525455B3
:101500004E414C20464C4F544500504544205452C7
:101510004F4D5045544500504F5341554E45005096
:101520004544204D49582032460043484F52414CD3
:10153000424153530042415353464C4F5445004F90
:101540004B54415642415353005355424241535329
:10155000005052494E5A2042415353203136004BDD
:1015600052554D484F524E00534841524620334643
:1015700000504943434F4C4F005445525A45203286
:101580002F330047454D53484F524E005155494E59
:10159000544500524F4852464C4F54450050524516
:1015A0005354414E54203400424F5244554E20383B
:1015B00000434C4152494F4E20340054524F4D503D
:1015C0004554452038004D49585455522035460061
:1015D0005052494E5A4950414C2032005155494EC3
:1015E000544500535049545A464C4F5445004F4BB4
:1015F0005441564520340053414C4943494F4E41D4
:101600004C00464C555445204841524D4F005052D5
:10161000494E5A4950414C203800424F5244554E91
:1016200020313600203A200073746174653A20003E
:1016300000081018202830380109111921293139E2
:10164000020A121A222A323A030B131B232B333BB2
:10165000040C141C242C343C050D151D252D353D82
:10166000060E161E262E363E070F171F272F373F52
:1016700007060504030201000F0E0D0C0B0A0908F2
:1016800017161514131211101F1E1D1C1B1A1918E2
:1016900027262524232221202F2E2D2C2B2A2928D2
:1016A00037363534333231303F3E3D3C3B3A3938C2
:1016B00047464544434241404F4E4D4C4B4A4948B2
:1016C00057565554535251505F5E5D5C5B5A5958A2
:1016D00067666564636261606F6E6D6C6B6A696892
:1016E00077767574737271707F7E7D7C7B7A797882
:1016F00000000001000200030004000500060007CE
:1017000001000101010201030104010501060107B5
:10171000020002010202020302040205020602079D
:101720000300030103020303030403050306030785
:10173000040004010402040304040405040604076D
:101740000500050105020503050405050506050755
:10175000060006010602060306040605060606073D
:101760000700070107020703070407050706070725
:10177000080008010802080308040805080608070D
:1017800009000901090209030904090509060907F5
:101790000A000A010A020A030A040A050A060A07DD
:1017A0000B000B010B020B030B040B050B060B07C5
:1017B0000C000C010C020C033230313620534B521A
:1017C00041424C003230313620414343454E5400B3
:1017D000534F4654574152452056455253494F4E58
:1017E0002056312E305F323031365F3130313800A3
:1017F000414343454E5420434F4E54524F4C4C4569
:101800005220414E47454C494E41002D2032330075
:10181000484953542E2054454D503A002D2038004D
:1018200053454C45435445443A002D20350053540C
:10183000594C453A002D2035005448454D453A0055
:1018400051002D455100485A002D31326442006448
:1018500042004741494E002B31326442003C002097
:10186000792D3E20006E69206761002056414C555D
:10187000453E200045515520414444524553533E76
:101880000072657665726220004B45592000204346
:10189000483A20002053544F502069643A200050A9
:1018A00043204D494449206F75743A20000C000CC8
:1018B000000400060002000A000000080004000006
:1018C00000080004000000EDFFFBFFFAFFF5FFFE3B
:1018D000FFF4FFFDFFF8FFF8FFFCFFF7FF0000F645
:1018E000FFFCFFFAFFF3FFFEFFF4FF0000F8FFF834
:1018F000FFFCFFF2FF0000F6FFF9FFFAFFF2FFFE28
:10190000FFF6FFFDFFF8FFF6FFFCFFF4FF0000F617
:10191000FF0400FAFFF2FFFEFFF6FF0200F8FFFBF4
:10192000FFFCFFF4FF0000F6FF0400FAFFF2FFFEE9
:10193000FFF6FF0200F8FFFBFFFCFFF3FF0000F9DA
:10194000FFFEFFFDFFF8FF0100F7FFFFFFFBFFFBBE
:10195000FFFFFFF8FF0000F6FFFCFFFAFFF3FFFEBA
:10196000FFF4FF0000F8FFF8FFFCFFF2FF0000F8B3
:10197000FF0000FCFFF6FF0000F6FF0000FAFFFB8F
:10198000FFFEFFF6FF0000F2FFFCFF0600F8FF0C71
:1019900000F4FFFEFFF0FFFAFF0400F6FF0000F383
:1019A000FF00000800F6FF0300F6FF0000F0FFFB59
:1019B000FF0600F6FF0000F6FFF8FFFAFFF6FFFE55
:1019C000FFF4FFFCFFF8FFF4FFFCFFF8FF0000F25C
:1019D000FFFBFF0200F6FF0200F3FFFEFFFEFFF831
:1019E000FF0200F4FF0000F4FFEEFFEDFFF2FFFE48
:1019F000FFFDFF0200F6FFF0FFEFFFF4FF00000223
:101A000000040006000800FEFF00000200040006BB
:101A10000008000A0000000000040000000800FEAA
:101A2000FF000002000000060000000A000000E8BD
:101A3000FFF9FF0A00F2FF0300EBFFFDFFE5FFF6F1
:101A4000FF0500EFFF0000F6FFFCFFFAFFF8FFFEC6
:101A5000FFF4FFFEFFF8FFFAFFFCFFF6FF000001B6
:101A6000000000FDFFFEFFF9FFFCFFFFFF0300FD8C
:101A7000FFF1FFF7FF0000ECFFFBFF0600F4FF02A1
:101A800000EEFFFFFFEBFFF7FF0100F1FF0000EDAD
:101A9000FFFAFF0700F4FF0300EFFFFDFFECFFF785
:101AA000FF0500F1FF0000000004000000F2FFFE4F
:101AB000FF000002000000F0FFF4FF02000200023D
:101AC0000002000200020002000200020002000206
:101AD000000200564F4C554D450042004700520051
:101AE00076657273696F6E2056312E305F31385FC4
:101AF00031305F323031362020414343454E54204F
:101B000032303136005448454D4520310047454E6E
:101B10002E20564F4C554D450043522020504544F1
:101B2000414C0045585020504544414C00435245DB
:101B30005343454E444F004F5247414E0054484591
:101B40004D450041424F555400455155414C0054BC
:101B5000554E494E4700524F4D414E544943005354
:101B600054594C4500524556455242203200524588
:101B70005645524220310054564620435554005495
:101B80005646205245534F4E0053544F5020564F07
:101B90004C004445434159004C4546542D52494759
:101BA00048540050414E004551204944004849479F
:101BB000480048494748204D4944004C4F57204D64
:101BC0004944004C4F5700455155414C495A4552E4
:101BD0000053454E44204C4556454C005052454418
:101BE000454C41592054494D450044454C415920EC
:101BF000464545444241434B0052455645524220DA
:101C000054494D4500524556455242204C45564593
:101C10004C00505245204C504600524556455242C9
:101C20002054595045005452414E53504F53450093
:101C30005554494C495459004D454D2042414E4B55
:101C40000044004300420041005452454D554C2091
:101C500031204445505448005452454D554C414E56
:101C6000542032005452454D554C414E54203100C1
:101C7000494E544F4E4154494F4E005452454D55D4
:101C80004C414E54005245564552423A0048495341
:101C9000542054454D50005354594C45530045462B
:101CA00046454354005448454D4520350054484569
:101CB0004D452034005448454D4520330054484597
:101CC0004D452032005448454D45203100454D508A
:101CD00054590053594D50484F4E494300465245C0
:101CE0004E4348004D4F4445524E004241524F51E1
:101CF000554500524F4D414E5449430057455243BC
:101D00004B4D4549535445522032004B454C4C45B0
:101D100054414C2031393737004B454C4C455441E8
:101D20004C2031393636004B49524E4245524745D8
:101D3000522033004B49524E4245524745522032C1
:101D4000004B49524E4245524745522031004249CC
:101D50004C4C45544552204F5247454C004241435C
:101D60004B20574F4C54454D502E00424143482084
:101D700042494C4C455445520053494C4245524D02
:101D8000414E20320053494C4245524D414E203184
:101D900000574552434B4D45495354455200534318
:101DA000484C49434B0047414E4153534900475229
:101DB000414D415448414555530050595441474FB6
:101DC0005241530050524145544F52494F555300D0
:101DD0004A4F554E4700484F204348454E472054F0
:101DE0004849454E004D495454454C204D555249A3
:101DF0004F5247004D495454454C544F454E494766
:101E0000004E41545545524C494353204841524D90
:101E10004F2E00455155414C005452414E53504FA6
:101E200053453A0053455454455200413300413222
:101E300000413100726F6F74002B0068656164703F
:101E4000686F6E65206571756C697A6572204F46A2
:101E500046006865616470686F6E65206571756CB9
:101E6000697A6572204F4E0020204F55543A002069
:101E700076616C323A0056414C554520313A004C5F
:101E80004F4144494E472E2E2E00003A3A454550C8
:101E9000524F4D207072657061726500636F6D7096
:101EA000696C6520646174653A20005E5E5E5E5E0A
:101EB0005E5E5E5E5E5E5E5E5E5E5E5E5E5E5E5E42
:101EC0005E5E5E5E5E5E5E5E5E524553544152549F
:101ED000006E756C6C0073746F70206F6E2D3E0019
:101EE00000030101010104010101020501010103D7
:101EF00006010101040701010105030201010604B5
:101F00000201010705020101080602010109070299
:101F100001010A080201010B000201030C00020189
:101F2000030D000201030E000201030F0002010372
:101F30001000020103110002010312000201031349
:101F40000002010314030301021504030102160534
:101F5000030102170603010218070301021908030F
:101F600001021A090301021B030401021C040401FB
:101F7000021D050401021E060401021F07040102DE
:101F80002008040102210801020622090102062399
:101F90000B010206240C010206250D010206260E85
:101FA0000102062710010206280F010206C82900B7
:101FB0000000C82A000000C82B000000C82C000048
:101FC00000C82D000000C82E000000C82F0000002F
:101FD000C830000000C831000000C832000000C84E
:101FE00033000000C834000000C835000002C836C5
:101FF00000000337C8C8C8C8736574202030006566
:1020000072726F722100494420627574746E20668A
:102010006F6F742D3E00627574746E203130303AEB
:102020002000627574746E2031303A200066697247
:10203000737420726561640073746F70206F6E3A00
:102040003A200072656672657368206E6F74650071
:10205000726573657420646573656C656374006C88
:102060006F636174696F6E3A200073657474657292
:1020700020636F6D623A200074752076729E652031
:1020800076656E00627574746E206D696E75733A54
:102090002000203B6C696E6B2049443A20002049A7
:1020A000443A200073746F702073746174653A2031
:1020B000006C6F636174696F6E3A200073657474AD
:1020C000657220636F6D623A200073656D207072D7
:1020D0006964650070697365206E617072656A007D
:1020E000203B3B6C696E6B2049443A2000204944F8
:1020F0003A200073746F702073746174653A200025
:10210000627574746E20706C75733A200020636F72
:102110006D20646573656C656374007072696465D5
:10212000206D333A007072696465206D323A006246
:102130007574746E3A005345540073656D20707267
:1021400069646520330073656D2070726964652071
:10215000320073656D2070726964652031007365AB
:102160006D2070726964652078310073656D203070
:10217000000000000000000000000000000A0B0248
:10218000090C0D0E08070304010000000000000008
:10219000000000000000000000000000000000003F
:1021A00000000000000000121110000000000000FC
:1021B000000000000000000000000000000000001F
:1021C000000000000000000000000000000000000F
:1021D000000102102020080810204010204080023A
:1021E000010201080402010102040810204080805D
:1021F00040201008040201800402018040201008E1
:1022000004020108040201010204081020408001B8
:102210000204081020408004081020408004800838
:102220001004408010204005050505070508080832
:1022300008020202020A0A08080404040401010157
:10224000010101010103030303030303030407075F
:10225000070C0C0C0C0C0C0C0C02020202060606FD
:1022600006060606060B0B0B0B0B0B0B0B0A0A0ADA
:102270000A0A0A08080707050505040404000020E7
:10228000002300260029002C002F0032000001004E
:102290000003010601090100002200250028002B8F
:1022A000002E003100340002010000050108010B7E
:1022B0000100002100240027002A002D00300033F7
:1022C0000001010000040107010A012E012E022E67
:1022D000102E2034202E0882088210822082402571
:1022E0001025202540258085028501820282012B50
:1022F000082B042B022B0122012202220422082295
:1023000010222022402280288028402820281028BF
:10231000082804280228012B803404340234018B5D
:10232000808B408B208B108B088B048B028B0125BC
:10233000082504250225013101310231043108311B
:102340001031203140318088018802880488088853
:1023500010882088408880FFFFFFFFFFFFFFFFFFFE
:10236000FFFFFFFFFFFFFFFFFFFFFFFFFFFFFFFF7D
:10237000FFFFFFFFFFFFFFFFFFFFFFFFFFFFFFFF6D
:10238000FFFFFFFFFFFFFFFFFFFFFFFFFFFFFFFF5D
:10239000FFFFFFFFFFFFFFFFFFFFFFFFFFFFFFFF4D
:1023A000FFFFFFFFFFFFFFFFFFFFFFFFFFFFFFFF3D
:1023B000FFFFFFFFFFFFFFFFFFFFFFFFFFFFFFFF2D
:1023C000FFFFFFFFFFFFFFFFFFFFFFFFFFFFFFFF1D
:1023D000FFFFFFFFFFFFFFFFFFFFFFFFFFFFFFFF0D
:1023E000FFFFFFFFFFFFFFFFFFFFFFFFFFFFFFFFFD
:1023F000FFFFFFFFFFFFFFFFFFFFFFFFFFFFFFFFED
:10240000FFFFFFFFFFFFFFFFFFFFFFFFFFFFFFFFDC
:10241000FFFFFFFFFFFFFFFFFFFFFFFFFFFFFFFFCC
:10242000FFFFFFFFFFFFFFFFFFFFFFFFFFFFFFFFBC
:10243000FFBACE7595FFFFFFFFFFFFFFFFFFFFFF16
:10244000FFFFFFFFFFFFFFFFFFFFFFFFFFFFFFFF9C
:10245000FFFFFFFFFFFFFFFFFFFFFFFFFFFFFFFF8C
:10246000FFFFFFFFFFFFFFFFFFFFFFFFFFFFFFFF7C
:10247000FFFFFFFFFFFFFFFFFFFFFFFFFFFFFFFF6C
:10248000FFFFFFFFFFFFFFFFFFFFFFFFFFFFFFFF5C
:10249000FFFFFFFFFFFFFFFFFFFFFFFFFFFFFFFF4C
:1024A000FFFFFFFFFFFFFFFFFFFFFFFFFFFFFFFF3C
:1024B000FFFFFFFFFFFFFFFFFFFFFFFFFFFFFFFF2C
:1024C000FFFFFFFFFFFFFFFFFFFFFFFFFFFFFFFF1C
:1024D000FFFFFFFFFFFFFFFFFFFFFFFFFFFFFFFF0C
:1024E000FFFFFFFFFFFFFFFFFFFFFFFFFFFFFFFFFC
:1024F000FFFFFFFFFFFFFFFFFFFFFFFFFFFFFFFFEC
:10250000FFFFFFFFFFFFFFFFFFFFFFFFFFFFFFFFDB
:10251000FFFFFFFFFFFFFFFFFFFFFFFFFFFFFFFFCB
:10252000FFFFFFFFFFFFFFFFFFFFFFFFFFFFFFFFBB
:10253000FFFFFFFFFFFFFFFFFFFFFFFFFFFFFFFFAB
:10254000FFFFFFFFFFFFFFFFFFFFFFFFFFFFFFFF9B
:10255000FFFFFFFFFFFFFFFFFFFFFFFFFFFFFFFF8B
:10256000FFFFFFFFFFFFFFFFFFFFFFFFFFFFFFFF7B
:10257000FFFFFFFFFFFFFFFFFFFFFFFFFFFFFFFF6B
:10258000FFFFFFFFFFFFFFFFFFFFFFFFFFFFFFFF5B
:10259000FFFFFFFFFFFFFFFFFFFFFFFFFFFFFFFF4B
:1025A000FFFFFFFFFFFFFFFFFFFFFFFFFFFFFFFF3B
:1025B000FFFFFFFFFFFFFFFFFFFFFFFFFFFFFFFF2B
:1025C000FFFFFFFFFFFFFFFFFFFFFFFFFFFFFFFF1B
:1025D000FF9EF72C3B2812959DFFFFFFFFFFFFFF9B
:1025E000FFFFFFFFFFFFFFFFFFFFFFFFFFFFFFFFFB
:1025F000FFFFFFFFFFFFFFFFFFFFFFFFFFFFFFFFEB
:10260000FFFFFFFFFFFFFFFFFFFFFFFFFFFFFFFFDA
:10261000FFFFFFFFFFFFFFFFFFFFFFFFFFFFFFFFCA
:10262000FFFFFFFFFFFFFFFFFFFFFFFFFFFFFFFFBA
:10263000FFFFFFFFFFFFFFFFFFFFFFFFFFFFFFFFAA
:10264000FFFFFFFFFFFFFFFFFFFFFFFFFFFFFFFF9A
:10265000FFFFFFFFFFFFFFFFFFFFFFFFFFFFFFFF8A
:10266000FFFFFFFFFFFFFFFFFFFFFFFFFFFFFFFF7A
:10267000FFFFFFFFFFFFFFFFFFFFFFFFFFFFFFFF6A
:10268000FFFFFFFFFFFFFFFFFFFFFFFFFFFFFFFF5A
:10269000FFFFFFFFFFFFFFFFFFFFFFFFFFFFFFFF4A
:1026A000FFFFFFFFFFFFFFFFFFFFFFFFFFFFFFFF3A
:1026B000FFFFFFFFFFFFFFFFFFFFFFFFFFFFFFFF2A
:1026C000FFFFFFFFFFFFFFFFFFFFFFFFFFFFFFFF1A
:1026D000FFFFFFFFFFFFFFFFFFFFFFFFFFFFFFFF0A
:1026E000FFFFFFFFFFFFFFFFFFFFFFFFFFFFFFFFFA
:1026F000FFFFFFFFFFFFFFFFFFFFFFFFFFFFFFFFEA
:10270000FFFFFFFFFFFFFFFFFFFFFFFFFFFFFFFFD9
:10271000FFFFFFFFFFFFFFFFFFFFFFFFFFFFFFFFC9
:10272000FFFFFFFFFFFFFFFFFFFFFFFFFFFFFFFFB9
:10273000FFFFFFFFFFFFFFFFFFFFFFFFFFFFFFFFA9
:10274000FFFFFFFFFFFFFFFFFFFFFFFFFFFFFFFF99
:10275000FFFFFFFFFFFFFFFFFFFFFFFFFFFFFFFF89
:10276000FFFFFFFFFFFFFFFFFFFFFFFFFFFFFFFF79
:10277000FFFFFF5DE7AA224812B274FFFFFFFFFFD1
:10278000FFFFFFFFFFFFFFFFFFFFFFFFFFFFFFFF59
:10279000FFFFFFFFFFFFFFFFFFFFFFFFFFFFFFFF49
:1027A000FFFFFFFFFFFFFFFFFFFFFFFFFFFFFFFF39
:1027B000FFFFFFFFFFFFFFFFFFFFFFFFFFFFFFFF29
:1027C000FFFFFFFFFFFFFFFFFFFFFFFFFFFFFFFF19
:1027D000FFFFFFFFFFFFFFFFFFFFFFFFFFFFFFFF09
:1027E000FFFFFFFFFFFFFFFFFFFFFFFFFFFFFFFFF9
:1027F000FFFFFFFFFFFFFFFFFFFFFFFFFFFFFFFFE9
:10280000FFFFFFFFFFFFFFFFFFFFFFFFFFFFFFFFD8
:10281000FFFFFFFFFFFFFFFFFFFFFFFFFFFFFFFFC8
:10282000FFFFFFFFFFFFFFFFFFFFFFFFFFFFFFFFB8
:10283000FFFFFFFFFFFFFFFFFFFFFFFFFFFFFFFFA8
:10284000FFFFFFFFFFFFFFFFFFFFFFFFFFFFFFFF98
:10285000FFFFFFFFFFFFFFFFFFFFFFFFFFFFFFFF88
:10286000FFFFFFFFFFFFFFFFFFFFFFFFFFFFFFFF78
:10287000FFFFFFFFFFFFFFFFFFFFFFFFFFFFFFFF68
:10288000FFFFFFFFFFFFFFFFFFFFFFFFFFFFFFFF58
:10289000FFFFFFFFFFFFFFFFFFFFFFFFFFFFFFFF48
:1028A000FFFFFFFFFFFFFFFFFFFFFFFFFFFFFFFF38
:1028B000FFFFFFFFFFFFFFFFFFFFFFFFFFFFFFFF28
:1028C000FFFFFFFFFFFFFFFFFFFFFFFFFFFFFFFF18
:1028D000FFFFFFFFFFFFFFFFFFFFFFFFFFFFFFFF08
:1028E000FFFFFFFFFFFFFFFFFFFFFFFFFFFFFFFFF8
:1028F000FFFFFFFFFFFFFFFFFFFFFFFFFFFFFFFFE8
:10290000FFFFFFFFFFFFFFFFFFFFFFFFFFFFFFFFD7
:10291000FFFFFFFFFF5DE7AA224812B27CFFFFFF27
:10292000FFFFFFFFFFFFFFFFFFFFFFFFFFFFFFFFB7
:10293000FFFFFFFFFFFFFFFFFFFFFFFFFFFFFFFFA7
:10294000FFFFFFFFFFFFFFFFFFFFFFFFFFFFFFFF97
:10295000FFFFFFFFFFFFFFFFFFFFFFFFFFFFFFFF87
:10296000FFFFFFFFFFFFFFFFFFFFFFFFFFFFFFFF77
:10297000FFFFFFFFFFFFFFFFFFFFFFFFFFFFFFFF67
:10298000FFFFFFFFFFFFFFFFFFFFFFFFFFFFFFFF57
:10299000FFFFFFFFFFFFFFFFFFFFFFFFFFFFFFFF47
:1029A000FFFFFFFFFFFFFFFFFFFFFFFFFFFFFFFF37
:1029B000FFFFFFFFFFFFFFFFFFFFFFFFFFFFFFFF27
:1029C000FFFFFFFFFFFFFFFFFFFFFFFFFFFFFFFF17
:1029D000FFFFFFFFFFFFFFFFFFFFFFFFFFFFFFFF07
:1029E000FFFFFFFFFFFFFFFFFFFFFFFFFFFFFFFFF7
:1029F000FFFFFFFFFFFFFFFFFFFFFFFFFFFFFFFFE7
:102A0000FFFFFFFFFFFFFFFFFFFFFFFFFFFFFFFFD6
:102A1000FFFFFFFFFFFFFFFFFFFFFFFFFFFFFFFFC6
:102A2000FFFFFFFFFFFFFFFFFFFFFFFFFFFFFFFFB6
:102A3000FFFFFFFFFFFFFFFFFFFFFFFFFFFFFFFFA6
:102A4000FFFFFFFFFFFFFFFFFFFFFFFFFFFFFFFF96
:102A5000FFFFFFFFFFFFFFFFFFFFFFFFFFFFFFFF86
:102A6000FFFFFFFFFFFFFFFFFFFFFFFFFFFFFFFF76
:102A7000FFFFFFFFFFFFFFFFFFFFFFFFFFFFFFFF66
:102A8000FFFFFFFFFFFFFFFFFFFFFFFFFFFFFFFF56
:102A9000FFFFFFFFFFFFFFFFFFFFFFFFFFFFFFFF46
:102AA000FFFFFFFFFFFFFFFFFFFFFFFFFFFFFFFF36
:102AB000FFFFFFFFFFFFFF5DE7AA224812B27CFF86
:102AC000FFFFFFFFFFFFFFFFFFFFFFFFFFFFFFFF16
:102AD000FFFFFFFFFFFFFFFFFFFFFFFFFFFFFFFF06
:102AE000FFFFFFFFFFFFFFFFFFFFFFFFFFFFFFFFF6
:102AF000FFFFFFFFFFFFFFFFFFFFFFFFFFFFFFFFE6
:102B0000FFFFFFFFFFFFFFFFFFFFFFFFFFFFFFFFD5
:102B1000FFFFFFFFFFFFFFFFFFFFFFFFFFFFFFFFC5
:102B2000FFFFFFFFFFFFFFFFFFFFFFFFFFFFFFFFB5
:102B3000FFFFFFFFFFFFFFFFFFFFFFFFFFFFFFFFA5
:102B4000FFFFFFFFFFFFFFFFFFFFFFFFFFFFFFFF95
:102B5000FFFFFFFFFFFFFFFFFFFFFFFFFFFFFFFF85
:102B6000FFFFFFFFFFFFFFFFFFFFFFFFFFFFFFFF75
:102B7000FFFFFFFFFFFFFFFFFFFFFFFFFFFFFFFF65
:102B8000FFFFFFFFFFFFFFFFFFFFFFFFFFFFFFFF55
:102B9000FFFFFFFFFFFFFFFFFFFFFFFFFFFFFFFF45
:102BA000FFFFFFFFFFFFFFFFFFFFFFFFFFFFFFFF35
:102BB000FFFFFFFFFFFFFFFFFFFFFFFFFFFFFFFF25
:102BC000FFFFFFFFFFFFFFFFFFFFFFFFFFFFFFFF15
:102BD000FFFFFFFFFFFFFFFFFFFFFFFFFFFFFFFF05
:102BE000FFFFFFFFFFFFFFFFFFFFFFFFFFFFFFFFF5
:102BF000FFFFFFFFFFFFFFFFFFFFFFFFFFFFFFFFE5
:102C0000FFFFFFFFFFFFFFFFFFFFFFFFFFFFFFFFD4
:102C1000FFFFFFFFFFFFFFFFFFFFFFFFFFFFFFFFC4
:102C2000FFFFFFFFFFFFFFFFFFFFFFFFFFFFFFFFB4
:102C3000FFFFFFFFFFFFFFFFFFFFFFFFFFFFFFFFA4
:102C4000FFFFFFFFFFFFFFFFFFFFFFFFFFFFFFFF94
:102C5000FFFFFFFFFFFFFFFFFF5DE7AA224812B261
:102C60007CFFFFFFFFFFFFFFFFFFFFFFFFFFFFFFF7
:102C7000FFFFFFFFFFFFFFFFFFFFFFFFFFFFFFFF64
:102C8000FFFFFFFFFFFFFFFFFFFFFFFFFFFFFFFF54
:102C9000FFFFFFFFFFFFFFFFFFFFFFFFFFFFFFFF44
:102CA000FFFFFFFFFFFFFFFFFFFFFFFFFFFFFFFF34
:102CB000FFFFFFFFFFFFFFFFFFFFFFFFFFFFFFFF24
:102CC000FFFFFFFFFFFFFFFFFFFFFFFFFFFFFFFF14
:102CD000FFFFFFFFFFFFFFFFFFFFFFFFFFFFFFFF04
:102CE000FFFFFFFFFFFFFFFFFFFFFFFFFFFFFFFFF4
:102CF000FFFFFFFFFFFFFFFFFFFFFFFFFFFFFFFFE4
:102D0000FFFFFFFFFFFFFFFFFFFFFFFFFFFFFFFFD3
:102D1000FFFFFFFFFFFFFFFFFFFFFFFFFFFFFFFFC3
:102D2000FFFFFFFFFFFFFFFFFFFFFFFFFFFFFFFFB3
:102D3000FFFFFFFFFFFFFFFFFFFFFFFFFFFFFFFFA3
:102D4000FFFFFFFFFFFFFFFFFFFFFFFFFFFFFFFF93
:102D5000FFFFFFFFFFFFFFFFFFFFFFFFFFFFFFFF83
:102D6000FFFFFFFFFFFFFFFFFFFFFFFFFFFFFFFF73
:102D7000FFFFFFFFFFFFFFFFFFFFFFFFFFFFFFFF63
:102D8000FFFFFFFFFFFFFFFFFFFFFFFFFFFFFFFF53
:102D9000FFFFFFFFFFFFFFFFFFFFFFFFFFFFFFFF43
:102DA000FFFFFFFFFFFFFFFFFFFFFFFFFFFFFFFF33
:102DB000FFFFFFFFFFFFFFFFFFFFFFFFFFFFFFFF23
:102DC000FFFFFFFFFFFFFFFFFFFFFFFFFFFFFFFF13
:102DD000FFFFFFFFFFFFFFFFFFFFFFFFFFFFFFFF03
:102DE000FFFFFFFFFFFFFFFFFFFFFFFFFFFFFFFFF3
:102DF000FFFFFFFFFFFFFFFFFFFFFF5DE7AA224886
:102E000012B27CFFFFFFFFFFFFFFFFFFFFFFFFFF8F
:102E1000FFFFFFFFFFFFFFFFFFFFFFFFFFFFFFFFC2
:102E2000FFFFFFFFFFFFFFFFFFFFFFFFFFFFFFFFB2
:102E3000FFFFFFFFFFFFFFFFFFFFFFFFFFFFFFFFA2
:102E4000FFFFFFFFFFFFFFFFFFFFFFFFFFFFFFFF92
:102E5000FFFFFFFFFFFFFFFFFFFFFFFFFFFFFFFF82
:102E6000FFFFFFFFFFFFFFFFFFFFFFFFFFFFFFFF72
:102E7000FFFFFFFFFFFFFFFFFFFFFFFFFFFFFFFF62
:102E8000FFFFFFFFFFFFFFFFFFFFFFFFFFFFFFFF52
:102E9000FFFFFFFFFFFFFFFFFFFFFFFFFFFFFFFF42
:102EA000FFFFFFFFFFFFFFFFFFFFFFFFFFFFFFFF32
:102EB000FFFFFFFFFFFFFFFFFFFFFFFFFFFFFFFF22
:102EC000FFFFFFFFFFFFFFFFFFFFFFFFFFFFFFFF12
:102ED000FFFFFFFFFFFFFFFFFFFFFFFFFFFFFFFF02
:102EE000FFFFFFFFFFFFFFFFFFFFFFFFFFFFFFFFF2
:102EF000FFFFFFFFFFFFFFFFFFFFFFFFFFFFFFFFE2
:102F0000FFFFFFFFFFFFFFFFFFFFFFFFFFFFFFFFD1
:102F1000FFFFFFFFFFFFFFFFFFFFFFFFFFFFFFFFC1
:102F2000FFFFFFFFFFFFFFFFFFFFFFFFFFFFFFFFB1
:102F3000FFFFFFFFFFFFFFFFFFFFFFFFFFFFFFFFA1
:102F4000FFFFFFFFFFFFFFFFFFFFFFFFFFFFFFFF91
:102F5000FFFFFFFFFFFFFFFFFFFFFFFFFFFFFFFF81
:102F6000FFFFFFFFFFFFFFFFFFFFFFFFFFFFFFFF71
:102F7000FFFFFFFFFFFFFFFFFFFFFFFFFFFFFFFF61
:102F8000FFFFFFFFFFFFFFFFFFFFFFFFFFFFFFFF51
:102F9000FFFFFFFFFFFFFFFFFFFFFFFFFF5DE7AA50
:102FA000224812B27CFFFFFFFFFFFFFFFFFFFFFF82
:102FB000FFFFFFFFFFFFFFFFFFFFFFFFFFFFFFFF21
:102FC000FFFFFFFFFFFFFFFFFFFFFFFFFFFFFFFF11
:102FD000FFFFFFFFFFFFFFFFFFFFFFFFFFFFFFFF01
:102FE000FFFFFFFFFFFFFFFFFFFFFFFFFFFFFFFFF1
:102FF000FFFFFFFFFFFFFFFFFFFFFFFFFFFFFFFFE1
:10300000FFFFFFFFFFFFFFFFFFFFFFFFFFFFFFFFD0
:10301000FFFFFFFFFFFFFFFFFFFFFFFFFFFFFFFFC0
:10302000FFFFFFFFFFFFFFFFFFFFFFFFFFFFFFFFB0
:10303000FFFFFFFFFFFFFFFFFFFFFFFFFFFFFFFFA0
:10304000FFFFFFFFFFFFFFFFFFFFFFFFFFFFFFFF90
:10305000FFFFFFFFFFFFFFFFFFFFFFFFFFFFFFFF80
:10306000FFFFFFFFFFFFFFFFFFFFFFFFFFFFFFFF70
:10307000FFFFFFFFFFFFFFFFFFFFFFFFFFFFFFFF60
:10308000FFFFFFFFFFFFFFFFFFFFFFFFFFFFFFFF50
:10309000FFFFFFFFFFFFFFFFFFFFFFFFFFFFFFFF40
:1030A000FFFFFFFFFFFFFFFFFFFFFFFFFFFFFFFF30
:1030B000FFFFFFFFFFFFFFFFFFFFFFFFFFFFFFFF20
:1030C000FFFFFFFFFFFFFFFFFFFFFFFFFFFFFFFF10
:1030D000FFFFFFFFFFFFFFFFFFFFFFFFFFFFFFFF00
:1030E000FFFFFFFFFFFFFFFFFFFFFFFFFFFFFFFFF0
:1030F000FFFFFFFFFFFFFFFFFFFFFFFFFFFFFFFFE0
:10310000FFFFFFFFFFFFFFFFFFFFFFFFFFFFFFFFCF
:10311000FFFFFFFFFFFFFFFFFFFFFFFFFFFFFFFFBF
:10312000FFFFFFFFFFFFFFFFFFFFFFFFFFFFFFFFAF
:10313000FFFFFF5DE7969DDBD6FFFFFFFFFFFF5D13
:10314000E7AA224812B27CFFFFFFFFFFFFFFFFFF4D
:10315000FFFFFFFFFFFFFFFFFFFFFFFFFFFFFFFF7F
:10316000FFFFFFFFFFFFFFFFFFFFFFFFFFFFFFFF6F
:10317000FFFFFFFFFFFFFFFFFFFFFFFFFFFFFFFF5F
:10318000FFFFFFFFFFFFFFFFFFFFFFFFFFFFFFFF4F
:10319000FFFFFFFFFFFFFFFFFFFFFFFFFFFFFFFF3F
:1031A000FFFFFFFFFFFFFFFFFFFFFFFFFFFFFFFF2F
:1031B000FFFFFFFFFFFFFFFFFFFFFFFFFFFFFFFF1F
:1031C000FFFFFFFFFFFFFFFFFFFFFFFFFFFFFFFF0F
:1031D000FFFFFFFFFFFFFFFFFFFFFFFFFFFFFFFFFF
:1031E000FFFFFFFFFFFFFFFFFFFFFFFFFFFFFFFFEF
:1031F000FFFFFFFFFFFFFFFFFFFFFFFFFFFFFFFFDF
:10320000FFFFFFFFFFFFFFFFFFFFFFFFFFFFFFFFCE
:10321000FFFFFFFFFFFFFFFFFFFFFFFFFFFFFFFFBE
:10322000FFFFFFFFFFFFFFFFFFFFFFFFFFFFFFFFAE
:10323000FFFFFFFFFFFFFFFFFFFFFFFFFFFFFFFF9E
:10324000FFFFFFFFFFFFFFFFFFFFFFFFFFFFFFFF8E
:10325000FFFFFFFFFFFFFFFFFFFFFFFFFFFFFFFF7E
:10326000FFFFFFFFFFFFFFFFFFFFFFFFFFFFFFFF6E
:10327000FFFFFFFFFFFFFFFFFFFFFFFFFFFFFFFF5E
:10328000FFFFFFFFFFFFFFFFFFFFFFFFFFFFFFFF4E
:10329000FFFFFFFFFFFFFFFFFFFFFFFFFFFFFFFF3E
:1032A000FFFFFFFFFFFFFFFFFFFFFFFFFFFFFFFF2E
:1032B000FFFFFFFFFFFFFFFFFFFFFFFFFFFFFFFF1E
:1032C000FFFFFFFFFFFFFFFFFFFFFFFFFFFFFFFF0E
:1032D000FFFFFFDFF76D432812CA2ADBCEFFFFFF97
:1032E000FF5DE7AA224812B27CFFFFFFFFFFFFFF4E
:1032F000FFFFFFFFFFFFFFFFFFFFFFFFFFFFFFFFDE
:10330000FFFFFFFFFFFFFFFFFFFFFFFFFFFFFFFFCD
:10331000FFFFFFFFFFFFFFFFFFFFFFFFFFFFFFFFBD
:10332000FFFFFFFFFFFFFFFFFFFFFFFFFFFFFFFFAD
:10333000FFFFFFFFFFFFFFFFFFFFFFFFFFFFFFFF9D
:10334000FFFFFFFFFFFFFFFFFFFFFFFFFFFFFFFF8D
:10335000FFFFFFFFFFFFFFFFFFFFFFFFFFFFFFFF7D
:10336000FFFFFFFFFFFFFFFFFFFFFFFFFFFFFFFF6D
:10337000FFFFFFFFFFFFFFFFFFFFFFFFFFFFFFFF5D
:10338000FFFFFFFFFFFFFFFFFFFFFFFFFFFFFFFF4D
:10339000FFFFFFFFFFFFFFFFFFFFFFFFFFFFFFFF3D
:1033A000FFFFFFFFFFFFFFFFFFFFFFFFFFFFFFFF2D
:1033B000FFFFFFFFFFFFFFFFFFFFFFFFFFFFFFFF1D
:1033C000FFFFFFFFFFFFFFFFFFFFFFFFFFFFFFFF0D
:1033D000FFFFFFFFFFFFFFFFFFFFFFFFFFFFFFFFFD
:1033E000FFFFFFFFFFFFFFFFFFFFFFFFFFFFFFFFED
:1033F000FFFFFFFFFFFFFFFFFFFFFFFFFFFFFFFFDD
:10340000FFFFFFFFFFFFFFFFFFFFFFFFFFFFFFFFCC
:10341000FFFFFFFFFFFFFFFFFFFFFFFFFFFFFFFFBC
:10342000FFFFFFFFFFFFFFFFFFFFFFFFFFFFFFFFAC
:10343000FFFFFFFFFFFFFFFFFFFFFFFFFFFFFFFF9C
:10344000FFFFFFFFFFFFFFFFFFFFFFFFFFFFFFFF8C
:10345000FFFFFFFFFFFFFFFFFFFFFFFFFFFFFFFF7C
:10346000FFFFFFFFFFFFFFFFFFFFFFFFFFFFFFFF6C
:10347000FFFFFFFFFF1CDF691A691A691A759DFFBC
:10348000FFFFFF5DE7AA224812B27CFFFFFFFFFFAC
:10349000FFFFFFFFFFFFFFFFFFFFFFFFFFFFFFFF3C
:1034A000FFFFFFFFFFFFFFFFFFFFFFFFFFFFFFFF2C
:1034B000FFFFFFFFFFFFFFFFFFFFFFFFFFFFFFFF1C
:1034C000FFFFFFFFFFFFFFFFFFFFFFFFFFFFFFFF0C
:1034D000FFFFFFFFFFFFFFFFFFFFFFFFFFFFFFFFFC
:1034E000FFFFFFFFFFFFFFFFFFFFFFFFFFFFFFFFEC
:1034F000FFFFFFFFFFFFFFFFFFFFFFFFFFFFFFFFDC
:10350000FFFFFFFFFFFFFFFFFFFFFFFFFFFFFFFFCB
:10351000FFFFFFFFFFFFFFFFFFFFFFFFFFFFFFFFBB
:10352000FFFFFFFFFFFFFFFFFFFFFFFFFFFFFFFFAB
:10353000FFFFFFFFFFFFFFFFFFFFFFFFFFFFFFFF9B
:10354000FFFFFFFFFFFFFFFFFFFFFFFFFFFFFFFF8B
:10355000FFFFFFFFFFFFFFFFFFFFFFFFFFFFFFFF7B
:10356000FFFFFFFFFFFFFFFFFFFFFFFFFFFFFFFF6B
:10357000FFFFFFFFFFFFFFFFFFFFFFFFFFFFFFFF5B
:10358000FFFFFFFFFFFFFFFFFFFFFFFFFFFFFFFF4B
:10359000FFFFFFFFFFFFFFFFFFFFFFFFFFFFFFFF3B
:1035A000FFFFFFFFFFFFFFFFFFFFFFFFFFFFFFFF2B
:1035B000FFFFFFFFFFFFFFFFFFFFFFFFFFFFFFFF1B
:1035C000FFFFFFFFFFFFFFFFFFFFFFFFFFFFFFFF0B
:1035D000FFFFFFFFFFFFFFFFFFFFFFFFFFFFFFFFFB
:1035E000FFFFFFFFFFFFFFFFFFFFFFFFFFFFFFFFEB
:1035F000FFFFFFFFFFFFFFFFFFFFFFFFFFFFFFFFDB
:10360000FFFFFFFFFFFFFFFFFFFFFFFFFFFFFFFFCA
:10361000FFFFFFFFFFFFFF1CDF891A891A691A7578
:103620009DFFFFFFFF5DE7AA224812B27CFFFFFF6C
:10363000FFFFFFFFFFFFFFFFFFFFFFFFFFFFFFFF9A
:10364000FFFFFFFFFFFFFFFFFFFFFFFFFFFFFFFF8A
:10365000FFFFFFFFFFFFFFFFFFFFFFFFFFFFFFFF7A
:10366000FFFFFFFFFFFFFFFFFFFFFFFFFFFFFFFF6A
:10367000FFFFFFFFFFFFFFFFFFFFFFFFFFFFFFFF5A
:10368000FFFFFFFFFFFFFFFFFFFFFFFFFFFFFFFF4A
:10369000FFFFFFFFFFFFFFFFFFFFFFFFFFFFFFFF3A
:1036A000FFFFFFFFFFFFFFFFFFFFFFFFFFFFFFFF2A
:1036B000FFFFFFFFFFFFFFFFFFFFFFFFFFFFFFFF1A
:1036C000FFFFFFFFFFFFFFFFFFFFFFFFFFFFFFFF0A
:1036D000FFFFFFFFFFFFFFFFFFFFFFFFFFFFFFFFFA
:1036E000FFFFFFFFFFFFFFFFFFFFFFFFFFFFFFFFEA
:1036F000FFFFFFFFFFFFFFFFFFFFFFFFFFFFFFFFDA
:10370000FFFFFFFFFFFFFFFFFFFFFFFFFFFFFFFFC9
:10371000FFFFFFFFFFFFFFFFFFFFFFFFFFFFFFFFB9
:10372000FFFFFFFFFFFFFFFFFFFFFFFFFFFFFFFFA9
:10373000FFFFFFFFFFFFFFFFFFFFFFFFFFFFFFFF99
:10374000FFFFFFFFFFFFFFFFFFFFFFFFFFFFFFFF89
:10375000FFFFFFFFFFFFFFFFFFFFFFFFFFFFFFFF79
:10376000FFFFFFFFFFFFFFFFFFFFFFFFFFFFFFFF69
:10377000FFFFFFFFFFFFFFFFFFFFFFFFFFFFFFFF59
:10378000FFFFFFFFFFFFFFFFFFFFFFFFFFFFFFFF49
:10379000FFFFFFFFFFFFFFFFFFFFFFFFFFFFFFFF39
:1037A000FFFFFFFFFFFFFFFFFFFFFFFFFFFFFFFF29
:1037B000FFFFFFFFFFFFFFFFFF1CDF891A891A6968
:1037C0001A759DFFFFFFFF5DE7AA224812B27CFF3A
:1037D000FFFFFFFFFFFFFFFFFFFFFFFFFFFFFFFFF9
:1037E000FFFFFFFFFFFFFFFFFFFFFFFFFFFFFFFFE9
:1037F000FFFFFFFFFFFFFFFFFFFFFFFFFFFFFFFFD9
:10380000FFFFFFFFFFFFFFFFFFFFFFFFFFFFFFFFC8
:10381000FFFFFFFFFFFFFFFFFFFFFFFFFFFFFFFFB8
:10382000FFFFFFFFFFFFFFFFFFFFFFFFFFFFFFFFA8
:10383000FFFFFFFFFFFFFFFFFFFFFFFFFFFFFFFF98
:10384000FFFFFFFFFFFFFFFFFFFFFFFFFFFFFFFF88
:10385000FFFFFFFFFFFFFFFFFFFFFFFFFFFFFFFF78
:10386000FFFFFFFFFFFFFFFFFFFFFFFFFFFFFFFF68
:10387000FFFFFFFFFFFFFFFFFFFFFFFFFFFFFFFF58
:10388000FFFFFFFFFFFFFFFFFFFFFFFFFFFFFFFF48
:10389000FFFFFFFFFFFFFFFFFFFFFFFFFFFFFFFF38
:1038A000FFFFFFFFFFFFFFFFFFFFFFFFFFFFFFFF28
:1038B000FFFFFFFFFFFFFFFFFFFFFFFFFFFFFFFF18
:1038C000FFFFFFFFFFFFFFFFFFFFFFFFFFFFFFFF08
:1038D000FFFFFFFFFFFFFFFFFFFFFFFFFFFFFFFFF8
:1038E000FFFFFFFFFFFFFFFFFFFFFFFFFFFFFFFFE8
:1038F000FFFFFFFFFFFFFFFFFFFFFFFFFFFFFFFFD8
:10390000FFFFFFFFFFFFFFFFFFFFFFFFFFFFFFFFC7
:10391000FFFFFFFFFFFFFFFFFFFFFFFFFFFFFFFFB7
:10392000FFFFFFFFFFFFFFFFFFFFFFFFFFFFFFFFA7
:10393000FFFFFFFFFFFFFFFFFFFFFFFFFFFFFFFF97
:10394000FFFFFFFFFFFFFFFFFFFFFFFFFFFFFFFF87
:10395000FFFFFFFFFFFFFFFFFFFFFF1CDF891A894B
:103960001A691A759DFFFFFFFF5DE7AA224812B290
:103970007CFFFFFFFFFFFFFFFFFFFFFFFFFFFFFFDA
:10398000FFFFFFFFFFFFFFFFFFFFFFFFFFFFFFFF47
:10399000FFFFFFFFFFFFFFFFFFFFFFFFFFFFFFFF37
:1039A000FFFFFFFFFFFFFFFFFFFFFFFFFFFFFFFF27
:1039B000FFFFFFFFFFFFFFFFFFFFFFFFFFFFFFFF17
:1039C000FFFFFFFFFFFFFFFFFFFFFFFFFFFFFFFF07
:1039D000FFFFFFFFFFFFFFFFFFFFFFFFFFFFFFFFF7
:1039E000FFFFFFFFFFFFFFFFFFFFFFFFFFFFFFFFE7
:1039F000FFFFFFFFFFFFFFFFFFFFFFFFFFFFFFFFD7
:103A0000FFFFFFFFFFFFFFFFFFFFFFFFFFFFFFFFC6
:103A1000FFFFFFFFFFFFFFFFFFFFFFFFFFFFFFFFB6
:103A2000FFFFFFFFFFFFFFFFFFFFFFFFFFFFFFFFA6
:103A3000FFFFFFFFFFFFFFFFFFFFFFFFFFFFFFFF96
:103A4000FFFFFFFFFFFFFFFFFFFFFFFFFFFFFFFF86
:103A5000FFFFFFFFFFFFFFFFFFFFFFFFFFFFFFFF76
:103A6000FFFFFFFFFFFFFFFFFFFFFFFFFFFFFFFF66
:103A7000FFFFFFFFFFFFFFFFFFFFFFFFFFFFFFFF56
:103A8000FFFFFFFFFFFFFFFFFFFFFFFFFFFFFFFF46
:103A9000FFFFFFFFFFFFFFFFFFFFFFFFFFFFFFFF36
:103AA000FFFFFFFFFFFFFFFFFFFFFFFFFFFFFFFF26
:103AB000FFFFFFFFFFFFFFFFFFFFFFFFFFFFFFFF16
:103AC000FFFFFFFFFFFFFFFFFFFFFFFFFFFFFFFF06
:103AD000FFFFFFFFFFFFFFFFFFFFFFFFFFFFFFFFF6
:103AE000FFFFFFFFFFFFFFFFFFFFFFFFFFFFFFFFE6
:103AF000FFFFFFFFFFFFFFFFFFFFFFFFFF1CDF894F
:103B00001A891A691A759DFFFFFFFF5DE7AA22480F
:103B100012B27CFFFFFFFFFFFFFFFFFFFFFFFFFF72
:103B2000FFFFFFFFFFFFFFFFFFFFFFFFFFFFFFFFA5
:103B3000FFFFFFFFFFFFFFFFFFFFFFFFFFFFFFFF95
:103B4000FFFFFFFFFFFFFFFFFFFFFFFFFFFFFFFF85
:103B5000FFFFFFFFFFFFFFFFFFFFFFFFFFFFFFFF75
:103B6000FFFFFFFFFFFFFFFFFFFFFFFFFFFFFFFF65
:103B7000FFFFFFFFFFFFFFFFFFFFFFFFFFFFFFFF55
:103B8000FFFFFFFFFFFFFFFFFFFFFFFFFFFFFFFF45
:103B9000FFFFFFFFFFFFFFFFFFFFFFFFFFFFFFFF35
:103BA000FFFFFFFFFFFFFFFFFFFFFFFFFFFFFFFF25
:103BB000FFFFFFFFFFFFFFFFFFFFFFFFFFFFFFFF15
:103BC000FFFFFFFFFFFFFFFFFFFFFFFFFFFFFFFF05
:103BD000FFFFFFFFFFFFFFFFFFFFFFFFFFFFFFFFF5
:103BE000FFFFFFFFFFFFFFFFFFFFFFFFFFFFFFFFE5
:103BF000FFFFFFFFFFFFFFFFFFFFFFFFFFFFFFFFD5
:103C0000FFFFFFFFFFFFFFFFFFFFFFFFFFFFFFFFC4
:103C1000FFFFFFFFFFFFFFFFFFFFFFFFFFFFFFFFB4
:103C2000FFFFFFFFFFFFFFFFFFFFFFFFFFFFFFFFA4
:103C3000FFFFFFFFFFFFFFFFFFFFFFFFFFFFFFFF94
:103C4000FFFFFFFFFFFFFFFFFFFFFFFFFFFFFFFF84
:103C5000FFFFFFFFFFFFFFFFFFFFFFFFFFFFFFFF74
:103C6000FFFFFFFFFFFFFFFFFFFFFFFFFFFFFFFF64
:103C7000FFFFFFFFFFFFFFFFFFFFFFFFFFFFFFFF54
:103C8000FFFFFFFFFFFFFFFFFFFFFFFFFFFFFFFF44
:103C9000FFFFFFFFFFFFFFFFFFFFFFFFFFFFFF1C17
:103CA000DF891A891A691A759DFFFFFFFF5DE7AA70
:103CB000224812B27CFFFFFFFFFFFFFFFFFFFFFF65
:103CC000FFFFFFFFFFFFFFFFFFFFFFFFFFFFFFFF04
:103CD000FFFFFFFFFFFFFFFFFFFFFFFFFFFFFFFFF4
:103CE000FFFFFFFFFFFFFFFFFFFFFFFFFFFFFFFFE4
:103CF000FFFFFFFFFFFFFFFFFFFFFFFFFFFFFFFFD4
:103D0000FFFFFFFFFFFFFFFFFFFFFFFFFFFFFFFFC3
:103D1000FFFFFFFFFFFFFFFFFFFFFFFFFFFFFFFFB3
:103D2000FFFFFFFFFFFFFFFFFFFFFFFFFFFFFFFFA3
:103D3000FFFFFFFFFFFFFFFFFFFFFFFFFFFFFFFF93
:103D4000FFFFFFFFFFFFFFFFFFFFFFFFFFFFFFFF83
:103D5000FFFFFFFFFFFFFFFFFFFFFFFFFFFFFFFF73
:103D6000FFFFFFFFFFFFFFFFFFFFFFFFFFFFFFFF63
:103D7000FFFFFFFFFFFFFFFFFFFFFFFFFFFFFFFF53
:103D8000FFFFFFFFFFFFFFFFFFFFFFFFFFFFFFFF43
:103D9000FFFFFFFFFFFFFFFFFFFFFFFFFFFFFFFF33
:103DA000FFFFFFFFFFFFFFFFFFFFFFFFFFFFFFFF23
:103DB000FFFFFFFFFFFFFFFFFFFFFFFFFFFFFFFF13
:103DC000FFFFFFFFFFFFFFFFFFFFFFFFFFFFFFFF03
:103DD000FFFFFFFFFFFFFFFFFFFFFFFFFFFFFFFFF3
:103DE000FFFFFFFFFFFFFFFFFFFFFFFFFFFFFFFFE3
:103DF000FFFFFFFFFFFFFFFFFFFFFFFFFFFFFFFFD3
:103E0000FFFFFFFFFFFFFFFFFFFFFFFFFFFFFFFFC2
:103E1000FFFFFFFFFFFFFFFFFFFFFFFFFFFFFFFFB2
:103E2000FFFFFFFFFFFFFFFFFFFFFFFFFFFFFFFFA2
:103E3000FFFFFFFFFF9EEF79C69EEFFFFFFFFFFF33
:103E4000FF1CDF891A891A691A759DFFFFFFFF5D44
:103E5000E7AA224812B27CFFFFFFFFFFFFFFFFFF30
:103E6000FFFFFFFFFFFFFFFFFFFFFFFFFFFFFFFF62
:103E7000FFFFFFFFFFFFFFFFFFFFFFFFFFFFFFFF52
:103E8000FFFFFFFFFFFFFFFFFFFFFFFFFFFFFFFF42
:103E9000FFFFFFFFFFFFFFFFFFFFFFFFFFFFFFFF32
:103EA000FFFFFFFFFFFFFFFFFFFFFFFFFFFFFFFF22
:103EB000FFFFFFFFFFFFFFFFFFFFFFFFFFFFFFFF12
:103EC000FFFFFFFFFFFFFFFFFFFFFFFFFFFFFFFF02
:103ED000FFFFFFFFFFFFFFFFFFFFFFFFFFFFFFFFF2
:103EE000FFFFFFFFFFFFFFFFFFFFFFFFFFFFFFFFE2
:103EF000FFFFFFFFFFFFFFFFFFFFFFFFFFFFFFFFD2
:103F0000FFFFFFFFFFFFFFFFFFFFFFFFFFFFFFFFC1
:103F1000FFFFFFFFFFFFFFFFFFFFFFFFFFFFFFFFB1
:103F2000FFFFFFFFFFFFFFFFFFFFFFFFFFFFFFFFA1
:103F3000FFFFFFFFFFFFFFFFFFFFFFFFFFFFFFFF91
:103F4000FFFFFFFFFFFFFFFFFFFFFFFFFFFFFFFF81
:103F5000FFFFFFFFFFFFFFFFFFFFFFFFFFFFFFFF71
:103F6000FFFFFFFFFFFFFFFFFFFFFFFFFFFFFFFF61
:103F7000FFFFFFFFFFFFFFFFFFFFFFFFFFFFFFFF51
:103F8000FFFFFFFFFFFFFFFFFFFFFFFFFFFFFFFF41
:103F9000FFFFFFFFFFFFFFFFFFFFFFFFFFFFFFFF31
:103FA000FFFFFFFFFFFFFFFFFFFFFFFFFFFFFFFF21
:103FB000FFFFFFFFFFFFFFFFFFFFFFFFFFFFFFFF11
:103FC000FFFFFFFFFFFFFFFFFFFFFFFFFFFFFFFF01
:103FD000FFFFFFFFFF9DEF6D4328120B33DFFFFF55
:103FE000FFFFFF1CDF891A891A691A759DFFFFFF01
:103FF000FF5DE7AA224812B27CFFFFFFFFFFFFFF31
:10400000FFFFFFFFFFFFFFFFFFFFFFFFFFFFFFFFC0
:10401000FFFFFFFFFFFFFFFFFFFFFFFFFFFFFFFFB0
:10402000FFFFFFFFFFFFFFFFFFFFFFFFFFFFFFFFA0
:10403000FFFFFFFFFFFFFFFFFFFFFFFFFFFFFFFF90
:10404000FFFFFFFFFFFFFFFFFFFFFFFFFFFFFFFF80
:10405000FFFFFFFFFFFFFFFFFFFFFFFFFFFFFFFF70
:10406000FFFFFFFFFFFFFFFFFFFFFFFFFFFFFFFF60
:10407000FFFFFFFFFFFFFFFFFFFFFFFFFFFFFFFF50
:10408000FFFFFFFFFFFFFFFFFFFFFFFFFFFFFFFF40
:10409000FFFFFFFFFFFFFFFFFFFFFFFFFFFFFFFF30
:1040A000FFFFFFFFFFFFFFFFFFFFFFFFFFFFFFFF20
:1040B000FFFFFFFFFFFFFFFFFFFFFFFFFFFFFFFF10
:1040C000FFFFFFFFFFFFFFFFFFFFFFFFFFFFFFFF00
:1040D000FFFFFFFFFFFFFFFFFFFFFFFFFFFFFFFFF0
:1040E000FFFFFFFFFFFFFFFFFFFFFFFFFFFFFFFFE0
:1040F000FFFFFFFFFFFFFFFFFFFFFFFFFFFFFFFFD0
:10410000FFFFFFFFFFFFFFFFFFFFFFFFFFFFFFFFBF
:10411000FFFFFFFFFFFFFFFFFFFFFFFFFFFFFFFFAF
:10412000FFFFFFFFFFFFFFFFFFFFFFFFFFFFFFFF9F
:10413000FFFFFFFFFFFFFFFFFFFFFFFFFFFFFFFF8F
:10414000FFFFFFFFFFFFFFFFFFFFFFFFFFFFFFFF7F
:10415000FFFFFFFFFFFFFFFFFFFFFFFFFFFFFFFF6F
:10416000FFFFFFFFFFFFFFFFFFFFFFFFFFFFFFFF5F
:10417000FFFFFFFFFFFFFF59BE691A891A28127956
:10418000BEFFFFFFFF1CDF891A891A691A759DFFA0
:10419000FFFFFF5DE7AA224812B27CFFFFFFFFFF8F
:1041A000FFFFFFFFFFFFFFFFFFFFFFFFFFFFFFFF1F
:1041B000FFFFFFFFFFFFFFFFFFFFFFFFFFFFFFFF0F
:1041C000FFFFFFFFFFFFFFFFFFFFFFFFFFFFFFFFFF
:1041D000FFFFFFFFFFFFFFFFFFFFFFFFFFFFFFFFEF
:1041E000FFFFFFFFFFFFFFFFFFFFFFFFFFFFFFFFDF
:1041F000FFFFFFFFFFFFFFFFFFFFFFFFFFFFFFFFCF
:10420000FFFFFFFFFFFFFFFFFFFFFFFFFFFFFFFFBE
:10421000FFFFFFFFFFFFFFFFFFFFFFFFFFFFFFFFAE
:10422000FFFFFFFFFFFFFFFFFFFFFFFFFFFFFFFF9E
:10423000FFFFFFFFFFFFFFFFFFFFFFFFFFFFFFFF8E
:10424000FFFFFFFFFFFFFFFFFFFFFFFFFFFFFFFF7E
:10425000FFFFFFFFFFFFFFFFFFFFFFFFFFFFFFFF6E
:10426000FFFFFFFFFFFFFFFFFFFFFFFFFFFFFFFF5E
:10427000FFFFFFFFFFFFFFFFFFFFFFFFFFFFFFFF4E
:10428000FFFFFFFFFFFFFFFFFFFFFFFFFFFFFFFF3E
:10429000FFFFFFFFFFFFFFFFFFFFFFFFFFFFFFFF2E
:1042A000FFFFFFFFFFFFFFFFFFFFFFFFFFFFFFFF1E
:1042B000FFFFFFFFFFFFFFFFFFFFFFFFFFFFFFFF0E
:1042C000FFFFFFFFFFFFFFFFFFFFFFFFFFFFFFFFFE
:1042D000FFFFFFFFFFFFFFFFFFFFFFFFFFFFFFFFEE
:1042E000FFFFFFFFFFFFFFFFFFFFFFFFFFFFFFFFDE
:1042F000FFFFFFFFFFFFFFFFFFFFFFFFFFFFFFFFCE
:10430000FFFFFFFFFFFFFFFFFFFFFFFFFFFFFFFFBD
:10431000FFFFFFFFFFFFFFFFFF59BE491A89224839
:104320001258BEFFFFFFFF1CDF891A891A691A7530
:104330009DFFFFFFFF5DE7AA224812B27CFFFFFF4F
:10434000FFFFFFFFFFFFFFFFFFFFFFFFFFFFFFFF7D
:10435000FFFFFFFFFFFFFFFFFFFFFFFFFFFFFFFF6D
:10436000FFFFFFFFFFFFFFFFFFFFFFFFFFFFFFFF5D
:10437000FFFFFFFFFFFFFFFFFFFFFFFFFFFFFFFF4D
:10438000FFFFFFFFFFFFFFFFFFFFFFFFFFFFFFFF3D
:10439000FFFFFFFFFFFFFFFFFFFFFFFFFFFFFFFF2D
:1043A000FFFFFFFFFFFFFFFFFFFFFFFFFFFFFFFF1D
:1043B000FFFFFFFFFFFFFFFFFFFFFFFFFFFFFFFF0D
:1043C000FFFFFFFFFFFFFFFFFFFFFFFFFFFFFFFFFD
:1043D000FFFFFFFFFFFFFFFFFFFFFFFFFFFFFFFFED
:1043E000FFFFFFFFFFFFFFFFFFFFFFFFFFFFFFFFDD
:1043F000FFFFFFFFFFFFFFFFFFFFFFFFFFFFFFFFCD
:10440000FFFFFFFFFFFFFFFFFFFFFFFFFFFFFFFFBC
:10441000FFFFFFFFFFFFFFFFFFFFFFFFFFFFFFFFAC
:10442000FFFFFFFFFFFFFFFFFFFFFFFFFFFFFFFF9C
:10443000FFFFFFFFFFFFFFFFFFFFFFFFFFFFFFFF8C
:10444000FFFFFFFFFFFFFFFFFFFFFFFFFFFFFFFF7C
:10445000FFFFFFFFFFFFFFFFFFFFFFFFFFFFFFFF6C
:10446000FFFFFFFFFFFFFFFFFFFFFFFFFFFFFFFF5C
:10447000FFFFFFFFFFFFFFFFFFFFFFFFFFFFFFFF4C
:10448000FFFFFFFFFFFFFFFFFFFFFFFFFFFFFFFF3C
:10449000FFFFFFFFFFFFFFFFFFFFFFFFFFFFFFB17A
:1044A000EEC7E5C8E590EEFFFFFFFFFFFFFFFFFF50
:1044B000FFFFFFFFFFFFFFFFFFFFFF59BE691A89E4
:1044C00022481259BEFFFFFFFF1CDF891A891A69B3
:1044D0001A759DFFFFFFFF5DE7AA224812B27CFF1D
:1044E000FFFFFFFFFFFFFFFFFFFFFFFFFFFFFFFFDC
:1044F000FFFFFFFFFFFFFFFFFFFFFFFFFFFFFFFFCC
:10450000FFFFFFFFFFFFFFFFFFFFFFFFFFFFFFFFBB
:10451000FFFFFFFFFFFFFFFFFFFFFFFFFFFFFFFFAB
:10452000FFFFFFFFFFFFFFFFFFFFFFFFFFFFFFFF9B
:10453000FFFFFFFFFFFFFFFFFFFFFFFFFFFFFFFF8B
:10454000FFFFFFFFFFFFFFFFFFFFFFFFFFFFFFFF7B
:10455000FFFFFFFFFFFFFFFFFFFFFFFFFFFFFFFF6B
:10456000FFFFFFFFFFFFFFFFFFFFFFFFFFFFFFFF5B
:10457000FFFFFFFFFFFFFFFFFFFFFFFFFFFFFFFF4B
:10458000FFFFFFFFFFFFFFFFFFFFFFFFFFFFFFFF3B
:10459000FFFFFFFFFFFFFFFFFFFFFFFFFFFFFFFF2B
:1045A000FFFFFFFFFFFFFFFFFFFFFFFFFFFFFFFF1B
:1045B000FFFFFFFFFFFFFFFFFFFFFFFFFFFFFFFF0B
:1045C000FFFFFFFFFFFFFFFFFFFFFFFFFFFFFFFFFB
:1045D000FFFFFFFFFFFFFFFFFFFFFFFFFFFFFFFFEB
:1045E000FFFFFFFFFFFFFFFFFFFFFFFFFFFFFFFFDB
:1045F000FFFFFFFFFFFFFFFFFFFFFFFFFFFFFFFFCB
:10460000FFFFFFFFFFFFFFFFFFFFFFFFFFFFFFFFBA
:10461000FFFFFFFFFFFFFFFFFFFFFFFFFFFFFFFFAA
:10462000FFFFFFFFFFFFFFFFFFFFFFFFFFFFFFFF9A
:10463000FFFFFFFFFFFFFFFFFFFFFFFFFFFFFFFF8A
:10464000FFA6E5E0D4E0D485DDFFFFFFFFFFFFFF1D
:10465000FFFFFFFFFFFFFFFFFFFFFFFFFF59BE69E7
:104660001A8922481259BEFFFFFFFF1CDF891A89F1
:104670001A691A759DFFFFFFFF5DE7AA224812B273
:104680007CFFFFFFFFFFFFFFFFFFFFFFFFFFFFFFBD
:10469000FFFFFFFFFFFFFFFFFFFFFFFFFFFFFFFF2A
:1046A000FFFFFFFFFFFFFFFFFFFFFFFFFFFFFFFF1A
:1046B000FFFFFFFFFFFFFFFFFFFFFFFFFFFFFFFF0A
:1046C000FFFFFFFFFFFFFFFFFFFFFFFFFFFFFFFFFA
:1046D000FFFFFFFFFFFFFFFFFFFFFFFFFFFFFFFFEA
:1046E000FFFFFFFFFFFFFFFFFFFFFFFFFFFFFFFFDA
:1046F000FFFFFFFFFFFFFFFFFFFFFFFFFFFFFFFFCA
:10470000FFFFFFFFFFFFFFFFFFFFFFFFFFFFFFFFB9
:10471000FFFFFFFFFFFFFFFFFFFFFFFFFFFFFFFFA9
:10472000FFFFFFFFFFFFFFFFFFFFFFFFFFFFFFFF99
:10473000FFFFFFFFFFFFFFFFFFFFFFFFFFFFFFFF89
:10474000FFFFFFFFFFFFFFFFFFFFFFFFFFFFFFFF79
:10475000FFFFFFFFFFFFFFFFFFFFFFFFFFFFFFFF69
:10476000FFFFFFFFFFFFFFFFFFFFFFFFFFFFFFFF59
:10477000FFFFFFFFFFFFFFFFFFFFFFFFFFFFFFFF49
:10478000FFFFFFFFFFFFFFFFFFFFFFFFFFFFFFFF39
:10479000FFFFFFFFFFFFFFFFFFFFFFFFFFFFFFFF29
:1047A000FFFFFFFFFFFFFFFFFFFFFFFFFFFFFFFF19
:1047B000FFFFFFFFFFFFFFFFFFFFFFFFFFFFFFFF09
:1047C000FFFFFFFFFFFFFFFFFFFFFFFFFFFFFFFFF9
:1047D000FFFFFFFFFFFFFFFFFFFFFFFFFFFFFFFFE9
:1047E000FFFFFFC7E500D500D5A5DDFFFFFFFFFFF9
:1047F000FFFFFFFFFFFFFFFFFFFFFFFFFFFFFF596F
:10480000BE691A8922481259BEFFFFFFFF1CDF89CB
:104810001A891A691A759DFFFFFFFF5DE7AA2248F2
:1048200012B27CFFFFFFFFFFFFFFFFFFFFFFFFFF55
:10483000FFFFFFFFFFFFFFFFFFFFFFFFFFFFFFFF88
:10484000FFFFFFFFFFFFFFFFFFFFFFFFFFFFFFFF78
:10485000FFFFFFFFFFFFFFFFFFFFFFFFFFFFFFFF68
:10486000FFFFFFFFFFFFFFFFFFFFFFFFFFFFFFFF58
:10487000FFFFFFFFFFFFFFFFFFFFFFFFFFFFFFFF48
:10488000FFFFFFFFFFFFFFFFFFFFFFFFFFFFFFFF38
:10489000FFFFFFFFFFFFFFFFFFFFFFFFFFFFFFFF28
:1048A000FFFFFFFFFFFFFFFFFFFFFFFFFFFFFFFF18
:1048B000FFFFFFFFFFFFFFFFFFFFFFFFFFFFFFFF08
:1048C000FFFFFFFFFFFFFFFFFFFFFFFFFFFFFFFFF8
:1048D000FFFFFFFFFFFFFFFFFFFFFFFFFFFFFFFFE8
:1048E000FFFFFFFFFFFFFFFFFFFFFFFFFFFFFFFFD8
:1048F000FFFFFFFFFFFFFFFFFFFFFFFFFFFFFFFFC8
:10490000FFFFFFFFFFFFFFFFFFFFFFFFFFFFFFFFB7
:10491000FFFFFFFFFFFFFFFFFFFFFFFFFFFFFFFFA7
:10492000FFFFFFFFFFFFFFFFFFFFFFFFFFFFFFFF97
:10493000FFFFFFFFFFFFFFFFFFFFFFFFFFFFFFFF87
:10494000FFFFFFFFFFFFFFFFFFFFFFFFFFFFFFFF77
:10495000FFFFFFFFFFFFFFFFFFFFFFFFFFFFFFFF67
:10496000FFFFFFFFFFFFFFFFFFFFFFFFFFFFFFFF57
:10497000FFFFFFFFFFFFFFFFFFFFFFFFFFFFFFFF47
:10498000FFFFFFFFFFC7E500D500D5A5DDFFFFFF57
:10499000FFFFFFFFFFFFFFFFFFFFFFFFFFFFFFFF27
:1049A000FF59BE691A8922481259BEFFFFFFFF1C3A
:1049B000DF891A891A691A759DFFFFFFFF5DE7AA53
:1049C000224812B27CFFFFFFFFFFFFFFFFFFFFFF48
:1049D000FFFFFFFFFFFFFFFFFFFFFFFFFFFFFFFFE7
:1049E000FFFFFFFFFFFFFFFFFFFFFFFFFFFFFFFFD7
:1049F000FFFFFFFFFFFFFFFFFFFFFFFFFFFFFFFFC7
:104A0000FFFFFFFFFFFFFFFFFFFFFFFFFFFFFFFFB6
:104A1000FFFFFFFFFFFFFFFFFFFFFFFFFFFFFFFFA6
:104A2000FFFFFFFFFFFFFFFFFFFFFFFFFFFFFFFF96
:104A3000FFFFFFFFFFFFFFFFFFFFFFFFFFFFFFFF86
:104A4000FFFFFFFFFFFFFFFFFFFFFFFFFFFFFFFF76
:104A5000FFFFFFFFFFFFFFFFFFFFFFFFFFFFFFFF66
:104A6000FFFFFFFFFFFFFFFFFFFFFFFFFFFFFFFF56
:104A7000FFFFFFFFFFFFFFFFFFFFFFFFFFFFFFFF46
:104A8000FFFFFFFFFFFFFFFFFFFFFFFFFFFFFFFF36
:104A9000FFFFFFFFFFFFFFFFFFFFFFFFFFFFFFFF26
:104AA000FFFFFFFFFFFFFFFFFFFFFFFFFFFFFFFF16
:104AB000FFFFFFFFFFFFFFFFFFFFFFFFFFFFFFFF06
:104AC000FFFFFFFFFFFFFFFFFFFFFFFFFFFFFFFFF6
:104AD000FFFFFFFFFFFFFFFFFFFFFFFFFFFFFFFFE6
:104AE000FFFFFFFFFFFFFFFFFFFFFFFFFFFFFFFFD6
:104AF000FFFFFFFFFFFFFFFFFFFFFFFFFFFFFFFFC6
:104B0000FFFFFFFFFFFFFFFFFFFFFFFFFFFFFFFFB5
:104B1000FFFFFFFFFFFFFFFFFFFFFFFFFFFFFFFFA5
:104B2000FFFFFFFFFFFFFFC8E500D500D5A6DDFFB3
:104B3000FFFFFFFFFFFFFFFFFFFFFFFFFFFFFFFF85
:104B4000FFFFFF59BE691A8922481259BEFFFFFFB5
:104B5000FF1CDF891A891A691A759DFFFFFFFF5D27
:104B6000E7AA224812B27CFFFFFFFFFFFFFFFFFF13
:104B7000FFFFFFFFFFFFFFFFFFFFFFFFFFFFFFFF45
:104B8000FFFFFFFFFFFFFFFFFFFFFFFFFFFFFFFF35
:104B9000FFFFFFFFFFFFFFFFFFFFFFFFFFFFFFFF25
:104BA000FFFFFFFFFFFFFFFFFFFFFFFFFFFFFFFF15
:104BB000FFFFFFFFFFFFFFFFFFFFFFFFFFFFFFFF05
:104BC000FFFFFFFFFFFFFFFFFFFFFFFFFFFFFFFFF5
:104BD000FFFFFFFFFFFFFFFFFFFFFFFFFFFFFFFFE5
:104BE000FFFFFFFFFFFFFFFFFFFFFFFFFFFFFFFFD5
:104BF000FFFFFFFFFFFFFFFFFFFFFFFFFFFFFFFFC5
:104C0000FFFFFFFFFFFFFFFFFFFFFFFFFFFFFFFFB4
:104C1000FFFFFFFFFFFFFFFFFFFFFFFFFFFFFFFFA4
:104C2000FFFFFFFFFFFFFFFFFFFFFFFFFF7AFF9088
:104C3000EE2BE6E9E5E9E50BE66FEE57F7FFFFFF40
:104C4000FFFFFFFFFFFFFFFFFFFFFFFFFFFFFFDD96
:104C5000FFD3EE2CE6E9E5E9E50BE690EE7AFFFFFF
:104C6000FFFFFFFFFFFFFFFFFFFFFFFFFF37F74ED5
:104C7000EE0AE6E9E50AE64DEE36F7FEFFFFFFFF36
:104C8000FFFFFFFFFFFFFFFFFFDEFF16F74DEE0AFE
:104C9000E6E9E52BE690EE7AF7FFFFFFFFFFFFFF67
:104CA000FFDEFFD3EED2EED3EED2EE37F7FFFF16E4
:104CB000F74DE6E9E5EAE54DEE37F7FFFFFFFFFFC9
:104CC000FFFFFFFFFF9BFF90EE63DD00DD00DD4196
:104CD000DD4DEE90EE37F7FFFFFFFFFFFFFFFFFF19
:104CE000FFFFFFFFFF59BE691A8922481259BEFF14
:104CF000FFFFFF1CDF891A891A691A759DFFFFFFE4
:104D0000FF5DE7AA224812B27CFFFFFFFFFFFFFF13
:104D1000FFFFFFFFFFFFFFFFFFFFFF1CDF55959128
:104D20007430640F5C917475951CDFFFFFFFFFFF0B
:104D3000FFFFFF9EEFF7ADF7ADF7AD17AEBEF7FF84
:104D4000FF3CDFF3843064516C55957DE7FFFFFF36
:104D5000FFFFFFFFFF59BEB27C30643064348D3CEE
:104D6000DFFFFF5DE7D7ADF7ADF7ADF7ADDFF7FFDD
:104D7000FFFFFFDBCE348D716C30641064716C34D6
:104D80008DBACEFFFFFFFFFFFFFFFFFFFFFFFF9981
:104D9000C6D7A5F7ADF7AD9AC6FFFFFFFF18B671EE
:104DA0006C1064516C54955DE7FFFFFFFFFFFFFF40
:104DB000FFFFFFFFFFFFFFDFFF79C6F384716C1079
:104DC0006430649274B6A55DE7FFFF9AF742DDE0B8
:104DD000D4E0D400D5E0D4E0D4E0D4E0D4E0D441B1
:104DE000DD6FEEFEFFFFFFFFFFFFFFFFFFFFFF4D49
:104DF000EE00DDE0D4E0D4E0D4E0D400D5E0D4008F
:104E0000D500DD15F7FFFFFFFFFFFF15F763DDE0BE
:104E1000D4E0D4E0D4E0D4E0D4E0D4E0D400DD0A9F
:104E2000E6FFFFFFFFFFFFFFFF4EEE21DDE0D4E0D6
:104E3000D4E0D4E0D4E0D4E0D4E0D485DD16F7FFAC
:104E4000FFFFFF90EEC0D4E0D4E0D4E0D400D56200
:104E5000DDE0D4E0D4E0D4E0D4E0D4E0D464DD36C6
:104E6000F7FFFFFFFFFFFFC7E5C0D400DD00DD0057
:104E7000DD00DDE0D4E0D400DDBCFFFFFFFFFFFF7D
:104E8000FFFFFFFFFFFFFF59BE691A892248125931
:104E9000BEFFFFFFFF1CDF891A891A691A759DFF83
:104EA000FFFFFF5DE7AA224812B27CFFFFFFFFFF72
:104EB000FFFFFFFFFFFFFFFFFFFBD6CE53070A07F1
:104EC0000A89220B330B33AA2A2812070A8D437949
:104ED000C6FFFFFFFFDBD6AA2A070A4812280A7579
:104EE0009DB27CEB2A6D438D4B0B3328122C3BFF7C
:104EF000FFFFFF17AE0B33070A4812EB2A2C33EBE8
:104F00002A8922506C0F5C280A281228122C3B7D1B
:104F1000EF5DE70B33070A280AAA220B330B33CACB
:104F20002A2812070A0B33B69DFFFFFFFFFFFFFF82
:104F3000FF516C2812281228124C43959D0B33AA5E
:104F4000220B33EB32691A070A4812716C9EEFFF8D
:104F5000FFFFFFFFFFFFFF969DEB2AE7092812AA3C
:104F60002A0B33EB32691A070A4812549536F700B8
:104F7000D500DD00D541DD63DD63DD42DD20DD00F0
:104F8000DD00DDE0D4C8E5FFFFFFFFFFFFFFFFC846
:104F9000E5E0D400DD00DD42DD63DD63DD41DD0001
:104FA000DD00DDE0D490EEFFFFFFFFF3F6E0D4007C
:104FB000D500DD41DD63DD63DD42DD00D500DD00D0
:104FC000D563DDDEFFFFFFFFFFA5DDE0D400DD00E0
:104FD000DD21DD63DD63DD42DD00D500DD00D500D0
:104FE000D516F7FFFF37F763DD21DD00DD00DD00BB
:104FF000DD00D541DD63DD63DD41DD00D500DD0091
:10500000D500D57AFFFFFFFFFF6EEE62DD20DD00E9
:10501000DD00DD20DD64DD63DDC7E5DEFFFFFFFFD2
:10502000FFFFFFFFFFFFFFFFFF59BE691A892248FC
:105030001259BEFFFFFFFF1CDF891A891A691A7512
:105040009DFFFFFFFF5DE7AA224812B27CFFFFFF32
:10505000FFFFFFFFFFFFFFFFFFFFFFCF53270AAE5A
:105060004BFBD6DFFFFFFFFFFFFFFF5CE7B27C4893
:1050700012AA22BEF7FFFFFFFFFFFFBEF76D4348F6
:1050800012AE4BFBD6FFFFFFFFFFFFFFFF506C2C64
:105090003BFFFF79C648124812969D9EEFFFFFFF27
:1050A000FFFFFFBEF738B62C3B2812B27CBEF7FFDD
:1050B000FFFFFFFBD6481A916C3CDFFFFFFFFFFFAD
:1050C000FFFFFF9EEFB69D891A070A59BEFFFFFF3B
:1050D000FFFFFFFFFFDFFFF7AD4812AA22348D7DEF
:1050E000EFFFFFFFFFFFFFBEF779C6EB32280A1480
:1050F0008DFFFFFFFFFFFF5CE78922891AD3843C05
:10510000E7FFFFFFFFFFFFDFF7D7AD89229174377D
:10511000F700DD00DD4DEE9BFFBDFFBDFFBCFF7A5C
:10512000FF84DD00DD00D5A5DDFFFFFFFFFFFFBC35
:10513000FF63DD00DD00D50AE6BCFFBDFFDDFF9BA0
:10514000FFA6E500D5E0D491EEFFFFFFFF6EEEE095
:10515000D400DD42DD58F7BDFFBDFFBCFFB1EE005E
:10516000DD00D584DDDEFFFFFFFFFFE0D400DD00C2
:10517000D52BE69BFFBDFFBDFF9CFFD3EE00D50006
:10518000DD00DDF4F6FFFFFFFFDDFF16F720DD0099
:10519000DD00D54DEE9BFFBDFFBDFF9CFF90EE00F7
:1051A000DD00DD00D559F7FFFFFFFFFFFFDDFFC783
:1051B000E500D500DD85DDDEFFBDFFDEFFFFFFFF83
:1051C000FFFFFFFFFFFFFFFFFFFFFF59BE691A89C7
:1051D00022481259BEFFFFFFFF1CDF891A891A6996
:1051E0001A759DFFFFFFFF5DE7AA224812B27CFF00
:1051F000FFFFFFFFFFFFFFFFFFFFFFFFFFEF532852
:105200000A5595FFFFFFFFFFFFFFFFFFFFFFFFDBDB
:10521000CE691ACA2A9EF7FFFFFFFFFFFFFFFFCEEE
:10522000532812148DFFFFFFFFFFFFFFFFFFFF1347
:10523000852C3BFFFF79C6691A691AFFFFFFFFFF44
:10524000FFFFFFFFFFFFFFFFFF9174070A348DFF91
:10525000FFFFFFFFFFFBD6691A3CE7FFFFFFFFFFE1
:10526000FFFFFFFFFFFFFFFFFFEB32281259BEFFDA
:10527000FFFFFFFFFFFFFFFFFFBACE28120B337DBA
:10528000E7FFFFFFFFFFFFFFFFFFFFFFFFCE5328FA
:1052900012148DFFFFFFFFFFFF5DE7A9228D43FF83
:1052A000FFFFFFFFFFFFFFFFFFFFFFFFFFCE537179
:1052B0006C37F7E0D400D537F7FFFFFFFFFFFFFFA4
:1052C000FFFFFFC7E500D500D5A6DDFFFFFFFFFF0D
:1052D000FFBCFF63DD00DD00D54DEEFFFFFFFFFFEC
:1052E000FFFFFF0BE600D5E0D491EEFFFFFFFF6E5E
:1052F000EEE0D400DD63DDDEFFFFFFFFFFFFFF58C0
:10530000F720DD00D584DDDEFFFFFFFFFFE0D400E6
:10531000DDE0DC90EEFFFFFFFFFFFFFFFF79F7000E
:10532000DD00DD00DDF4F6FFFFFFFFFFFF9BFF2147
:10533000DD00DD00D5B2EEFFFFFFFFFFFFFFFF3610
:10534000F700DD00DD00D559F7FFFFFFFFFFFFFF8E
:10535000FFC7E500D500D5A5DDFFFFFFFFFFFFFF7D
:10536000FFFFFFFFFFFFFFFFFFFFFFFFFF59BE69CA
:105370001A8922481259BEFFFFFFFF1CDF891A89D4
:105380001A691A759DFFFFFFFF5DE7AA2228129296
:1053900074FFFFFFFFFFFFFFFFFFFFFFFFFFFFEFB8
:1053A0005B280A348DFFFFFFFFFFFFFFFFFFFFFFBA
:1053B000FFBACE891ACA2A9EF7FFFFFFFFFFFFFF41
:1053C000FFAE5328121385FFFFFFFFFFFFFFFFFF14
:1053D000FFB6A52C3BFFFF79C6691A691AFFFFFFCC
:1053E000FFFFFFFFFFFFFFFFFFFFFF716C070A34A6
:1053F0008DFFFFFFFFFFFF5DE7F3849EF7FFFFFFD9
:10540000FFFFFFFFFFFFFFFFFFBEF7EB2A28125948
:10541000BEFFFFFFFFFFFFFFFFFFFF9AC628120B33
:10542000335CE7FFFFFFFFFFFFFFFFFFFFFFFFAE64
:10543000534812148DFFFFFFFFFFFF5CE789228DA9
:105440004BFFFFFFFFFFFFFFFFFFFFFFFFFFFFF728
:10545000ADD7ADDEFFB1EEB2EEFFFFFFFFFFFFFF06
:10546000FFFFFFFFFFC7E500D500D5A6DDFFFFFF6B
:10547000FFFFFFBCFF63DD00DD00D54CEEFFFFFF4B
:10548000FFFFFFFFFF6FEEE0D4C0D490EEFFFFFF01
:10549000FF6EEEE0D400DD62DDDDFFFFFFFFFFFF0A
:1054A000FF7AFF20DDE0D463DDDEFFFFFFFFFFE0DA
:1054B000D400DDE0DC90EEFFFFFFFFFFFFFFFF7990
:1054C000FF00DD00DD00DDF4F6FFFFFFFFFFFF9AC8
:1054D000FF21DD00DD00D5B1EEFFFFFFFFFFFFFF85
:1054E000FF16F700DD00DD00D559F7FFFFFFFFFFD6
:1054F000FFFFFFC7E500D500D5A5DDFFFFFFFFFFDC
:10550000FFFFFFFFFFFFFFFFFFFFFFFFFFFFFF5951
:10551000BE691A8922481259BEFFFFFFFF1CDF89AE
:105520001A891A691A759DFFFFFFFF5DE7891A69DD
:105530001A969DFFFFFFFFFFFFFFFFFFFFFFFFFF2B
:10554000FFEF5B280A348DFFFFFFFFFFFFFFFFFF28
:10555000FFFFFFBACE891ACA2A9EF7FFFFFFFFFF9F
:10556000FFFFFFAE5328121385FFFFFFFFFFFFFF72
:10557000FFFFFF7DEF9AC6FFFF79C6691A691AFF20
:10558000FFFFFFFFFFFFFFFFFFFFFFFFFF7174073C
:105590000A348DFFFFFFFFFFFFFFFFFFFFFFFFFF4D
:1055A000FFFFFFFFFFFFFFFFFFFFFFBEF7EB2A2814
:1055B0001259BEFFFFFFFFFFFFFFFFFFFF9AC62844
:1055C000120B335CE7FFFFFFFFFFFFFFFFFFFFFF53
:1055D000FFAE534812148DFFFFFFFFFFFF9DEFEB5F
:1055E0002AAA22FBD6FFFFFFFFFFFFFFFFFFFFFFFF
:1055F000FFFFFFFFFFFFFFFFFFFFFF7AFF15F7D35E
:10560000EED2EEF4F679F7A6E500DD00D5A6DDFFD3
:10561000FFFFFFFFFFBCFF63DD00DD00D54CEEFFA9
:10562000FFFFFFFFFFFFFF37F7A6E585DD37F7FF39
:10563000FFFFFF6EEEE0D400DD62DDDDFFFFFFFF68
:10564000FFFFFFDEFF0AE685DD4EEEFFFFFFFFFFF7
:10565000FFE0D400DD00DD0AE69AFFDEFFDEFFBCDE
:10566000FFB1EE00DD00DD00DDF3F6FFFFFFFFFF21
:10567000FF9AFF21DD00DD00D5B1EEFFFFFFFFFF48
:10568000FFFFFF16F700DD00DD00D559F7FFFFFF34
:10569000FFFFFFFFFFC7E500D500D5A5DDFFFFFF3A
:1056A000FFFFFFFFFFFFFFFFFFFFFFFFFFFFFFFF0A
:1056B000FF59BE691A8922481259BEFFFFFFFF1C1D
:1056C000DF891A891A691A759DFFFFFFFF3CE710F1
:1056D0005CBAC6FFFFFFFFFFFFFFFFFFFFFFFFFFFB
:1056E000FFFFFFEF5B280A348DFFFFFFFFFFFFFF87
:1056F000FFFFFFFFFFBACE891ACA2A9EF7FFFFFFFE
:10570000FFFFFFFFFFAE5328121385FFFFFFFFFFD0
:10571000FFFFFFFFFFFFFFFFFFFFFF59BE481269BA
:105720001AFFFFFFFFFFFFFFFFFFFFFFFFFFFF71FC
:105730006CE7011485FFFFFFFFFFFFFFFFFFFFFF87
:10574000FFFFFFFFFFFFFFFFFFFFFFFFFFFFFFEB7D
:1057500032281259BEFFFFFFFFFFFFFFFFFFFF9A36
:10576000C628120B335CE7FFFFFFFFFFFFFFFFFFC1
:10577000FFFFFFAE534812148DFFFFFFFFFFFFFF37
:10578000FF9174070A0B3338B6FFFFFFFFFFFFFFDF
:10579000FFFFFFFFFFFFFFFFFFD3EE63DDE0D4E07D
:1057A000D4E0D4E0D4E0D4E0D400DD00DD00D5A620
:1057B000DDFFFFFFFFFFFFBCFF63DD00DD00D54C19
:1057C000EEFFFFFFFFFFFFFFFFFFFFFFFFFFFFFFFA
:1057D000FFFFFFFFFF6EEEE0D400DD62DDDDFFFFC7
:1057E000FFFFFFFFFFFFFFFFFFFFFFFFFFFFFFFFC9
:1057F000FFFFFFE0D400DD00DD00D500DD00DD00AF
:10580000DD00D5E0D400DDE0D400DD37F7FFFFFF99
:10581000FFFFFF9AFF21DD00DD00D5B1EEFFFFFFA6
:10582000FFFFFFFFFF16F700DD00DD00D559F7FF92
:10583000FFFFFFFFFFFFFFC7E500D500D5A5DDFF98
:10584000FFFFFFFFFFFFFFFFFFFFFFFFFFFFFFFF68
:10585000FFFFFF59BE691A8922481259BEFFFFFF98
:10586000FF1CDF691A681A280A5595FFFFFFFFFF22
:10587000FFFFFFFFFFFFFFFFFFFFFFFFFFFFFFFF38
:10588000FFFFFFFFFFEF5B280A348DFFFFFFFFFFE5
:10589000FFFFFFFFFFFFFFBACE891ACA2A9EF7FF5C
:1058A000FFFFFFFFFFFFFFAE5328121385FFFFFF2F
:1058B000FFFFFFFFFFFFFFFFFFFFFFFFFF9DEF3039
:1058C0006448124D43559518B659BE38B6969DEFAB
:1058D000532812CA2A99C6FFFFFFFFFFFFFFFF7D73
:1058E000E7959DEF5B0B33891A89222C3B716C96EF
:1058F0009DEB2A281259BEFFFFFFFFFFFFFFFFFFAE
:10590000FF9AC628120B335CE7FFFFFFFFFFFFFF84
:10591000FFFFFFFFFFAE534812148DFFFFFFFFFF95
:10592000FFFFFFDFFF716C2812E7018A22716CF71D
:10593000AD3CDFFFFFFFFFFFFFD2EE00D500D5003B
:10594000DD00D500D500D500D500D500DD00DD0097
:10595000D5A6DDFFFFFFFFFFFFBCFF63DD00DD001D
:10596000D54CEEFFFFFFFFFFFFFFFFFFFFFFFFFF35
:10597000FFFFFFFFFFFFFF6EEEE0D400DD62DDDD25
:10598000FFFFFFFFFFFFFFFFFFFFFFFFFFFFFFFF27
:10599000FFFFFFFFFFE0D400DD00DD00DDE0D4E02D
:1059A000D4E0D4E0D4E0D4E0D4C7E558F7FFFFFF5B
:1059B000FFFFFFFFFF9AFF21DD00DD00D5B1EEFF05
:1059C000FFFFFFFFFFFFFF16F700DD00DD00D559E9
:1059D000F7FFFFFFFFFFFFFFFFC7E500D500D5A5DD
:1059E000DDFFFFFFFFFFFFFFFFFFFFFFFFFFFFFFE9
:1059F000FFFFFFFFFF59BE691A8922481259BEFFF7
:105A0000FFFFFF1BDF48126D4313853CDFFFFFFFE5
:105A1000FFFFFFFFFF79C67595FFFFFFFFFFFFFF49
:105A2000FFFFFFFFFFFFFFEF5B280A348DFFFFFF43
:105A3000FFFFFFFFFFFFFFFFFFBACE891ACA2A9EB2
:105A4000F7FFFFFFFFFFFFFFFFAE5328121385FF95
:105A5000FFFFFFFFFFFFFFFFFFFFFFFFFFFFFFFF56
:105A6000FFFFFFD6A5691A48128922481A691ACA87
:105A70002AAE53969D7DEFFFFFFFFFFFFFFFFF9ACA
:105A8000C6EB324812CA2ACF53716C716C30644D28
:105A900043691A891A281259BEFFFFFFFFFFFFFF53
:105AA000FFFFFF9AC628120B335CE7FFFFFFFFFFE3
:105AB000FFFFFFFFFFFFFFAE534812148DFFFFFFF4
:105AC000FFFFFFFFFFFFFFFFFFDBCEF3846D4349C6
:105AD0001A2812AA22EF5BBACEFFFF6FEEE0D400C5
