:100000002AC039C038C037C036C035C034C033C04C
:1000100032C031C030C03AC12EC02DC02CC02BC060
:100020002AC000003A00370000003B003800000002
:100030003900360001010101010101010202020142
:1000400002040810204080040201000000000004A7
:1000500003020100000011241FBECFE5D1E0DEBF86
:10006000CDBF20E0A0E6B0E001C01D92AF36B207E0
:10007000E1F756D163C2C4CF823099F018F48130D1
:1000800069F00895833019F0843021F008958FB518
:100090008F7702C08FB58F7D8FBD089580B78F7722
:1000A00002C080B78F7D80BF0895CF93DF93282F44
:1000B00030E0F901E65BFF4F8491F901E15CFF4F0D
:1000C000D491F901EC5CFF4FC491CC2389F08111EC
:1000D000D3DFEC2FF0E0EE0FFF1FE25DFF4FA591A5
:1000E000B491EC91ED2381E090E021F480E002C036
:1000F00080E090E0DF91CF9108951F93CF93DF933D
:10010000282F30E0F901E65BFF4F8491F901E15CB3
:10011000FF4FD491F901EC5CFF4FC491CC23C1F0A7
:10012000162F8111A9DFEC2FF0E0EE0FFF1FE85D25
:10013000FF4FA591B4918FB7F894111105C09C9110
:10014000ED2FE095E92302C0EC91ED2BEC938FBFEE
:10015000DF91CF911F910895CF93DF9390E0FC0141
:10016000E15CFF4F2491FC01EC5CFF4F84918823FC
:1001700061F190E0880F991FFC01EE5DFF4FC59182
:10018000D491FC01E85DFF4FA591B491611109C0C4
:100190009FB7F8948881209582238883EC912E2341
:1001A0000BC0623061F49FB7F8943881822F80953C
:1001B00083238883EC912E2B2C939FBF06C08FB78F
:1001C000F894E8812E2B28838FBFDF91CF9108957B
:1001D0003FB7F8948091650090916600A091670008
:1001E000B091680022B708B600FE05C02F3F19F095
:1001F0000196A11DB11D3FBFBA2FA92F982F8827A7
:10020000820F911DA11DB11DBC01CD0146E0660FFD
:10021000771F881F991F4A95D1F708958F929F9253
:10022000AF92BF92CF92DF92EF92FF926B017C016F
:10023000CFDF4B015C01C114D104E104F104E9F00A
:10024000C7DFDC01CB0188199909AA09BB09883EDF
:100250009340A105B10578F321E0C21AD108E10865
:10026000F10888EE880E83E0981EA11CB11CC11411
:10027000D104E104F10421F7DECFFF90EF90DF908D
:10028000CF90BF90AF909F908F9008951F920F9244
:100290000FB60F9211242F933F938F939F93AF9399
:1002A000BF938091610090916200A0916300B09132
:1002B00064003091600020E3230F2D3720F4409636
:1002C000A11DB11D05C023EB230F4196A11DB11D3A
:1002D000209360008093610090936200A09363007C
:1002E000B09364008091650090916600A0916700D2
:1002F000B09168000196A11DB11D80936500909397
:100300006600A0936700B0936800BF91AF919F9182
:100310008F913F912F910F900FBE0F901F901895C6
:10032000789480B7826080BF80B7816080BF83B7D8
:10033000826083BF83B7816083BF89B7816089BFD3
:100340001EBC8EB582608EBD8FB581608FBD329828
:10035000319A309A379A62E089E0FEDE61E080E00F
:10036000FBDE61E083E0F8DE61E088E0F5DE61E07D
:1003700082E0F2DE61E081E0EFDE60E087E0ECDE6B
:1003800061E080E0BADE61E083E0B7DE61E088E052
:10039000B4DE61E082E0B1DE61E081E0AEDE60E02B
:1003A0008AE0ABDE61E086E0A8DE81E090E0909339
:1003B0006C0080936B0090936E0080936D0090931F
:1003C0006A008093690000E010E087E0F82E1D9835
:1003D000F7B8369A3699FECF84B125B190E0922BCA
:1003E000863B9340BCF460E08AE087DE61E082E017
:1003F00084DE61E083E081DE62E370E080E090E033
:100400000DDF61E080E079DE61E081E076DE61E0D1
:1004100088E092C086E049DEEC0190936E00809304
:100420006D006AE070E080E090E0F8DE80916B00A3
:1004300090916C008C179D0709F460C0C130D10504
:1004400009F058C08091690090916A00813091054F
:1004500051F510926A001092690061E08AE04DDE69
:1004600060E088E04ADE64EF71E080E090E0D6DE94
:1004700060E080E042DE60E081E03FDE66ED76E055
:1004800080E090E0CBDE60E083E037DE60E971E0A1
:1004900080E090E0C3DE60E082E02FDE6AEF70E093
:1004A00080E090E026C0892B29F5D0936A00C093A4
:1004B000690060E08AE021DE62E370E080E090E0C5
:1004C000ADDE61E080E019DE61E081E016DE61E032
:1004D00088E013DE61E082E010DE66E970E080E033
:1004E00090E09CDE61E083E008DE66E970E080E099
:1004F00090E094DED0936C00C0936B0089E0D5DD72
:10050000892B41F08091690090916A00892B11F448
:1005100061E011C089E0C9DD892B31F48091690067
:1005200090916A00892B31F00115110509F44FCF24
:1005300067DD4DCF60E082E0E0DDF6CFF894FFCFDD
:10054000FFFFFFFFFFFFFFFFFFFFFFFFFFFFFFFFBB
:10055000FFFFFFFFFFFFFFFFFFFFFFFFFFFFFFFFAB
:10056000FFFFFFFFFFFFFFFFFFFFFFFFFFFFFFFF9B
:10057000FFFFFFFFFFFFFFFFFFFFFFFFFFFFFFFF8B
:00000001FF
