:1000000017C1000045C1000043C1000041C100000C
:100010003FC100003DC100003BC1000039C10000EC
:1000200037C1000035C1000033C1000031C10000FC
:100030002FC100002DC100002BC1000029C100000C
:1000400027C1000025C1000023C1000021C100001C
:100050001FC100001DC100001BC10000E7C300005C
:1000600017C10000ADC3000082C3000011C1000031
:100070000FC100000DC100000BC1000009C100004C
:1000800007C1000005C1000003C1000001C100005C
:10009000FFC00000FDC00000FBC00000F9C0000070
:1000A000F7C00000F5C00000F3C00000F1C0000080
:1000B000EFC00000EDC00000EBC00000E9C0000090
:1000C000E7C00000E5C00000E3C00000E1C00000A0
:1000D000DFC00000DDC00000DBC00000D9C00000B0
:1000E000D7C00000F301F601E501E901ED012D02A1
:1000F000FA01FE01040208020C02120216021A02A0
:100100002D02200224022802E7075B0825080E08BA
:100110005D075D07E4075D07E4075D07E407E407A3
:10012000E4075D07E407E40700002100240027003E
:100130002A002D00300033000101000004010701F6
:100140000A0100002200250028002B002E003100AB
:10015000340002010000050108010B010505050539
:10016000070508080808020202020A0A080804042F
:10017000040401010101010101010303030303035D
:100180000303040707070C0C0C0C0C0C0C0C0202EC
:10019000020206060606060606060B0B0B0B0B0BE9
:1001A0000B0B010210202008081020401020408076
:1001B000020102010804020101020408102040802B
:1001C00080402010080402018004020180402010B9
:1001D0000804020108040201010204081020408002
:1001E000010204081020408000000A0B02090C0DD7
:1001F0000E080703040100000000000000000000DA
:1002000000000000000000000000000000000000EE
:1002100000000000121110000000000000000000AB
:10022000000000000000000000000000000060046A
:1002300011241FBECFEFD1E2DEBFCDBF00E00CBF67
:1002400012E0A0E0B2E0E4E1F3E100E00BBF02C0A5
:1002500007900D92A031B107D9F723E0A0E1B2E0F9
:1002600001C01D92AD36B207E1F711E0C8E1D1E05F
:1002700000E006C021970109802FFE010E947C0941
:10028000C731D10780E00807A9F78AD30C94880901
:10029000B7CECF93DF93EC018D3F910554F48A3FA5
:1002A00091055CF4863F910541F0883F910589F402
:1002B00004C08E5F9109029760F480916B03909166
:1002C0006C03DC01ED91FC910190F081E02D6C2F2D
:1002D0001995C63FD10511F41092DC02DF91CF9140
:1002E00008950F931F93CF93DF93EC01142F2150A8
:1002F000203118F4803891051CF41092DC0243C0C0
:10030000813E9105B4F5062F0F77682F622B8091FF
:10031000DC02861769F06093DC0280916B03909198
:100320006C03DC01ED91FC910190F081E02D1995B9
:1003300080916B0390916C03DC01ED91FC91019035
:10034000F081E02D602F1995CF7EC03CD105D9F00A
:1003500080916B0390916C03DC01ED91FC91612F16
:100360006F770190F081E02DDF91CF911F910F9178
:100370001994865F91090A9730F4CE01DF91CF91ED
:100380001F910F9186CFDF91CF911F910F9108950B
:10039000CF93C82FE5EFF1E04491EFEAF1E024912B
:1003A000E9E6F1E09491992309F46AC0442309F441
:1003B00054C050E0FA013197E231F10508F04DC028
:1003C0008827EE58FF4F8F4F97C7809180008F7717
:1003D00007C0809180008F7D03C080918000877F5F
:1003E000809380003AC084B58F7702C084B58F7D3A
:1003F00084BD33C08091B0008F7703C08091B0007E
:100400008F7D8093B00029C0809190008F7707C0C6
:10041000809190008F7D03C080919000877F8093B2
:1004200090001BC08091A0008F7707C08091A00032
:100430008F7D03C08091A000877F8093A0000DC0B6
:10044000309120013F7707C0309120013F7D03C0EC
:1004500030912001377F30932001E92FF0E0EE0F3B
:10046000FF1FEE5BFE4FA591B4918FB7F894EC910E
:10047000C11103C020952E2301C02E2B2C938FBFBA
:10048000CF910895CF92DF92EF92FF920F931F9337
:10049000CF93DF936C017A018B01C0E0D0E0CE15E1
:1004A000DF0589F0D8016D918D01D601ED91FC91A8
:1004B0000190F081E02DC6011995892B11F47E0180
:1004C00002C02196ECCFC701DF91CF911F910F9110
:1004D000FF90EF90DF90CF900895FC01918D828D79
:1004E000981761F0828DDF01A80FB11D5D968C9188
:1004F000928D9F5F9F73928F90E008958FEF9FEF93
:100500000895FC01918D828D981731F0828DE80F4E
:10051000F11D858D90E008958FEF9FEF0895FC0108
:10052000918D228D892F90E0805C9F4F821B9109D5
:100530008F739927089589E192E0F1DF21E0892BFB
:1005400009F420E0822F0895FC01848DDF01A80FBB
:10055000B11DA35ABF4F2C91848D90E001968F73EB
:100560009927848FA689B7892C93A089B1898C910A
:1005700080648C93938D848D981306C00288F389D0
:10058000E02D80818F7D80830895EF92FF920F93FD
:100590001F93CF93DF93EC0181E0888F9B8D8C8D2F
:1005A000981305C0E889F989808185FD23C0F62E5E
:1005B0000B8D10E00F5F1F4F0F731127E02E8C8DF6
:1005C000E8120BC00FB607FCFACFE889F9898081E1
:1005D00085FFF5CFCE01B8DFF2CF8B8DFE01E80F9E
:1005E000F11DE35AFF4FF0820B8FEA89FB8980816E
:1005F000806207C0EE89FF896083E889F98980817C
:100600008064808381E090E0DF91CF911F910F9112
:10061000FF90EF900895CF93DF93EC01888D8823AE
:10062000C1F0EA89FB89808185FD05C0A889B98967
:100630008C9186FD0EC00FB607FCF5CF808185FF3B
:10064000F2CFA889B9898C9185FFEDCFCE017CDFEF
:10065000E8CFDF91CF91089580E090E0892B19F0E9
:100660006ADF811125C080E090E0892B41F080E0B5
:1006700090E0892B21F00E94000081111CC080E0D5
:1006800090E0892B41F080E090E0892B21F00E94DE
:100690000000811113C080E090E0892BA1F080E080
:1006A00090E0892B81F00E94000081110AC008951A
:1006B0000E940000D8CF0E940000E1CF0E940000FD
:1006C000EACF0C94000008953FB7F894809115028A
:1006D00090911602A0911702B091180226B5A89B1E
:1006E00005C02F3F19F00196A11DB11D3FBFBA2FC4
:1006F000A92F982F8827820F911DA11DB11DBC0124
:10070000CD0142E0660F771F881F991F4A95D1F7E8
:10071000089587FF0DC09CE0980F923048F0982F05
:100720009B7F993F29F0803F08F4807F90E00895F7
:1007300080E090E008959C018F7C8038910561F005
:10074000203D310549F081E0203E310539F0203C63
:10075000310521F080E0089581E008950895DC01DD
:10076000ED91FC910190F081E02D1994CDD51F926F
:100770000F920FB60F9211240BB60F922F933F9347
:100780004F935F936F937F938F939F93AF93BF9399
:10079000EF93FF9389E192E0D7DEFF91EF91BF9154
:1007A000AF919F918F917F916F915F914F913F9109
:1007B0002F910F900BBE0F900FBE0F901F901895AA
:1007C0001F920F920FB60F9211240BB60F922F9318
:1007D0008F939F93EF93FF93E0912902F0912A0268
:1007E0008081E0912F02F091300282FD12C0908151
:1007F000809132028F5F8F7320913302821751F004
:10080000E0913202F0E0E75EFD4F958F8093320277
:1008100001C08081FF91EF919F918F912F910F9057
:100820000BBE0F900FBE0F901F9018951F920F9246
:100830000FB60F9211242F933F938F939F93AF93F3
:10084000BF938091110290911202A0911302B09176
:1008500014023091100223E0230F2D3720F401966B
:10086000A11DB11D05C026E8230F0296A11DB11DD3
:10087000209310028093110290931202A09313020E
:10088000B09314028091150290911602A091170264
:10089000B09118020196A11DB11D8093150290938D
:1008A0001602A0931702B0931802BF91AF919F91C7
:1008B0008F913F912F910F900FBE0F901F90189521
:1008C000A9E1B2E013961C921E92129748EE53E0F3
:1008D00060E070E014964D935D936D937C93179751
:1008E00084E092E011969C938E9385EC90E01D96A7
:1008F0009C938E931C9784EC90E01F969C938E9310
:100900001E9780EC90E051969C938E93509781ECCB
:1009100090E053969C938E93529782EC90E055967C
:100920009C938E93549786EC90E057969C938E936D
:10093000569759961C9259975A961C925A975B96BD
:100940001C925B975C961C925C97E6EBF2E0B0938E
:100950006C03A0936B0311821082138212821582A2
:1009600014821782168211861086138612861586C7
:10097000148617861686118A108A138A128A158A97
:10098000148A178A168A118E108E138E128E158E67
:10099000148E178E168E11A210A213A212A2089501
:1009A000789484B5826084BD84B5816084BD85B54A
:1009B000826085BD85B5816085BD80916E00816056
:1009C00080936E00109281008091810082608093FC
:1009D00081008091810081608093810080918000FE
:1009E0008160809380008091B10084608093B10029
:1009F0008091B00081608093B0008091910082600E
:100A0000809391008091910081608093910080910A
:100A100090008160809390008091A100826080931B
:100A2000A1008091A10081608093A1008091A0002D
:100A300081608093A00080912101826080932101D8
:100A4000809121018160809321018091200181604A
:100A50008093200180917A00846080937A00809155
:100A60007A00826080937A0080917A00816080931E
:100A70007A0080917A00806880937A001092C10099
:100A8000EFEAF1E02491E9E6F1E08491882399F01E
:100A900090E0880F991FFC01E85DFE4FA591B4918D
:100AA000FC01EE5BFE4F859194918FB7F894EC9129
:100AB000E22BEC938FBFE0916B03F0916C03A08964
:100AC000B18982E08C93A485B5851C92A685B785F3
:100AD0008FE38C93108EA489B58986E08C93A289CC
:100AE000B3898C9180618C93A289B3898C91886041
:100AF0008C93A289B3898C9180688C930288F38946
:100B0000E02D80818F7D808384E08093DD021092D0
:100B1000DC021092DB021092E4021092E3021092C7
:100B2000E2021092E10210926A031092E702109220
:100B3000E6021092E5021092E8021092E90280911A
:100B4000DA028170826081608093DA0257EF352E7D
:100B500063E0A62EB12CD0EF88248394912C809151
:100B6000DD02813108F0E0C180916B0390916C034C
:100B7000DC01ED91FC910480F581E02D1995892B24
:100B800009F4D2C180916B0390916C03DC01ED916B
:100B9000FC910680F781E02D19958C012091E302EC
:100BA0003091E4022115310509F0B4C08093DE02D2
:100BB000C091DB028C2FADDDBEDD882351F007FD37
:100BC00008C0C093DE020093DF029092E40280929C
:100BD000E302C091DE028C2F9CDD813F910509F478
:100BE00060C07CF5803B910509F462C06CF48039EB
:100BF000910509F45DC0803A910509F459C0803827
:100C0000910509F0E3C054C0803D910509F449C045
:100C10002CF4803C910509F444C0D8C0803E910575
:100C200009F446C0803F910509F0D0C020E830E0CB
:100C30003093E2022093E1021092DB02D093EA02A9
:100C40003BC0883F9105B9F044F4833F910549F1D9
:100C50007CF1863F910579F0B9C08A3F91050CF48B
:100C6000B5C08D3F91053CF09C012E5F31092230CB
:100C7000310508F0ABC09093E7028093E602109232
:100C8000E5021092E8021092E90281E080936A0383
:100C90001092E4021092E3021092E2021092E1023A
:100CA000F2C022E030E03093E2022093E10204C07F
:100CB000B092E202A092E1022091E3023091E402BC
:100CC0004091E1025091E202BA0161507109261788
:100CD000370708F4D1C09093E7028093E602CF7003
:100CE000CF5FC093E5028091DF028093E80243303A
:100CF000510529F48091E0028093E90202C010922C
:100D0000E9021092E4021092E3021092E2021092C1
:100D1000E10220C087FF44C0AC0155274D3F51057B
:100D200054F44A3F510564F4473F5105B9F0483F38
:100D30005105B1F505C0CA018E5F9109029780F592
:100D40005093E7024093E6021092E8021092E90203
:100D50001092E50281E080936A0395C08091EA02D7
:100D6000803FA1F5C9010196F901EA54FD4F34AA6B
:100D7000A0EFB0E0B093E702A093E6028093E80210
:100D80009093E9021092E50281E080936A03109249
:100D9000E4021092E3021092E2021092E10269C0B2
:100DA0008091DE02F901EA54FD4F803FD1F404AB9B
:100DB0006090E1027090E202C301019728173907A1
:100DC00008F45AC0C091DE02C03F69F41092E402F8
:100DD0001092E3021092E2021092E1021092DB0202
:100DE000A3C000A7E5CF8C2F94DC8C019093E70281
:100DF0008093E602A0DC882331F08C2F8F708F5F08
:100E00008093E50202C01092E5028091DF02809398
:100E1000E802B3E06B16710429F48091E00280933C
:100E2000E90202C01092E9021092E4021092E30279
:100E30001092E2021092E10281E080936A03003B8B
:100E40001105A1F054F40039110581F0003A1105A3
:100E500069F00038110569F409C0003D110531F051
:100E6000003E110519F0003C110519F4C093DB0296
:100E70000AC01092DB0207C02F5F3F4F3093E4029D
:100E80002093E30251C08091E6029091E7028039FD
:100E9000910529F48091E902882309F432C18091F7
:100EA000E6029091E702009709F040C0C0E040914F
:100EB000DA02842F817040FD4AC0CC23A9F181E081
:100EC00067DA21E04FE76AE280E990E00ADAFCDBCA
:100ED0006B017C0188EE482E83E0582E612C712C2A
:100EE000F3DBDC01CB018C199D09AE09BF09883EFB
:100EF0009340A105B10558F0B1E04B1A51086108C3
:100F0000710828EEC20E23E0D21EE11CF11C411430
:100F100051046104710421F721E040E06AE280E8B5
:100F200090E0DFD980E034DA97DB19CE9C012058BD
:100F300031092136310508F0EBC02091DD023091F6
:100F4000E502321709F4E4C02111B0CFE1C0942FBB
:100F50009E7F09F4B2CFA091E602B091E7029D0115
:100F6000205831092136310518F52091E50290917C
:100F7000DD02291719F081E0911180E0469550E0DB
:100F80004230510541F04330510549F0413051059F
:100F900009F093CF06C0882309F48FCF02C08111D6
:100FA0008CCF4091E9026091E802CD019AD985CFBA
:100FB000FD01E05FF109E031F10508F07ECF8827FF
:100FC000EC57FF4F8F4F98C1CD0163D976CF009179
:100FD000E90210E0102F00278091E802082B013869
:100FE000110510F000E810E0612C712C60167106FC
:100FF00009F484C080916B0390916C03DC01ED9146
:10100000FC91D301AA54BD4F0190F081E02DD496FC
:101010006C911995BFEF6B1A7B0AE8CF1091E8022B
:1010200080916B0390916C03DC01ED91FC91019038
:10103000F081E02D63EF19951F77612F70E08091AB
:101040006B0390916C038BDB59C00091E902B0E80F
:101050000B9F800111248091E802082B80916B0383
:1010600090916C03DC01ED91FC910190F081E02DF9
:1010700062EF199580916B0390916C03DC01ED9107
:10108000FC91B8016F7777270190F081E02D1995D9
:1010900080916B0390916C03DC01ED91FC91B801A0
:1010A000660F672F661F770B71956F777727019013
:1010B000F081E02D22C08091E8028770B0E18B9F23
:1010C000C00111241091E9021F70182B80916B034D
:1010D00090916C03DC01ED91FC910190F081E02D89
:1010E00061EF199580916B0390916C03DC01ED9198
:1010F000FC910190F081E02D612F19951092DC0296
:10110000DCCE80E890E09093E7028093E602C7CEC1
:10111000813F9105B1F5E091C602F091C7020CC084
:101120008B3F91050CF0C7C0833F910509F0A4C027
:10113000E091CA02F091CB02309709F18091E80268
:1011400019951DC0813D91050CF454C0803E910558
:1011500009F060C0E091C202F091C302309779F0CB
:101160006091E9026F7720E8629FB00111248091BD
:10117000E8028F77682B70528091E5021995C1E0E3
:1011800096CE823F91050CF061C0803B9105B1F491
:10119000E091BC02F091BD0207C08038910579F75B
:1011A000E091B602F091B702309749F34091E9021D
:1011B0006091E8028091E5021995E1CF813B9105AC
:1011C00084F48039910529F4E091B802F091B902D4
:1011D000EBCF803A910509F7E091BA02F091BB029A
:1011E000E3CF803D910509F0ADCFE091C002F091D1
:1011F000C10207C0803C910511F6E091BE02F0915A
:10120000BF02309709F4BBCF6091E8028091E502FC
:101210001995B5CF803F910509F0B1CFE091C40297
:10122000F091C502309709F4AACF6091E90270E00D
:10123000762F66278091E802682B6138710510F0DF
:1012400060E870E08AEE92E0199599CF8A3F9105A7
:1012500009F066CFE091D002F091D10208C0883F3A
:10126000910509F08CCFE091CE02F091CF0230973A
:1012700009F485CF199583CF833F9105A4F4E091BC
:10128000C802F091C902309709F479CF8091E90240
:101290008F7730E8839FC00111242091E8022F77D7
:1012A000822B19956CCF863F9105C9F6E091CC024F
:1012B000F091CD02DCCF8C3F910529F4E091D4026E
:1012C000F091D502D4CF8C3F91052CF4E091D2025D
:1012D000F091D302CCCF8E3F910529F4E091D60254
:1012E000F091D702C4CF8F3F910509F048CFE0912C
:1012F000D802F091D902BBCFEE0FFF1F881F8BBF22
:101300000790F691E02D199481E090E0F89400C0E8
:04131000F894FFCF7F
:1013140000000000C50242028F026D0281020B032D
:00000001FF
